{
  "transactions": [
    {
      "hash": "0xce3a3f237dd2a94d502269cccb69dc6d9bf21317dc33c8209d49abf290746e53",
      "transactionType": "CALL",
      "contractName": null,
      "contractAddress": "0xd47c56513e640e394024facbbe5032cf604bb699",
      "function": "setBadgesAndTiers((uint256,string)[],(uint256,uint256,string,uint256)[])",
      "arguments": [
        "[(23, ipfs/QmVo7GeiBeMqWTR4Dj62DEaDtAh2TpGkhm5VJQ1oC8W9nc/00000000000000000000000000000000000000000000000000000000000000230000000000000000000000000000000000000000000000000000000000000000.json)]",
        "[(23, 1, ipfs/QmVo7GeiBeMqWTR4Dj62DEaDtAh2TpGkhm5VJQ1oC8W9nc/00000000000000000000000000000000000000000000000000000000000000230000000000000000000000000000000000000000000000000000000000000001.json, 50), (23, 2, ipfs/QmVo7GeiBeMqWTR4Dj62DEaDtAh2TpGkhm5VJQ1oC8W9nc/00000000000000000000000000000000000000000000000000000000000000230000000000000000000000000000000000000000000000000000000000000002.json, 100)]"
      ],
      "transaction": {
        "from": "0x8835669696fb92839ab198cd80ce9f0d35f45ad5",
        "to": "0xd47c56513e640e394024facbbe5032cf604bb699",
        "gas": "0xd5f16",
        "value": "0x0",
        "input": "0x54618664000000000000000000000000000000000000000000000000000000000000004000000000000000000000000000000000000000000000000000000000000001a0000000000000000000000000000000000000000000000000000000000000000100000000000000000000000000000000000000000000000000000000000000200000000000000000000000000000000000000000000000000000000000000017000000000000000000000000000000000000000000000000000000000000004000000000000000000000000000000000000000000000000000000000000000b9697066732f516d566f3747656942654d7157545234446a363244456144744168325470476b686d35564a51316f433857396e632f30303030303030303030303030303030303030303030303030303030303030303030303030303030303030303030303030303030303030303030303030303233303030303030303030303030303030303030303030303030303030303030303030303030303030303030303030303030303030303030303030303030303030302e6a736f6e000000000000000000000000000000000000000000000000000000000000000000000000000002000000000000000000000000000000000000000000000000000000000000004000000000000000000000000000000000000000000000000000000000000001a0000000000000000000000000000000000000000000000000000000000000001700000000000000000000000000000000000000000000000000000000000000010000000000000000000000000000000000000000000000000000000000000080000000000000000000000000000000000000000000000000000000000000003200000000000000000000000000000000000000000000000000000000000000b9697066732f516d566f3747656942654d7157545234446a363244456144744168325470476b686d35564a51316f433857396e632f30303030303030303030303030303030303030303030303030303030303030303030303030303030303030303030303030303030303030303030303030303233303030303030303030303030303030303030303030303030303030303030303030303030303030303030303030303030303030303030303030303030303030312e6a736f6e00000000000000000000000000000000000000000000000000000000000000000000000000001700000000000000000000000000000000000000000000000000000000000000020000000000000000000000000000000000000000000000000000000000000080000000000000000000000000000000000000000000000000000000000000006400000000000000000000000000000000000000000000000000000000000000b9697066732f516d566f3747656942654d7157545234446a363244456144744168325470476b686d35564a51316f433857396e632f30303030303030303030303030303030303030303030303030303030303030303030303030303030303030303030303030303030303030303030303030303233303030303030303030303030303030303030303030303030303030303030303030303030303030303030303030303030303030303030303030303030303030322e6a736f6e00000000000000",
        "nonce": "0x63a",
        "chainId": "0xa4ec"
      },
      "additionalContracts": [],
      "isFixedGasLimit": false
    }
  ],
  "receipts": [
    {
      "status": "0x1",
      "cumulativeGasUsed": "0xb6caa",
      "logs": [
        {
          "address": "0xd47c56513e640e394024facbbe5032cf604bb699",
          "topics": [
            "0x2e5977e12fac9a91696e22ba811f2893e11ad62f8aa53e99a628b031d18a379f",
            "0x0000000000000000000000000000000000000000000000000000000000000017"
          ],
          "data": "0x000000000000000000000000000000000000000000000000000000000000002000000000000000000000000000000000000000000000000000000000000000b9697066732f516d566f3747656942654d7157545234446a363244456144744168325470476b686d35564a51316f433857396e632f30303030303030303030303030303030303030303030303030303030303030303030303030303030303030303030303030303030303030303030303030303233303030303030303030303030303030303030303030303030303030303030303030303030303030303030303030303030303030303030303030303030303030302e6a736f6e00000000000000",
          "blockHash": "0x67be7f3dd0d07e5972b06393c0fe3098bff6f6e63e41a5c225a9fd0bc91ad2b2",
          "blockNumber": "0x287b336",
          "transactionHash": "0xce3a3f237dd2a94d502269cccb69dc6d9bf21317dc33c8209d49abf290746e53",
          "transactionIndex": "0x2",
          "logIndex": "0x5",
          "removed": false
        },
        {
          "address": "0xd47c56513e640e394024facbbe5032cf604bb699",
          "topics": [
            "0x5625f15df4cbadf2e6e3f80e2406aec5d99a432335ef0e9a1fba9e48b0558303",
            "0x0000000000000000000000000000000000000000000000000000000000000017"
          ],
          "data": "0x00000000000000000000000000000000000000000000000000000000000000010000000000000000000000000000000000000000000000000000000000000060000000000000000000000000000000000000000000000000000000000000003200000000000000000000000000000000000000000000000000000000000000b9697066732f516d566f3747656942654d7157545234446a363244456144744168325470476b686d35564a51316f433857396e632f30303030303030303030303030303030303030303030303030303030303030303030303030303030303030303030303030303030303030303030303030303233303030303030303030303030303030303030303030303030303030303030303030303030303030303030303030303030303030303030303030303030303030312e6a736f6e00000000000000",
          "blockHash": "0x67be7f3dd0d07e5972b06393c0fe3098bff6f6e63e41a5c225a9fd0bc91ad2b2",
          "blockNumber": "0x287b336",
          "transactionHash": "0xce3a3f237dd2a94d502269cccb69dc6d9bf21317dc33c8209d49abf290746e53",
          "transactionIndex": "0x2",
          "logIndex": "0x6",
          "removed": false
        },
        {
          "address": "0xd47c56513e640e394024facbbe5032cf604bb699",
          "topics": [
            "0x5625f15df4cbadf2e6e3f80e2406aec5d99a432335ef0e9a1fba9e48b0558303",
            "0x0000000000000000000000000000000000000000000000000000000000000017"
          ],
          "data": "0x00000000000000000000000000000000000000000000000000000000000000020000000000000000000000000000000000000000000000000000000000000060000000000000000000000000000000000000000000000000000000000000006400000000000000000000000000000000000000000000000000000000000000b9697066732f516d566f3747656942654d7157545234446a363244456144744168325470476b686d35564a51316f433857396e632f30303030303030303030303030303030303030303030303030303030303030303030303030303030303030303030303030303030303030303030303030303233303030303030303030303030303030303030303030303030303030303030303030303030303030303030303030303030303030303030303030303030303030322e6a736f6e00000000000000",
          "blockHash": "0x67be7f3dd0d07e5972b06393c0fe3098bff6f6e63e41a5c225a9fd0bc91ad2b2",
          "blockNumber": "0x287b336",
          "transactionHash": "0xce3a3f237dd2a94d502269cccb69dc6d9bf21317dc33c8209d49abf290746e53",
          "transactionIndex": "0x2",
          "logIndex": "0x7",
          "removed": false
        }
      ],
      "logsBloom": "0x00000000000000000000000000000000000000000000000000000000000000000000000000000000000000000000000000001000000000000000001000000000000000000000000000000000000000004200000000000000000000000000000000040000000000000000000000000000000000000000000000000000000004000000000000000000000000000000000000000000000000000000000000000000000000000000000000000000000000000000000000000100000000000000000000000000000000000000004000000000000000000000000000000000400000000000000000000000000200000000000000000000010000000000000000080000",
      "type": "0x0",
      "transactionHash": "0xce3a3f237dd2a94d502269cccb69dc6d9bf21317dc33c8209d49abf290746e53",
      "transactionIndex": "0x2",
      "blockHash": "0x67be7f3dd0d07e5972b06393c0fe3098bff6f6e63e41a5c225a9fd0bc91ad2b2",
      "blockNumber": "0x287b336",
      "gasUsed": "0x92493",
      "effectiveGasPrice": "0x5d22cfc40",
      "from": "0x8835669696fb92839ab198cd80ce9f0d35f45ad5",
      "to": "0xd47c56513e640e394024facbbe5032cf604bb699",
      "contractAddress": null,
      "l1BaseFeeScalar": "0x0",
      "l1BlobBaseFee": "0x1",
      "l1BlobBaseFeeScalar": "0x0",
      "l1Fee": "0x0",
      "l1GasPrice": "0xb549d1e",
      "l1GasUsed": "0xcb5"
    }
  ],
  "libraries": [],
  "pending": [],
  "returns": {
    "0": {
      "internal_type": "address",
      "value": "0x0000000000000000000000000000000000000000"
    }
  },
  "timestamp": 1754348427,
  "chain": 42220,
  "commit": "6a335f1"
}