{
  "transactions": [
    {
      "hash": "0xf6ff472beb754983e3fc5c1fb56da80d540581bb53cfd43c813f6b25210137fa",
      "transactionType": "CALL",
      "contractName": null,
      "contractAddress": "0xd47c56513e640e394024facbbe5032cf604bb699",
      "function": "setBadgesAndTiers((uint256,string)[],(uint256,uint256,string,uint256)[])",
      "arguments": [
        "[(22, ipfs/QmUjuRH4BDN6syKyYWyJkLX7CvbHSWHxXZy76uVDSNiiU9/00000000000000000000000000000000000000000000000000000000000000220000000000000000000000000000000000000000000000000000000000000000.json)]",
        "[(22, 1, ipfs/QmUjuRH4BDN6syKyYWyJkLX7CvbHSWHxXZy76uVDSNiiU9/00000000000000000000000000000000000000000000000000000000000000220000000000000000000000000000000000000000000000000000000000000001.json, 20), (22, 2, ipfs/QmUjuRH4BDN6syKyYWyJkLX7CvbHSWHxXZy76uVDSNiiU9/00000000000000000000000000000000000000000000000000000000000000220000000000000000000000000000000000000000000000000000000000000002.json, 40), (22, 3, ipfs/QmUjuRH4BDN6syKyYWyJkLX7CvbHSWHxXZy76uVDSNiiU9/00000000000000000000000000000000000000000000000000000000000000220000000000000000000000000000000000000000000000000000000000000003.json, 60), (22, 4, ipfs/QmUjuRH4BDN6syKyYWyJkLX7CvbHSWHxXZy76uVDSNiiU9/00000000000000000000000000000000000000000000000000000000000000220000000000000000000000000000000000000000000000000000000000000004.json, 80), (22, 5, ipfs/QmUjuRH4BDN6syKyYWyJkLX7CvbHSWHxXZy76uVDSNiiU9/00000000000000000000000000000000000000000000000000000000000000220000000000000000000000000000000000000000000000000000000000000005.json, 100)]"
      ],
      "transaction": {
        "from": "0x8835669696fb92839ab198cd80ce9f0d35f45ad5",
        "to": "0xd47c56513e640e394024facbbe5032cf604bb699",
        "gas": "0x1a256b",
        "value": "0x0",
        "input": "0x54618664000000000000000000000000000000000000000000000000000000000000004000000000000000000000000000000000000000000000000000000000000001a0000000000000000000000000000000000000000000000000000000000000000100000000000000000000000000000000000000000000000000000000000000200000000000000000000000000000000000000000000000000000000000000016000000000000000000000000000000000000000000000000000000000000004000000000000000000000000000000000000000000000000000000000000000b9697066732f516d556a7552483442444e3673794b795957794a6b4c58374376624853574878585a793736755644534e696955392f30303030303030303030303030303030303030303030303030303030303030303030303030303030303030303030303030303030303030303030303030303232303030303030303030303030303030303030303030303030303030303030303030303030303030303030303030303030303030303030303030303030303030302e6a736f6e00000000000000000000000000000000000000000000000000000000000000000000000000000500000000000000000000000000000000000000000000000000000000000000a00000000000000000000000000000000000000000000000000000000000000200000000000000000000000000000000000000000000000000000000000000036000000000000000000000000000000000000000000000000000000000000004c00000000000000000000000000000000000000000000000000000000000000620000000000000000000000000000000000000000000000000000000000000001600000000000000000000000000000000000000000000000000000000000000010000000000000000000000000000000000000000000000000000000000000080000000000000000000000000000000000000000000000000000000000000001400000000000000000000000000000000000000000000000000000000000000b9697066732f516d556a7552483442444e3673794b795957794a6b4c58374376624853574878585a793736755644534e696955392f30303030303030303030303030303030303030303030303030303030303030303030303030303030303030303030303030303030303030303030303030303232303030303030303030303030303030303030303030303030303030303030303030303030303030303030303030303030303030303030303030303030303030312e6a736f6e00000000000000000000000000000000000000000000000000000000000000000000000000001600000000000000000000000000000000000000000000000000000000000000020000000000000000000000000000000000000000000000000000000000000080000000000000000000000000000000000000000000000000000000000000002800000000000000000000000000000000000000000000000000000000000000b9697066732f516d556a7552483442444e3673794b795957794a6b4c58374376624853574878585a793736755644534e696955392f30303030303030303030303030303030303030303030303030303030303030303030303030303030303030303030303030303030303030303030303030303232303030303030303030303030303030303030303030303030303030303030303030303030303030303030303030303030303030303030303030303030303030322e6a736f6e00000000000000000000000000000000000000000000000000000000000000000000000000001600000000000000000000000000000000000000000000000000000000000000030000000000000000000000000000000000000000000000000000000000000080000000000000000000000000000000000000000000000000000000000000003c00000000000000000000000000000000000000000000000000000000000000b9697066732f516d556a7552483442444e3673794b795957794a6b4c58374376624853574878585a793736755644534e696955392f30303030303030303030303030303030303030303030303030303030303030303030303030303030303030303030303030303030303030303030303030303232303030303030303030303030303030303030303030303030303030303030303030303030303030303030303030303030303030303030303030303030303030332e6a736f6e00000000000000000000000000000000000000000000000000000000000000000000000000001600000000000000000000000000000000000000000000000000000000000000040000000000000000000000000000000000000000000000000000000000000080000000000000000000000000000000000000000000000000000000000000005000000000000000000000000000000000000000000000000000000000000000b9697066732f516d556a7552483442444e3673794b795957794a6b4c58374376624853574878585a793736755644534e696955392f30303030303030303030303030303030303030303030303030303030303030303030303030303030303030303030303030303030303030303030303030303232303030303030303030303030303030303030303030303030303030303030303030303030303030303030303030303030303030303030303030303030303030342e6a736f6e00000000000000000000000000000000000000000000000000000000000000000000000000001600000000000000000000000000000000000000000000000000000000000000050000000000000000000000000000000000000000000000000000000000000080000000000000000000000000000000000000000000000000000000000000006400000000000000000000000000000000000000000000000000000000000000b9697066732f516d556a7552483442444e3673794b795957794a6b4c58374376624853574878585a793736755644534e696955392f30303030303030303030303030303030303030303030303030303030303030303030303030303030303030303030303030303030303030303030303030303232303030303030303030303030303030303030303030303030303030303030303030303030303030303030303030303030303030303030303030303030303030352e6a736f6e00000000000000",
        "nonce": "0x5d5",
        "chainId": "0xa4ec"
      },
      "additionalContracts": [],
      "isFixedGasLimit": false
    }
  ],
  "receipts": [
    {
      "status": "0x1",
      "cumulativeGasUsed": "0x3ff159",
      "logs": [
        {
          "address": "0xd47c56513e640e394024facbbe5032cf604bb699",
          "topics": [
            "0x2e5977e12fac9a91696e22ba811f2893e11ad62f8aa53e99a628b031d18a379f",
            "0x0000000000000000000000000000000000000000000000000000000000000016"
          ],
          "data": "0x000000000000000000000000000000000000000000000000000000000000002000000000000000000000000000000000000000000000000000000000000000b9697066732f516d556a7552483442444e3673794b795957794a6b4c58374376624853574878585a793736755644534e696955392f30303030303030303030303030303030303030303030303030303030303030303030303030303030303030303030303030303030303030303030303030303232303030303030303030303030303030303030303030303030303030303030303030303030303030303030303030303030303030303030303030303030303030302e6a736f6e00000000000000",
          "blockHash": "0x1fbdfbc9ea487963032eed16929f4f6d02d654824ede1a8b1ff3e8a58fe39abf",
          "blockNumber": "0x28195ab",
          "transactionHash": "0xf6ff472beb754983e3fc5c1fb56da80d540581bb53cfd43c813f6b25210137fa",
          "transactionIndex": "0xb",
          "logIndex": "0xf8",
          "removed": false
        },
        {
          "address": "0xd47c56513e640e394024facbbe5032cf604bb699",
          "topics": [
            "0x5625f15df4cbadf2e6e3f80e2406aec5d99a432335ef0e9a1fba9e48b0558303",
            "0x0000000000000000000000000000000000000000000000000000000000000016"
          ],
          "data": "0x00000000000000000000000000000000000000000000000000000000000000010000000000000000000000000000000000000000000000000000000000000060000000000000000000000000000000000000000000000000000000000000001400000000000000000000000000000000000000000000000000000000000000b9697066732f516d556a7552483442444e3673794b795957794a6b4c58374376624853574878585a793736755644534e696955392f30303030303030303030303030303030303030303030303030303030303030303030303030303030303030303030303030303030303030303030303030303232303030303030303030303030303030303030303030303030303030303030303030303030303030303030303030303030303030303030303030303030303030312e6a736f6e00000000000000",
          "blockHash": "0x1fbdfbc9ea487963032eed16929f4f6d02d654824ede1a8b1ff3e8a58fe39abf",
          "blockNumber": "0x28195ab",
          "transactionHash": "0xf6ff472beb754983e3fc5c1fb56da80d540581bb53cfd43c813f6b25210137fa",
          "transactionIndex": "0xb",
          "logIndex": "0xf9",
          "removed": false
        },
        {
          "address": "0xd47c56513e640e394024facbbe5032cf604bb699",
          "topics": [
            "0x5625f15df4cbadf2e6e3f80e2406aec5d99a432335ef0e9a1fba9e48b0558303",
            "0x0000000000000000000000000000000000000000000000000000000000000016"
          ],
          "data": "0x00000000000000000000000000000000000000000000000000000000000000020000000000000000000000000000000000000000000000000000000000000060000000000000000000000000000000000000000000000000000000000000002800000000000000000000000000000000000000000000000000000000000000b9697066732f516d556a7552483442444e3673794b795957794a6b4c58374376624853574878585a793736755644534e696955392f30303030303030303030303030303030303030303030303030303030303030303030303030303030303030303030303030303030303030303030303030303232303030303030303030303030303030303030303030303030303030303030303030303030303030303030303030303030303030303030303030303030303030322e6a736f6e00000000000000",
          "blockHash": "0x1fbdfbc9ea487963032eed16929f4f6d02d654824ede1a8b1ff3e8a58fe39abf",
          "blockNumber": "0x28195ab",
          "transactionHash": "0xf6ff472beb754983e3fc5c1fb56da80d540581bb53cfd43c813f6b25210137fa",
          "transactionIndex": "0xb",
          "logIndex": "0xfa",
          "removed": false
        },
        {
          "address": "0xd47c56513e640e394024facbbe5032cf604bb699",
          "topics": [
            "0x5625f15df4cbadf2e6e3f80e2406aec5d99a432335ef0e9a1fba9e48b0558303",
            "0x0000000000000000000000000000000000000000000000000000000000000016"
          ],
          "data": "0x00000000000000000000000000000000000000000000000000000000000000030000000000000000000000000000000000000000000000000000000000000060000000000000000000000000000000000000000000000000000000000000003c00000000000000000000000000000000000000000000000000000000000000b9697066732f516d556a7552483442444e3673794b795957794a6b4c58374376624853574878585a793736755644534e696955392f30303030303030303030303030303030303030303030303030303030303030303030303030303030303030303030303030303030303030303030303030303232303030303030303030303030303030303030303030303030303030303030303030303030303030303030303030303030303030303030303030303030303030332e6a736f6e00000000000000",
          "blockHash": "0x1fbdfbc9ea487963032eed16929f4f6d02d654824ede1a8b1ff3e8a58fe39abf",
          "blockNumber": "0x28195ab",
          "transactionHash": "0xf6ff472beb754983e3fc5c1fb56da80d540581bb53cfd43c813f6b25210137fa",
          "transactionIndex": "0xb",
          "logIndex": "0xfb",
          "removed": false
        },
        {
          "address": "0xd47c56513e640e394024facbbe5032cf604bb699",
          "topics": [
            "0x5625f15df4cbadf2e6e3f80e2406aec5d99a432335ef0e9a1fba9e48b0558303",
            "0x0000000000000000000000000000000000000000000000000000000000000016"
          ],
          "data": "0x00000000000000000000000000000000000000000000000000000000000000040000000000000000000000000000000000000000000000000000000000000060000000000000000000000000000000000000000000000000000000000000005000000000000000000000000000000000000000000000000000000000000000b9697066732f516d556a7552483442444e3673794b795957794a6b4c58374376624853574878585a793736755644534e696955392f30303030303030303030303030303030303030303030303030303030303030303030303030303030303030303030303030303030303030303030303030303232303030303030303030303030303030303030303030303030303030303030303030303030303030303030303030303030303030303030303030303030303030342e6a736f6e00000000000000",
          "blockHash": "0x1fbdfbc9ea487963032eed16929f4f6d02d654824ede1a8b1ff3e8a58fe39abf",
          "blockNumber": "0x28195ab",
          "transactionHash": "0xf6ff472beb754983e3fc5c1fb56da80d540581bb53cfd43c813f6b25210137fa",
          "transactionIndex": "0xb",
          "logIndex": "0xfc",
          "removed": false
        },
        {
          "address": "0xd47c56513e640e394024facbbe5032cf604bb699",
          "topics": [
            "0x5625f15df4cbadf2e6e3f80e2406aec5d99a432335ef0e9a1fba9e48b0558303",
            "0x0000000000000000000000000000000000000000000000000000000000000016"
          ],
          "data": "0x00000000000000000000000000000000000000000000000000000000000000050000000000000000000000000000000000000000000000000000000000000060000000000000000000000000000000000000000000000000000000000000006400000000000000000000000000000000000000000000000000000000000000b9697066732f516d556a7552483442444e3673794b795957794a6b4c58374376624853574878585a793736755644534e696955392f30303030303030303030303030303030303030303030303030303030303030303030303030303030303030303030303030303030303030303030303030303232303030303030303030303030303030303030303030303030303030303030303030303030303030303030303030303030303030303030303030303030303030352e6a736f6e00000000000000",
          "blockHash": "0x1fbdfbc9ea487963032eed16929f4f6d02d654824ede1a8b1ff3e8a58fe39abf",
          "blockNumber": "0x28195ab",
          "transactionHash": "0xf6ff472beb754983e3fc5c1fb56da80d540581bb53cfd43c813f6b25210137fa",
          "transactionIndex": "0xb",
          "logIndex": "0xfd",
          "removed": false
        }
      ],
      "logsBloom": "0x00000000000000000000000000000000000000000000000000000000000000000000000000000000000000000000000000000000000000000000000000000000000000000000000800000000000000004200000000000000000000000000000000040000000000000000000000000000200000000000000000000000000004000000000000000000000000000000000000000000000000000000000000000000000000000000000000000000000000000000000000000100000000000000000000000000000000000000004000000000000000000000000000000000400000000000000000000000000200000000000000000000010000000008000000000000",
      "type": "0x0",
      "transactionHash": "0xf6ff472beb754983e3fc5c1fb56da80d540581bb53cfd43c813f6b25210137fa",
      "transactionIndex": "0xb",
      "blockHash": "0x1fbdfbc9ea487963032eed16929f4f6d02d654824ede1a8b1ff3e8a58fe39abf",
      "blockNumber": "0x28195ab",
      "gasUsed": "0x11e0b3",
      "effectiveGasPrice": "0x5d22cfc40",
      "from": "0x8835669696fb92839ab198cd80ce9f0d35f45ad5",
      "to": "0xd47c56513e640e394024facbbe5032cf604bb699",
      "contractAddress": null,
      "l1BaseFeeScalar": "0x0",
      "l1BlobBaseFee": "0x1",
      "l1BlobBaseFeeScalar": "0x0",
      "l1Fee": "0x0",
      "l1GasPrice": "0x8dce6d3f",
      "l1GasUsed": "0x116a"
    }
  ],
  "libraries": [],
  "pending": [],
  "returns": {
    "0": {
      "internal_type": "address",
      "value": "0x0000000000000000000000000000000000000000"
    }
  },
  "timestamp": 1753947647,
  "chain": 42220,
  "commit": "161e23f"
}