{
  "transactions": [
    {
      "hash": "0x00630a6b380c4b0eff4a65fedb1e62c35eae03d6fd50144ea3776cd4eaa632d2",
      "transactionType": "CALL",
      "contractName": null,
      "contractAddress": "0xd47c56513e640e394024facbbe5032cf604bb699",
      "function": "setBadgesAndTiers((uint256,string)[],(uint256,uint256,string,uint256)[])",
      "arguments": [
        "[(13, ipfs/QmQ6jEqeqs4hzWYPJBFjdfJwomHo4MYYLjziwCEdWiN22Q/00000000000000000000000000000000000000000000000000000000000000130000000000000000000000000000000000000000000000000000000000000000.json)]",
        "[(13, 1, ipfs/QmQ6jEqeqs4hzWYPJBFjdfJwomHo4MYYLjziwCEdWiN22Q/00000000000000000000000000000000000000000000000000000000000000130000000000000000000000000000000000000000000000000000000000000001.json, 10), (13, 2, ipfs/QmQ6jEqeqs4hzWYPJBFjdfJwomHo4MYYLjziwCEdWiN22Q/00000000000000000000000000000000000000000000000000000000000000130000000000000000000000000000000000000000000000000000000000000002.json, 20), (13, 3, ipfs/QmQ6jEqeqs4hzWYPJBFjdfJwomHo4MYYLjziwCEdWiN22Q/00000000000000000000000000000000000000000000000000000000000000130000000000000000000000000000000000000000000000000000000000000003.json, 30), (13, 4, ipfs/QmQ6jEqeqs4hzWYPJBFjdfJwomHo4MYYLjziwCEdWiN22Q/00000000000000000000000000000000000000000000000000000000000000130000000000000000000000000000000000000000000000000000000000000004.json, 40), (13, 5, ipfs/QmQ6jEqeqs4hzWYPJBFjdfJwomHo4MYYLjziwCEdWiN22Q/00000000000000000000000000000000000000000000000000000000000000130000000000000000000000000000000000000000000000000000000000000005.json, 50)]"
      ],
      "transaction": {
        "from": "0x8835669696fb92839ab198cd80ce9f0d35f45ad5",
        "to": "0xd47c56513e640e394024facbbe5032cf604bb699",
        "gas": "0x19e76f",
        "value": "0x0",
        "input": "0x54618664000000000000000000000000000000000000000000000000000000000000004000000000000000000000000000000000000000000000000000000000000001a000000000000000000000000000000000000000000000000000000000000000010000000000000000000000000000000000000000000000000000000000000020000000000000000000000000000000000000000000000000000000000000000d000000000000000000000000000000000000000000000000000000000000004000000000000000000000000000000000000000000000000000000000000000b9697066732f516d51366a457165717334687a5759504a42466a64664a776f6d486f344d59594c6a7a697743456457694e3232512f30303030303030303030303030303030303030303030303030303030303030303030303030303030303030303030303030303030303030303030303030303133303030303030303030303030303030303030303030303030303030303030303030303030303030303030303030303030303030303030303030303030303030302e6a736f6e00000000000000000000000000000000000000000000000000000000000000000000000000000500000000000000000000000000000000000000000000000000000000000000a00000000000000000000000000000000000000000000000000000000000000200000000000000000000000000000000000000000000000000000000000000036000000000000000000000000000000000000000000000000000000000000004c00000000000000000000000000000000000000000000000000000000000000620000000000000000000000000000000000000000000000000000000000000000d00000000000000000000000000000000000000000000000000000000000000010000000000000000000000000000000000000000000000000000000000000080000000000000000000000000000000000000000000000000000000000000000a00000000000000000000000000000000000000000000000000000000000000b9697066732f516d51366a457165717334687a5759504a42466a64664a776f6d486f344d59594c6a7a697743456457694e3232512f30303030303030303030303030303030303030303030303030303030303030303030303030303030303030303030303030303030303030303030303030303133303030303030303030303030303030303030303030303030303030303030303030303030303030303030303030303030303030303030303030303030303030312e6a736f6e00000000000000000000000000000000000000000000000000000000000000000000000000000d00000000000000000000000000000000000000000000000000000000000000020000000000000000000000000000000000000000000000000000000000000080000000000000000000000000000000000000000000000000000000000000001400000000000000000000000000000000000000000000000000000000000000b9697066732f516d51366a457165717334687a5759504a42466a64664a776f6d486f344d59594c6a7a697743456457694e3232512f30303030303030303030303030303030303030303030303030303030303030303030303030303030303030303030303030303030303030303030303030303133303030303030303030303030303030303030303030303030303030303030303030303030303030303030303030303030303030303030303030303030303030322e6a736f6e00000000000000000000000000000000000000000000000000000000000000000000000000000d00000000000000000000000000000000000000000000000000000000000000030000000000000000000000000000000000000000000000000000000000000080000000000000000000000000000000000000000000000000000000000000001e00000000000000000000000000000000000000000000000000000000000000b9697066732f516d51366a457165717334687a5759504a42466a64664a776f6d486f344d59594c6a7a697743456457694e3232512f30303030303030303030303030303030303030303030303030303030303030303030303030303030303030303030303030303030303030303030303030303133303030303030303030303030303030303030303030303030303030303030303030303030303030303030303030303030303030303030303030303030303030332e6a736f6e00000000000000000000000000000000000000000000000000000000000000000000000000000d00000000000000000000000000000000000000000000000000000000000000040000000000000000000000000000000000000000000000000000000000000080000000000000000000000000000000000000000000000000000000000000002800000000000000000000000000000000000000000000000000000000000000b9697066732f516d51366a457165717334687a5759504a42466a64664a776f6d486f344d59594c6a7a697743456457694e3232512f30303030303030303030303030303030303030303030303030303030303030303030303030303030303030303030303030303030303030303030303030303133303030303030303030303030303030303030303030303030303030303030303030303030303030303030303030303030303030303030303030303030303030342e6a736f6e00000000000000000000000000000000000000000000000000000000000000000000000000000d00000000000000000000000000000000000000000000000000000000000000050000000000000000000000000000000000000000000000000000000000000080000000000000000000000000000000000000000000000000000000000000003200000000000000000000000000000000000000000000000000000000000000b9697066732f516d51366a457165717334687a5759504a42466a64664a776f6d486f344d59594c6a7a697743456457694e3232512f30303030303030303030303030303030303030303030303030303030303030303030303030303030303030303030303030303030303030303030303030303133303030303030303030303030303030303030303030303030303030303030303030303030303030303030303030303030303030303030303030303030303030352e6a736f6e00000000000000",
        "nonce": "0x18",
        "chainId": "0xa4ec"
      },
      "additionalContracts": [],
      "isFixedGasLimit": false
    }
  ],
  "receipts": [
    {
      "status": "0x1",
      "cumulativeGasUsed": "0x5b776a",
      "logs": [
        {
          "address": "0xd47c56513e640e394024facbbe5032cf604bb699",
          "topics": [
            "0x2e5977e12fac9a91696e22ba811f2893e11ad62f8aa53e99a628b031d18a379f",
            "0x000000000000000000000000000000000000000000000000000000000000000d"
          ],
          "data": "0x000000000000000000000000000000000000000000000000000000000000002000000000000000000000000000000000000000000000000000000000000000b9697066732f516d51366a457165717334687a5759504a42466a64664a776f6d486f344d59594c6a7a697743456457694e3232512f30303030303030303030303030303030303030303030303030303030303030303030303030303030303030303030303030303030303030303030303030303133303030303030303030303030303030303030303030303030303030303030303030303030303030303030303030303030303030303030303030303030303030302e6a736f6e00000000000000",
          "blockHash": "0x7ec2ba5b7ab0afe18574fa92b8240a08aae1f973953b6bf472a15fda3c2714f4",
          "blockNumber": "0x1cb934a",
          "transactionHash": "0x00630a6b380c4b0eff4a65fedb1e62c35eae03d6fd50144ea3776cd4eaa632d2",
          "transactionIndex": "0x25",
          "logIndex": "0x90",
          "removed": false
        },
        {
          "address": "0xd47c56513e640e394024facbbe5032cf604bb699",
          "topics": [
            "0x5625f15df4cbadf2e6e3f80e2406aec5d99a432335ef0e9a1fba9e48b0558303",
            "0x000000000000000000000000000000000000000000000000000000000000000d"
          ],
          "data": "0x00000000000000000000000000000000000000000000000000000000000000010000000000000000000000000000000000000000000000000000000000000060000000000000000000000000000000000000000000000000000000000000000a00000000000000000000000000000000000000000000000000000000000000b9697066732f516d51366a457165717334687a5759504a42466a64664a776f6d486f344d59594c6a7a697743456457694e3232512f30303030303030303030303030303030303030303030303030303030303030303030303030303030303030303030303030303030303030303030303030303133303030303030303030303030303030303030303030303030303030303030303030303030303030303030303030303030303030303030303030303030303030312e6a736f6e00000000000000",
          "blockHash": "0x7ec2ba5b7ab0afe18574fa92b8240a08aae1f973953b6bf472a15fda3c2714f4",
          "blockNumber": "0x1cb934a",
          "transactionHash": "0x00630a6b380c4b0eff4a65fedb1e62c35eae03d6fd50144ea3776cd4eaa632d2",
          "transactionIndex": "0x25",
          "logIndex": "0x91",
          "removed": false
        },
        {
          "address": "0xd47c56513e640e394024facbbe5032cf604bb699",
          "topics": [
            "0x5625f15df4cbadf2e6e3f80e2406aec5d99a432335ef0e9a1fba9e48b0558303",
            "0x000000000000000000000000000000000000000000000000000000000000000d"
          ],
          "data": "0x00000000000000000000000000000000000000000000000000000000000000020000000000000000000000000000000000000000000000000000000000000060000000000000000000000000000000000000000000000000000000000000001400000000000000000000000000000000000000000000000000000000000000b9697066732f516d51366a457165717334687a5759504a42466a64664a776f6d486f344d59594c6a7a697743456457694e3232512f30303030303030303030303030303030303030303030303030303030303030303030303030303030303030303030303030303030303030303030303030303133303030303030303030303030303030303030303030303030303030303030303030303030303030303030303030303030303030303030303030303030303030322e6a736f6e00000000000000",
          "blockHash": "0x7ec2ba5b7ab0afe18574fa92b8240a08aae1f973953b6bf472a15fda3c2714f4",
          "blockNumber": "0x1cb934a",
          "transactionHash": "0x00630a6b380c4b0eff4a65fedb1e62c35eae03d6fd50144ea3776cd4eaa632d2",
          "transactionIndex": "0x25",
          "logIndex": "0x92",
          "removed": false
        },
        {
          "address": "0xd47c56513e640e394024facbbe5032cf604bb699",
          "topics": [
            "0x5625f15df4cbadf2e6e3f80e2406aec5d99a432335ef0e9a1fba9e48b0558303",
            "0x000000000000000000000000000000000000000000000000000000000000000d"
          ],
          "data": "0x00000000000000000000000000000000000000000000000000000000000000030000000000000000000000000000000000000000000000000000000000000060000000000000000000000000000000000000000000000000000000000000001e00000000000000000000000000000000000000000000000000000000000000b9697066732f516d51366a457165717334687a5759504a42466a64664a776f6d486f344d59594c6a7a697743456457694e3232512f30303030303030303030303030303030303030303030303030303030303030303030303030303030303030303030303030303030303030303030303030303133303030303030303030303030303030303030303030303030303030303030303030303030303030303030303030303030303030303030303030303030303030332e6a736f6e00000000000000",
          "blockHash": "0x7ec2ba5b7ab0afe18574fa92b8240a08aae1f973953b6bf472a15fda3c2714f4",
          "blockNumber": "0x1cb934a",
          "transactionHash": "0x00630a6b380c4b0eff4a65fedb1e62c35eae03d6fd50144ea3776cd4eaa632d2",
          "transactionIndex": "0x25",
          "logIndex": "0x93",
          "removed": false
        },
        {
          "address": "0xd47c56513e640e394024facbbe5032cf604bb699",
          "topics": [
            "0x5625f15df4cbadf2e6e3f80e2406aec5d99a432335ef0e9a1fba9e48b0558303",
            "0x000000000000000000000000000000000000000000000000000000000000000d"
          ],
          "data": "0x00000000000000000000000000000000000000000000000000000000000000040000000000000000000000000000000000000000000000000000000000000060000000000000000000000000000000000000000000000000000000000000002800000000000000000000000000000000000000000000000000000000000000b9697066732f516d51366a457165717334687a5759504a42466a64664a776f6d486f344d59594c6a7a697743456457694e3232512f30303030303030303030303030303030303030303030303030303030303030303030303030303030303030303030303030303030303030303030303030303133303030303030303030303030303030303030303030303030303030303030303030303030303030303030303030303030303030303030303030303030303030342e6a736f6e00000000000000",
          "blockHash": "0x7ec2ba5b7ab0afe18574fa92b8240a08aae1f973953b6bf472a15fda3c2714f4",
          "blockNumber": "0x1cb934a",
          "transactionHash": "0x00630a6b380c4b0eff4a65fedb1e62c35eae03d6fd50144ea3776cd4eaa632d2",
          "transactionIndex": "0x25",
          "logIndex": "0x94",
          "removed": false
        },
        {
          "address": "0xd47c56513e640e394024facbbe5032cf604bb699",
          "topics": [
            "0x5625f15df4cbadf2e6e3f80e2406aec5d99a432335ef0e9a1fba9e48b0558303",
            "0x000000000000000000000000000000000000000000000000000000000000000d"
          ],
          "data": "0x00000000000000000000000000000000000000000000000000000000000000050000000000000000000000000000000000000000000000000000000000000060000000000000000000000000000000000000000000000000000000000000003200000000000000000000000000000000000000000000000000000000000000b9697066732f516d51366a457165717334687a5759504a42466a64664a776f6d486f344d59594c6a7a697743456457694e3232512f30303030303030303030303030303030303030303030303030303030303030303030303030303030303030303030303030303030303030303030303030303133303030303030303030303030303030303030303030303030303030303030303030303030303030303030303030303030303030303030303030303030303030352e6a736f6e00000000000000",
          "blockHash": "0x7ec2ba5b7ab0afe18574fa92b8240a08aae1f973953b6bf472a15fda3c2714f4",
          "blockNumber": "0x1cb934a",
          "transactionHash": "0x00630a6b380c4b0eff4a65fedb1e62c35eae03d6fd50144ea3776cd4eaa632d2",
          "transactionIndex": "0x25",
          "logIndex": "0x95",
          "removed": false
        }
      ],
      "logsBloom": "0x00000000000000000040000000000000000000000000000000000000000000000000000000000000000000000000000000000000000000000000000000000000000000000000000000000000000000004202000000000000000000000000000000040000000000000000000000000000000000000000000000000000000004000000000000000000000000000000000000000000000000000000000000000000000000000000000000000000000000000000000000000100000000000000000000000000000000000000004000000000000000000000000000000000400000020000000000000000000200000000000000000000010000000000000000000000",
      "type": "0x0",
      "transactionHash": "0x00630a6b380c4b0eff4a65fedb1e62c35eae03d6fd50144ea3776cd4eaa632d2",
      "transactionIndex": "0x25",
      "blockHash": "0x7ec2ba5b7ab0afe18574fa92b8240a08aae1f973953b6bf472a15fda3c2714f4",
      "blockNumber": "0x1cb934a",
      "gasUsed": "0x11b651",
      "effectiveGasPrice": "0x2540be400",
      "from": "0x8835669696fb92839ab198cd80ce9f0d35f45ad5",
      "to": "0xd47c56513e640e394024facbbe5032cf604bb699",
      "contractAddress": null
    }
  ],
  "libraries": [],
  "pending": [],
  "returns": {
    "0": {
      "internal_type": "address",
      "value": "0x0000000000000000000000000000000000000000"
    }
  },
  "timestamp": 1738267215,
  "chain": 42220,
  "commit": "20c5fe9"
}