{
  "transactions": [
    {
      "hash": "0xf2972182ba6132bad7c96b43fe3de868c7a824ab52c5dce05b6e9781037f62fe",
      "transactionType": "CALL",
      "contractName": null,
      "contractAddress": "0xbae3d4540a5cd5b5aa016323061a0b46e714373d",
      "function": "updateSuperChainAccountsManager(address)",
      "arguments": [
        "0x72735dA05De8B3B0dec18D51Da996EAD3A103e87"
      ],
      "transaction": {
        "from": "0x8835669696fb92839ab198cd80ce9f0d35f45ad5",
        "to": "0xbae3d4540a5cd5b5aa016323061a0b46e714373d",
        "gas": "0x10767",
        "value": "0x0",
        "input": "0x4554cb6200000000000000000000000072735da05de8b3b0dec18d51da996ead3a103e87",
        "nonce": "0x50",
        "chainId": "0xa"
      },
      "additionalContracts": [],
      "isFixedGasLimit": false
    },
    {
      "hash": "0x50db0467d55975b6548241c5f24aedaa48107e46b3a72c1c220e5c0447e7dc34",
      "transactionType": "CALL",
      "contractName": null,
      "contractAddress": "0x72735da05de8b3b0dec18d51da996ead3a103e87",
      "function": "addTiersTreshold(uint256[])",
      "arguments": [
        "[50, 150, 400, 750, 1250, 2000, 3250, 5000, 7000, 10000]"
      ],
      "transaction": {
        "from": "0x8835669696fb92839ab198cd80ce9f0d35f45ad5",
        "to": "0x72735da05de8b3b0dec18d51da996ead3a103e87",
        "gas": "0x6387c",
        "value": "0x0",
        "input": "0xdf58b7140000000000000000000000000000000000000000000000000000000000000020000000000000000000000000000000000000000000000000000000000000000a00000000000000000000000000000000000000000000000000000000000000320000000000000000000000000000000000000000000000000000000000000096000000000000000000000000000000000000000000000000000000000000019000000000000000000000000000000000000000000000000000000000000002ee00000000000000000000000000000000000000000000000000000000000004e200000000000000000000000000000000000000000000000000000000000007d00000000000000000000000000000000000000000000000000000000000000cb200000000000000000000000000000000000000000000000000000000000013880000000000000000000000000000000000000000000000000000000000001b580000000000000000000000000000000000000000000000000000000000002710",
        "nonce": "0x51",
        "chainId": "0xa"
      },
      "additionalContracts": [],
      "isFixedGasLimit": false
    }
  ],
  "receipts": [
    {
      "status": "0x1",
      "cumulativeGasUsed": "0x18a394",
      "logs": [],
      "logsBloom": "0x00000000000000000000000000000000000000000000000000000000000000000000000000000000000000000000000000000000000000000000000000000000000000000000000000000000000000000000000000000000000000000000000000000000000000000000000000000000000000000000000000000000000000000000000000000000000000000000000000000000000000000000000000000000000000000000000000000000000000000000000000000000000000000000000000000000000000000000000000000000000000000000000000000000000000000000000000000000000000000000000000000000000000000000000000000000",
      "type": "0x2",
      "transactionHash": "0xf2972182ba6132bad7c96b43fe3de868c7a824ab52c5dce05b6e9781037f62fe",
      "transactionIndex": "0x8",
      "blockHash": "0x4eb33911f5e37fd5138056c9ab6c74709d149ae8dedfc257987d119ce062812c",
      "blockNumber": "0x77b9cc0",
      "gasUsed": "0xb41b",
      "effectiveGasPrice": "0x127fe07",
      "from": "0x8835669696fb92839ab198cd80ce9f0d35f45ad5",
      "to": "0xbae3d4540a5cd5b5aa016323061a0b46e714373d",
      "contractAddress": null,
      "l1BaseFeeScalar": "0x146b",
      "l1BlobBaseFee": "0x1",
      "l1BlobBaseFeeScalar": "0xf79c5",
      "l1Fee": "0xebe691373",
      "l1GasPrice": "0x1c34fcf00",
      "l1GasUsed": "0x640"
    },
    {
      "status": "0x1",
      "cumulativeGasUsed": "0x1d2483",
      "logs": [
        {
          "address": "0x72735da05de8b3b0dec18d51da996ead3a103e87",
          "topics": [
            "0xe926b64b58fc01d6d94803baecf75651107a598eb208bf395c14391d855ad356"
          ],
          "data": "0x0000000000000000000000000000000000000000000000000000000000000032",
          "blockHash": "0x4eb33911f5e37fd5138056c9ab6c74709d149ae8dedfc257987d119ce062812c",
          "blockNumber": "0x77b9cc0",
          "transactionHash": "0x50db0467d55975b6548241c5f24aedaa48107e46b3a72c1c220e5c0447e7dc34",
          "transactionIndex": "0x9",
          "logIndex": "0x14",
          "removed": false
        },
        {
          "address": "0x72735da05de8b3b0dec18d51da996ead3a103e87",
          "topics": [
            "0xe926b64b58fc01d6d94803baecf75651107a598eb208bf395c14391d855ad356"
          ],
          "data": "0x0000000000000000000000000000000000000000000000000000000000000096",
          "blockHash": "0x4eb33911f5e37fd5138056c9ab6c74709d149ae8dedfc257987d119ce062812c",
          "blockNumber": "0x77b9cc0",
          "transactionHash": "0x50db0467d55975b6548241c5f24aedaa48107e46b3a72c1c220e5c0447e7dc34",
          "transactionIndex": "0x9",
          "logIndex": "0x15",
          "removed": false
        },
        {
          "address": "0x72735da05de8b3b0dec18d51da996ead3a103e87",
          "topics": [
            "0xe926b64b58fc01d6d94803baecf75651107a598eb208bf395c14391d855ad356"
          ],
          "data": "0x0000000000000000000000000000000000000000000000000000000000000190",
          "blockHash": "0x4eb33911f5e37fd5138056c9ab6c74709d149ae8dedfc257987d119ce062812c",
          "blockNumber": "0x77b9cc0",
          "transactionHash": "0x50db0467d55975b6548241c5f24aedaa48107e46b3a72c1c220e5c0447e7dc34",
          "transactionIndex": "0x9",
          "logIndex": "0x16",
          "removed": false
        },
        {
          "address": "0x72735da05de8b3b0dec18d51da996ead3a103e87",
          "topics": [
            "0xe926b64b58fc01d6d94803baecf75651107a598eb208bf395c14391d855ad356"
          ],
          "data": "0x00000000000000000000000000000000000000000000000000000000000002ee",
          "blockHash": "0x4eb33911f5e37fd5138056c9ab6c74709d149ae8dedfc257987d119ce062812c",
          "blockNumber": "0x77b9cc0",
          "transactionHash": "0x50db0467d55975b6548241c5f24aedaa48107e46b3a72c1c220e5c0447e7dc34",
          "transactionIndex": "0x9",
          "logIndex": "0x17",
          "removed": false
        },
        {
          "address": "0x72735da05de8b3b0dec18d51da996ead3a103e87",
          "topics": [
            "0xe926b64b58fc01d6d94803baecf75651107a598eb208bf395c14391d855ad356"
          ],
          "data": "0x00000000000000000000000000000000000000000000000000000000000004e2",
          "blockHash": "0x4eb33911f5e37fd5138056c9ab6c74709d149ae8dedfc257987d119ce062812c",
          "blockNumber": "0x77b9cc0",
          "transactionHash": "0x50db0467d55975b6548241c5f24aedaa48107e46b3a72c1c220e5c0447e7dc34",
          "transactionIndex": "0x9",
          "logIndex": "0x18",
          "removed": false
        },
        {
          "address": "0x72735da05de8b3b0dec18d51da996ead3a103e87",
          "topics": [
            "0xe926b64b58fc01d6d94803baecf75651107a598eb208bf395c14391d855ad356"
          ],
          "data": "0x00000000000000000000000000000000000000000000000000000000000007d0",
          "blockHash": "0x4eb33911f5e37fd5138056c9ab6c74709d149ae8dedfc257987d119ce062812c",
          "blockNumber": "0x77b9cc0",
          "transactionHash": "0x50db0467d55975b6548241c5f24aedaa48107e46b3a72c1c220e5c0447e7dc34",
          "transactionIndex": "0x9",
          "logIndex": "0x19",
          "removed": false
        },
        {
          "address": "0x72735da05de8b3b0dec18d51da996ead3a103e87",
          "topics": [
            "0xe926b64b58fc01d6d94803baecf75651107a598eb208bf395c14391d855ad356"
          ],
          "data": "0x0000000000000000000000000000000000000000000000000000000000000cb2",
          "blockHash": "0x4eb33911f5e37fd5138056c9ab6c74709d149ae8dedfc257987d119ce062812c",
          "blockNumber": "0x77b9cc0",
          "transactionHash": "0x50db0467d55975b6548241c5f24aedaa48107e46b3a72c1c220e5c0447e7dc34",
          "transactionIndex": "0x9",
          "logIndex": "0x1a",
          "removed": false
        },
        {
          "address": "0x72735da05de8b3b0dec18d51da996ead3a103e87",
          "topics": [
            "0xe926b64b58fc01d6d94803baecf75651107a598eb208bf395c14391d855ad356"
          ],
          "data": "0x0000000000000000000000000000000000000000000000000000000000001388",
          "blockHash": "0x4eb33911f5e37fd5138056c9ab6c74709d149ae8dedfc257987d119ce062812c",
          "blockNumber": "0x77b9cc0",
          "transactionHash": "0x50db0467d55975b6548241c5f24aedaa48107e46b3a72c1c220e5c0447e7dc34",
          "transactionIndex": "0x9",
          "logIndex": "0x1b",
          "removed": false
        },
        {
          "address": "0x72735da05de8b3b0dec18d51da996ead3a103e87",
          "topics": [
            "0xe926b64b58fc01d6d94803baecf75651107a598eb208bf395c14391d855ad356"
          ],
          "data": "0x0000000000000000000000000000000000000000000000000000000000001b58",
          "blockHash": "0x4eb33911f5e37fd5138056c9ab6c74709d149ae8dedfc257987d119ce062812c",
          "blockNumber": "0x77b9cc0",
          "transactionHash": "0x50db0467d55975b6548241c5f24aedaa48107e46b3a72c1c220e5c0447e7dc34",
          "transactionIndex": "0x9",
          "logIndex": "0x1c",
          "removed": false
        },
        {
          "address": "0x72735da05de8b3b0dec18d51da996ead3a103e87",
          "topics": [
            "0xe926b64b58fc01d6d94803baecf75651107a598eb208bf395c14391d855ad356"
          ],
          "data": "0x0000000000000000000000000000000000000000000000000000000000002710",
          "blockHash": "0x4eb33911f5e37fd5138056c9ab6c74709d149ae8dedfc257987d119ce062812c",
          "blockNumber": "0x77b9cc0",
          "transactionHash": "0x50db0467d55975b6548241c5f24aedaa48107e46b3a72c1c220e5c0447e7dc34",
          "transactionIndex": "0x9",
          "logIndex": "0x1d",
          "removed": false
        }
      ],
      "logsBloom": "0x00000000000008000000000000000000000000000000000000000000000800000008000000000000000000000000000000000000000000000000000000000000000000000000000000000000000000000000040000000000000000000000000000000000000000000000000000000000000000000000000000000000000000000000000000000000000000000000000000040000000000000000000000000000000000000000000000000000000000000000000000000000000000000000000000000000000000000000000000000000000000000000000001000000000000000000000000000000000000000000000000000000000000000000000000000000",
      "type": "0x2",
      "transactionHash": "0x50db0467d55975b6548241c5f24aedaa48107e46b3a72c1c220e5c0447e7dc34",
      "transactionIndex": "0x9",
      "blockHash": "0x4eb33911f5e37fd5138056c9ab6c74709d149ae8dedfc257987d119ce062812c",
      "blockNumber": "0x77b9cc0",
      "gasUsed": "0x480ef",
      "effectiveGasPrice": "0x127fe07",
      "from": "0x8835669696fb92839ab198cd80ce9f0d35f45ad5",
      "to": "0x72735da05de8b3b0dec18d51da996ead3a103e87",
      "contractAddress": null,
      "l1BaseFeeScalar": "0x146b",
      "l1BlobBaseFee": "0x1",
      "l1BlobBaseFeeScalar": "0xf79c5",
      "l1Fee": "0x139ef6790a",
      "l1GasPrice": "0x1c34fcf00",
      "l1GasUsed": "0x851"
    }
  ],
  "libraries": [],
  "pending": [],
  "returns": {},
  "timestamp": 1726681921,
  "chain": 10,
  "commit": "f9efbee"
}