{
  "transactions": [
    {
      "hash": "0x30d0ae8f7734f8e255e26564c5f89e137a08e16a6607fe2959389deea4ec13a2",
      "transactionType": "CALL",
      "contractName": null,
      "contractAddress": "0xbc24012488bfcfe44875a139299595879c43c2cd",
      "function": "setBadgeTier(uint256,uint256,string,uint256)",
      "arguments": [
        "1",
        "1",
        "ipfs/QmZwGU3UjbGffjYaMwhDGNGyWprejH2FpKWDxrgS7TzRKm/00000000000000000000000000000000000000000000000000000000000000010000000000000000000000000000000000000000000000000000000000000001.json",
        "10"
      ],
      "transaction": {
        "from": "0x8835669696fb92839ab198cd80ce9f0d35f45ad5",
        "to": "0xbc24012488bfcfe44875a139299595879c43c2cd",
        "gas": "0x5285d",
        "value": "0x0",
        "input": "0xcf132d1c000000000000000000000000000000000000000000000000000000000000000100000000000000000000000000000000000000000000000000000000000000010000000000000000000000000000000000000000000000000000000000000080000000000000000000000000000000000000000000000000000000000000000a00000000000000000000000000000000000000000000000000000000000000b9697066732f516d5a77475533556a624766666a59614d776844474e4779577072656a483246704b57447872675337547a524b6d2f30303030303030303030303030303030303030303030303030303030303030303030303030303030303030303030303030303030303030303030303030303031303030303030303030303030303030303030303030303030303030303030303030303030303030303030303030303030303030303030303030303030303030312e6a736f6e00000000000000",
        "nonce": "0x14072",
        "chainId": "0xa"
      },
      "additionalContracts": [],
      "isFixedGasLimit": false
    },
    {
      "hash": "0x6eb858ae3c9c195e2f7b137ef40bb2af9511fd9bad893336ae28f4f6de816e9b",
      "transactionType": "CALL",
      "contractName": null,
      "contractAddress": "0xbc24012488bfcfe44875a139299595879c43c2cd",
      "function": "setBadgeTier(uint256,uint256,string,uint256)",
      "arguments": [
        "1",
        "2",
        "ipfs/QmZwGU3UjbGffjYaMwhDGNGyWprejH2FpKWDxrgS7TzRKm/00000000000000000000000000000000000000000000000000000000000000010000000000000000000000000000000000000000000000000000000000000002.json",
        "20"
      ],
      "transaction": {
        "from": "0x8835669696fb92839ab198cd80ce9f0d35f45ad5",
        "to": "0xbc24012488bfcfe44875a139299595879c43c2cd",
        "gas": "0x52588",
        "value": "0x0",
        "input": "0xcf132d1c000000000000000000000000000000000000000000000000000000000000000100000000000000000000000000000000000000000000000000000000000000020000000000000000000000000000000000000000000000000000000000000080000000000000000000000000000000000000000000000000000000000000001400000000000000000000000000000000000000000000000000000000000000b9697066732f516d5a77475533556a624766666a59614d776844474e4779577072656a483246704b57447872675337547a524b6d2f30303030303030303030303030303030303030303030303030303030303030303030303030303030303030303030303030303030303030303030303030303031303030303030303030303030303030303030303030303030303030303030303030303030303030303030303030303030303030303030303030303030303030322e6a736f6e00000000000000",
        "nonce": "0x14073",
        "chainId": "0xa"
      },
      "additionalContracts": [],
      "isFixedGasLimit": false
    },
    {
      "hash": "0xfe9049131d137467b338f1961d2e4e226481b5afa3e8589e98a51a3e8a2a43c6",
      "transactionType": "CALL",
      "contractName": null,
      "contractAddress": "0xbc24012488bfcfe44875a139299595879c43c2cd",
      "function": "setBadgeTier(uint256,uint256,string,uint256)",
      "arguments": [
        "1",
        "3",
        "ipfs/QmZwGU3UjbGffjYaMwhDGNGyWprejH2FpKWDxrgS7TzRKm/00000000000000000000000000000000000000000000000000000000000000010000000000000000000000000000000000000000000000000000000000000003.json",
        "30"
      ],
      "transaction": {
        "from": "0x8835669696fb92839ab198cd80ce9f0d35f45ad5",
        "to": "0xbc24012488bfcfe44875a139299595879c43c2cd",
        "gas": "0x52588",
        "value": "0x0",
        "input": "0xcf132d1c000000000000000000000000000000000000000000000000000000000000000100000000000000000000000000000000000000000000000000000000000000030000000000000000000000000000000000000000000000000000000000000080000000000000000000000000000000000000000000000000000000000000001e00000000000000000000000000000000000000000000000000000000000000b9697066732f516d5a77475533556a624766666a59614d776844474e4779577072656a483246704b57447872675337547a524b6d2f30303030303030303030303030303030303030303030303030303030303030303030303030303030303030303030303030303030303030303030303030303031303030303030303030303030303030303030303030303030303030303030303030303030303030303030303030303030303030303030303030303030303030332e6a736f6e00000000000000",
        "nonce": "0x14074",
        "chainId": "0xa"
      },
      "additionalContracts": [],
      "isFixedGasLimit": false
    },
    {
      "hash": "0xf8373f432812251fc795a5bc959bf2871bb50f2e2ab00a91ace62beb7459d345",
      "transactionType": "CALL",
      "contractName": null,
      "contractAddress": "0xbc24012488bfcfe44875a139299595879c43c2cd",
      "function": "setBadgeTier(uint256,uint256,string,uint256)",
      "arguments": [
        "1",
        "4",
        "ipfs/QmZwGU3UjbGffjYaMwhDGNGyWprejH2FpKWDxrgS7TzRKm/00000000000000000000000000000000000000000000000000000000000000010000000000000000000000000000000000000000000000000000000000000004.json",
        "40"
      ],
      "transaction": {
        "from": "0x8835669696fb92839ab198cd80ce9f0d35f45ad5",
        "to": "0xbc24012488bfcfe44875a139299595879c43c2cd",
        "gas": "0x52588",
        "value": "0x0",
        "input": "0xcf132d1c000000000000000000000000000000000000000000000000000000000000000100000000000000000000000000000000000000000000000000000000000000040000000000000000000000000000000000000000000000000000000000000080000000000000000000000000000000000000000000000000000000000000002800000000000000000000000000000000000000000000000000000000000000b9697066732f516d5a77475533556a624766666a59614d776844474e4779577072656a483246704b57447872675337547a524b6d2f30303030303030303030303030303030303030303030303030303030303030303030303030303030303030303030303030303030303030303030303030303031303030303030303030303030303030303030303030303030303030303030303030303030303030303030303030303030303030303030303030303030303030342e6a736f6e00000000000000",
        "nonce": "0x14075",
        "chainId": "0xa"
      },
      "additionalContracts": [],
      "isFixedGasLimit": false
    },
    {
      "hash": "0xb921c700328d6beac10600b19bebcf3bc4355e6f6878944964e8f7a09fe9b75f",
      "transactionType": "CALL",
      "contractName": null,
      "contractAddress": "0xbc24012488bfcfe44875a139299595879c43c2cd",
      "function": "setBadgeTier(uint256,uint256,string,uint256)",
      "arguments": [
        "1",
        "5",
        "ipfs/QmZwGU3UjbGffjYaMwhDGNGyWprejH2FpKWDxrgS7TzRKm/00000000000000000000000000000000000000000000000000000000000000010000000000000000000000000000000000000000000000000000000000000005.json",
        "50"
      ],
      "transaction": {
        "from": "0x8835669696fb92839ab198cd80ce9f0d35f45ad5",
        "to": "0xbc24012488bfcfe44875a139299595879c43c2cd",
        "gas": "0x52588",
        "value": "0x0",
        "input": "0xcf132d1c000000000000000000000000000000000000000000000000000000000000000100000000000000000000000000000000000000000000000000000000000000050000000000000000000000000000000000000000000000000000000000000080000000000000000000000000000000000000000000000000000000000000003200000000000000000000000000000000000000000000000000000000000000b9697066732f516d5a77475533556a624766666a59614d776844474e4779577072656a483246704b57447872675337547a524b6d2f30303030303030303030303030303030303030303030303030303030303030303030303030303030303030303030303030303030303030303030303030303031303030303030303030303030303030303030303030303030303030303030303030303030303030303030303030303030303030303030303030303030303030352e6a736f6e00000000000000",
        "nonce": "0x14076",
        "chainId": "0xa"
      },
      "additionalContracts": [],
      "isFixedGasLimit": false
    },
    {
      "hash": "0x2abf93ddd51103891c858cd2f78f8abe8a5c06b1c9bb1a03992b2c1910c366e6",
      "transactionType": "CALL",
      "contractName": null,
      "contractAddress": "0xbc24012488bfcfe44875a139299595879c43c2cd",
      "function": "setBadgeTier(uint256,uint256,string,uint256)",
      "arguments": [
        "2",
        "1",
        "ipfs/QmZwGU3UjbGffjYaMwhDGNGyWprejH2FpKWDxrgS7TzRKm/00000000000000000000000000000000000000000000000000000000000000020000000000000000000000000000000000000000000000000000000000000001.json",
        "10"
      ],
      "transaction": {
        "from": "0x8835669696fb92839ab198cd80ce9f0d35f45ad5",
        "to": "0xbc24012488bfcfe44875a139299595879c43c2cd",
        "gas": "0x5285d",
        "value": "0x0",
        "input": "0xcf132d1c000000000000000000000000000000000000000000000000000000000000000200000000000000000000000000000000000000000000000000000000000000010000000000000000000000000000000000000000000000000000000000000080000000000000000000000000000000000000000000000000000000000000000a00000000000000000000000000000000000000000000000000000000000000b9697066732f516d5a77475533556a624766666a59614d776844474e4779577072656a483246704b57447872675337547a524b6d2f30303030303030303030303030303030303030303030303030303030303030303030303030303030303030303030303030303030303030303030303030303032303030303030303030303030303030303030303030303030303030303030303030303030303030303030303030303030303030303030303030303030303030312e6a736f6e00000000000000",
        "nonce": "0x14077",
        "chainId": "0xa"
      },
      "additionalContracts": [],
      "isFixedGasLimit": false
    },
    {
      "hash": "0xb7f3726ba267136ccd00d437d97c9e524dd6c3de8921415264de05a4b3e69a27",
      "transactionType": "CALL",
      "contractName": null,
      "contractAddress": "0xbc24012488bfcfe44875a139299595879c43c2cd",
      "function": "setBadgeTier(uint256,uint256,string,uint256)",
      "arguments": [
        "2",
        "2",
        "ipfs/QmZwGU3UjbGffjYaMwhDGNGyWprejH2FpKWDxrgS7TzRKm/00000000000000000000000000000000000000000000000000000000000000020000000000000000000000000000000000000000000000000000000000000002.json",
        "20"
      ],
      "transaction": {
        "from": "0x8835669696fb92839ab198cd80ce9f0d35f45ad5",
        "to": "0xbc24012488bfcfe44875a139299595879c43c2cd",
        "gas": "0x52588",
        "value": "0x0",
        "input": "0xcf132d1c000000000000000000000000000000000000000000000000000000000000000200000000000000000000000000000000000000000000000000000000000000020000000000000000000000000000000000000000000000000000000000000080000000000000000000000000000000000000000000000000000000000000001400000000000000000000000000000000000000000000000000000000000000b9697066732f516d5a77475533556a624766666a59614d776844474e4779577072656a483246704b57447872675337547a524b6d2f30303030303030303030303030303030303030303030303030303030303030303030303030303030303030303030303030303030303030303030303030303032303030303030303030303030303030303030303030303030303030303030303030303030303030303030303030303030303030303030303030303030303030322e6a736f6e00000000000000",
        "nonce": "0x14078",
        "chainId": "0xa"
      },
      "additionalContracts": [],
      "isFixedGasLimit": false
    },
    {
      "hash": "0x6cd7189a9f98848415a77d80c4d05627983ba0fda0f0a299cbaead54e60c29c3",
      "transactionType": "CALL",
      "contractName": null,
      "contractAddress": "0xbc24012488bfcfe44875a139299595879c43c2cd",
      "function": "setBadgeTier(uint256,uint256,string,uint256)",
      "arguments": [
        "2",
        "3",
        "ipfs/QmZwGU3UjbGffjYaMwhDGNGyWprejH2FpKWDxrgS7TzRKm/00000000000000000000000000000000000000000000000000000000000000020000000000000000000000000000000000000000000000000000000000000003.json",
        "30"
      ],
      "transaction": {
        "from": "0x8835669696fb92839ab198cd80ce9f0d35f45ad5",
        "to": "0xbc24012488bfcfe44875a139299595879c43c2cd",
        "gas": "0x52588",
        "value": "0x0",
        "input": "0xcf132d1c000000000000000000000000000000000000000000000000000000000000000200000000000000000000000000000000000000000000000000000000000000030000000000000000000000000000000000000000000000000000000000000080000000000000000000000000000000000000000000000000000000000000001e00000000000000000000000000000000000000000000000000000000000000b9697066732f516d5a77475533556a624766666a59614d776844474e4779577072656a483246704b57447872675337547a524b6d2f30303030303030303030303030303030303030303030303030303030303030303030303030303030303030303030303030303030303030303030303030303032303030303030303030303030303030303030303030303030303030303030303030303030303030303030303030303030303030303030303030303030303030332e6a736f6e00000000000000",
        "nonce": "0x14079",
        "chainId": "0xa"
      },
      "additionalContracts": [],
      "isFixedGasLimit": false
    },
    {
      "hash": "0x1291d5c193ca9badf05b9d75dd2d29de633bcf720601b45efc8838da1dbb9386",
      "transactionType": "CALL",
      "contractName": null,
      "contractAddress": "0xbc24012488bfcfe44875a139299595879c43c2cd",
      "function": "setBadgeTier(uint256,uint256,string,uint256)",
      "arguments": [
        "2",
        "4",
        "ipfs/QmZwGU3UjbGffjYaMwhDGNGyWprejH2FpKWDxrgS7TzRKm/00000000000000000000000000000000000000000000000000000000000000020000000000000000000000000000000000000000000000000000000000000004.json",
        "40"
      ],
      "transaction": {
        "from": "0x8835669696fb92839ab198cd80ce9f0d35f45ad5",
        "to": "0xbc24012488bfcfe44875a139299595879c43c2cd",
        "gas": "0x52588",
        "value": "0x0",
        "input": "0xcf132d1c000000000000000000000000000000000000000000000000000000000000000200000000000000000000000000000000000000000000000000000000000000040000000000000000000000000000000000000000000000000000000000000080000000000000000000000000000000000000000000000000000000000000002800000000000000000000000000000000000000000000000000000000000000b9697066732f516d5a77475533556a624766666a59614d776844474e4779577072656a483246704b57447872675337547a524b6d2f30303030303030303030303030303030303030303030303030303030303030303030303030303030303030303030303030303030303030303030303030303032303030303030303030303030303030303030303030303030303030303030303030303030303030303030303030303030303030303030303030303030303030342e6a736f6e00000000000000",
        "nonce": "0x1407a",
        "chainId": "0xa"
      },
      "additionalContracts": [],
      "isFixedGasLimit": false
    },
    {
      "hash": "0x2b4e269745af34bc8bdec0918c69f345e70a2385abdbaa3d4fac453329acbd2e",
      "transactionType": "CALL",
      "contractName": null,
      "contractAddress": "0xbc24012488bfcfe44875a139299595879c43c2cd",
      "function": "setBadgeTier(uint256,uint256,string,uint256)",
      "arguments": [
        "2",
        "5",
        "ipfs/QmZwGU3UjbGffjYaMwhDGNGyWprejH2FpKWDxrgS7TzRKm/00000000000000000000000000000000000000000000000000000000000000020000000000000000000000000000000000000000000000000000000000000005.json",
        "50"
      ],
      "transaction": {
        "from": "0x8835669696fb92839ab198cd80ce9f0d35f45ad5",
        "to": "0xbc24012488bfcfe44875a139299595879c43c2cd",
        "gas": "0x52588",
        "value": "0x0",
        "input": "0xcf132d1c000000000000000000000000000000000000000000000000000000000000000200000000000000000000000000000000000000000000000000000000000000050000000000000000000000000000000000000000000000000000000000000080000000000000000000000000000000000000000000000000000000000000003200000000000000000000000000000000000000000000000000000000000000b9697066732f516d5a77475533556a624766666a59614d776844474e4779577072656a483246704b57447872675337547a524b6d2f30303030303030303030303030303030303030303030303030303030303030303030303030303030303030303030303030303030303030303030303030303032303030303030303030303030303030303030303030303030303030303030303030303030303030303030303030303030303030303030303030303030303030352e6a736f6e00000000000000",
        "nonce": "0x1407b",
        "chainId": "0xa"
      },
      "additionalContracts": [],
      "isFixedGasLimit": false
    },
    {
      "hash": "0xb5509ff419469e85deadb854a5f5d0f17bceb496c8f64cd9a92b66d0e7c1f059",
      "transactionType": "CALL",
      "contractName": null,
      "contractAddress": "0xbc24012488bfcfe44875a139299595879c43c2cd",
      "function": "setBadgeTier(uint256,uint256,string,uint256)",
      "arguments": [
        "3",
        "1",
        "ipfs/QmZwGU3UjbGffjYaMwhDGNGyWprejH2FpKWDxrgS7TzRKm/00000000000000000000000000000000000000000000000000000000000000030000000000000000000000000000000000000000000000000000000000000001.json",
        "10"
      ],
      "transaction": {
        "from": "0x8835669696fb92839ab198cd80ce9f0d35f45ad5",
        "to": "0xbc24012488bfcfe44875a139299595879c43c2cd",
        "gas": "0x5285d",
        "value": "0x0",
        "input": "0xcf132d1c000000000000000000000000000000000000000000000000000000000000000300000000000000000000000000000000000000000000000000000000000000010000000000000000000000000000000000000000000000000000000000000080000000000000000000000000000000000000000000000000000000000000000a00000000000000000000000000000000000000000000000000000000000000b9697066732f516d5a77475533556a624766666a59614d776844474e4779577072656a483246704b57447872675337547a524b6d2f30303030303030303030303030303030303030303030303030303030303030303030303030303030303030303030303030303030303030303030303030303033303030303030303030303030303030303030303030303030303030303030303030303030303030303030303030303030303030303030303030303030303030312e6a736f6e00000000000000",
        "nonce": "0x1407c",
        "chainId": "0xa"
      },
      "additionalContracts": [],
      "isFixedGasLimit": false
    },
    {
      "hash": "0x9c8747e9307dd37aeeb51c8142c72789afb0642988289ae42adecd92f4e0e595",
      "transactionType": "CALL",
      "contractName": null,
      "contractAddress": "0xbc24012488bfcfe44875a139299595879c43c2cd",
      "function": "setBadgeTier(uint256,uint256,string,uint256)",
      "arguments": [
        "3",
        "2",
        "ipfs/QmZwGU3UjbGffjYaMwhDGNGyWprejH2FpKWDxrgS7TzRKm/00000000000000000000000000000000000000000000000000000000000000030000000000000000000000000000000000000000000000000000000000000002.json",
        "20"
      ],
      "transaction": {
        "from": "0x8835669696fb92839ab198cd80ce9f0d35f45ad5",
        "to": "0xbc24012488bfcfe44875a139299595879c43c2cd",
        "gas": "0x52588",
        "value": "0x0",
        "input": "0xcf132d1c000000000000000000000000000000000000000000000000000000000000000300000000000000000000000000000000000000000000000000000000000000020000000000000000000000000000000000000000000000000000000000000080000000000000000000000000000000000000000000000000000000000000001400000000000000000000000000000000000000000000000000000000000000b9697066732f516d5a77475533556a624766666a59614d776844474e4779577072656a483246704b57447872675337547a524b6d2f30303030303030303030303030303030303030303030303030303030303030303030303030303030303030303030303030303030303030303030303030303033303030303030303030303030303030303030303030303030303030303030303030303030303030303030303030303030303030303030303030303030303030322e6a736f6e00000000000000",
        "nonce": "0x1407d",
        "chainId": "0xa"
      },
      "additionalContracts": [],
      "isFixedGasLimit": false
    },
    {
      "hash": "0xd04d3ffe630bf4b04d0c5c119438c96c059716d23640f743ea0133bb9c8bb7f3",
      "transactionType": "CALL",
      "contractName": null,
      "contractAddress": "0xbc24012488bfcfe44875a139299595879c43c2cd",
      "function": "setBadgeTier(uint256,uint256,string,uint256)",
      "arguments": [
        "3",
        "3",
        "ipfs/QmZwGU3UjbGffjYaMwhDGNGyWprejH2FpKWDxrgS7TzRKm/00000000000000000000000000000000000000000000000000000000000000030000000000000000000000000000000000000000000000000000000000000003.json",
        "30"
      ],
      "transaction": {
        "from": "0x8835669696fb92839ab198cd80ce9f0d35f45ad5",
        "to": "0xbc24012488bfcfe44875a139299595879c43c2cd",
        "gas": "0x52588",
        "value": "0x0",
        "input": "0xcf132d1c000000000000000000000000000000000000000000000000000000000000000300000000000000000000000000000000000000000000000000000000000000030000000000000000000000000000000000000000000000000000000000000080000000000000000000000000000000000000000000000000000000000000001e00000000000000000000000000000000000000000000000000000000000000b9697066732f516d5a77475533556a624766666a59614d776844474e4779577072656a483246704b57447872675337547a524b6d2f30303030303030303030303030303030303030303030303030303030303030303030303030303030303030303030303030303030303030303030303030303033303030303030303030303030303030303030303030303030303030303030303030303030303030303030303030303030303030303030303030303030303030332e6a736f6e00000000000000",
        "nonce": "0x1407e",
        "chainId": "0xa"
      },
      "additionalContracts": [],
      "isFixedGasLimit": false
    },
    {
      "hash": "0x3975d8a3421eca4c06da33e78b16686051bef0c81bfcd558381bd347e8701712",
      "transactionType": "CALL",
      "contractName": null,
      "contractAddress": "0xbc24012488bfcfe44875a139299595879c43c2cd",
      "function": "setBadgeTier(uint256,uint256,string,uint256)",
      "arguments": [
        "4",
        "1",
        "ipfs/QmZwGU3UjbGffjYaMwhDGNGyWprejH2FpKWDxrgS7TzRKm/00000000000000000000000000000000000000000000000000000000000000040000000000000000000000000000000000000000000000000000000000000001.json",
        "10"
      ],
      "transaction": {
        "from": "0x8835669696fb92839ab198cd80ce9f0d35f45ad5",
        "to": "0xbc24012488bfcfe44875a139299595879c43c2cd",
        "gas": "0x5285d",
        "value": "0x0",
        "input": "0xcf132d1c000000000000000000000000000000000000000000000000000000000000000400000000000000000000000000000000000000000000000000000000000000010000000000000000000000000000000000000000000000000000000000000080000000000000000000000000000000000000000000000000000000000000000a00000000000000000000000000000000000000000000000000000000000000b9697066732f516d5a77475533556a624766666a59614d776844474e4779577072656a483246704b57447872675337547a524b6d2f30303030303030303030303030303030303030303030303030303030303030303030303030303030303030303030303030303030303030303030303030303034303030303030303030303030303030303030303030303030303030303030303030303030303030303030303030303030303030303030303030303030303030312e6a736f6e00000000000000",
        "nonce": "0x1407f",
        "chainId": "0xa"
      },
      "additionalContracts": [],
      "isFixedGasLimit": false
    },
    {
      "hash": "0x2790e25d159f06cc43be577b07b8a244cecbd4e14b26a7f13a04d51fd622a35a",
      "transactionType": "CALL",
      "contractName": null,
      "contractAddress": "0xbc24012488bfcfe44875a139299595879c43c2cd",
      "function": "setBadgeTier(uint256,uint256,string,uint256)",
      "arguments": [
        "4",
        "2",
        "ipfs/QmZwGU3UjbGffjYaMwhDGNGyWprejH2FpKWDxrgS7TzRKm/00000000000000000000000000000000000000000000000000000000000000040000000000000000000000000000000000000000000000000000000000000002.json",
        "20"
      ],
      "transaction": {
        "from": "0x8835669696fb92839ab198cd80ce9f0d35f45ad5",
        "to": "0xbc24012488bfcfe44875a139299595879c43c2cd",
        "gas": "0x52588",
        "value": "0x0",
        "input": "0xcf132d1c000000000000000000000000000000000000000000000000000000000000000400000000000000000000000000000000000000000000000000000000000000020000000000000000000000000000000000000000000000000000000000000080000000000000000000000000000000000000000000000000000000000000001400000000000000000000000000000000000000000000000000000000000000b9697066732f516d5a77475533556a624766666a59614d776844474e4779577072656a483246704b57447872675337547a524b6d2f30303030303030303030303030303030303030303030303030303030303030303030303030303030303030303030303030303030303030303030303030303034303030303030303030303030303030303030303030303030303030303030303030303030303030303030303030303030303030303030303030303030303030322e6a736f6e00000000000000",
        "nonce": "0x14080",
        "chainId": "0xa"
      },
      "additionalContracts": [],
      "isFixedGasLimit": false
    },
    {
      "hash": "0xefcb519b0d75a5f180d8e357a2bd1c71a7b8dc5a249eec0c318991b72ffae12b",
      "transactionType": "CALL",
      "contractName": null,
      "contractAddress": "0xbc24012488bfcfe44875a139299595879c43c2cd",
      "function": "setBadgeTier(uint256,uint256,string,uint256)",
      "arguments": [
        "4",
        "3",
        "ipfs/QmZwGU3UjbGffjYaMwhDGNGyWprejH2FpKWDxrgS7TzRKm/00000000000000000000000000000000000000000000000000000000000000040000000000000000000000000000000000000000000000000000000000000003.json",
        "30"
      ],
      "transaction": {
        "from": "0x8835669696fb92839ab198cd80ce9f0d35f45ad5",
        "to": "0xbc24012488bfcfe44875a139299595879c43c2cd",
        "gas": "0x52588",
        "value": "0x0",
        "input": "0xcf132d1c000000000000000000000000000000000000000000000000000000000000000400000000000000000000000000000000000000000000000000000000000000030000000000000000000000000000000000000000000000000000000000000080000000000000000000000000000000000000000000000000000000000000001e00000000000000000000000000000000000000000000000000000000000000b9697066732f516d5a77475533556a624766666a59614d776844474e4779577072656a483246704b57447872675337547a524b6d2f30303030303030303030303030303030303030303030303030303030303030303030303030303030303030303030303030303030303030303030303030303034303030303030303030303030303030303030303030303030303030303030303030303030303030303030303030303030303030303030303030303030303030332e6a736f6e00000000000000",
        "nonce": "0x14081",
        "chainId": "0xa"
      },
      "additionalContracts": [],
      "isFixedGasLimit": false
    },
    {
      "hash": "0x970d47d4cac49b43963282e84d3cd2e5ecf95bcae01ad89e6a8c7cecf94c537a",
      "transactionType": "CALL",
      "contractName": null,
      "contractAddress": "0xbc24012488bfcfe44875a139299595879c43c2cd",
      "function": "setBadgeTier(uint256,uint256,string,uint256)",
      "arguments": [
        "5",
        "1",
        "ipfs/QmZwGU3UjbGffjYaMwhDGNGyWprejH2FpKWDxrgS7TzRKm/00000000000000000000000000000000000000000000000000000000000000050000000000000000000000000000000000000000000000000000000000000001.json",
        "150"
      ],
      "transaction": {
        "from": "0x8835669696fb92839ab198cd80ce9f0d35f45ad5",
        "to": "0xbc24012488bfcfe44875a139299595879c43c2cd",
        "gas": "0x5285d",
        "value": "0x0",
        "input": "0xcf132d1c000000000000000000000000000000000000000000000000000000000000000500000000000000000000000000000000000000000000000000000000000000010000000000000000000000000000000000000000000000000000000000000080000000000000000000000000000000000000000000000000000000000000009600000000000000000000000000000000000000000000000000000000000000b9697066732f516d5a77475533556a624766666a59614d776844474e4779577072656a483246704b57447872675337547a524b6d2f30303030303030303030303030303030303030303030303030303030303030303030303030303030303030303030303030303030303030303030303030303035303030303030303030303030303030303030303030303030303030303030303030303030303030303030303030303030303030303030303030303030303030312e6a736f6e00000000000000",
        "nonce": "0x14082",
        "chainId": "0xa"
      },
      "additionalContracts": [],
      "isFixedGasLimit": false
    },
    {
      "hash": "0x9bad54bda3849d5baa1227544defb26dd19ee00bccdf617e038a7760f02b5616",
      "transactionType": "CALL",
      "contractName": null,
      "contractAddress": "0xbc24012488bfcfe44875a139299595879c43c2cd",
      "function": "setBadgeTier(uint256,uint256,string,uint256)",
      "arguments": [
        "6",
        "1",
        "ipfs/QmZwGU3UjbGffjYaMwhDGNGyWprejH2FpKWDxrgS7TzRKm/00000000000000000000000000000000000000000000000000000000000000060000000000000000000000000000000000000000000000000000000000000001.json",
        "10"
      ],
      "transaction": {
        "from": "0x8835669696fb92839ab198cd80ce9f0d35f45ad5",
        "to": "0xbc24012488bfcfe44875a139299595879c43c2cd",
        "gas": "0x5285d",
        "value": "0x0",
        "input": "0xcf132d1c000000000000000000000000000000000000000000000000000000000000000600000000000000000000000000000000000000000000000000000000000000010000000000000000000000000000000000000000000000000000000000000080000000000000000000000000000000000000000000000000000000000000000a00000000000000000000000000000000000000000000000000000000000000b9697066732f516d5a77475533556a624766666a59614d776844474e4779577072656a483246704b57447872675337547a524b6d2f30303030303030303030303030303030303030303030303030303030303030303030303030303030303030303030303030303030303030303030303030303036303030303030303030303030303030303030303030303030303030303030303030303030303030303030303030303030303030303030303030303030303030312e6a736f6e00000000000000",
        "nonce": "0x14083",
        "chainId": "0xa"
      },
      "additionalContracts": [],
      "isFixedGasLimit": false
    },
    {
      "hash": "0x5db87263495f3628f00111fe3b093b3755ae518756e92ed542cf5b7e27a618ae",
      "transactionType": "CALL",
      "contractName": null,
      "contractAddress": "0xbc24012488bfcfe44875a139299595879c43c2cd",
      "function": "setBadgeTier(uint256,uint256,string,uint256)",
      "arguments": [
        "6",
        "2",
        "ipfs/QmZwGU3UjbGffjYaMwhDGNGyWprejH2FpKWDxrgS7TzRKm/00000000000000000000000000000000000000000000000000000000000000060000000000000000000000000000000000000000000000000000000000000002.json",
        "20"
      ],
      "transaction": {
        "from": "0x8835669696fb92839ab198cd80ce9f0d35f45ad5",
        "to": "0xbc24012488bfcfe44875a139299595879c43c2cd",
        "gas": "0x52588",
        "value": "0x0",
        "input": "0xcf132d1c000000000000000000000000000000000000000000000000000000000000000600000000000000000000000000000000000000000000000000000000000000020000000000000000000000000000000000000000000000000000000000000080000000000000000000000000000000000000000000000000000000000000001400000000000000000000000000000000000000000000000000000000000000b9697066732f516d5a77475533556a624766666a59614d776844474e4779577072656a483246704b57447872675337547a524b6d2f30303030303030303030303030303030303030303030303030303030303030303030303030303030303030303030303030303030303030303030303030303036303030303030303030303030303030303030303030303030303030303030303030303030303030303030303030303030303030303030303030303030303030322e6a736f6e00000000000000",
        "nonce": "0x14084",
        "chainId": "0xa"
      },
      "additionalContracts": [],
      "isFixedGasLimit": false
    },
    {
      "hash": "0xdb18c3ae5d265eeb3c2ed503e2b3551dc3a9f0eb1d322f28447c86e852882a1a",
      "transactionType": "CALL",
      "contractName": null,
      "contractAddress": "0xbc24012488bfcfe44875a139299595879c43c2cd",
      "function": "setBadgeTier(uint256,uint256,string,uint256)",
      "arguments": [
        "6",
        "3",
        "ipfs/QmZwGU3UjbGffjYaMwhDGNGyWprejH2FpKWDxrgS7TzRKm/00000000000000000000000000000000000000000000000000000000000000060000000000000000000000000000000000000000000000000000000000000003.json",
        "30"
      ],
      "transaction": {
        "from": "0x8835669696fb92839ab198cd80ce9f0d35f45ad5",
        "to": "0xbc24012488bfcfe44875a139299595879c43c2cd",
        "gas": "0x52588",
        "value": "0x0",
        "input": "0xcf132d1c000000000000000000000000000000000000000000000000000000000000000600000000000000000000000000000000000000000000000000000000000000030000000000000000000000000000000000000000000000000000000000000080000000000000000000000000000000000000000000000000000000000000001e00000000000000000000000000000000000000000000000000000000000000b9697066732f516d5a77475533556a624766666a59614d776844474e4779577072656a483246704b57447872675337547a524b6d2f30303030303030303030303030303030303030303030303030303030303030303030303030303030303030303030303030303030303030303030303030303036303030303030303030303030303030303030303030303030303030303030303030303030303030303030303030303030303030303030303030303030303030332e6a736f6e00000000000000",
        "nonce": "0x14085",
        "chainId": "0xa"
      },
      "additionalContracts": [],
      "isFixedGasLimit": false
    },
    {
      "hash": "0xf7759c7e95ae9f2b8ca853b141da11c79839cd8ec4ce51385bdf72163879d473",
      "transactionType": "CALL",
      "contractName": null,
      "contractAddress": "0xbc24012488bfcfe44875a139299595879c43c2cd",
      "function": "setBadgeTier(uint256,uint256,string,uint256)",
      "arguments": [
        "6",
        "4",
        "ipfs/QmZwGU3UjbGffjYaMwhDGNGyWprejH2FpKWDxrgS7TzRKm/00000000000000000000000000000000000000000000000000000000000000060000000000000000000000000000000000000000000000000000000000000004.json",
        "40"
      ],
      "transaction": {
        "from": "0x8835669696fb92839ab198cd80ce9f0d35f45ad5",
        "to": "0xbc24012488bfcfe44875a139299595879c43c2cd",
        "gas": "0x52588",
        "value": "0x0",
        "input": "0xcf132d1c000000000000000000000000000000000000000000000000000000000000000600000000000000000000000000000000000000000000000000000000000000040000000000000000000000000000000000000000000000000000000000000080000000000000000000000000000000000000000000000000000000000000002800000000000000000000000000000000000000000000000000000000000000b9697066732f516d5a77475533556a624766666a59614d776844474e4779577072656a483246704b57447872675337547a524b6d2f30303030303030303030303030303030303030303030303030303030303030303030303030303030303030303030303030303030303030303030303030303036303030303030303030303030303030303030303030303030303030303030303030303030303030303030303030303030303030303030303030303030303030342e6a736f6e00000000000000",
        "nonce": "0x14086",
        "chainId": "0xa"
      },
      "additionalContracts": [],
      "isFixedGasLimit": false
    },
    {
      "hash": "0x00e5e114979b04fe42c2c1d5d81b842584d98aa17a433db3bf7f2078c506c146",
      "transactionType": "CALL",
      "contractName": null,
      "contractAddress": "0xbc24012488bfcfe44875a139299595879c43c2cd",
      "function": "setBadgeTier(uint256,uint256,string,uint256)",
      "arguments": [
        "7",
        "1",
        "ipfs/QmZwGU3UjbGffjYaMwhDGNGyWprejH2FpKWDxrgS7TzRKm/00000000000000000000000000000000000000000000000000000000000000070000000000000000000000000000000000000000000000000000000000000001.json",
        "10"
      ],
      "transaction": {
        "from": "0x8835669696fb92839ab198cd80ce9f0d35f45ad5",
        "to": "0xbc24012488bfcfe44875a139299595879c43c2cd",
        "gas": "0x5285d",
        "value": "0x0",
        "input": "0xcf132d1c000000000000000000000000000000000000000000000000000000000000000700000000000000000000000000000000000000000000000000000000000000010000000000000000000000000000000000000000000000000000000000000080000000000000000000000000000000000000000000000000000000000000000a00000000000000000000000000000000000000000000000000000000000000b9697066732f516d5a77475533556a624766666a59614d776844474e4779577072656a483246704b57447872675337547a524b6d2f30303030303030303030303030303030303030303030303030303030303030303030303030303030303030303030303030303030303030303030303030303037303030303030303030303030303030303030303030303030303030303030303030303030303030303030303030303030303030303030303030303030303030312e6a736f6e00000000000000",
        "nonce": "0x14087",
        "chainId": "0xa"
      },
      "additionalContracts": [],
      "isFixedGasLimit": false
    },
    {
      "hash": "0xdcf9a7a51ae1660ba4c2f9764d89035136947d2bc99e579a4cb012a3ff917a43",
      "transactionType": "CALL",
      "contractName": null,
      "contractAddress": "0xbc24012488bfcfe44875a139299595879c43c2cd",
      "function": "setBadgeTier(uint256,uint256,string,uint256)",
      "arguments": [
        "7",
        "2",
        "ipfs/QmZwGU3UjbGffjYaMwhDGNGyWprejH2FpKWDxrgS7TzRKm/00000000000000000000000000000000000000000000000000000000000000070000000000000000000000000000000000000000000000000000000000000002.json",
        "20"
      ],
      "transaction": {
        "from": "0x8835669696fb92839ab198cd80ce9f0d35f45ad5",
        "to": "0xbc24012488bfcfe44875a139299595879c43c2cd",
        "gas": "0x52588",
        "value": "0x0",
        "input": "0xcf132d1c000000000000000000000000000000000000000000000000000000000000000700000000000000000000000000000000000000000000000000000000000000020000000000000000000000000000000000000000000000000000000000000080000000000000000000000000000000000000000000000000000000000000001400000000000000000000000000000000000000000000000000000000000000b9697066732f516d5a77475533556a624766666a59614d776844474e4779577072656a483246704b57447872675337547a524b6d2f30303030303030303030303030303030303030303030303030303030303030303030303030303030303030303030303030303030303030303030303030303037303030303030303030303030303030303030303030303030303030303030303030303030303030303030303030303030303030303030303030303030303030322e6a736f6e00000000000000",
        "nonce": "0x14088",
        "chainId": "0xa"
      },
      "additionalContracts": [],
      "isFixedGasLimit": false
    },
    {
      "hash": "0xd0a0deae87b44c8cf6df3e654d4689e08ac805f124fb5c41d09296b44bd3b112",
      "transactionType": "CALL",
      "contractName": null,
      "contractAddress": "0xbc24012488bfcfe44875a139299595879c43c2cd",
      "function": "setBadgeTier(uint256,uint256,string,uint256)",
      "arguments": [
        "7",
        "3",
        "ipfs/QmZwGU3UjbGffjYaMwhDGNGyWprejH2FpKWDxrgS7TzRKm/00000000000000000000000000000000000000000000000000000000000000070000000000000000000000000000000000000000000000000000000000000003.json",
        "30"
      ],
      "transaction": {
        "from": "0x8835669696fb92839ab198cd80ce9f0d35f45ad5",
        "to": "0xbc24012488bfcfe44875a139299595879c43c2cd",
        "gas": "0x52588",
        "value": "0x0",
        "input": "0xcf132d1c000000000000000000000000000000000000000000000000000000000000000700000000000000000000000000000000000000000000000000000000000000030000000000000000000000000000000000000000000000000000000000000080000000000000000000000000000000000000000000000000000000000000001e00000000000000000000000000000000000000000000000000000000000000b9697066732f516d5a77475533556a624766666a59614d776844474e4779577072656a483246704b57447872675337547a524b6d2f30303030303030303030303030303030303030303030303030303030303030303030303030303030303030303030303030303030303030303030303030303037303030303030303030303030303030303030303030303030303030303030303030303030303030303030303030303030303030303030303030303030303030332e6a736f6e00000000000000",
        "nonce": "0x14089",
        "chainId": "0xa"
      },
      "additionalContracts": [],
      "isFixedGasLimit": false
    },
    {
      "hash": "0x691aafcb00e914baf341fb7386fa6973e2bfac6a2fc9e1f10b981a0cece9599b",
      "transactionType": "CALL",
      "contractName": null,
      "contractAddress": "0xbc24012488bfcfe44875a139299595879c43c2cd",
      "function": "setBadgeTier(uint256,uint256,string,uint256)",
      "arguments": [
        "8",
        "1",
        "ipfs/QmZwGU3UjbGffjYaMwhDGNGyWprejH2FpKWDxrgS7TzRKm/00000000000000000000000000000000000000000000000000000000000000080000000000000000000000000000000000000000000000000000000000000001.json",
        "60"
      ],
      "transaction": {
        "from": "0x8835669696fb92839ab198cd80ce9f0d35f45ad5",
        "to": "0xbc24012488bfcfe44875a139299595879c43c2cd",
        "gas": "0x5285d",
        "value": "0x0",
        "input": "0xcf132d1c000000000000000000000000000000000000000000000000000000000000000800000000000000000000000000000000000000000000000000000000000000010000000000000000000000000000000000000000000000000000000000000080000000000000000000000000000000000000000000000000000000000000003c00000000000000000000000000000000000000000000000000000000000000b9697066732f516d5a77475533556a624766666a59614d776844474e4779577072656a483246704b57447872675337547a524b6d2f30303030303030303030303030303030303030303030303030303030303030303030303030303030303030303030303030303030303030303030303030303038303030303030303030303030303030303030303030303030303030303030303030303030303030303030303030303030303030303030303030303030303030312e6a736f6e00000000000000",
        "nonce": "0x1408a",
        "chainId": "0xa"
      },
      "additionalContracts": [],
      "isFixedGasLimit": false
    },
    {
      "hash": "0x1011ac7f4d5aa29ecd3f847f582fd4eb55d9316c43bddfa5d04bb9e2701aae58",
      "transactionType": "CALL",
      "contractName": null,
      "contractAddress": "0xbc24012488bfcfe44875a139299595879c43c2cd",
      "function": "setBadgeTier(uint256,uint256,string,uint256)",
      "arguments": [
        "9",
        "1",
        "ipfs/QmZwGU3UjbGffjYaMwhDGNGyWprejH2FpKWDxrgS7TzRKm/00000000000000000000000000000000000000000000000000000000000000090000000000000000000000000000000000000000000000000000000000000001.json",
        "10"
      ],
      "transaction": {
        "from": "0x8835669696fb92839ab198cd80ce9f0d35f45ad5",
        "to": "0xbc24012488bfcfe44875a139299595879c43c2cd",
        "gas": "0x5285d",
        "value": "0x0",
        "input": "0xcf132d1c000000000000000000000000000000000000000000000000000000000000000900000000000000000000000000000000000000000000000000000000000000010000000000000000000000000000000000000000000000000000000000000080000000000000000000000000000000000000000000000000000000000000000a00000000000000000000000000000000000000000000000000000000000000b9697066732f516d5a77475533556a624766666a59614d776844474e4779577072656a483246704b57447872675337547a524b6d2f30303030303030303030303030303030303030303030303030303030303030303030303030303030303030303030303030303030303030303030303030303039303030303030303030303030303030303030303030303030303030303030303030303030303030303030303030303030303030303030303030303030303030312e6a736f6e00000000000000",
        "nonce": "0x1408b",
        "chainId": "0xa"
      },
      "additionalContracts": [],
      "isFixedGasLimit": false
    },
    {
      "hash": "0x80575a67d94f15200f7d2f715f00a5fcb1e5c55a8fbb4942beb6f60f0672e145",
      "transactionType": "CALL",
      "contractName": null,
      "contractAddress": "0xbc24012488bfcfe44875a139299595879c43c2cd",
      "function": "setBadgeTier(uint256,uint256,string,uint256)",
      "arguments": [
        "9",
        "2",
        "ipfs/QmZwGU3UjbGffjYaMwhDGNGyWprejH2FpKWDxrgS7TzRKm/00000000000000000000000000000000000000000000000000000000000000090000000000000000000000000000000000000000000000000000000000000002.json",
        "20"
      ],
      "transaction": {
        "from": "0x8835669696fb92839ab198cd80ce9f0d35f45ad5",
        "to": "0xbc24012488bfcfe44875a139299595879c43c2cd",
        "gas": "0x52588",
        "value": "0x0",
        "input": "0xcf132d1c000000000000000000000000000000000000000000000000000000000000000900000000000000000000000000000000000000000000000000000000000000020000000000000000000000000000000000000000000000000000000000000080000000000000000000000000000000000000000000000000000000000000001400000000000000000000000000000000000000000000000000000000000000b9697066732f516d5a77475533556a624766666a59614d776844474e4779577072656a483246704b57447872675337547a524b6d2f30303030303030303030303030303030303030303030303030303030303030303030303030303030303030303030303030303030303030303030303030303039303030303030303030303030303030303030303030303030303030303030303030303030303030303030303030303030303030303030303030303030303030322e6a736f6e00000000000000",
        "nonce": "0x1408c",
        "chainId": "0xa"
      },
      "additionalContracts": [],
      "isFixedGasLimit": false
    },
    {
      "hash": "0x950f414da638e284194b4a66bc96a15f69c2c73d9e737283e9b1784549b9b76e",
      "transactionType": "CALL",
      "contractName": null,
      "contractAddress": "0xbc24012488bfcfe44875a139299595879c43c2cd",
      "function": "setBadgeTier(uint256,uint256,string,uint256)",
      "arguments": [
        "9",
        "3",
        "ipfs/QmZwGU3UjbGffjYaMwhDGNGyWprejH2FpKWDxrgS7TzRKm/00000000000000000000000000000000000000000000000000000000000000090000000000000000000000000000000000000000000000000000000000000003.json",
        "30"
      ],
      "transaction": {
        "from": "0x8835669696fb92839ab198cd80ce9f0d35f45ad5",
        "to": "0xbc24012488bfcfe44875a139299595879c43c2cd",
        "gas": "0x52588",
        "value": "0x0",
        "input": "0xcf132d1c000000000000000000000000000000000000000000000000000000000000000900000000000000000000000000000000000000000000000000000000000000030000000000000000000000000000000000000000000000000000000000000080000000000000000000000000000000000000000000000000000000000000001e00000000000000000000000000000000000000000000000000000000000000b9697066732f516d5a77475533556a624766666a59614d776844474e4779577072656a483246704b57447872675337547a524b6d2f30303030303030303030303030303030303030303030303030303030303030303030303030303030303030303030303030303030303030303030303030303039303030303030303030303030303030303030303030303030303030303030303030303030303030303030303030303030303030303030303030303030303030332e6a736f6e00000000000000",
        "nonce": "0x1408d",
        "chainId": "0xa"
      },
      "additionalContracts": [],
      "isFixedGasLimit": false
    },
    {
      "hash": "0xfd2f6751fabf86a1fdcb5df44038b76b719996e3671d834fafe83970b21a4433",
      "transactionType": "CALL",
      "contractName": null,
      "contractAddress": "0xbc24012488bfcfe44875a139299595879c43c2cd",
      "function": "setBadgeTier(uint256,uint256,string,uint256)",
      "arguments": [
        "9",
        "4",
        "ipfs/QmZwGU3UjbGffjYaMwhDGNGyWprejH2FpKWDxrgS7TzRKm/00000000000000000000000000000000000000000000000000000000000000090000000000000000000000000000000000000000000000000000000000000004.json",
        "40"
      ],
      "transaction": {
        "from": "0x8835669696fb92839ab198cd80ce9f0d35f45ad5",
        "to": "0xbc24012488bfcfe44875a139299595879c43c2cd",
        "gas": "0x52588",
        "value": "0x0",
        "input": "0xcf132d1c000000000000000000000000000000000000000000000000000000000000000900000000000000000000000000000000000000000000000000000000000000040000000000000000000000000000000000000000000000000000000000000080000000000000000000000000000000000000000000000000000000000000002800000000000000000000000000000000000000000000000000000000000000b9697066732f516d5a77475533556a624766666a59614d776844474e4779577072656a483246704b57447872675337547a524b6d2f30303030303030303030303030303030303030303030303030303030303030303030303030303030303030303030303030303030303030303030303030303039303030303030303030303030303030303030303030303030303030303030303030303030303030303030303030303030303030303030303030303030303030342e6a736f6e00000000000000",
        "nonce": "0x1408e",
        "chainId": "0xa"
      },
      "additionalContracts": [],
      "isFixedGasLimit": false
    },
    {
      "hash": "0x5692f5125f829b8dcbbf3f486426407fbdf72ad72c34b343eaf910b5d9dea1ad",
      "transactionType": "CALL",
      "contractName": null,
      "contractAddress": "0xbc24012488bfcfe44875a139299595879c43c2cd",
      "function": "setBadgeTier(uint256,uint256,string,uint256)",
      "arguments": [
        "10",
        "1",
        "ipfs/QmZwGU3UjbGffjYaMwhDGNGyWprejH2FpKWDxrgS7TzRKm/00000000000000000000000000000000000000000000000000000000000000100000000000000000000000000000000000000000000000000000000000000001.json",
        "100"
      ],
      "transaction": {
        "from": "0x8835669696fb92839ab198cd80ce9f0d35f45ad5",
        "to": "0xbc24012488bfcfe44875a139299595879c43c2cd",
        "gas": "0x5285d",
        "value": "0x0",
        "input": "0xcf132d1c000000000000000000000000000000000000000000000000000000000000000a00000000000000000000000000000000000000000000000000000000000000010000000000000000000000000000000000000000000000000000000000000080000000000000000000000000000000000000000000000000000000000000006400000000000000000000000000000000000000000000000000000000000000b9697066732f516d5a77475533556a624766666a59614d776844474e4779577072656a483246704b57447872675337547a524b6d2f30303030303030303030303030303030303030303030303030303030303030303030303030303030303030303030303030303030303030303030303030303130303030303030303030303030303030303030303030303030303030303030303030303030303030303030303030303030303030303030303030303030303030312e6a736f6e00000000000000",
        "nonce": "0x1408f",
        "chainId": "0xa"
      },
      "additionalContracts": [],
      "isFixedGasLimit": false
    },
    {
      "hash": "0x95ebc4cf17241ba3f16b0567acca79a62d47a2051228e5a4ae4db47b23161397",
      "transactionType": "CALL",
      "contractName": null,
      "contractAddress": "0xbc24012488bfcfe44875a139299595879c43c2cd",
      "function": "setBadgeTier(uint256,uint256,string,uint256)",
      "arguments": [
        "11",
        "1",
        "ipfs/QmZwGU3UjbGffjYaMwhDGNGyWprejH2FpKWDxrgS7TzRKm/00000000000000000000000000000000000000000000000000000000000000110000000000000000000000000000000000000000000000000000000000000001.json",
        "10"
      ],
      "transaction": {
        "from": "0x8835669696fb92839ab198cd80ce9f0d35f45ad5",
        "to": "0xbc24012488bfcfe44875a139299595879c43c2cd",
        "gas": "0x5285d",
        "value": "0x0",
        "input": "0xcf132d1c000000000000000000000000000000000000000000000000000000000000000b00000000000000000000000000000000000000000000000000000000000000010000000000000000000000000000000000000000000000000000000000000080000000000000000000000000000000000000000000000000000000000000000a00000000000000000000000000000000000000000000000000000000000000b9697066732f516d5a77475533556a624766666a59614d776844474e4779577072656a483246704b57447872675337547a524b6d2f30303030303030303030303030303030303030303030303030303030303030303030303030303030303030303030303030303030303030303030303030303131303030303030303030303030303030303030303030303030303030303030303030303030303030303030303030303030303030303030303030303030303030312e6a736f6e00000000000000",
        "nonce": "0x14090",
        "chainId": "0xa"
      },
      "additionalContracts": [],
      "isFixedGasLimit": false
    },
    {
      "hash": "0xa1af42821e23fcac09fcce954158a5073d6c83f68399ea41729fc7f247ea464b",
      "transactionType": "CALL",
      "contractName": null,
      "contractAddress": "0xbc24012488bfcfe44875a139299595879c43c2cd",
      "function": "setBadgeTier(uint256,uint256,string,uint256)",
      "arguments": [
        "11",
        "2",
        "ipfs/QmZwGU3UjbGffjYaMwhDGNGyWprejH2FpKWDxrgS7TzRKm/00000000000000000000000000000000000000000000000000000000000000110000000000000000000000000000000000000000000000000000000000000002.json",
        "20"
      ],
      "transaction": {
        "from": "0x8835669696fb92839ab198cd80ce9f0d35f45ad5",
        "to": "0xbc24012488bfcfe44875a139299595879c43c2cd",
        "gas": "0x52588",
        "value": "0x0",
        "input": "0xcf132d1c000000000000000000000000000000000000000000000000000000000000000b00000000000000000000000000000000000000000000000000000000000000020000000000000000000000000000000000000000000000000000000000000080000000000000000000000000000000000000000000000000000000000000001400000000000000000000000000000000000000000000000000000000000000b9697066732f516d5a77475533556a624766666a59614d776844474e4779577072656a483246704b57447872675337547a524b6d2f30303030303030303030303030303030303030303030303030303030303030303030303030303030303030303030303030303030303030303030303030303131303030303030303030303030303030303030303030303030303030303030303030303030303030303030303030303030303030303030303030303030303030322e6a736f6e00000000000000",
        "nonce": "0x14091",
        "chainId": "0xa"
      },
      "additionalContracts": [],
      "isFixedGasLimit": false
    },
    {
      "hash": "0x4ac42c9bbafccf5e76658138b6aa913b39480300904b44f5b3d45d203b83545d",
      "transactionType": "CALL",
      "contractName": null,
      "contractAddress": "0xbc24012488bfcfe44875a139299595879c43c2cd",
      "function": "setBadgeTier(uint256,uint256,string,uint256)",
      "arguments": [
        "11",
        "3",
        "ipfs/QmZwGU3UjbGffjYaMwhDGNGyWprejH2FpKWDxrgS7TzRKm/00000000000000000000000000000000000000000000000000000000000000110000000000000000000000000000000000000000000000000000000000000003.json",
        "30"
      ],
      "transaction": {
        "from": "0x8835669696fb92839ab198cd80ce9f0d35f45ad5",
        "to": "0xbc24012488bfcfe44875a139299595879c43c2cd",
        "gas": "0x52588",
        "value": "0x0",
        "input": "0xcf132d1c000000000000000000000000000000000000000000000000000000000000000b00000000000000000000000000000000000000000000000000000000000000030000000000000000000000000000000000000000000000000000000000000080000000000000000000000000000000000000000000000000000000000000001e00000000000000000000000000000000000000000000000000000000000000b9697066732f516d5a77475533556a624766666a59614d776844474e4779577072656a483246704b57447872675337547a524b6d2f30303030303030303030303030303030303030303030303030303030303030303030303030303030303030303030303030303030303030303030303030303131303030303030303030303030303030303030303030303030303030303030303030303030303030303030303030303030303030303030303030303030303030332e6a736f6e00000000000000",
        "nonce": "0x14092",
        "chainId": "0xa"
      },
      "additionalContracts": [],
      "isFixedGasLimit": false
    },
    {
      "hash": "0xde68cf7032a412b2fe1bd3ef58dbd2194dec0a6ccedbf25bfb47d9b037d51657",
      "transactionType": "CALL",
      "contractName": null,
      "contractAddress": "0xbc24012488bfcfe44875a139299595879c43c2cd",
      "function": "setBadgeTier(uint256,uint256,string,uint256)",
      "arguments": [
        "11",
        "4",
        "ipfs/QmZwGU3UjbGffjYaMwhDGNGyWprejH2FpKWDxrgS7TzRKm/00000000000000000000000000000000000000000000000000000000000000110000000000000000000000000000000000000000000000000000000000000004.json",
        "40"
      ],
      "transaction": {
        "from": "0x8835669696fb92839ab198cd80ce9f0d35f45ad5",
        "to": "0xbc24012488bfcfe44875a139299595879c43c2cd",
        "gas": "0x52588",
        "value": "0x0",
        "input": "0xcf132d1c000000000000000000000000000000000000000000000000000000000000000b00000000000000000000000000000000000000000000000000000000000000040000000000000000000000000000000000000000000000000000000000000080000000000000000000000000000000000000000000000000000000000000002800000000000000000000000000000000000000000000000000000000000000b9697066732f516d5a77475533556a624766666a59614d776844474e4779577072656a483246704b57447872675337547a524b6d2f30303030303030303030303030303030303030303030303030303030303030303030303030303030303030303030303030303030303030303030303030303131303030303030303030303030303030303030303030303030303030303030303030303030303030303030303030303030303030303030303030303030303030342e6a736f6e00000000000000",
        "nonce": "0x14093",
        "chainId": "0xa"
      },
      "additionalContracts": [],
      "isFixedGasLimit": false
    },
    {
      "hash": "0xe96072ee8a1c442e111130cdcacba097b525f0b4a3c9072b2f59a23fda8bb0d9",
      "transactionType": "CALL",
      "contractName": null,
      "contractAddress": "0xbc24012488bfcfe44875a139299595879c43c2cd",
      "function": "setBadgeTier(uint256,uint256,string,uint256)",
      "arguments": [
        "11",
        "5",
        "ipfs/QmZwGU3UjbGffjYaMwhDGNGyWprejH2FpKWDxrgS7TzRKm/00000000000000000000000000000000000000000000000000000000000000110000000000000000000000000000000000000000000000000000000000000005.json",
        "50"
      ],
      "transaction": {
        "from": "0x8835669696fb92839ab198cd80ce9f0d35f45ad5",
        "to": "0xbc24012488bfcfe44875a139299595879c43c2cd",
        "gas": "0x52588",
        "value": "0x0",
        "input": "0xcf132d1c000000000000000000000000000000000000000000000000000000000000000b00000000000000000000000000000000000000000000000000000000000000050000000000000000000000000000000000000000000000000000000000000080000000000000000000000000000000000000000000000000000000000000003200000000000000000000000000000000000000000000000000000000000000b9697066732f516d5a77475533556a624766666a59614d776844474e4779577072656a483246704b57447872675337547a524b6d2f30303030303030303030303030303030303030303030303030303030303030303030303030303030303030303030303030303030303030303030303030303131303030303030303030303030303030303030303030303030303030303030303030303030303030303030303030303030303030303030303030303030303030352e6a736f6e00000000000000",
        "nonce": "0x14094",
        "chainId": "0xa"
      },
      "additionalContracts": [],
      "isFixedGasLimit": false
    }
  ],
  "receipts": [
    {
      "status": "0x1",
      "cumulativeGasUsed": "0x7bedd9",
      "logs": [
        {
          "address": "0xbc24012488bfcfe44875a139299595879c43c2cd",
          "topics": [
            "0x5625f15df4cbadf2e6e3f80e2406aec5d99a432335ef0e9a1fba9e48b0558303",
            "0x0000000000000000000000000000000000000000000000000000000000000001"
          ],
          "data": "0x00000000000000000000000000000000000000000000000000000000000000010000000000000000000000000000000000000000000000000000000000000060000000000000000000000000000000000000000000000000000000000000000a00000000000000000000000000000000000000000000000000000000000000b9697066732f516d5a77475533556a624766666a59614d776844474e4779577072656a483246704b57447872675337547a524b6d2f30303030303030303030303030303030303030303030303030303030303030303030303030303030303030303030303030303030303030303030303030303031303030303030303030303030303030303030303030303030303030303030303030303030303030303030303030303030303030303030303030303030303030312e6a736f6e00000000000000",
          "blockHash": "0xc7380ac3cb8e552466bb16bd86b58c2ae22811a9c5db39670196ca4c9fc69f83",
          "blockNumber": "0x7f7e0eb",
          "blockTimestamp": "0x67e39b8f",
          "transactionHash": "0x30d0ae8f7734f8e255e26564c5f89e137a08e16a6607fe2959389deea4ec13a2",
          "transactionIndex": "0x12",
          "logIndex": "0x2b",
          "removed": false
        }
      ],
      "logsBloom": "0x00000000040000000200000000000000000000000000000000000000000000000000000000000000000000000000000000000000000000000000000000040000000000000000000000000000000000000000000000040000000000000000000000040000000000000000000000000000000000000000000000000000000000000000000000000000000000000000000000000000000000000000000000000000000000000000000000000000000000000000000000000000000000000000000000000000000000000000004000000000000000000000000000004000000040000000000000000000000000000000000000000000010000000000000000000000",
      "type": "0x2",
      "transactionHash": "0x30d0ae8f7734f8e255e26564c5f89e137a08e16a6607fe2959389deea4ec13a2",
      "transactionIndex": "0x12",
      "blockHash": "0xc7380ac3cb8e552466bb16bd86b58c2ae22811a9c5db39670196ca4c9fc69f83",
      "blockNumber": "0x7f7e0eb",
      "gasUsed": "0x3bbec",
      "effectiveGasPrice": "0x1160e",
      "from": "0x8835669696fb92839ab198cd80ce9f0d35f45ad5",
      "to": "0xbc24012488bfcfe44875a139299595879c43c2cd",
      "contractAddress": null,
      "l1BaseFeeScalar": "0x146b",
      "l1BlobBaseFee": "0x1",
      "l1BlobBaseFeeScalar": "0xf79c5",
      "l1Fee": "0x10ab6cbae",
      "l1GasPrice": "0x16488b35",
      "l1GasUsed": "0x8f1"
    },
    {
      "status": "0x1",
      "cumulativeGasUsed": "0x9d03d6",
      "logs": [
        {
          "address": "0xbc24012488bfcfe44875a139299595879c43c2cd",
          "topics": [
            "0x5625f15df4cbadf2e6e3f80e2406aec5d99a432335ef0e9a1fba9e48b0558303",
            "0x0000000000000000000000000000000000000000000000000000000000000001"
          ],
          "data": "0x00000000000000000000000000000000000000000000000000000000000000020000000000000000000000000000000000000000000000000000000000000060000000000000000000000000000000000000000000000000000000000000001400000000000000000000000000000000000000000000000000000000000000b9697066732f516d5a77475533556a624766666a59614d776844474e4779577072656a483246704b57447872675337547a524b6d2f30303030303030303030303030303030303030303030303030303030303030303030303030303030303030303030303030303030303030303030303030303031303030303030303030303030303030303030303030303030303030303030303030303030303030303030303030303030303030303030303030303030303030322e6a736f6e00000000000000",
          "blockHash": "0xc7380ac3cb8e552466bb16bd86b58c2ae22811a9c5db39670196ca4c9fc69f83",
          "blockNumber": "0x7f7e0eb",
          "blockTimestamp": "0x67e39b8f",
          "transactionHash": "0x6eb858ae3c9c195e2f7b137ef40bb2af9511fd9bad893336ae28f4f6de816e9b",
          "transactionIndex": "0x14",
          "logIndex": "0x2c",
          "removed": false
        }
      ],
      "logsBloom": "0x00000000040000000200000000000000000000000000000000000000000000000000000000000000000000000000000000000000000000000000000000040000000000000000000000000000000000000000000000040000000000000000000000040000000000000000000000000000000000000000000000000000000000000000000000000000000000000000000000000000000000000000000000000000000000000000000000000000000000000000000000000000000000000000000000000000000000000000004000000000000000000000000000004000000040000000000000000000000000000000000000000000010000000000000000000000",
      "type": "0x2",
      "transactionHash": "0x6eb858ae3c9c195e2f7b137ef40bb2af9511fd9bad893336ae28f4f6de816e9b",
      "transactionIndex": "0x14",
      "blockHash": "0xc7380ac3cb8e552466bb16bd86b58c2ae22811a9c5db39670196ca4c9fc69f83",
      "blockNumber": "0x7f7e0eb",
      "gasUsed": "0x384e1",
      "effectiveGasPrice": "0x1160e",
      "from": "0x8835669696fb92839ab198cd80ce9f0d35f45ad5",
      "to": "0xbc24012488bfcfe44875a139299595879c43c2cd",
      "contractAddress": null,
      "l1BaseFeeScalar": "0x146b",
      "l1BlobBaseFee": "0x1",
      "l1BlobBaseFeeScalar": "0xf79c5",
      "l1Fee": "0x10f6408b2",
      "l1GasPrice": "0x16488b35",
      "l1GasUsed": "0x91a"
    },
    {
      "status": "0x1",
      "cumulativeGasUsed": "0xa088b7",
      "logs": [
        {
          "address": "0xbc24012488bfcfe44875a139299595879c43c2cd",
          "topics": [
            "0x5625f15df4cbadf2e6e3f80e2406aec5d99a432335ef0e9a1fba9e48b0558303",
            "0x0000000000000000000000000000000000000000000000000000000000000001"
          ],
          "data": "0x00000000000000000000000000000000000000000000000000000000000000030000000000000000000000000000000000000000000000000000000000000060000000000000000000000000000000000000000000000000000000000000001e00000000000000000000000000000000000000000000000000000000000000b9697066732f516d5a77475533556a624766666a59614d776844474e4779577072656a483246704b57447872675337547a524b6d2f30303030303030303030303030303030303030303030303030303030303030303030303030303030303030303030303030303030303030303030303030303031303030303030303030303030303030303030303030303030303030303030303030303030303030303030303030303030303030303030303030303030303030332e6a736f6e00000000000000",
          "blockHash": "0xc7380ac3cb8e552466bb16bd86b58c2ae22811a9c5db39670196ca4c9fc69f83",
          "blockNumber": "0x7f7e0eb",
          "blockTimestamp": "0x67e39b8f",
          "transactionHash": "0xfe9049131d137467b338f1961d2e4e226481b5afa3e8589e98a51a3e8a2a43c6",
          "transactionIndex": "0x15",
          "logIndex": "0x2d",
          "removed": false
        }
      ],
      "logsBloom": "0x00000000040000000200000000000000000000000000000000000000000000000000000000000000000000000000000000000000000000000000000000040000000000000000000000000000000000000000000000040000000000000000000000040000000000000000000000000000000000000000000000000000000000000000000000000000000000000000000000000000000000000000000000000000000000000000000000000000000000000000000000000000000000000000000000000000000000000000004000000000000000000000000000004000000040000000000000000000000000000000000000000000010000000000000000000000",
      "type": "0x2",
      "transactionHash": "0xfe9049131d137467b338f1961d2e4e226481b5afa3e8589e98a51a3e8a2a43c6",
      "transactionIndex": "0x15",
      "blockHash": "0xc7380ac3cb8e552466bb16bd86b58c2ae22811a9c5db39670196ca4c9fc69f83",
      "blockNumber": "0x7f7e0eb",
      "gasUsed": "0x384e1",
      "effectiveGasPrice": "0x1160e",
      "from": "0x8835669696fb92839ab198cd80ce9f0d35f45ad5",
      "to": "0xbc24012488bfcfe44875a139299595879c43c2cd",
      "contractAddress": null,
      "l1BaseFeeScalar": "0x146b",
      "l1BlobBaseFee": "0x1",
      "l1BlobBaseFeeScalar": "0xf79c5",
      "l1Fee": "0x10f6408b2",
      "l1GasPrice": "0x16488b35",
      "l1GasUsed": "0x91a"
    },
    {
      "status": "0x1",
      "cumulativeGasUsed": "0xa40d98",
      "logs": [
        {
          "address": "0xbc24012488bfcfe44875a139299595879c43c2cd",
          "topics": [
            "0x5625f15df4cbadf2e6e3f80e2406aec5d99a432335ef0e9a1fba9e48b0558303",
            "0x0000000000000000000000000000000000000000000000000000000000000001"
          ],
          "data": "0x00000000000000000000000000000000000000000000000000000000000000040000000000000000000000000000000000000000000000000000000000000060000000000000000000000000000000000000000000000000000000000000002800000000000000000000000000000000000000000000000000000000000000b9697066732f516d5a77475533556a624766666a59614d776844474e4779577072656a483246704b57447872675337547a524b6d2f30303030303030303030303030303030303030303030303030303030303030303030303030303030303030303030303030303030303030303030303030303031303030303030303030303030303030303030303030303030303030303030303030303030303030303030303030303030303030303030303030303030303030342e6a736f6e00000000000000",
          "blockHash": "0xc7380ac3cb8e552466bb16bd86b58c2ae22811a9c5db39670196ca4c9fc69f83",
          "blockNumber": "0x7f7e0eb",
          "blockTimestamp": "0x67e39b8f",
          "transactionHash": "0xf8373f432812251fc795a5bc959bf2871bb50f2e2ab00a91ace62beb7459d345",
          "transactionIndex": "0x16",
          "logIndex": "0x2e",
          "removed": false
        }
      ],
      "logsBloom": "0x00000000040000000200000000000000000000000000000000000000000000000000000000000000000000000000000000000000000000000000000000040000000000000000000000000000000000000000000000040000000000000000000000040000000000000000000000000000000000000000000000000000000000000000000000000000000000000000000000000000000000000000000000000000000000000000000000000000000000000000000000000000000000000000000000000000000000000000004000000000000000000000000000004000000040000000000000000000000000000000000000000000010000000000000000000000",
      "type": "0x2",
      "transactionHash": "0xf8373f432812251fc795a5bc959bf2871bb50f2e2ab00a91ace62beb7459d345",
      "transactionIndex": "0x16",
      "blockHash": "0xc7380ac3cb8e552466bb16bd86b58c2ae22811a9c5db39670196ca4c9fc69f83",
      "blockNumber": "0x7f7e0eb",
      "gasUsed": "0x384e1",
      "effectiveGasPrice": "0x1160e",
      "from": "0x8835669696fb92839ab198cd80ce9f0d35f45ad5",
      "to": "0xbc24012488bfcfe44875a139299595879c43c2cd",
      "contractAddress": null,
      "l1BaseFeeScalar": "0x146b",
      "l1BlobBaseFee": "0x1",
      "l1BlobBaseFeeScalar": "0xf79c5",
      "l1Fee": "0x10f6408b2",
      "l1GasPrice": "0x16488b35",
      "l1GasUsed": "0x91a"
    },
    {
      "status": "0x1",
      "cumulativeGasUsed": "0xa79279",
      "logs": [
        {
          "address": "0xbc24012488bfcfe44875a139299595879c43c2cd",
          "topics": [
            "0x5625f15df4cbadf2e6e3f80e2406aec5d99a432335ef0e9a1fba9e48b0558303",
            "0x0000000000000000000000000000000000000000000000000000000000000001"
          ],
          "data": "0x00000000000000000000000000000000000000000000000000000000000000050000000000000000000000000000000000000000000000000000000000000060000000000000000000000000000000000000000000000000000000000000003200000000000000000000000000000000000000000000000000000000000000b9697066732f516d5a77475533556a624766666a59614d776844474e4779577072656a483246704b57447872675337547a524b6d2f30303030303030303030303030303030303030303030303030303030303030303030303030303030303030303030303030303030303030303030303030303031303030303030303030303030303030303030303030303030303030303030303030303030303030303030303030303030303030303030303030303030303030352e6a736f6e00000000000000",
          "blockHash": "0xc7380ac3cb8e552466bb16bd86b58c2ae22811a9c5db39670196ca4c9fc69f83",
          "blockNumber": "0x7f7e0eb",
          "blockTimestamp": "0x67e39b8f",
          "transactionHash": "0xb921c700328d6beac10600b19bebcf3bc4355e6f6878944964e8f7a09fe9b75f",
          "transactionIndex": "0x17",
          "logIndex": "0x2f",
          "removed": false
        }
      ],
      "logsBloom": "0x00000000040000000200000000000000000000000000000000000000000000000000000000000000000000000000000000000000000000000000000000040000000000000000000000000000000000000000000000040000000000000000000000040000000000000000000000000000000000000000000000000000000000000000000000000000000000000000000000000000000000000000000000000000000000000000000000000000000000000000000000000000000000000000000000000000000000000000004000000000000000000000000000004000000040000000000000000000000000000000000000000000010000000000000000000000",
      "type": "0x2",
      "transactionHash": "0xb921c700328d6beac10600b19bebcf3bc4355e6f6878944964e8f7a09fe9b75f",
      "transactionIndex": "0x17",
      "blockHash": "0xc7380ac3cb8e552466bb16bd86b58c2ae22811a9c5db39670196ca4c9fc69f83",
      "blockNumber": "0x7f7e0eb",
      "gasUsed": "0x384e1",
      "effectiveGasPrice": "0x1160e",
      "from": "0x8835669696fb92839ab198cd80ce9f0d35f45ad5",
      "to": "0xbc24012488bfcfe44875a139299595879c43c2cd",
      "contractAddress": null,
      "l1BaseFeeScalar": "0x146b",
      "l1BlobBaseFee": "0x1",
      "l1BlobBaseFeeScalar": "0xf79c5",
      "l1Fee": "0x10f6408b2",
      "l1GasPrice": "0x16488b35",
      "l1GasUsed": "0x91a"
    },
    {
      "status": "0x1",
      "cumulativeGasUsed": "0xab4e65",
      "logs": [
        {
          "address": "0xbc24012488bfcfe44875a139299595879c43c2cd",
          "topics": [
            "0x5625f15df4cbadf2e6e3f80e2406aec5d99a432335ef0e9a1fba9e48b0558303",
            "0x0000000000000000000000000000000000000000000000000000000000000002"
          ],
          "data": "0x00000000000000000000000000000000000000000000000000000000000000010000000000000000000000000000000000000000000000000000000000000060000000000000000000000000000000000000000000000000000000000000000a00000000000000000000000000000000000000000000000000000000000000b9697066732f516d5a77475533556a624766666a59614d776844474e4779577072656a483246704b57447872675337547a524b6d2f30303030303030303030303030303030303030303030303030303030303030303030303030303030303030303030303030303030303030303030303030303032303030303030303030303030303030303030303030303030303030303030303030303030303030303030303030303030303030303030303030303030303030312e6a736f6e00000000000000",
          "blockHash": "0xc7380ac3cb8e552466bb16bd86b58c2ae22811a9c5db39670196ca4c9fc69f83",
          "blockNumber": "0x7f7e0eb",
          "blockTimestamp": "0x67e39b8f",
          "transactionHash": "0x2abf93ddd51103891c858cd2f78f8abe8a5c06b1c9bb1a03992b2c1910c366e6",
          "transactionIndex": "0x18",
          "logIndex": "0x30",
          "removed": false
        }
      ],
      "logsBloom": "0x04000000040000000200000000000000000000000000000000000000000000000000000000000000000000000000000000000000000000000000000000000000000000000000000000000000000000000000000000000000000000000000000000040000000000000000000000000000000000000000000000000000000000000000000000000000000000000000000000000000000000000000000000000000000000000000000000000100000000000000000000000000000000000000000000000000000000000000004000000000000000000000000000004000000000000000000000000000000000000000000000000000018000000000000000000000",
      "type": "0x2",
      "transactionHash": "0x2abf93ddd51103891c858cd2f78f8abe8a5c06b1c9bb1a03992b2c1910c366e6",
      "transactionIndex": "0x18",
      "blockHash": "0xc7380ac3cb8e552466bb16bd86b58c2ae22811a9c5db39670196ca4c9fc69f83",
      "blockNumber": "0x7f7e0eb",
      "gasUsed": "0x3bbec",
      "effectiveGasPrice": "0x1160e",
      "from": "0x8835669696fb92839ab198cd80ce9f0d35f45ad5",
      "to": "0xbc24012488bfcfe44875a139299595879c43c2cd",
      "contractAddress": null,
      "l1BaseFeeScalar": "0x146b",
      "l1BlobBaseFee": "0x1",
      "l1BlobBaseFeeScalar": "0xf79c5",
      "l1Fee": "0x10f6408b2",
      "l1GasPrice": "0x16488b35",
      "l1GasUsed": "0x91a"
    },
    {
      "status": "0x1",
      "cumulativeGasUsed": "0xaed346",
      "logs": [
        {
          "address": "0xbc24012488bfcfe44875a139299595879c43c2cd",
          "topics": [
            "0x5625f15df4cbadf2e6e3f80e2406aec5d99a432335ef0e9a1fba9e48b0558303",
            "0x0000000000000000000000000000000000000000000000000000000000000002"
          ],
          "data": "0x00000000000000000000000000000000000000000000000000000000000000020000000000000000000000000000000000000000000000000000000000000060000000000000000000000000000000000000000000000000000000000000001400000000000000000000000000000000000000000000000000000000000000b9697066732f516d5a77475533556a624766666a59614d776844474e4779577072656a483246704b57447872675337547a524b6d2f30303030303030303030303030303030303030303030303030303030303030303030303030303030303030303030303030303030303030303030303030303032303030303030303030303030303030303030303030303030303030303030303030303030303030303030303030303030303030303030303030303030303030322e6a736f6e00000000000000",
          "blockHash": "0xc7380ac3cb8e552466bb16bd86b58c2ae22811a9c5db39670196ca4c9fc69f83",
          "blockNumber": "0x7f7e0eb",
          "blockTimestamp": "0x67e39b8f",
          "transactionHash": "0xb7f3726ba267136ccd00d437d97c9e524dd6c3de8921415264de05a4b3e69a27",
          "transactionIndex": "0x19",
          "logIndex": "0x31",
          "removed": false
        }
      ],
      "logsBloom": "0x04000000040000000200000000000000000000000000000000000000000000000000000000000000000000000000000000000000000000000000000000000000000000000000000000000000000000000000000000000000000000000000000000040000000000000000000000000000000000000000000000000000000000000000000000000000000000000000000000000000000000000000000000000000000000000000000000000100000000000000000000000000000000000000000000000000000000000000004000000000000000000000000000004000000000000000000000000000000000000000000000000000018000000000000000000000",
      "type": "0x2",
      "transactionHash": "0xb7f3726ba267136ccd00d437d97c9e524dd6c3de8921415264de05a4b3e69a27",
      "transactionIndex": "0x19",
      "blockHash": "0xc7380ac3cb8e552466bb16bd86b58c2ae22811a9c5db39670196ca4c9fc69f83",
      "blockNumber": "0x7f7e0eb",
      "gasUsed": "0x384e1",
      "effectiveGasPrice": "0x1160e",
      "from": "0x8835669696fb92839ab198cd80ce9f0d35f45ad5",
      "to": "0xbc24012488bfcfe44875a139299595879c43c2cd",
      "contractAddress": null,
      "l1BaseFeeScalar": "0x146b",
      "l1BlobBaseFee": "0x1",
      "l1BlobBaseFeeScalar": "0xf79c5",
      "l1Fee": "0x10ab6cbae",
      "l1GasPrice": "0x16488b35",
      "l1GasUsed": "0x8f1"
    },
    {
      "status": "0x1",
      "cumulativeGasUsed": "0xb25827",
      "logs": [
        {
          "address": "0xbc24012488bfcfe44875a139299595879c43c2cd",
          "topics": [
            "0x5625f15df4cbadf2e6e3f80e2406aec5d99a432335ef0e9a1fba9e48b0558303",
            "0x0000000000000000000000000000000000000000000000000000000000000002"
          ],
          "data": "0x00000000000000000000000000000000000000000000000000000000000000030000000000000000000000000000000000000000000000000000000000000060000000000000000000000000000000000000000000000000000000000000001e00000000000000000000000000000000000000000000000000000000000000b9697066732f516d5a77475533556a624766666a59614d776844474e4779577072656a483246704b57447872675337547a524b6d2f30303030303030303030303030303030303030303030303030303030303030303030303030303030303030303030303030303030303030303030303030303032303030303030303030303030303030303030303030303030303030303030303030303030303030303030303030303030303030303030303030303030303030332e6a736f6e00000000000000",
          "blockHash": "0xc7380ac3cb8e552466bb16bd86b58c2ae22811a9c5db39670196ca4c9fc69f83",
          "blockNumber": "0x7f7e0eb",
          "blockTimestamp": "0x67e39b8f",
          "transactionHash": "0x6cd7189a9f98848415a77d80c4d05627983ba0fda0f0a299cbaead54e60c29c3",
          "transactionIndex": "0x1a",
          "logIndex": "0x32",
          "removed": false
        }
      ],
      "logsBloom": "0x04000000040000000200000000000000000000000000000000000000000000000000000000000000000000000000000000000000000000000000000000000000000000000000000000000000000000000000000000000000000000000000000000040000000000000000000000000000000000000000000000000000000000000000000000000000000000000000000000000000000000000000000000000000000000000000000000000100000000000000000000000000000000000000000000000000000000000000004000000000000000000000000000004000000000000000000000000000000000000000000000000000018000000000000000000000",
      "type": "0x2",
      "transactionHash": "0x6cd7189a9f98848415a77d80c4d05627983ba0fda0f0a299cbaead54e60c29c3",
      "transactionIndex": "0x1a",
      "blockHash": "0xc7380ac3cb8e552466bb16bd86b58c2ae22811a9c5db39670196ca4c9fc69f83",
      "blockNumber": "0x7f7e0eb",
      "gasUsed": "0x384e1",
      "effectiveGasPrice": "0x1160e",
      "from": "0x8835669696fb92839ab198cd80ce9f0d35f45ad5",
      "to": "0xbc24012488bfcfe44875a139299595879c43c2cd",
      "contractAddress": null,
      "l1BaseFeeScalar": "0x146b",
      "l1BlobBaseFee": "0x1",
      "l1BlobBaseFeeScalar": "0xf79c5",
      "l1Fee": "0x10f6408b2",
      "l1GasPrice": "0x16488b35",
      "l1GasUsed": "0x91a"
    },
    {
      "status": "0x1",
      "cumulativeGasUsed": "0x8d3594",
      "logs": [
        {
          "address": "0xbc24012488bfcfe44875a139299595879c43c2cd",
          "topics": [
            "0x5625f15df4cbadf2e6e3f80e2406aec5d99a432335ef0e9a1fba9e48b0558303",
            "0x0000000000000000000000000000000000000000000000000000000000000002"
          ],
          "data": "0x00000000000000000000000000000000000000000000000000000000000000040000000000000000000000000000000000000000000000000000000000000060000000000000000000000000000000000000000000000000000000000000002800000000000000000000000000000000000000000000000000000000000000b9697066732f516d5a77475533556a624766666a59614d776844474e4779577072656a483246704b57447872675337547a524b6d2f30303030303030303030303030303030303030303030303030303030303030303030303030303030303030303030303030303030303030303030303030303032303030303030303030303030303030303030303030303030303030303030303030303030303030303030303030303030303030303030303030303030303030342e6a736f6e00000000000000",
          "blockHash": "0x0f1b7d754099bbbbfe820cd60ca9bb2194c8442ebdc44135c185c51a05f2f4ef",
          "blockNumber": "0x7f7e0ec",
          "blockTimestamp": "0x67e39b91",
          "transactionHash": "0x1291d5c193ca9badf05b9d75dd2d29de633bcf720601b45efc8838da1dbb9386",
          "transactionIndex": "0x17",
          "logIndex": "0x5e",
          "removed": false
        }
      ],
      "logsBloom": "0x04000000040000000200000000000000000000000000000000000000000000000000000000000000000000000000000000000000000000000000000000000000000000000000000000000000000000000000000000000000000000000000000000040000000000000000000000000000000000000000000000000000000000000000000000000000000000000000000000000000000000000000000000000000000000000000000000000100000000000000000000000000000000000000000000000000000000000000004000000000000000000000000000004000000000000000000000000000000000000000000000000000018000000000000000000000",
      "type": "0x2",
      "transactionHash": "0x1291d5c193ca9badf05b9d75dd2d29de633bcf720601b45efc8838da1dbb9386",
      "transactionIndex": "0x17",
      "blockHash": "0x0f1b7d754099bbbbfe820cd60ca9bb2194c8442ebdc44135c185c51a05f2f4ef",
      "blockNumber": "0x7f7e0ec",
      "gasUsed": "0x384e1",
      "effectiveGasPrice": "0x1163e",
      "from": "0x8835669696fb92839ab198cd80ce9f0d35f45ad5",
      "to": "0xbc24012488bfcfe44875a139299595879c43c2cd",
      "contractAddress": null,
      "l1BaseFeeScalar": "0x146b",
      "l1BlobBaseFee": "0x1",
      "l1BlobBaseFeeScalar": "0xf79c5",
      "l1Fee": "0x10e3f59d3",
      "l1GasPrice": "0x1630831b",
      "l1GasUsed": "0x91a"
    },
    {
      "status": "0x1",
      "cumulativeGasUsed": "0x90ba75",
      "logs": [
        {
          "address": "0xbc24012488bfcfe44875a139299595879c43c2cd",
          "topics": [
            "0x5625f15df4cbadf2e6e3f80e2406aec5d99a432335ef0e9a1fba9e48b0558303",
            "0x0000000000000000000000000000000000000000000000000000000000000002"
          ],
          "data": "0x00000000000000000000000000000000000000000000000000000000000000050000000000000000000000000000000000000000000000000000000000000060000000000000000000000000000000000000000000000000000000000000003200000000000000000000000000000000000000000000000000000000000000b9697066732f516d5a77475533556a624766666a59614d776844474e4779577072656a483246704b57447872675337547a524b6d2f30303030303030303030303030303030303030303030303030303030303030303030303030303030303030303030303030303030303030303030303030303032303030303030303030303030303030303030303030303030303030303030303030303030303030303030303030303030303030303030303030303030303030352e6a736f6e00000000000000",
          "blockHash": "0x0f1b7d754099bbbbfe820cd60ca9bb2194c8442ebdc44135c185c51a05f2f4ef",
          "blockNumber": "0x7f7e0ec",
          "blockTimestamp": "0x67e39b91",
          "transactionHash": "0x2b4e269745af34bc8bdec0918c69f345e70a2385abdbaa3d4fac453329acbd2e",
          "transactionIndex": "0x18",
          "logIndex": "0x5f",
          "removed": false
        }
      ],
      "logsBloom": "0x04000000040000000200000000000000000000000000000000000000000000000000000000000000000000000000000000000000000000000000000000000000000000000000000000000000000000000000000000000000000000000000000000040000000000000000000000000000000000000000000000000000000000000000000000000000000000000000000000000000000000000000000000000000000000000000000000000100000000000000000000000000000000000000000000000000000000000000004000000000000000000000000000004000000000000000000000000000000000000000000000000000018000000000000000000000",
      "type": "0x2",
      "transactionHash": "0x2b4e269745af34bc8bdec0918c69f345e70a2385abdbaa3d4fac453329acbd2e",
      "transactionIndex": "0x18",
      "blockHash": "0x0f1b7d754099bbbbfe820cd60ca9bb2194c8442ebdc44135c185c51a05f2f4ef",
      "blockNumber": "0x7f7e0ec",
      "gasUsed": "0x384e1",
      "effectiveGasPrice": "0x1163e",
      "from": "0x8835669696fb92839ab198cd80ce9f0d35f45ad5",
      "to": "0xbc24012488bfcfe44875a139299595879c43c2cd",
      "contractAddress": null,
      "l1BaseFeeScalar": "0x146b",
      "l1BlobBaseFee": "0x1",
      "l1BlobBaseFeeScalar": "0xf79c5",
      "l1Fee": "0x10e3f59d3",
      "l1GasPrice": "0x1630831b",
      "l1GasUsed": "0x91a"
    },
    {
      "status": "0x1",
      "cumulativeGasUsed": "0x947661",
      "logs": [
        {
          "address": "0xbc24012488bfcfe44875a139299595879c43c2cd",
          "topics": [
            "0x5625f15df4cbadf2e6e3f80e2406aec5d99a432335ef0e9a1fba9e48b0558303",
            "0x0000000000000000000000000000000000000000000000000000000000000003"
          ],
          "data": "0x00000000000000000000000000000000000000000000000000000000000000010000000000000000000000000000000000000000000000000000000000000060000000000000000000000000000000000000000000000000000000000000000a00000000000000000000000000000000000000000000000000000000000000b9697066732f516d5a77475533556a624766666a59614d776844474e4779577072656a483246704b57447872675337547a524b6d2f30303030303030303030303030303030303030303030303030303030303030303030303030303030303030303030303030303030303030303030303030303033303030303030303030303030303030303030303030303030303030303030303030303030303030303030303030303030303030303030303030303030303030312e6a736f6e00000000000000",
          "blockHash": "0x0f1b7d754099bbbbfe820cd60ca9bb2194c8442ebdc44135c185c51a05f2f4ef",
          "blockNumber": "0x7f7e0ec",
          "blockTimestamp": "0x67e39b91",
          "transactionHash": "0xb5509ff419469e85deadb854a5f5d0f17bceb496c8f64cd9a92b66d0e7c1f059",
          "transactionIndex": "0x19",
          "logIndex": "0x60",
          "removed": false
        }
      ],
      "logsBloom": "0x00000000040000000200000000000000000000000000000000000000000000000000000000000000000000000000000000000000020000000000000000000000000000000000000000000000000000000000000000000000000000000000000000040000000000000000000000000000000000000000000000000000000000000000000000000000000000000000000000000000000000000000000000000000000000000000000000000000000000000000000000800000000000000000400000000000000000000000004000000000000000000000000000004000000000000000000000000000000000000000000000000000010000000000000000000000",
      "type": "0x2",
      "transactionHash": "0xb5509ff419469e85deadb854a5f5d0f17bceb496c8f64cd9a92b66d0e7c1f059",
      "transactionIndex": "0x19",
      "blockHash": "0x0f1b7d754099bbbbfe820cd60ca9bb2194c8442ebdc44135c185c51a05f2f4ef",
      "blockNumber": "0x7f7e0ec",
      "gasUsed": "0x3bbec",
      "effectiveGasPrice": "0x1163e",
      "from": "0x8835669696fb92839ab198cd80ce9f0d35f45ad5",
      "to": "0xbc24012488bfcfe44875a139299595879c43c2cd",
      "contractAddress": null,
      "l1BaseFeeScalar": "0x146b",
      "l1BlobBaseFee": "0x1",
      "l1BlobBaseFeeScalar": "0xf79c5",
      "l1Fee": "0x10e3f59d3",
      "l1GasPrice": "0x1630831b",
      "l1GasUsed": "0x91a"
    },
    {
      "status": "0x1",
      "cumulativeGasUsed": "0x97fb42",
      "logs": [
        {
          "address": "0xbc24012488bfcfe44875a139299595879c43c2cd",
          "topics": [
            "0x5625f15df4cbadf2e6e3f80e2406aec5d99a432335ef0e9a1fba9e48b0558303",
            "0x0000000000000000000000000000000000000000000000000000000000000003"
          ],
          "data": "0x00000000000000000000000000000000000000000000000000000000000000020000000000000000000000000000000000000000000000000000000000000060000000000000000000000000000000000000000000000000000000000000001400000000000000000000000000000000000000000000000000000000000000b9697066732f516d5a77475533556a624766666a59614d776844474e4779577072656a483246704b57447872675337547a524b6d2f30303030303030303030303030303030303030303030303030303030303030303030303030303030303030303030303030303030303030303030303030303033303030303030303030303030303030303030303030303030303030303030303030303030303030303030303030303030303030303030303030303030303030322e6a736f6e00000000000000",
          "blockHash": "0x0f1b7d754099bbbbfe820cd60ca9bb2194c8442ebdc44135c185c51a05f2f4ef",
          "blockNumber": "0x7f7e0ec",
          "blockTimestamp": "0x67e39b91",
          "transactionHash": "0x9c8747e9307dd37aeeb51c8142c72789afb0642988289ae42adecd92f4e0e595",
          "transactionIndex": "0x1a",
          "logIndex": "0x61",
          "removed": false
        }
      ],
      "logsBloom": "0x00000000040000000200000000000000000000000000000000000000000000000000000000000000000000000000000000000000020000000000000000000000000000000000000000000000000000000000000000000000000000000000000000040000000000000000000000000000000000000000000000000000000000000000000000000000000000000000000000000000000000000000000000000000000000000000000000000000000000000000000000800000000000000000400000000000000000000000004000000000000000000000000000004000000000000000000000000000000000000000000000000000010000000000000000000000",
      "type": "0x2",
      "transactionHash": "0x9c8747e9307dd37aeeb51c8142c72789afb0642988289ae42adecd92f4e0e595",
      "transactionIndex": "0x1a",
      "blockHash": "0x0f1b7d754099bbbbfe820cd60ca9bb2194c8442ebdc44135c185c51a05f2f4ef",
      "blockNumber": "0x7f7e0ec",
      "gasUsed": "0x384e1",
      "effectiveGasPrice": "0x1163e",
      "from": "0x8835669696fb92839ab198cd80ce9f0d35f45ad5",
      "to": "0xbc24012488bfcfe44875a139299595879c43c2cd",
      "contractAddress": null,
      "l1BaseFeeScalar": "0x146b",
      "l1BlobBaseFee": "0x1",
      "l1BlobBaseFeeScalar": "0xf79c5",
      "l1Fee": "0x10e3f59d3",
      "l1GasPrice": "0x1630831b",
      "l1GasUsed": "0x91a"
    },
    {
      "status": "0x1",
      "cumulativeGasUsed": "0x9b8023",
      "logs": [
        {
          "address": "0xbc24012488bfcfe44875a139299595879c43c2cd",
          "topics": [
            "0x5625f15df4cbadf2e6e3f80e2406aec5d99a432335ef0e9a1fba9e48b0558303",
            "0x0000000000000000000000000000000000000000000000000000000000000003"
          ],
          "data": "0x00000000000000000000000000000000000000000000000000000000000000030000000000000000000000000000000000000000000000000000000000000060000000000000000000000000000000000000000000000000000000000000001e00000000000000000000000000000000000000000000000000000000000000b9697066732f516d5a77475533556a624766666a59614d776844474e4779577072656a483246704b57447872675337547a524b6d2f30303030303030303030303030303030303030303030303030303030303030303030303030303030303030303030303030303030303030303030303030303033303030303030303030303030303030303030303030303030303030303030303030303030303030303030303030303030303030303030303030303030303030332e6a736f6e00000000000000",
          "blockHash": "0x0f1b7d754099bbbbfe820cd60ca9bb2194c8442ebdc44135c185c51a05f2f4ef",
          "blockNumber": "0x7f7e0ec",
          "blockTimestamp": "0x67e39b91",
          "transactionHash": "0xd04d3ffe630bf4b04d0c5c119438c96c059716d23640f743ea0133bb9c8bb7f3",
          "transactionIndex": "0x1b",
          "logIndex": "0x62",
          "removed": false
        }
      ],
      "logsBloom": "0x00000000040000000200000000000000000000000000000000000000000000000000000000000000000000000000000000000000020000000000000000000000000000000000000000000000000000000000000000000000000000000000000000040000000000000000000000000000000000000000000000000000000000000000000000000000000000000000000000000000000000000000000000000000000000000000000000000000000000000000000000800000000000000000400000000000000000000000004000000000000000000000000000004000000000000000000000000000000000000000000000000000010000000000000000000000",
      "type": "0x2",
      "transactionHash": "0xd04d3ffe630bf4b04d0c5c119438c96c059716d23640f743ea0133bb9c8bb7f3",
      "transactionIndex": "0x1b",
      "blockHash": "0x0f1b7d754099bbbbfe820cd60ca9bb2194c8442ebdc44135c185c51a05f2f4ef",
      "blockNumber": "0x7f7e0ec",
      "gasUsed": "0x384e1",
      "effectiveGasPrice": "0x1163e",
      "from": "0x8835669696fb92839ab198cd80ce9f0d35f45ad5",
      "to": "0xbc24012488bfcfe44875a139299595879c43c2cd",
      "contractAddress": null,
      "l1BaseFeeScalar": "0x146b",
      "l1BlobBaseFee": "0x1",
      "l1BlobBaseFeeScalar": "0xf79c5",
      "l1Fee": "0x1099727fb",
      "l1GasPrice": "0x1630831b",
      "l1GasUsed": "0x8f1"
    },
    {
      "status": "0x1",
      "cumulativeGasUsed": "0x9f3c0f",
      "logs": [
        {
          "address": "0xbc24012488bfcfe44875a139299595879c43c2cd",
          "topics": [
            "0x5625f15df4cbadf2e6e3f80e2406aec5d99a432335ef0e9a1fba9e48b0558303",
            "0x0000000000000000000000000000000000000000000000000000000000000004"
          ],
          "data": "0x00000000000000000000000000000000000000000000000000000000000000010000000000000000000000000000000000000000000000000000000000000060000000000000000000000000000000000000000000000000000000000000000a00000000000000000000000000000000000000000000000000000000000000b9697066732f516d5a77475533556a624766666a59614d776844474e4779577072656a483246704b57447872675337547a524b6d2f30303030303030303030303030303030303030303030303030303030303030303030303030303030303030303030303030303030303030303030303030303034303030303030303030303030303030303030303030303030303030303030303030303030303030303030303030303030303030303030303030303030303030312e6a736f6e00000000000000",
          "blockHash": "0x0f1b7d754099bbbbfe820cd60ca9bb2194c8442ebdc44135c185c51a05f2f4ef",
          "blockNumber": "0x7f7e0ec",
          "blockTimestamp": "0x67e39b91",
          "transactionHash": "0x3975d8a3421eca4c06da33e78b16686051bef0c81bfcd558381bd347e8701712",
          "transactionIndex": "0x1c",
          "logIndex": "0x63",
          "removed": false
        }
      ],
      "logsBloom": "0x00000000040000000200000000000000000000000000000000000000000000000000000000000000000000000000000000000000000000000000000000000000000000000000000000000000000000000000000000000000000000000000000008040000000000000000000000000000000000000000000000000000000000000000000000000000000000000000000000000000000000000000000000000000000000000000000000000000000000000000000000000000002000000000000000000000000000000000004000000000000000008000000000004000000000000000000000000000000000000000000000000000010000000000000000000000",
      "type": "0x2",
      "transactionHash": "0x3975d8a3421eca4c06da33e78b16686051bef0c81bfcd558381bd347e8701712",
      "transactionIndex": "0x1c",
      "blockHash": "0x0f1b7d754099bbbbfe820cd60ca9bb2194c8442ebdc44135c185c51a05f2f4ef",
      "blockNumber": "0x7f7e0ec",
      "gasUsed": "0x3bbec",
      "effectiveGasPrice": "0x1163e",
      "from": "0x8835669696fb92839ab198cd80ce9f0d35f45ad5",
      "to": "0xbc24012488bfcfe44875a139299595879c43c2cd",
      "contractAddress": null,
      "l1BaseFeeScalar": "0x146b",
      "l1BlobBaseFee": "0x1",
      "l1BlobBaseFeeScalar": "0xf79c5",
      "l1Fee": "0x10e3f59d3",
      "l1GasPrice": "0x1630831b",
      "l1GasUsed": "0x91a"
    },
    {
      "status": "0x1",
      "cumulativeGasUsed": "0xa2c0f0",
      "logs": [
        {
          "address": "0xbc24012488bfcfe44875a139299595879c43c2cd",
          "topics": [
            "0x5625f15df4cbadf2e6e3f80e2406aec5d99a432335ef0e9a1fba9e48b0558303",
            "0x0000000000000000000000000000000000000000000000000000000000000004"
          ],
          "data": "0x00000000000000000000000000000000000000000000000000000000000000020000000000000000000000000000000000000000000000000000000000000060000000000000000000000000000000000000000000000000000000000000001400000000000000000000000000000000000000000000000000000000000000b9697066732f516d5a77475533556a624766666a59614d776844474e4779577072656a483246704b57447872675337547a524b6d2f30303030303030303030303030303030303030303030303030303030303030303030303030303030303030303030303030303030303030303030303030303034303030303030303030303030303030303030303030303030303030303030303030303030303030303030303030303030303030303030303030303030303030322e6a736f6e00000000000000",
          "blockHash": "0x0f1b7d754099bbbbfe820cd60ca9bb2194c8442ebdc44135c185c51a05f2f4ef",
          "blockNumber": "0x7f7e0ec",
          "blockTimestamp": "0x67e39b91",
          "transactionHash": "0x2790e25d159f06cc43be577b07b8a244cecbd4e14b26a7f13a04d51fd622a35a",
          "transactionIndex": "0x1d",
          "logIndex": "0x64",
          "removed": false
        }
      ],
      "logsBloom": "0x00000000040000000200000000000000000000000000000000000000000000000000000000000000000000000000000000000000000000000000000000000000000000000000000000000000000000000000000000000000000000000000000008040000000000000000000000000000000000000000000000000000000000000000000000000000000000000000000000000000000000000000000000000000000000000000000000000000000000000000000000000000002000000000000000000000000000000000004000000000000000008000000000004000000000000000000000000000000000000000000000000000010000000000000000000000",
      "type": "0x2",
      "transactionHash": "0x2790e25d159f06cc43be577b07b8a244cecbd4e14b26a7f13a04d51fd622a35a",
      "transactionIndex": "0x1d",
      "blockHash": "0x0f1b7d754099bbbbfe820cd60ca9bb2194c8442ebdc44135c185c51a05f2f4ef",
      "blockNumber": "0x7f7e0ec",
      "gasUsed": "0x384e1",
      "effectiveGasPrice": "0x1163e",
      "from": "0x8835669696fb92839ab198cd80ce9f0d35f45ad5",
      "to": "0xbc24012488bfcfe44875a139299595879c43c2cd",
      "contractAddress": null,
      "l1BaseFeeScalar": "0x146b",
      "l1BlobBaseFee": "0x1",
      "l1BlobBaseFeeScalar": "0xf79c5",
      "l1Fee": "0x10e3f59d3",
      "l1GasPrice": "0x1630831b",
      "l1GasUsed": "0x91a"
    },
    {
      "status": "0x1",
      "cumulativeGasUsed": "0xa645d1",
      "logs": [
        {
          "address": "0xbc24012488bfcfe44875a139299595879c43c2cd",
          "topics": [
            "0x5625f15df4cbadf2e6e3f80e2406aec5d99a432335ef0e9a1fba9e48b0558303",
            "0x0000000000000000000000000000000000000000000000000000000000000004"
          ],
          "data": "0x00000000000000000000000000000000000000000000000000000000000000030000000000000000000000000000000000000000000000000000000000000060000000000000000000000000000000000000000000000000000000000000001e00000000000000000000000000000000000000000000000000000000000000b9697066732f516d5a77475533556a624766666a59614d776844474e4779577072656a483246704b57447872675337547a524b6d2f30303030303030303030303030303030303030303030303030303030303030303030303030303030303030303030303030303030303030303030303030303034303030303030303030303030303030303030303030303030303030303030303030303030303030303030303030303030303030303030303030303030303030332e6a736f6e00000000000000",
          "blockHash": "0x0f1b7d754099bbbbfe820cd60ca9bb2194c8442ebdc44135c185c51a05f2f4ef",
          "blockNumber": "0x7f7e0ec",
          "blockTimestamp": "0x67e39b91",
          "transactionHash": "0xefcb519b0d75a5f180d8e357a2bd1c71a7b8dc5a249eec0c318991b72ffae12b",
          "transactionIndex": "0x1e",
          "logIndex": "0x65",
          "removed": false
        }
      ],
      "logsBloom": "0x00000000040000000200000000000000000000000000000000000000000000000000000000000000000000000000000000000000000000000000000000000000000000000000000000000000000000000000000000000000000000000000000008040000000000000000000000000000000000000000000000000000000000000000000000000000000000000000000000000000000000000000000000000000000000000000000000000000000000000000000000000000002000000000000000000000000000000000004000000000000000008000000000004000000000000000000000000000000000000000000000000000010000000000000000000000",
      "type": "0x2",
      "transactionHash": "0xefcb519b0d75a5f180d8e357a2bd1c71a7b8dc5a249eec0c318991b72ffae12b",
      "transactionIndex": "0x1e",
      "blockHash": "0x0f1b7d754099bbbbfe820cd60ca9bb2194c8442ebdc44135c185c51a05f2f4ef",
      "blockNumber": "0x7f7e0ec",
      "gasUsed": "0x384e1",
      "effectiveGasPrice": "0x1163e",
      "from": "0x8835669696fb92839ab198cd80ce9f0d35f45ad5",
      "to": "0xbc24012488bfcfe44875a139299595879c43c2cd",
      "contractAddress": null,
      "l1BaseFeeScalar": "0x146b",
      "l1BlobBaseFee": "0x1",
      "l1BlobBaseFeeScalar": "0xf79c5",
      "l1Fee": "0x10e3f59d3",
      "l1GasPrice": "0x1630831b",
      "l1GasUsed": "0x91a"
    },
    {
      "status": "0x1",
      "cumulativeGasUsed": "0xaa01bd",
      "logs": [
        {
          "address": "0xbc24012488bfcfe44875a139299595879c43c2cd",
          "topics": [
            "0x5625f15df4cbadf2e6e3f80e2406aec5d99a432335ef0e9a1fba9e48b0558303",
            "0x0000000000000000000000000000000000000000000000000000000000000005"
          ],
          "data": "0x00000000000000000000000000000000000000000000000000000000000000010000000000000000000000000000000000000000000000000000000000000060000000000000000000000000000000000000000000000000000000000000009600000000000000000000000000000000000000000000000000000000000000b9697066732f516d5a77475533556a624766666a59614d776844474e4779577072656a483246704b57447872675337547a524b6d2f30303030303030303030303030303030303030303030303030303030303030303030303030303030303030303030303030303030303030303030303030303035303030303030303030303030303030303030303030303030303030303030303030303030303030303030303030303030303030303030303030303030303030312e6a736f6e00000000000000",
          "blockHash": "0x0f1b7d754099bbbbfe820cd60ca9bb2194c8442ebdc44135c185c51a05f2f4ef",
          "blockNumber": "0x7f7e0ec",
          "blockTimestamp": "0x67e39b91",
          "transactionHash": "0x970d47d4cac49b43963282e84d3cd2e5ecf95bcae01ad89e6a8c7cecf94c537a",
          "transactionIndex": "0x1f",
          "logIndex": "0x66",
          "removed": false
        }
      ],
      "logsBloom": "0x00000000040000000200000000000000000000000000000000000000000000000000000000000000000000000000000000000000000000000000000000000000000010000000000000000000000000000000000000000000000000000000000000040000000000000000000000000000000000000000000000000000000000000000000000000000000000000000001000000800000000000000000000000000000000000000000000000000000000000000000000000000000000000000000000000000000000000000004000000000000000000000000000004000000000000000000000000000000000000000000000000000010000000000000000000000",
      "type": "0x2",
      "transactionHash": "0x970d47d4cac49b43963282e84d3cd2e5ecf95bcae01ad89e6a8c7cecf94c537a",
      "transactionIndex": "0x1f",
      "blockHash": "0x0f1b7d754099bbbbfe820cd60ca9bb2194c8442ebdc44135c185c51a05f2f4ef",
      "blockNumber": "0x7f7e0ec",
      "gasUsed": "0x3bbec",
      "effectiveGasPrice": "0x1163e",
      "from": "0x8835669696fb92839ab198cd80ce9f0d35f45ad5",
      "to": "0xbc24012488bfcfe44875a139299595879c43c2cd",
      "contractAddress": null,
      "l1BaseFeeScalar": "0x146b",
      "l1BlobBaseFee": "0x1",
      "l1BlobBaseFeeScalar": "0xf79c5",
      "l1Fee": "0x10e3f59d3",
      "l1GasPrice": "0x1630831b",
      "l1GasUsed": "0x91a"
    },
    {
      "status": "0x1",
      "cumulativeGasUsed": "0xadbda9",
      "logs": [
        {
          "address": "0xbc24012488bfcfe44875a139299595879c43c2cd",
          "topics": [
            "0x5625f15df4cbadf2e6e3f80e2406aec5d99a432335ef0e9a1fba9e48b0558303",
            "0x0000000000000000000000000000000000000000000000000000000000000006"
          ],
          "data": "0x00000000000000000000000000000000000000000000000000000000000000010000000000000000000000000000000000000000000000000000000000000060000000000000000000000000000000000000000000000000000000000000000a00000000000000000000000000000000000000000000000000000000000000b9697066732f516d5a77475533556a624766666a59614d776844474e4779577072656a483246704b57447872675337547a524b6d2f30303030303030303030303030303030303030303030303030303030303030303030303030303030303030303030303030303030303030303030303030303036303030303030303030303030303030303030303030303030303030303030303030303030303030303030303030303030303030303030303030303030303030312e6a736f6e00000000000000",
          "blockHash": "0x0f1b7d754099bbbbfe820cd60ca9bb2194c8442ebdc44135c185c51a05f2f4ef",
          "blockNumber": "0x7f7e0ec",
          "blockTimestamp": "0x67e39b91",
          "transactionHash": "0x9bad54bda3849d5baa1227544defb26dd19ee00bccdf617e038a7760f02b5616",
          "transactionIndex": "0x20",
          "logIndex": "0x67",
          "removed": false
        }
      ],
      "logsBloom": "0x00000000040000000200000000000000000000000000000000000000000000000000000000000000000000000000000000000000000400000000000000000000000000000000000000000000000000000000000000000000000000000000000000040000000000000000000000000000000000000000000000000000000000000000000400000000000000000000000000000000000000000000000000000000000000000000000000000000000000000000000000000000000000080000000000000000000000000000004000000000000000000000000000004000000000000000000000000000000000000000000000000000010000000000000000000000",
      "type": "0x2",
      "transactionHash": "0x9bad54bda3849d5baa1227544defb26dd19ee00bccdf617e038a7760f02b5616",
      "transactionIndex": "0x20",
      "blockHash": "0x0f1b7d754099bbbbfe820cd60ca9bb2194c8442ebdc44135c185c51a05f2f4ef",
      "blockNumber": "0x7f7e0ec",
      "gasUsed": "0x3bbec",
      "effectiveGasPrice": "0x1163e",
      "from": "0x8835669696fb92839ab198cd80ce9f0d35f45ad5",
      "to": "0xbc24012488bfcfe44875a139299595879c43c2cd",
      "contractAddress": null,
      "l1BaseFeeScalar": "0x146b",
      "l1BlobBaseFee": "0x1",
      "l1BlobBaseFeeScalar": "0xf79c5",
      "l1Fee": "0x10e3f59d3",
      "l1GasPrice": "0x1630831b",
      "l1GasUsed": "0x91a"
    },
    {
      "status": "0x1",
      "cumulativeGasUsed": "0xb1428a",
      "logs": [
        {
          "address": "0xbc24012488bfcfe44875a139299595879c43c2cd",
          "topics": [
            "0x5625f15df4cbadf2e6e3f80e2406aec5d99a432335ef0e9a1fba9e48b0558303",
            "0x0000000000000000000000000000000000000000000000000000000000000006"
          ],
          "data": "0x00000000000000000000000000000000000000000000000000000000000000020000000000000000000000000000000000000000000000000000000000000060000000000000000000000000000000000000000000000000000000000000001400000000000000000000000000000000000000000000000000000000000000b9697066732f516d5a77475533556a624766666a59614d776844474e4779577072656a483246704b57447872675337547a524b6d2f30303030303030303030303030303030303030303030303030303030303030303030303030303030303030303030303030303030303030303030303030303036303030303030303030303030303030303030303030303030303030303030303030303030303030303030303030303030303030303030303030303030303030322e6a736f6e00000000000000",
          "blockHash": "0x0f1b7d754099bbbbfe820cd60ca9bb2194c8442ebdc44135c185c51a05f2f4ef",
          "blockNumber": "0x7f7e0ec",
          "blockTimestamp": "0x67e39b91",
          "transactionHash": "0x5db87263495f3628f00111fe3b093b3755ae518756e92ed542cf5b7e27a618ae",
          "transactionIndex": "0x21",
          "logIndex": "0x68",
          "removed": false
        }
      ],
      "logsBloom": "0x00000000040000000200000000000000000000000000000000000000000000000000000000000000000000000000000000000000000400000000000000000000000000000000000000000000000000000000000000000000000000000000000000040000000000000000000000000000000000000000000000000000000000000000000400000000000000000000000000000000000000000000000000000000000000000000000000000000000000000000000000000000000000080000000000000000000000000000004000000000000000000000000000004000000000000000000000000000000000000000000000000000010000000000000000000000",
      "type": "0x2",
      "transactionHash": "0x5db87263495f3628f00111fe3b093b3755ae518756e92ed542cf5b7e27a618ae",
      "transactionIndex": "0x21",
      "blockHash": "0x0f1b7d754099bbbbfe820cd60ca9bb2194c8442ebdc44135c185c51a05f2f4ef",
      "blockNumber": "0x7f7e0ec",
      "gasUsed": "0x384e1",
      "effectiveGasPrice": "0x1163e",
      "from": "0x8835669696fb92839ab198cd80ce9f0d35f45ad5",
      "to": "0xbc24012488bfcfe44875a139299595879c43c2cd",
      "contractAddress": null,
      "l1BaseFeeScalar": "0x146b",
      "l1BlobBaseFee": "0x1",
      "l1BlobBaseFeeScalar": "0xf79c5",
      "l1Fee": "0x10cb1f3e0",
      "l1GasPrice": "0x1630831b",
      "l1GasUsed": "0x90c"
    },
    {
      "status": "0x1",
      "cumulativeGasUsed": "0xb4c76b",
      "logs": [
        {
          "address": "0xbc24012488bfcfe44875a139299595879c43c2cd",
          "topics": [
            "0x5625f15df4cbadf2e6e3f80e2406aec5d99a432335ef0e9a1fba9e48b0558303",
            "0x0000000000000000000000000000000000000000000000000000000000000006"
          ],
          "data": "0x00000000000000000000000000000000000000000000000000000000000000030000000000000000000000000000000000000000000000000000000000000060000000000000000000000000000000000000000000000000000000000000001e00000000000000000000000000000000000000000000000000000000000000b9697066732f516d5a77475533556a624766666a59614d776844474e4779577072656a483246704b57447872675337547a524b6d2f30303030303030303030303030303030303030303030303030303030303030303030303030303030303030303030303030303030303030303030303030303036303030303030303030303030303030303030303030303030303030303030303030303030303030303030303030303030303030303030303030303030303030332e6a736f6e00000000000000",
          "blockHash": "0x0f1b7d754099bbbbfe820cd60ca9bb2194c8442ebdc44135c185c51a05f2f4ef",
          "blockNumber": "0x7f7e0ec",
          "blockTimestamp": "0x67e39b91",
          "transactionHash": "0xdb18c3ae5d265eeb3c2ed503e2b3551dc3a9f0eb1d322f28447c86e852882a1a",
          "transactionIndex": "0x22",
          "logIndex": "0x69",
          "removed": false
        }
      ],
      "logsBloom": "0x00000000040000000200000000000000000000000000000000000000000000000000000000000000000000000000000000000000000400000000000000000000000000000000000000000000000000000000000000000000000000000000000000040000000000000000000000000000000000000000000000000000000000000000000400000000000000000000000000000000000000000000000000000000000000000000000000000000000000000000000000000000000000080000000000000000000000000000004000000000000000000000000000004000000000000000000000000000000000000000000000000000010000000000000000000000",
      "type": "0x2",
      "transactionHash": "0xdb18c3ae5d265eeb3c2ed503e2b3551dc3a9f0eb1d322f28447c86e852882a1a",
      "transactionIndex": "0x22",
      "blockHash": "0x0f1b7d754099bbbbfe820cd60ca9bb2194c8442ebdc44135c185c51a05f2f4ef",
      "blockNumber": "0x7f7e0ec",
      "gasUsed": "0x384e1",
      "effectiveGasPrice": "0x1163e",
      "from": "0x8835669696fb92839ab198cd80ce9f0d35f45ad5",
      "to": "0xbc24012488bfcfe44875a139299595879c43c2cd",
      "contractAddress": null,
      "l1BaseFeeScalar": "0x146b",
      "l1BlobBaseFee": "0x1",
      "l1BlobBaseFeeScalar": "0xf79c5",
      "l1Fee": "0x10e3f59d3",
      "l1GasPrice": "0x1630831b",
      "l1GasUsed": "0x91a"
    },
    {
      "status": "0x1",
      "cumulativeGasUsed": "0xb84c4c",
      "logs": [
        {
          "address": "0xbc24012488bfcfe44875a139299595879c43c2cd",
          "topics": [
            "0x5625f15df4cbadf2e6e3f80e2406aec5d99a432335ef0e9a1fba9e48b0558303",
            "0x0000000000000000000000000000000000000000000000000000000000000006"
          ],
          "data": "0x00000000000000000000000000000000000000000000000000000000000000040000000000000000000000000000000000000000000000000000000000000060000000000000000000000000000000000000000000000000000000000000002800000000000000000000000000000000000000000000000000000000000000b9697066732f516d5a77475533556a624766666a59614d776844474e4779577072656a483246704b57447872675337547a524b6d2f30303030303030303030303030303030303030303030303030303030303030303030303030303030303030303030303030303030303030303030303030303036303030303030303030303030303030303030303030303030303030303030303030303030303030303030303030303030303030303030303030303030303030342e6a736f6e00000000000000",
          "blockHash": "0x0f1b7d754099bbbbfe820cd60ca9bb2194c8442ebdc44135c185c51a05f2f4ef",
          "blockNumber": "0x7f7e0ec",
          "blockTimestamp": "0x67e39b91",
          "transactionHash": "0xf7759c7e95ae9f2b8ca853b141da11c79839cd8ec4ce51385bdf72163879d473",
          "transactionIndex": "0x23",
          "logIndex": "0x6a",
          "removed": false
        }
      ],
      "logsBloom": "0x00000000040000000200000000000000000000000000000000000000000000000000000000000000000000000000000000000000000400000000000000000000000000000000000000000000000000000000000000000000000000000000000000040000000000000000000000000000000000000000000000000000000000000000000400000000000000000000000000000000000000000000000000000000000000000000000000000000000000000000000000000000000000080000000000000000000000000000004000000000000000000000000000004000000000000000000000000000000000000000000000000000010000000000000000000000",
      "type": "0x2",
      "transactionHash": "0xf7759c7e95ae9f2b8ca853b141da11c79839cd8ec4ce51385bdf72163879d473",
      "transactionIndex": "0x23",
      "blockHash": "0x0f1b7d754099bbbbfe820cd60ca9bb2194c8442ebdc44135c185c51a05f2f4ef",
      "blockNumber": "0x7f7e0ec",
      "gasUsed": "0x384e1",
      "effectiveGasPrice": "0x1163e",
      "from": "0x8835669696fb92839ab198cd80ce9f0d35f45ad5",
      "to": "0xbc24012488bfcfe44875a139299595879c43c2cd",
      "contractAddress": null,
      "l1BaseFeeScalar": "0x146b",
      "l1BlobBaseFee": "0x1",
      "l1BlobBaseFeeScalar": "0xf79c5",
      "l1Fee": "0x10e3f59d3",
      "l1GasPrice": "0x1630831b",
      "l1GasUsed": "0x91a"
    },
    {
      "status": "0x1",
      "cumulativeGasUsed": "0xbc0838",
      "logs": [
        {
          "address": "0xbc24012488bfcfe44875a139299595879c43c2cd",
          "topics": [
            "0x5625f15df4cbadf2e6e3f80e2406aec5d99a432335ef0e9a1fba9e48b0558303",
            "0x0000000000000000000000000000000000000000000000000000000000000007"
          ],
          "data": "0x00000000000000000000000000000000000000000000000000000000000000010000000000000000000000000000000000000000000000000000000000000060000000000000000000000000000000000000000000000000000000000000000a00000000000000000000000000000000000000000000000000000000000000b9697066732f516d5a77475533556a624766666a59614d776844474e4779577072656a483246704b57447872675337547a524b6d2f30303030303030303030303030303030303030303030303030303030303030303030303030303030303030303030303030303030303030303030303030303037303030303030303030303030303030303030303030303030303030303030303030303030303030303030303030303030303030303030303030303030303030312e6a736f6e00000000000000",
          "blockHash": "0x0f1b7d754099bbbbfe820cd60ca9bb2194c8442ebdc44135c185c51a05f2f4ef",
          "blockNumber": "0x7f7e0ec",
          "blockTimestamp": "0x67e39b91",
          "transactionHash": "0x00e5e114979b04fe42c2c1d5d81b842584d98aa17a433db3bf7f2078c506c146",
          "transactionIndex": "0x24",
          "logIndex": "0x6b",
          "removed": false
        }
      ],
      "logsBloom": "0x00000000040000000200000000000000000000000000000000000000000000000000000000000000000000000000000000001000000000000000000000000000000020000000000000000000000000000000000000000000000000000000000000040000000000000000000000000000000000000000000000000000000000000000000000000000000000000000000000000000000000000000000000000000000000000000000000000000000000000000000000000000000000000000000000000000000000000000004000000000000000000000000000004100000000000000000000000000000000000000000000000000010000000000000000000000",
      "type": "0x2",
      "transactionHash": "0x00e5e114979b04fe42c2c1d5d81b842584d98aa17a433db3bf7f2078c506c146",
      "transactionIndex": "0x24",
      "blockHash": "0x0f1b7d754099bbbbfe820cd60ca9bb2194c8442ebdc44135c185c51a05f2f4ef",
      "blockNumber": "0x7f7e0ec",
      "gasUsed": "0x3bbec",
      "effectiveGasPrice": "0x1163e",
      "from": "0x8835669696fb92839ab198cd80ce9f0d35f45ad5",
      "to": "0xbc24012488bfcfe44875a139299595879c43c2cd",
      "contractAddress": null,
      "l1BaseFeeScalar": "0x146b",
      "l1BlobBaseFee": "0x1",
      "l1BlobBaseFeeScalar": "0xf79c5",
      "l1Fee": "0x10e3f59d3",
      "l1GasPrice": "0x1630831b",
      "l1GasUsed": "0x91a"
    },
    {
      "status": "0x1",
      "cumulativeGasUsed": "0xbf8d19",
      "logs": [
        {
          "address": "0xbc24012488bfcfe44875a139299595879c43c2cd",
          "topics": [
            "0x5625f15df4cbadf2e6e3f80e2406aec5d99a432335ef0e9a1fba9e48b0558303",
            "0x0000000000000000000000000000000000000000000000000000000000000007"
          ],
          "data": "0x00000000000000000000000000000000000000000000000000000000000000020000000000000000000000000000000000000000000000000000000000000060000000000000000000000000000000000000000000000000000000000000001400000000000000000000000000000000000000000000000000000000000000b9697066732f516d5a77475533556a624766666a59614d776844474e4779577072656a483246704b57447872675337547a524b6d2f30303030303030303030303030303030303030303030303030303030303030303030303030303030303030303030303030303030303030303030303030303037303030303030303030303030303030303030303030303030303030303030303030303030303030303030303030303030303030303030303030303030303030322e6a736f6e00000000000000",
          "blockHash": "0x0f1b7d754099bbbbfe820cd60ca9bb2194c8442ebdc44135c185c51a05f2f4ef",
          "blockNumber": "0x7f7e0ec",
          "blockTimestamp": "0x67e39b91",
          "transactionHash": "0xdcf9a7a51ae1660ba4c2f9764d89035136947d2bc99e579a4cb012a3ff917a43",
          "transactionIndex": "0x25",
          "logIndex": "0x6c",
          "removed": false
        }
      ],
      "logsBloom": "0x00000000040000000200000000000000000000000000000000000000000000000000000000000000000000000000000000001000000000000000000000000000000020000000000000000000000000000000000000000000000000000000000000040000000000000000000000000000000000000000000000000000000000000000000000000000000000000000000000000000000000000000000000000000000000000000000000000000000000000000000000000000000000000000000000000000000000000000004000000000000000000000000000004100000000000000000000000000000000000000000000000000010000000000000000000000",
      "type": "0x2",
      "transactionHash": "0xdcf9a7a51ae1660ba4c2f9764d89035136947d2bc99e579a4cb012a3ff917a43",
      "transactionIndex": "0x25",
      "blockHash": "0x0f1b7d754099bbbbfe820cd60ca9bb2194c8442ebdc44135c185c51a05f2f4ef",
      "blockNumber": "0x7f7e0ec",
      "gasUsed": "0x384e1",
      "effectiveGasPrice": "0x1163e",
      "from": "0x8835669696fb92839ab198cd80ce9f0d35f45ad5",
      "to": "0xbc24012488bfcfe44875a139299595879c43c2cd",
      "contractAddress": null,
      "l1BaseFeeScalar": "0x146b",
      "l1BlobBaseFee": "0x1",
      "l1BlobBaseFeeScalar": "0xf79c5",
      "l1Fee": "0x10e3f59d3",
      "l1GasPrice": "0x1630831b",
      "l1GasUsed": "0x91a"
    },
    {
      "status": "0x1",
      "cumulativeGasUsed": "0xc311fa",
      "logs": [
        {
          "address": "0xbc24012488bfcfe44875a139299595879c43c2cd",
          "topics": [
            "0x5625f15df4cbadf2e6e3f80e2406aec5d99a432335ef0e9a1fba9e48b0558303",
            "0x0000000000000000000000000000000000000000000000000000000000000007"
          ],
          "data": "0x00000000000000000000000000000000000000000000000000000000000000030000000000000000000000000000000000000000000000000000000000000060000000000000000000000000000000000000000000000000000000000000001e00000000000000000000000000000000000000000000000000000000000000b9697066732f516d5a77475533556a624766666a59614d776844474e4779577072656a483246704b57447872675337547a524b6d2f30303030303030303030303030303030303030303030303030303030303030303030303030303030303030303030303030303030303030303030303030303037303030303030303030303030303030303030303030303030303030303030303030303030303030303030303030303030303030303030303030303030303030332e6a736f6e00000000000000",
          "blockHash": "0x0f1b7d754099bbbbfe820cd60ca9bb2194c8442ebdc44135c185c51a05f2f4ef",
          "blockNumber": "0x7f7e0ec",
          "blockTimestamp": "0x67e39b91",
          "transactionHash": "0xd0a0deae87b44c8cf6df3e654d4689e08ac805f124fb5c41d09296b44bd3b112",
          "transactionIndex": "0x26",
          "logIndex": "0x6d",
          "removed": false
        }
      ],
      "logsBloom": "0x00000000040000000200000000000000000000000000000000000000000000000000000000000000000000000000000000001000000000000000000000000000000020000000000000000000000000000000000000000000000000000000000000040000000000000000000000000000000000000000000000000000000000000000000000000000000000000000000000000000000000000000000000000000000000000000000000000000000000000000000000000000000000000000000000000000000000000000004000000000000000000000000000004100000000000000000000000000000000000000000000000000010000000000000000000000",
      "type": "0x2",
      "transactionHash": "0xd0a0deae87b44c8cf6df3e654d4689e08ac805f124fb5c41d09296b44bd3b112",
      "transactionIndex": "0x26",
      "blockHash": "0x0f1b7d754099bbbbfe820cd60ca9bb2194c8442ebdc44135c185c51a05f2f4ef",
      "blockNumber": "0x7f7e0ec",
      "gasUsed": "0x384e1",
      "effectiveGasPrice": "0x1163e",
      "from": "0x8835669696fb92839ab198cd80ce9f0d35f45ad5",
      "to": "0xbc24012488bfcfe44875a139299595879c43c2cd",
      "contractAddress": null,
      "l1BaseFeeScalar": "0x146b",
      "l1BlobBaseFee": "0x1",
      "l1BlobBaseFeeScalar": "0xf79c5",
      "l1Fee": "0x10e3f59d3",
      "l1GasPrice": "0x1630831b",
      "l1GasUsed": "0x91a"
    },
    {
      "status": "0x1",
      "cumulativeGasUsed": "0xc6cde6",
      "logs": [
        {
          "address": "0xbc24012488bfcfe44875a139299595879c43c2cd",
          "topics": [
            "0x5625f15df4cbadf2e6e3f80e2406aec5d99a432335ef0e9a1fba9e48b0558303",
            "0x0000000000000000000000000000000000000000000000000000000000000008"
          ],
          "data": "0x00000000000000000000000000000000000000000000000000000000000000010000000000000000000000000000000000000000000000000000000000000060000000000000000000000000000000000000000000000000000000000000003c00000000000000000000000000000000000000000000000000000000000000b9697066732f516d5a77475533556a624766666a59614d776844474e4779577072656a483246704b57447872675337547a524b6d2f30303030303030303030303030303030303030303030303030303030303030303030303030303030303030303030303030303030303030303030303030303038303030303030303030303030303030303030303030303030303030303030303030303030303030303030303030303030303030303030303030303030303030312e6a736f6e00000000000000",
          "blockHash": "0x0f1b7d754099bbbbfe820cd60ca9bb2194c8442ebdc44135c185c51a05f2f4ef",
          "blockNumber": "0x7f7e0ec",
          "blockTimestamp": "0x67e39b91",
          "transactionHash": "0x691aafcb00e914baf341fb7386fa6973e2bfac6a2fc9e1f10b981a0cece9599b",
          "transactionIndex": "0x27",
          "logIndex": "0x6e",
          "removed": false
        }
      ],
      "logsBloom": "0x00000000040000000200000000000000000000000000000000000000000000000000000000000000000000000000000000000000000080000000000000000000000000000000000000000000000000000000000000000000000000000000000000040000000000000000000000000000000000000000000000000000000000000080000000000000000000000000000000000000000000000000000000000000000000000000000000000000000000000000000000000000000000000000000040000000000000000000004000000000000000000000000000004000000000000000000000000000000000000000000000000000010000000000000000000000",
      "type": "0x2",
      "transactionHash": "0x691aafcb00e914baf341fb7386fa6973e2bfac6a2fc9e1f10b981a0cece9599b",
      "transactionIndex": "0x27",
      "blockHash": "0x0f1b7d754099bbbbfe820cd60ca9bb2194c8442ebdc44135c185c51a05f2f4ef",
      "blockNumber": "0x7f7e0ec",
      "gasUsed": "0x3bbec",
      "effectiveGasPrice": "0x1163e",
      "from": "0x8835669696fb92839ab198cd80ce9f0d35f45ad5",
      "to": "0xbc24012488bfcfe44875a139299595879c43c2cd",
      "contractAddress": null,
      "l1BaseFeeScalar": "0x146b",
      "l1BlobBaseFee": "0x1",
      "l1BlobBaseFeeScalar": "0xf79c5",
      "l1Fee": "0x10e3f59d3",
      "l1GasPrice": "0x1630831b",
      "l1GasUsed": "0x91a"
    },
    {
      "status": "0x1",
      "cumulativeGasUsed": "0xca89d2",
      "logs": [
        {
          "address": "0xbc24012488bfcfe44875a139299595879c43c2cd",
          "topics": [
            "0x5625f15df4cbadf2e6e3f80e2406aec5d99a432335ef0e9a1fba9e48b0558303",
            "0x0000000000000000000000000000000000000000000000000000000000000009"
          ],
          "data": "0x00000000000000000000000000000000000000000000000000000000000000010000000000000000000000000000000000000000000000000000000000000060000000000000000000000000000000000000000000000000000000000000000a00000000000000000000000000000000000000000000000000000000000000b9697066732f516d5a77475533556a624766666a59614d776844474e4779577072656a483246704b57447872675337547a524b6d2f30303030303030303030303030303030303030303030303030303030303030303030303030303030303030303030303030303030303030303030303030303039303030303030303030303030303030303030303030303030303030303030303030303030303030303030303030303030303030303030303030303030303030312e6a736f6e00000000000000",
          "blockHash": "0x0f1b7d754099bbbbfe820cd60ca9bb2194c8442ebdc44135c185c51a05f2f4ef",
          "blockNumber": "0x7f7e0ec",
          "blockTimestamp": "0x67e39b91",
          "transactionHash": "0x1011ac7f4d5aa29ecd3f847f582fd4eb55d9316c43bddfa5d04bb9e2701aae58",
          "transactionIndex": "0x28",
          "logIndex": "0x6f",
          "removed": false
        }
      ],
      "logsBloom": "0x00000000040000000200000000000000000000000000000000000000000000000000000000000000000000000000000000000000000000000000000000200000000000000000000000000000000000000000000000000000000000000000000000040000000000000000000000000000000000000000000000000000000000000000000000000000000000000000000000001000000000000000000000000000000000000000000000000000000000000000000000000000000000000000000000000000000000000000004000000000000000000000000000004000000000000000000000000000000000000000000000000000010000000000000000800000",
      "type": "0x2",
      "transactionHash": "0x1011ac7f4d5aa29ecd3f847f582fd4eb55d9316c43bddfa5d04bb9e2701aae58",
      "transactionIndex": "0x28",
      "blockHash": "0x0f1b7d754099bbbbfe820cd60ca9bb2194c8442ebdc44135c185c51a05f2f4ef",
      "blockNumber": "0x7f7e0ec",
      "gasUsed": "0x3bbec",
      "effectiveGasPrice": "0x1163e",
      "from": "0x8835669696fb92839ab198cd80ce9f0d35f45ad5",
      "to": "0xbc24012488bfcfe44875a139299595879c43c2cd",
      "contractAddress": null,
      "l1BaseFeeScalar": "0x146b",
      "l1BlobBaseFee": "0x1",
      "l1BlobBaseFeeScalar": "0xf79c5",
      "l1Fee": "0x10e3f59d3",
      "l1GasPrice": "0x1630831b",
      "l1GasUsed": "0x91a"
    },
    {
      "status": "0x1",
      "cumulativeGasUsed": "0xce0eb3",
      "logs": [
        {
          "address": "0xbc24012488bfcfe44875a139299595879c43c2cd",
          "topics": [
            "0x5625f15df4cbadf2e6e3f80e2406aec5d99a432335ef0e9a1fba9e48b0558303",
            "0x0000000000000000000000000000000000000000000000000000000000000009"
          ],
          "data": "0x00000000000000000000000000000000000000000000000000000000000000020000000000000000000000000000000000000000000000000000000000000060000000000000000000000000000000000000000000000000000000000000001400000000000000000000000000000000000000000000000000000000000000b9697066732f516d5a77475533556a624766666a59614d776844474e4779577072656a483246704b57447872675337547a524b6d2f30303030303030303030303030303030303030303030303030303030303030303030303030303030303030303030303030303030303030303030303030303039303030303030303030303030303030303030303030303030303030303030303030303030303030303030303030303030303030303030303030303030303030322e6a736f6e00000000000000",
          "blockHash": "0x0f1b7d754099bbbbfe820cd60ca9bb2194c8442ebdc44135c185c51a05f2f4ef",
          "blockNumber": "0x7f7e0ec",
          "blockTimestamp": "0x67e39b91",
          "transactionHash": "0x80575a67d94f15200f7d2f715f00a5fcb1e5c55a8fbb4942beb6f60f0672e145",
          "transactionIndex": "0x29",
          "logIndex": "0x70",
          "removed": false
        }
      ],
      "logsBloom": "0x00000000040000000200000000000000000000000000000000000000000000000000000000000000000000000000000000000000000000000000000000200000000000000000000000000000000000000000000000000000000000000000000000040000000000000000000000000000000000000000000000000000000000000000000000000000000000000000000000001000000000000000000000000000000000000000000000000000000000000000000000000000000000000000000000000000000000000000004000000000000000000000000000004000000000000000000000000000000000000000000000000000010000000000000000800000",
      "type": "0x2",
      "transactionHash": "0x80575a67d94f15200f7d2f715f00a5fcb1e5c55a8fbb4942beb6f60f0672e145",
      "transactionIndex": "0x29",
      "blockHash": "0x0f1b7d754099bbbbfe820cd60ca9bb2194c8442ebdc44135c185c51a05f2f4ef",
      "blockNumber": "0x7f7e0ec",
      "gasUsed": "0x384e1",
      "effectiveGasPrice": "0x1163e",
      "from": "0x8835669696fb92839ab198cd80ce9f0d35f45ad5",
      "to": "0xbc24012488bfcfe44875a139299595879c43c2cd",
      "contractAddress": null,
      "l1BaseFeeScalar": "0x146b",
      "l1BlobBaseFee": "0x1",
      "l1BlobBaseFeeScalar": "0xf79c5",
      "l1Fee": "0x10e3f59d3",
      "l1GasPrice": "0x1630831b",
      "l1GasUsed": "0x91a"
    },
    {
      "status": "0x1",
      "cumulativeGasUsed": "0xd19394",
      "logs": [
        {
          "address": "0xbc24012488bfcfe44875a139299595879c43c2cd",
          "topics": [
            "0x5625f15df4cbadf2e6e3f80e2406aec5d99a432335ef0e9a1fba9e48b0558303",
            "0x0000000000000000000000000000000000000000000000000000000000000009"
          ],
          "data": "0x00000000000000000000000000000000000000000000000000000000000000030000000000000000000000000000000000000000000000000000000000000060000000000000000000000000000000000000000000000000000000000000001e00000000000000000000000000000000000000000000000000000000000000b9697066732f516d5a77475533556a624766666a59614d776844474e4779577072656a483246704b57447872675337547a524b6d2f30303030303030303030303030303030303030303030303030303030303030303030303030303030303030303030303030303030303030303030303030303039303030303030303030303030303030303030303030303030303030303030303030303030303030303030303030303030303030303030303030303030303030332e6a736f6e00000000000000",
          "blockHash": "0x0f1b7d754099bbbbfe820cd60ca9bb2194c8442ebdc44135c185c51a05f2f4ef",
          "blockNumber": "0x7f7e0ec",
          "blockTimestamp": "0x67e39b91",
          "transactionHash": "0x950f414da638e284194b4a66bc96a15f69c2c73d9e737283e9b1784549b9b76e",
          "transactionIndex": "0x2a",
          "logIndex": "0x71",
          "removed": false
        }
      ],
      "logsBloom": "0x00000000040000000200000000000000000000000000000000000000000000000000000000000000000000000000000000000000000000000000000000200000000000000000000000000000000000000000000000000000000000000000000000040000000000000000000000000000000000000000000000000000000000000000000000000000000000000000000000001000000000000000000000000000000000000000000000000000000000000000000000000000000000000000000000000000000000000000004000000000000000000000000000004000000000000000000000000000000000000000000000000000010000000000000000800000",
      "type": "0x2",
      "transactionHash": "0x950f414da638e284194b4a66bc96a15f69c2c73d9e737283e9b1784549b9b76e",
      "transactionIndex": "0x2a",
      "blockHash": "0x0f1b7d754099bbbbfe820cd60ca9bb2194c8442ebdc44135c185c51a05f2f4ef",
      "blockNumber": "0x7f7e0ec",
      "gasUsed": "0x384e1",
      "effectiveGasPrice": "0x1163e",
      "from": "0x8835669696fb92839ab198cd80ce9f0d35f45ad5",
      "to": "0xbc24012488bfcfe44875a139299595879c43c2cd",
      "contractAddress": null,
      "l1BaseFeeScalar": "0x146b",
      "l1BlobBaseFee": "0x1",
      "l1BlobBaseFeeScalar": "0xf79c5",
      "l1Fee": "0x10e3f59d3",
      "l1GasPrice": "0x1630831b",
      "l1GasUsed": "0x91a"
    },
    {
      "status": "0x1",
      "cumulativeGasUsed": "0xd51875",
      "logs": [
        {
          "address": "0xbc24012488bfcfe44875a139299595879c43c2cd",
          "topics": [
            "0x5625f15df4cbadf2e6e3f80e2406aec5d99a432335ef0e9a1fba9e48b0558303",
            "0x0000000000000000000000000000000000000000000000000000000000000009"
          ],
          "data": "0x00000000000000000000000000000000000000000000000000000000000000040000000000000000000000000000000000000000000000000000000000000060000000000000000000000000000000000000000000000000000000000000002800000000000000000000000000000000000000000000000000000000000000b9697066732f516d5a77475533556a624766666a59614d776844474e4779577072656a483246704b57447872675337547a524b6d2f30303030303030303030303030303030303030303030303030303030303030303030303030303030303030303030303030303030303030303030303030303039303030303030303030303030303030303030303030303030303030303030303030303030303030303030303030303030303030303030303030303030303030342e6a736f6e00000000000000",
          "blockHash": "0x0f1b7d754099bbbbfe820cd60ca9bb2194c8442ebdc44135c185c51a05f2f4ef",
          "blockNumber": "0x7f7e0ec",
          "blockTimestamp": "0x67e39b91",
          "transactionHash": "0xfd2f6751fabf86a1fdcb5df44038b76b719996e3671d834fafe83970b21a4433",
          "transactionIndex": "0x2b",
          "logIndex": "0x72",
          "removed": false
        }
      ],
      "logsBloom": "0x00000000040000000200000000000000000000000000000000000000000000000000000000000000000000000000000000000000000000000000000000200000000000000000000000000000000000000000000000000000000000000000000000040000000000000000000000000000000000000000000000000000000000000000000000000000000000000000000000001000000000000000000000000000000000000000000000000000000000000000000000000000000000000000000000000000000000000000004000000000000000000000000000004000000000000000000000000000000000000000000000000000010000000000000000800000",
      "type": "0x2",
      "transactionHash": "0xfd2f6751fabf86a1fdcb5df44038b76b719996e3671d834fafe83970b21a4433",
      "transactionIndex": "0x2b",
      "blockHash": "0x0f1b7d754099bbbbfe820cd60ca9bb2194c8442ebdc44135c185c51a05f2f4ef",
      "blockNumber": "0x7f7e0ec",
      "gasUsed": "0x384e1",
      "effectiveGasPrice": "0x1163e",
      "from": "0x8835669696fb92839ab198cd80ce9f0d35f45ad5",
      "to": "0xbc24012488bfcfe44875a139299595879c43c2cd",
      "contractAddress": null,
      "l1BaseFeeScalar": "0x146b",
      "l1BlobBaseFee": "0x1",
      "l1BlobBaseFeeScalar": "0xf79c5",
      "l1Fee": "0x10e3f59d3",
      "l1GasPrice": "0x1630831b",
      "l1GasUsed": "0x91a"
    },
    {
      "status": "0x1",
      "cumulativeGasUsed": "0xd8d461",
      "logs": [
        {
          "address": "0xbc24012488bfcfe44875a139299595879c43c2cd",
          "topics": [
            "0x5625f15df4cbadf2e6e3f80e2406aec5d99a432335ef0e9a1fba9e48b0558303",
            "0x000000000000000000000000000000000000000000000000000000000000000a"
          ],
          "data": "0x00000000000000000000000000000000000000000000000000000000000000010000000000000000000000000000000000000000000000000000000000000060000000000000000000000000000000000000000000000000000000000000006400000000000000000000000000000000000000000000000000000000000000b9697066732f516d5a77475533556a624766666a59614d776844474e4779577072656a483246704b57447872675337547a524b6d2f30303030303030303030303030303030303030303030303030303030303030303030303030303030303030303030303030303030303030303030303030303130303030303030303030303030303030303030303030303030303030303030303030303030303030303030303030303030303030303030303030303030303030312e6a736f6e00000000000000",
          "blockHash": "0x0f1b7d754099bbbbfe820cd60ca9bb2194c8442ebdc44135c185c51a05f2f4ef",
          "blockNumber": "0x7f7e0ec",
          "blockTimestamp": "0x67e39b91",
          "transactionHash": "0x5692f5125f829b8dcbbf3f486426407fbdf72ad72c34b343eaf910b5d9dea1ad",
          "transactionIndex": "0x2c",
          "logIndex": "0x73",
          "removed": false
        }
      ],
      "logsBloom": "0x00000000040000000200000000000000000000000000000000000000000000000000000000000000000000000000000000000000040000000020000000000000000000000000000000000000000000000000000000000000000000000000000000040000000000000000000000000000000000000000000000000000000000000000000000000000010000000000000000000000000000000000000000000000000000000000000000000000000000000000000000000000000000000000000000000000000000000000004000000000000000000000000000004000000000000000000000000000000000000000000000000000010000000000000000000000",
      "type": "0x2",
      "transactionHash": "0x5692f5125f829b8dcbbf3f486426407fbdf72ad72c34b343eaf910b5d9dea1ad",
      "transactionIndex": "0x2c",
      "blockHash": "0x0f1b7d754099bbbbfe820cd60ca9bb2194c8442ebdc44135c185c51a05f2f4ef",
      "blockNumber": "0x7f7e0ec",
      "gasUsed": "0x3bbec",
      "effectiveGasPrice": "0x1163e",
      "from": "0x8835669696fb92839ab198cd80ce9f0d35f45ad5",
      "to": "0xbc24012488bfcfe44875a139299595879c43c2cd",
      "contractAddress": null,
      "l1BaseFeeScalar": "0x146b",
      "l1BlobBaseFee": "0x1",
      "l1BlobBaseFeeScalar": "0xf79c5",
      "l1Fee": "0x10e3f59d3",
      "l1GasPrice": "0x1630831b",
      "l1GasUsed": "0x91a"
    },
    {
      "status": "0x1",
      "cumulativeGasUsed": "0xdc904d",
      "logs": [
        {
          "address": "0xbc24012488bfcfe44875a139299595879c43c2cd",
          "topics": [
            "0x5625f15df4cbadf2e6e3f80e2406aec5d99a432335ef0e9a1fba9e48b0558303",
            "0x000000000000000000000000000000000000000000000000000000000000000b"
          ],
          "data": "0x00000000000000000000000000000000000000000000000000000000000000010000000000000000000000000000000000000000000000000000000000000060000000000000000000000000000000000000000000000000000000000000000a00000000000000000000000000000000000000000000000000000000000000b9697066732f516d5a77475533556a624766666a59614d776844474e4779577072656a483246704b57447872675337547a524b6d2f30303030303030303030303030303030303030303030303030303030303030303030303030303030303030303030303030303030303030303030303030303131303030303030303030303030303030303030303030303030303030303030303030303030303030303030303030303030303030303030303030303030303030312e6a736f6e00000000000000",
          "blockHash": "0x0f1b7d754099bbbbfe820cd60ca9bb2194c8442ebdc44135c185c51a05f2f4ef",
          "blockNumber": "0x7f7e0ec",
          "blockTimestamp": "0x67e39b91",
          "transactionHash": "0x95ebc4cf17241ba3f16b0567acca79a62d47a2051228e5a4ae4db47b23161397",
          "transactionIndex": "0x2d",
          "logIndex": "0x74",
          "removed": false
        }
      ],
      "logsBloom": "0x00000000040000000200004000000000000000000000000000000000000000000000000000000000000000000000000000000000000000000000000000000000000000000000000000000000000000000000000000000000000000000000000000040000000000000000000000000000000000000000000000000000000000000000000000000000000000000000000000000000000000000000000000000000000000000000000000000000000000000000000000000000000000000000000000000000000000000000004000000000002000000000000000004000000000000000000000000000000000000000000000000000010000040000000000000000",
      "type": "0x2",
      "transactionHash": "0x95ebc4cf17241ba3f16b0567acca79a62d47a2051228e5a4ae4db47b23161397",
      "transactionIndex": "0x2d",
      "blockHash": "0x0f1b7d754099bbbbfe820cd60ca9bb2194c8442ebdc44135c185c51a05f2f4ef",
      "blockNumber": "0x7f7e0ec",
      "gasUsed": "0x3bbec",
      "effectiveGasPrice": "0x1163e",
      "from": "0x8835669696fb92839ab198cd80ce9f0d35f45ad5",
      "to": "0xbc24012488bfcfe44875a139299595879c43c2cd",
      "contractAddress": null,
      "l1BaseFeeScalar": "0x146b",
      "l1BlobBaseFee": "0x1",
      "l1BlobBaseFeeScalar": "0xf79c5",
      "l1Fee": "0x10fccbfc6",
      "l1GasPrice": "0x1630831b",
      "l1GasUsed": "0x927"
    },
    {
      "status": "0x1",
      "cumulativeGasUsed": "0xe0152e",
      "logs": [
        {
          "address": "0xbc24012488bfcfe44875a139299595879c43c2cd",
          "topics": [
            "0x5625f15df4cbadf2e6e3f80e2406aec5d99a432335ef0e9a1fba9e48b0558303",
            "0x000000000000000000000000000000000000000000000000000000000000000b"
          ],
          "data": "0x00000000000000000000000000000000000000000000000000000000000000020000000000000000000000000000000000000000000000000000000000000060000000000000000000000000000000000000000000000000000000000000001400000000000000000000000000000000000000000000000000000000000000b9697066732f516d5a77475533556a624766666a59614d776844474e4779577072656a483246704b57447872675337547a524b6d2f30303030303030303030303030303030303030303030303030303030303030303030303030303030303030303030303030303030303030303030303030303131303030303030303030303030303030303030303030303030303030303030303030303030303030303030303030303030303030303030303030303030303030322e6a736f6e00000000000000",
          "blockHash": "0x0f1b7d754099bbbbfe820cd60ca9bb2194c8442ebdc44135c185c51a05f2f4ef",
          "blockNumber": "0x7f7e0ec",
          "blockTimestamp": "0x67e39b91",
          "transactionHash": "0xa1af42821e23fcac09fcce954158a5073d6c83f68399ea41729fc7f247ea464b",
          "transactionIndex": "0x2e",
          "logIndex": "0x75",
          "removed": false
        }
      ],
      "logsBloom": "0x00000000040000000200004000000000000000000000000000000000000000000000000000000000000000000000000000000000000000000000000000000000000000000000000000000000000000000000000000000000000000000000000000040000000000000000000000000000000000000000000000000000000000000000000000000000000000000000000000000000000000000000000000000000000000000000000000000000000000000000000000000000000000000000000000000000000000000000004000000000002000000000000000004000000000000000000000000000000000000000000000000000010000040000000000000000",
      "type": "0x2",
      "transactionHash": "0xa1af42821e23fcac09fcce954158a5073d6c83f68399ea41729fc7f247ea464b",
      "transactionIndex": "0x2e",
      "blockHash": "0x0f1b7d754099bbbbfe820cd60ca9bb2194c8442ebdc44135c185c51a05f2f4ef",
      "blockNumber": "0x7f7e0ec",
      "gasUsed": "0x384e1",
      "effectiveGasPrice": "0x1163e",
      "from": "0x8835669696fb92839ab198cd80ce9f0d35f45ad5",
      "to": "0xbc24012488bfcfe44875a139299595879c43c2cd",
      "contractAddress": null,
      "l1BaseFeeScalar": "0x146b",
      "l1BlobBaseFee": "0x1",
      "l1BlobBaseFeeScalar": "0xf79c5",
      "l1Fee": "0x1115a25b9",
      "l1GasPrice": "0x1630831b",
      "l1GasUsed": "0x934"
    },
    {
      "status": "0x1",
      "cumulativeGasUsed": "0xe39a0f",
      "logs": [
        {
          "address": "0xbc24012488bfcfe44875a139299595879c43c2cd",
          "topics": [
            "0x5625f15df4cbadf2e6e3f80e2406aec5d99a432335ef0e9a1fba9e48b0558303",
            "0x000000000000000000000000000000000000000000000000000000000000000b"
          ],
          "data": "0x00000000000000000000000000000000000000000000000000000000000000030000000000000000000000000000000000000000000000000000000000000060000000000000000000000000000000000000000000000000000000000000001e00000000000000000000000000000000000000000000000000000000000000b9697066732f516d5a77475533556a624766666a59614d776844474e4779577072656a483246704b57447872675337547a524b6d2f30303030303030303030303030303030303030303030303030303030303030303030303030303030303030303030303030303030303030303030303030303131303030303030303030303030303030303030303030303030303030303030303030303030303030303030303030303030303030303030303030303030303030332e6a736f6e00000000000000",
          "blockHash": "0x0f1b7d754099bbbbfe820cd60ca9bb2194c8442ebdc44135c185c51a05f2f4ef",
          "blockNumber": "0x7f7e0ec",
          "blockTimestamp": "0x67e39b91",
          "transactionHash": "0x4ac42c9bbafccf5e76658138b6aa913b39480300904b44f5b3d45d203b83545d",
          "transactionIndex": "0x2f",
          "logIndex": "0x76",
          "removed": false
        }
      ],
      "logsBloom": "0x00000000040000000200004000000000000000000000000000000000000000000000000000000000000000000000000000000000000000000000000000000000000000000000000000000000000000000000000000000000000000000000000000040000000000000000000000000000000000000000000000000000000000000000000000000000000000000000000000000000000000000000000000000000000000000000000000000000000000000000000000000000000000000000000000000000000000000000004000000000002000000000000000004000000000000000000000000000000000000000000000000000010000040000000000000000",
      "type": "0x2",
      "transactionHash": "0x4ac42c9bbafccf5e76658138b6aa913b39480300904b44f5b3d45d203b83545d",
      "transactionIndex": "0x2f",
      "blockHash": "0x0f1b7d754099bbbbfe820cd60ca9bb2194c8442ebdc44135c185c51a05f2f4ef",
      "blockNumber": "0x7f7e0ec",
      "gasUsed": "0x384e1",
      "effectiveGasPrice": "0x1163e",
      "from": "0x8835669696fb92839ab198cd80ce9f0d35f45ad5",
      "to": "0xbc24012488bfcfe44875a139299595879c43c2cd",
      "contractAddress": null,
      "l1BaseFeeScalar": "0x146b",
      "l1BlobBaseFee": "0x1",
      "l1BlobBaseFeeScalar": "0xf79c5",
      "l1Fee": "0x1115a25b9",
      "l1GasPrice": "0x1630831b",
      "l1GasUsed": "0x934"
    },
    {
      "status": "0x1",
      "cumulativeGasUsed": "0xe71ef0",
      "logs": [
        {
          "address": "0xbc24012488bfcfe44875a139299595879c43c2cd",
          "topics": [
            "0x5625f15df4cbadf2e6e3f80e2406aec5d99a432335ef0e9a1fba9e48b0558303",
            "0x000000000000000000000000000000000000000000000000000000000000000b"
          ],
          "data": "0x00000000000000000000000000000000000000000000000000000000000000040000000000000000000000000000000000000000000000000000000000000060000000000000000000000000000000000000000000000000000000000000002800000000000000000000000000000000000000000000000000000000000000b9697066732f516d5a77475533556a624766666a59614d776844474e4779577072656a483246704b57447872675337547a524b6d2f30303030303030303030303030303030303030303030303030303030303030303030303030303030303030303030303030303030303030303030303030303131303030303030303030303030303030303030303030303030303030303030303030303030303030303030303030303030303030303030303030303030303030342e6a736f6e00000000000000",
          "blockHash": "0x0f1b7d754099bbbbfe820cd60ca9bb2194c8442ebdc44135c185c51a05f2f4ef",
          "blockNumber": "0x7f7e0ec",
          "blockTimestamp": "0x67e39b91",
          "transactionHash": "0xde68cf7032a412b2fe1bd3ef58dbd2194dec0a6ccedbf25bfb47d9b037d51657",
          "transactionIndex": "0x30",
          "logIndex": "0x77",
          "removed": false
        }
      ],
      "logsBloom": "0x00000000040000000200004000000000000000000000000000000000000000000000000000000000000000000000000000000000000000000000000000000000000000000000000000000000000000000000000000000000000000000000000000040000000000000000000000000000000000000000000000000000000000000000000000000000000000000000000000000000000000000000000000000000000000000000000000000000000000000000000000000000000000000000000000000000000000000000004000000000002000000000000000004000000000000000000000000000000000000000000000000000010000040000000000000000",
      "type": "0x2",
      "transactionHash": "0xde68cf7032a412b2fe1bd3ef58dbd2194dec0a6ccedbf25bfb47d9b037d51657",
      "transactionIndex": "0x30",
      "blockHash": "0x0f1b7d754099bbbbfe820cd60ca9bb2194c8442ebdc44135c185c51a05f2f4ef",
      "blockNumber": "0x7f7e0ec",
      "gasUsed": "0x384e1",
      "effectiveGasPrice": "0x1163e",
      "from": "0x8835669696fb92839ab198cd80ce9f0d35f45ad5",
      "to": "0xbc24012488bfcfe44875a139299595879c43c2cd",
      "contractAddress": null,
      "l1BaseFeeScalar": "0x146b",
      "l1BlobBaseFee": "0x1",
      "l1BlobBaseFeeScalar": "0xf79c5",
      "l1Fee": "0x1115a25b9",
      "l1GasPrice": "0x1630831b",
      "l1GasUsed": "0x934"
    },
    {
      "status": "0x1",
      "cumulativeGasUsed": "0xeaa3d1",
      "logs": [
        {
          "address": "0xbc24012488bfcfe44875a139299595879c43c2cd",
          "topics": [
            "0x5625f15df4cbadf2e6e3f80e2406aec5d99a432335ef0e9a1fba9e48b0558303",
            "0x000000000000000000000000000000000000000000000000000000000000000b"
          ],
          "data": "0x00000000000000000000000000000000000000000000000000000000000000050000000000000000000000000000000000000000000000000000000000000060000000000000000000000000000000000000000000000000000000000000003200000000000000000000000000000000000000000000000000000000000000b9697066732f516d5a77475533556a624766666a59614d776844474e4779577072656a483246704b57447872675337547a524b6d2f30303030303030303030303030303030303030303030303030303030303030303030303030303030303030303030303030303030303030303030303030303131303030303030303030303030303030303030303030303030303030303030303030303030303030303030303030303030303030303030303030303030303030352e6a736f6e00000000000000",
          "blockHash": "0x0f1b7d754099bbbbfe820cd60ca9bb2194c8442ebdc44135c185c51a05f2f4ef",
          "blockNumber": "0x7f7e0ec",
          "blockTimestamp": "0x67e39b91",
          "transactionHash": "0xe96072ee8a1c442e111130cdcacba097b525f0b4a3c9072b2f59a23fda8bb0d9",
          "transactionIndex": "0x31",
          "logIndex": "0x78",
          "removed": false
        }
      ],
      "logsBloom": "0x00000000040000000200004000000000000000000000000000000000000000000000000000000000000000000000000000000000000000000000000000000000000000000000000000000000000000000000000000000000000000000000000000040000000000000000000000000000000000000000000000000000000000000000000000000000000000000000000000000000000000000000000000000000000000000000000000000000000000000000000000000000000000000000000000000000000000000000004000000000002000000000000000004000000000000000000000000000000000000000000000000000010000040000000000000000",
      "type": "0x2",
      "transactionHash": "0xe96072ee8a1c442e111130cdcacba097b525f0b4a3c9072b2f59a23fda8bb0d9",
      "transactionIndex": "0x31",
      "blockHash": "0x0f1b7d754099bbbbfe820cd60ca9bb2194c8442ebdc44135c185c51a05f2f4ef",
      "blockNumber": "0x7f7e0ec",
      "gasUsed": "0x384e1",
      "effectiveGasPrice": "0x1163e",
      "from": "0x8835669696fb92839ab198cd80ce9f0d35f45ad5",
      "to": "0xbc24012488bfcfe44875a139299595879c43c2cd",
      "contractAddress": null,
      "l1BaseFeeScalar": "0x146b",
      "l1BlobBaseFee": "0x1",
      "l1BlobBaseFeeScalar": "0xf79c5",
      "l1Fee": "0x1115a25b9",
      "l1GasPrice": "0x1630831b",
      "l1GasUsed": "0x934"
    }
  ],
  "libraries": [],
  "pending": [],
  "returns": {
    "0": {
      "internal_type": "address",
      "value": "0x0000000000000000000000000000000000000000"
    }
  },
  "timestamp": 1742969747,
  "chain": 10,
  "commit": "56bb139"
}