{
  "transactions": [
    {
      "hash": "0x337e671caa7a5f777ad765ebbde5407c4fe4806bd92e733b60d2dd66327b7669",
      "transactionType": "CALL",
      "contractName": null,
      "contractAddress": "0xbc24012488bfcfe44875a139299595879c43c2cd",
      "function": "setBadgeMetadata(uint256,string)",
      "arguments": [
        "1",
        "ipfs/QmPm89pWbNphT8T3cfcinfSHEctWRDEoPQrt1y1ojoJH7w/00000000000000000000000000000000000000000000000000000000000000010000000000000000000000000000000000000000000000000000000000000000.json"
      ],
      "transaction": {
        "from": "0x8835669696fb92839ab198cd80ce9f0d35f45ad5",
        "to": "0xbc24012488bfcfe44875a139299595879c43c2cd",
        "gas": "0x45413",
        "value": "0x0",
        "input": "0xce64b45f0000000000000000000000000000000000000000000000000000000000000001000000000000000000000000000000000000000000000000000000000000004000000000000000000000000000000000000000000000000000000000000000b9697066732f516d506d38397057624e706854385433636663696e665348456374575244456f505172743179316f6a6f4a4837772f30303030303030303030303030303030303030303030303030303030303030303030303030303030303030303030303030303030303030303030303030303031303030303030303030303030303030303030303030303030303030303030303030303030303030303030303030303030303030303030303030303030303030302e6a736f6e00000000000000",
        "nonce": "0x14050",
        "chainId": "0xa"
      },
      "additionalContracts": [],
      "isFixedGasLimit": false
    },
    {
      "hash": "0x2441b768a5374879dca966d9b2cc97232841726876ae5b48264a3dce883a99b0",
      "transactionType": "CALL",
      "contractName": null,
      "contractAddress": "0xbc24012488bfcfe44875a139299595879c43c2cd",
      "function": "setBadgeMetadata(uint256,string)",
      "arguments": [
        "2",
        "ipfs/QmPm89pWbNphT8T3cfcinfSHEctWRDEoPQrt1y1ojoJH7w/00000000000000000000000000000000000000000000000000000000000000020000000000000000000000000000000000000000000000000000000000000000.json"
      ],
      "transaction": {
        "from": "0x8835669696fb92839ab198cd80ce9f0d35f45ad5",
        "to": "0xbc24012488bfcfe44875a139299595879c43c2cd",
        "gas": "0x45413",
        "value": "0x0",
        "input": "0xce64b45f0000000000000000000000000000000000000000000000000000000000000002000000000000000000000000000000000000000000000000000000000000004000000000000000000000000000000000000000000000000000000000000000b9697066732f516d506d38397057624e706854385433636663696e665348456374575244456f505172743179316f6a6f4a4837772f30303030303030303030303030303030303030303030303030303030303030303030303030303030303030303030303030303030303030303030303030303032303030303030303030303030303030303030303030303030303030303030303030303030303030303030303030303030303030303030303030303030303030302e6a736f6e00000000000000",
        "nonce": "0x14051",
        "chainId": "0xa"
      },
      "additionalContracts": [],
      "isFixedGasLimit": false
    },
    {
      "hash": "0x84be9918c2d39c8eb97e1be01a1120a0f864d83602f235d3fc60a97dd0e33e18",
      "transactionType": "CALL",
      "contractName": null,
      "contractAddress": "0xbc24012488bfcfe44875a139299595879c43c2cd",
      "function": "setBadgeMetadata(uint256,string)",
      "arguments": [
        "3",
        "ipfs/QmPm89pWbNphT8T3cfcinfSHEctWRDEoPQrt1y1ojoJH7w/00000000000000000000000000000000000000000000000000000000000000030000000000000000000000000000000000000000000000000000000000000000.json"
      ],
      "transaction": {
        "from": "0x8835669696fb92839ab198cd80ce9f0d35f45ad5",
        "to": "0xbc24012488bfcfe44875a139299595879c43c2cd",
        "gas": "0x45413",
        "value": "0x0",
        "input": "0xce64b45f0000000000000000000000000000000000000000000000000000000000000003000000000000000000000000000000000000000000000000000000000000004000000000000000000000000000000000000000000000000000000000000000b9697066732f516d506d38397057624e706854385433636663696e665348456374575244456f505172743179316f6a6f4a4837772f30303030303030303030303030303030303030303030303030303030303030303030303030303030303030303030303030303030303030303030303030303033303030303030303030303030303030303030303030303030303030303030303030303030303030303030303030303030303030303030303030303030303030302e6a736f6e00000000000000",
        "nonce": "0x14052",
        "chainId": "0xa"
      },
      "additionalContracts": [],
      "isFixedGasLimit": false
    },
    {
      "hash": "0xa058fc27a7c7ca84f756182f7b9e0c24577d52b93690635478366ff9c4786830",
      "transactionType": "CALL",
      "contractName": null,
      "contractAddress": "0xbc24012488bfcfe44875a139299595879c43c2cd",
      "function": "setBadgeMetadata(uint256,string)",
      "arguments": [
        "4",
        "ipfs/QmPm89pWbNphT8T3cfcinfSHEctWRDEoPQrt1y1ojoJH7w/00000000000000000000000000000000000000000000000000000000000000040000000000000000000000000000000000000000000000000000000000000000.json"
      ],
      "transaction": {
        "from": "0x8835669696fb92839ab198cd80ce9f0d35f45ad5",
        "to": "0xbc24012488bfcfe44875a139299595879c43c2cd",
        "gas": "0x45413",
        "value": "0x0",
        "input": "0xce64b45f0000000000000000000000000000000000000000000000000000000000000004000000000000000000000000000000000000000000000000000000000000004000000000000000000000000000000000000000000000000000000000000000b9697066732f516d506d38397057624e706854385433636663696e665348456374575244456f505172743179316f6a6f4a4837772f30303030303030303030303030303030303030303030303030303030303030303030303030303030303030303030303030303030303030303030303030303034303030303030303030303030303030303030303030303030303030303030303030303030303030303030303030303030303030303030303030303030303030302e6a736f6e00000000000000",
        "nonce": "0x14053",
        "chainId": "0xa"
      },
      "additionalContracts": [],
      "isFixedGasLimit": false
    },
    {
      "hash": "0xb74b68feff808870b6791eea5db675eec39da807ba8d0d427313ac0899b5adec",
      "transactionType": "CALL",
      "contractName": null,
      "contractAddress": "0xbc24012488bfcfe44875a139299595879c43c2cd",
      "function": "setBadgeMetadata(uint256,string)",
      "arguments": [
        "5",
        "ipfs/QmPm89pWbNphT8T3cfcinfSHEctWRDEoPQrt1y1ojoJH7w/00000000000000000000000000000000000000000000000000000000000000050000000000000000000000000000000000000000000000000000000000000000.json"
      ],
      "transaction": {
        "from": "0x8835669696fb92839ab198cd80ce9f0d35f45ad5",
        "to": "0xbc24012488bfcfe44875a139299595879c43c2cd",
        "gas": "0x45413",
        "value": "0x0",
        "input": "0xce64b45f0000000000000000000000000000000000000000000000000000000000000005000000000000000000000000000000000000000000000000000000000000004000000000000000000000000000000000000000000000000000000000000000b9697066732f516d506d38397057624e706854385433636663696e665348456374575244456f505172743179316f6a6f4a4837772f30303030303030303030303030303030303030303030303030303030303030303030303030303030303030303030303030303030303030303030303030303035303030303030303030303030303030303030303030303030303030303030303030303030303030303030303030303030303030303030303030303030303030302e6a736f6e00000000000000",
        "nonce": "0x14054",
        "chainId": "0xa"
      },
      "additionalContracts": [],
      "isFixedGasLimit": false
    },
    {
      "hash": "0x745b91650f6a01ccd5e7f50b03e3479241e414691b2071546493b650b194cd3e",
      "transactionType": "CALL",
      "contractName": null,
      "contractAddress": "0xbc24012488bfcfe44875a139299595879c43c2cd",
      "function": "setBadgeMetadata(uint256,string)",
      "arguments": [
        "6",
        "ipfs/QmPm89pWbNphT8T3cfcinfSHEctWRDEoPQrt1y1ojoJH7w/00000000000000000000000000000000000000000000000000000000000000060000000000000000000000000000000000000000000000000000000000000000.json"
      ],
      "transaction": {
        "from": "0x8835669696fb92839ab198cd80ce9f0d35f45ad5",
        "to": "0xbc24012488bfcfe44875a139299595879c43c2cd",
        "gas": "0x45413",
        "value": "0x0",
        "input": "0xce64b45f0000000000000000000000000000000000000000000000000000000000000006000000000000000000000000000000000000000000000000000000000000004000000000000000000000000000000000000000000000000000000000000000b9697066732f516d506d38397057624e706854385433636663696e665348456374575244456f505172743179316f6a6f4a4837772f30303030303030303030303030303030303030303030303030303030303030303030303030303030303030303030303030303030303030303030303030303036303030303030303030303030303030303030303030303030303030303030303030303030303030303030303030303030303030303030303030303030303030302e6a736f6e00000000000000",
        "nonce": "0x14055",
        "chainId": "0xa"
      },
      "additionalContracts": [],
      "isFixedGasLimit": false
    },
    {
      "hash": "0x5a12ceb96bc3c656c143b79964c5d48249d057e6f6dc2f0e32600695d43e2b74",
      "transactionType": "CALL",
      "contractName": null,
      "contractAddress": "0xbc24012488bfcfe44875a139299595879c43c2cd",
      "function": "setBadgeMetadata(uint256,string)",
      "arguments": [
        "7",
        "ipfs/QmPm89pWbNphT8T3cfcinfSHEctWRDEoPQrt1y1ojoJH7w/00000000000000000000000000000000000000000000000000000000000000070000000000000000000000000000000000000000000000000000000000000000.json"
      ],
      "transaction": {
        "from": "0x8835669696fb92839ab198cd80ce9f0d35f45ad5",
        "to": "0xbc24012488bfcfe44875a139299595879c43c2cd",
        "gas": "0x45413",
        "value": "0x0",
        "input": "0xce64b45f0000000000000000000000000000000000000000000000000000000000000007000000000000000000000000000000000000000000000000000000000000004000000000000000000000000000000000000000000000000000000000000000b9697066732f516d506d38397057624e706854385433636663696e665348456374575244456f505172743179316f6a6f4a4837772f30303030303030303030303030303030303030303030303030303030303030303030303030303030303030303030303030303030303030303030303030303037303030303030303030303030303030303030303030303030303030303030303030303030303030303030303030303030303030303030303030303030303030302e6a736f6e00000000000000",
        "nonce": "0x14056",
        "chainId": "0xa"
      },
      "additionalContracts": [],
      "isFixedGasLimit": false
    },
    {
      "hash": "0x9be4bf8267d250625448bc7d0dd2c03ad030b8f982ad7ee086d1ca4c82b20eac",
      "transactionType": "CALL",
      "contractName": null,
      "contractAddress": "0xbc24012488bfcfe44875a139299595879c43c2cd",
      "function": "setBadgeMetadata(uint256,string)",
      "arguments": [
        "8",
        "ipfs/QmPm89pWbNphT8T3cfcinfSHEctWRDEoPQrt1y1ojoJH7w/00000000000000000000000000000000000000000000000000000000000000080000000000000000000000000000000000000000000000000000000000000000.json"
      ],
      "transaction": {
        "from": "0x8835669696fb92839ab198cd80ce9f0d35f45ad5",
        "to": "0xbc24012488bfcfe44875a139299595879c43c2cd",
        "gas": "0x45413",
        "value": "0x0",
        "input": "0xce64b45f0000000000000000000000000000000000000000000000000000000000000008000000000000000000000000000000000000000000000000000000000000004000000000000000000000000000000000000000000000000000000000000000b9697066732f516d506d38397057624e706854385433636663696e665348456374575244456f505172743179316f6a6f4a4837772f30303030303030303030303030303030303030303030303030303030303030303030303030303030303030303030303030303030303030303030303030303038303030303030303030303030303030303030303030303030303030303030303030303030303030303030303030303030303030303030303030303030303030302e6a736f6e00000000000000",
        "nonce": "0x14057",
        "chainId": "0xa"
      },
      "additionalContracts": [],
      "isFixedGasLimit": false
    },
    {
      "hash": "0x2bbe069f160c3a3c852360b9532961448c7af9ea66672215c81fd400c4348472",
      "transactionType": "CALL",
      "contractName": null,
      "contractAddress": "0xbc24012488bfcfe44875a139299595879c43c2cd",
      "function": "setBadgeMetadata(uint256,string)",
      "arguments": [
        "9",
        "ipfs/QmPm89pWbNphT8T3cfcinfSHEctWRDEoPQrt1y1ojoJH7w/00000000000000000000000000000000000000000000000000000000000000090000000000000000000000000000000000000000000000000000000000000000.json"
      ],
      "transaction": {
        "from": "0x8835669696fb92839ab198cd80ce9f0d35f45ad5",
        "to": "0xbc24012488bfcfe44875a139299595879c43c2cd",
        "gas": "0x45413",
        "value": "0x0",
        "input": "0xce64b45f0000000000000000000000000000000000000000000000000000000000000009000000000000000000000000000000000000000000000000000000000000004000000000000000000000000000000000000000000000000000000000000000b9697066732f516d506d38397057624e706854385433636663696e665348456374575244456f505172743179316f6a6f4a4837772f30303030303030303030303030303030303030303030303030303030303030303030303030303030303030303030303030303030303030303030303030303039303030303030303030303030303030303030303030303030303030303030303030303030303030303030303030303030303030303030303030303030303030302e6a736f6e00000000000000",
        "nonce": "0x14058",
        "chainId": "0xa"
      },
      "additionalContracts": [],
      "isFixedGasLimit": false
    },
    {
      "hash": "0x94c7f020f2bdbc0804b352043f78f02c5b0b68b3d140eb6ee4b57c7e48f4f999",
      "transactionType": "CALL",
      "contractName": null,
      "contractAddress": "0xbc24012488bfcfe44875a139299595879c43c2cd",
      "function": "setBadgeMetadata(uint256,string)",
      "arguments": [
        "10",
        "ipfs/QmPm89pWbNphT8T3cfcinfSHEctWRDEoPQrt1y1ojoJH7w/00000000000000000000000000000000000000000000000000000000000000100000000000000000000000000000000000000000000000000000000000000000.json"
      ],
      "transaction": {
        "from": "0x8835669696fb92839ab198cd80ce9f0d35f45ad5",
        "to": "0xbc24012488bfcfe44875a139299595879c43c2cd",
        "gas": "0x45413",
        "value": "0x0",
        "input": "0xce64b45f000000000000000000000000000000000000000000000000000000000000000a000000000000000000000000000000000000000000000000000000000000004000000000000000000000000000000000000000000000000000000000000000b9697066732f516d506d38397057624e706854385433636663696e665348456374575244456f505172743179316f6a6f4a4837772f30303030303030303030303030303030303030303030303030303030303030303030303030303030303030303030303030303030303030303030303030303130303030303030303030303030303030303030303030303030303030303030303030303030303030303030303030303030303030303030303030303030303030302e6a736f6e00000000000000",
        "nonce": "0x14059",
        "chainId": "0xa"
      },
      "additionalContracts": [],
      "isFixedGasLimit": false
    },
    {
      "hash": "0x12ef68e1825808182483a6d4b3af5bc3aee74d074dc8b111b5a5f184871401ab",
      "transactionType": "CALL",
      "contractName": null,
      "contractAddress": "0xbc24012488bfcfe44875a139299595879c43c2cd",
      "function": "setBadgeMetadata(uint256,string)",
      "arguments": [
        "11",
        "ipfs/QmPm89pWbNphT8T3cfcinfSHEctWRDEoPQrt1y1ojoJH7w/00000000000000000000000000000000000000000000000000000000000000110000000000000000000000000000000000000000000000000000000000000000.json"
      ],
      "transaction": {
        "from": "0x8835669696fb92839ab198cd80ce9f0d35f45ad5",
        "to": "0xbc24012488bfcfe44875a139299595879c43c2cd",
        "gas": "0x45413",
        "value": "0x0",
        "input": "0xce64b45f000000000000000000000000000000000000000000000000000000000000000b000000000000000000000000000000000000000000000000000000000000004000000000000000000000000000000000000000000000000000000000000000b9697066732f516d506d38397057624e706854385433636663696e665348456374575244456f505172743179316f6a6f4a4837772f30303030303030303030303030303030303030303030303030303030303030303030303030303030303030303030303030303030303030303030303030303131303030303030303030303030303030303030303030303030303030303030303030303030303030303030303030303030303030303030303030303030303030302e6a736f6e00000000000000",
        "nonce": "0x1405a",
        "chainId": "0xa"
      },
      "additionalContracts": [],
      "isFixedGasLimit": false
    },
    {
      "hash": "0xe975d3c40a882c97ff56599bf88b1ce138050b854f761a0da76e5564f4ede17c",
      "transactionType": "CALL",
      "contractName": null,
      "contractAddress": "0xbc24012488bfcfe44875a139299595879c43c2cd",
      "function": "setBadgeMetadata(uint256,string)",
      "arguments": [
        "12",
        "ipfs/QmPm89pWbNphT8T3cfcinfSHEctWRDEoPQrt1y1ojoJH7w/00000000000000000000000000000000000000000000000000000000000000120000000000000000000000000000000000000000000000000000000000000000.json"
      ],
      "transaction": {
        "from": "0x8835669696fb92839ab198cd80ce9f0d35f45ad5",
        "to": "0xbc24012488bfcfe44875a139299595879c43c2cd",
        "gas": "0x14683",
        "value": "0x0",
        "input": "0xce64b45f000000000000000000000000000000000000000000000000000000000000000c000000000000000000000000000000000000000000000000000000000000004000000000000000000000000000000000000000000000000000000000000000b9697066732f516d506d38397057624e706854385433636663696e665348456374575244456f505172743179316f6a6f4a4837772f30303030303030303030303030303030303030303030303030303030303030303030303030303030303030303030303030303030303030303030303030303132303030303030303030303030303030303030303030303030303030303030303030303030303030303030303030303030303030303030303030303030303030302e6a736f6e00000000000000",
        "nonce": "0x1405b",
        "chainId": "0xa"
      },
      "additionalContracts": [],
      "isFixedGasLimit": false
    },
    {
      "hash": "0x4df73feacc6c2237671181e9659112c438a62d0566cccaf7905e0095c03fdce5",
      "transactionType": "CALL",
      "contractName": null,
      "contractAddress": "0xbc24012488bfcfe44875a139299595879c43c2cd",
      "function": "setBadgeMetadata(uint256,string)",
      "arguments": [
        "13",
        "ipfs/QmPm89pWbNphT8T3cfcinfSHEctWRDEoPQrt1y1ojoJH7w/00000000000000000000000000000000000000000000000000000000000000130000000000000000000000000000000000000000000000000000000000000000.json"
      ],
      "transaction": {
        "from": "0x8835669696fb92839ab198cd80ce9f0d35f45ad5",
        "to": "0xbc24012488bfcfe44875a139299595879c43c2cd",
        "gas": "0x14683",
        "value": "0x0",
        "input": "0xce64b45f000000000000000000000000000000000000000000000000000000000000000d000000000000000000000000000000000000000000000000000000000000004000000000000000000000000000000000000000000000000000000000000000b9697066732f516d506d38397057624e706854385433636663696e665348456374575244456f505172743179316f6a6f4a4837772f30303030303030303030303030303030303030303030303030303030303030303030303030303030303030303030303030303030303030303030303030303133303030303030303030303030303030303030303030303030303030303030303030303030303030303030303030303030303030303030303030303030303030302e6a736f6e00000000000000",
        "nonce": "0x1405c",
        "chainId": "0xa"
      },
      "additionalContracts": [],
      "isFixedGasLimit": false
    },
    {
      "hash": "0x7226aaebf7c06a817ec610911c4473bc60483e52b841c0289320274a33f17326",
      "transactionType": "CALL",
      "contractName": null,
      "contractAddress": "0xbc24012488bfcfe44875a139299595879c43c2cd",
      "function": "setBadgeMetadata(uint256,string)",
      "arguments": [
        "14",
        "ipfs/QmPm89pWbNphT8T3cfcinfSHEctWRDEoPQrt1y1ojoJH7w/00000000000000000000000000000000000000000000000000000000000000140000000000000000000000000000000000000000000000000000000000000000.json"
      ],
      "transaction": {
        "from": "0x8835669696fb92839ab198cd80ce9f0d35f45ad5",
        "to": "0xbc24012488bfcfe44875a139299595879c43c2cd",
        "gas": "0x14683",
        "value": "0x0",
        "input": "0xce64b45f000000000000000000000000000000000000000000000000000000000000000e000000000000000000000000000000000000000000000000000000000000004000000000000000000000000000000000000000000000000000000000000000b9697066732f516d506d38397057624e706854385433636663696e665348456374575244456f505172743179316f6a6f4a4837772f30303030303030303030303030303030303030303030303030303030303030303030303030303030303030303030303030303030303030303030303030303134303030303030303030303030303030303030303030303030303030303030303030303030303030303030303030303030303030303030303030303030303030302e6a736f6e00000000000000",
        "nonce": "0x1405d",
        "chainId": "0xa"
      },
      "additionalContracts": [],
      "isFixedGasLimit": false
    },
    {
      "hash": "0xc270c31272c8b67313a5e10aedf8412df55a3b2d4c1361de7af51759a7a6272b",
      "transactionType": "CALL",
      "contractName": null,
      "contractAddress": "0xbc24012488bfcfe44875a139299595879c43c2cd",
      "function": "setBadgeMetadata(uint256,string)",
      "arguments": [
        "15",
        "ipfs/QmPm89pWbNphT8T3cfcinfSHEctWRDEoPQrt1y1ojoJH7w/00000000000000000000000000000000000000000000000000000000000000150000000000000000000000000000000000000000000000000000000000000000.json"
      ],
      "transaction": {
        "from": "0x8835669696fb92839ab198cd80ce9f0d35f45ad5",
        "to": "0xbc24012488bfcfe44875a139299595879c43c2cd",
        "gas": "0x45413",
        "value": "0x0",
        "input": "0xce64b45f000000000000000000000000000000000000000000000000000000000000000f000000000000000000000000000000000000000000000000000000000000004000000000000000000000000000000000000000000000000000000000000000b9697066732f516d506d38397057624e706854385433636663696e665348456374575244456f505172743179316f6a6f4a4837772f30303030303030303030303030303030303030303030303030303030303030303030303030303030303030303030303030303030303030303030303030303135303030303030303030303030303030303030303030303030303030303030303030303030303030303030303030303030303030303030303030303030303030302e6a736f6e00000000000000",
        "nonce": "0x1405e",
        "chainId": "0xa"
      },
      "additionalContracts": [],
      "isFixedGasLimit": false
    },
    {
      "hash": "0xc9041da6d7274fbbdee50b5db383ea95b381bbe515ad9e0a4602174f1d651622",
      "transactionType": "CALL",
      "contractName": null,
      "contractAddress": "0xbc24012488bfcfe44875a139299595879c43c2cd",
      "function": "setBadgeMetadata(uint256,string)",
      "arguments": [
        "16",
        "ipfs/QmPm89pWbNphT8T3cfcinfSHEctWRDEoPQrt1y1ojoJH7w/00000000000000000000000000000000000000000000000000000000000000160000000000000000000000000000000000000000000000000000000000000000.json"
      ],
      "transaction": {
        "from": "0x8835669696fb92839ab198cd80ce9f0d35f45ad5",
        "to": "0xbc24012488bfcfe44875a139299595879c43c2cd",
        "gas": "0x45413",
        "value": "0x0",
        "input": "0xce64b45f0000000000000000000000000000000000000000000000000000000000000010000000000000000000000000000000000000000000000000000000000000004000000000000000000000000000000000000000000000000000000000000000b9697066732f516d506d38397057624e706854385433636663696e665348456374575244456f505172743179316f6a6f4a4837772f30303030303030303030303030303030303030303030303030303030303030303030303030303030303030303030303030303030303030303030303030303136303030303030303030303030303030303030303030303030303030303030303030303030303030303030303030303030303030303030303030303030303030302e6a736f6e00000000000000",
        "nonce": "0x1405f",
        "chainId": "0xa"
      },
      "additionalContracts": [],
      "isFixedGasLimit": false
    },
    {
      "hash": "0x7f413ba5e5ae65a67dd84dd9987374dd5c0c6adbf075050037b08f86ab367b4b",
      "transactionType": "CALL",
      "contractName": null,
      "contractAddress": "0xbc24012488bfcfe44875a139299595879c43c2cd",
      "function": "setBadgeMetadata(uint256,string)",
      "arguments": [
        "17",
        "ipfs/QmPm89pWbNphT8T3cfcinfSHEctWRDEoPQrt1y1ojoJH7w/00000000000000000000000000000000000000000000000000000000000000170000000000000000000000000000000000000000000000000000000000000000.json"
      ],
      "transaction": {
        "from": "0x8835669696fb92839ab198cd80ce9f0d35f45ad5",
        "to": "0xbc24012488bfcfe44875a139299595879c43c2cd",
        "gas": "0x45413",
        "value": "0x0",
        "input": "0xce64b45f0000000000000000000000000000000000000000000000000000000000000011000000000000000000000000000000000000000000000000000000000000004000000000000000000000000000000000000000000000000000000000000000b9697066732f516d506d38397057624e706854385433636663696e665348456374575244456f505172743179316f6a6f4a4837772f30303030303030303030303030303030303030303030303030303030303030303030303030303030303030303030303030303030303030303030303030303137303030303030303030303030303030303030303030303030303030303030303030303030303030303030303030303030303030303030303030303030303030302e6a736f6e00000000000000",
        "nonce": "0x14060",
        "chainId": "0xa"
      },
      "additionalContracts": [],
      "isFixedGasLimit": false
    }
  ],
  "receipts": [
    {
      "status": "0x1",
      "cumulativeGasUsed": "0x692528",
      "logs": [
        {
          "address": "0xbc24012488bfcfe44875a139299595879c43c2cd",
          "topics": [
            "0x2e5977e12fac9a91696e22ba811f2893e11ad62f8aa53e99a628b031d18a379f",
            "0x0000000000000000000000000000000000000000000000000000000000000001"
          ],
          "data": "0x000000000000000000000000000000000000000000000000000000000000002000000000000000000000000000000000000000000000000000000000000000b9697066732f516d506d38397057624e706854385433636663696e665348456374575244456f505172743179316f6a6f4a4837772f30303030303030303030303030303030303030303030303030303030303030303030303030303030303030303030303030303030303030303030303030303031303030303030303030303030303030303030303030303030303030303030303030303030303030303030303030303030303030303030303030303030303030302e6a736f6e00000000000000",
          "blockHash": "0xca93d90b5a55aa68b3b2b1f649e0c9315c63ec749933c8b430186736c14970b0",
          "blockNumber": "0x7f7ddfa",
          "blockTimestamp": "0x67e395ad",
          "transactionHash": "0x337e671caa7a5f777ad765ebbde5407c4fe4806bd92e733b60d2dd66327b7669",
          "transactionIndex": "0x15",
          "logIndex": "0x4a",
          "removed": false
        }
      ],
      "logsBloom": "0x00000000040000000200000000000000000000000000000000000000000000000000000000000000000000000000000000000000000000000000000000040000000000000000000000000000000000000000000000040000000000000000000000000000000000000000000000000000000000000000000000000000000004000000000000000000000000000000000000000000000000000000000000000000000000000000000000000000000000000000000000000100000000000000000000000000000000000000000000000000000000000000000000004000400040000000000000000000000000000000000000000000000000000000000000000000",
      "type": "0x2",
      "transactionHash": "0x337e671caa7a5f777ad765ebbde5407c4fe4806bd92e733b60d2dd66327b7669",
      "transactionIndex": "0x15",
      "blockHash": "0xca93d90b5a55aa68b3b2b1f649e0c9315c63ec749933c8b430186736c14970b0",
      "blockNumber": "0x7f7ddfa",
      "gasUsed": "0x2f5a9",
      "effectiveGasPrice": "0xeee6",
      "from": "0x8835669696fb92839ab198cd80ce9f0d35f45ad5",
      "to": "0xbc24012488bfcfe44875a139299595879c43c2cd",
      "contractAddress": null,
      "l1BaseFeeScalar": "0x146b",
      "l1BlobBaseFee": "0x2",
      "l1BlobBaseFeeScalar": "0xf79c5",
      "l1Fee": "0xe6867fb7",
      "l1GasPrice": "0x14955058",
      "l1GasUsed": "0x85e"
    },
    {
      "status": "0x1",
      "cumulativeGasUsed": "0x6c1ad1",
      "logs": [
        {
          "address": "0xbc24012488bfcfe44875a139299595879c43c2cd",
          "topics": [
            "0x2e5977e12fac9a91696e22ba811f2893e11ad62f8aa53e99a628b031d18a379f",
            "0x0000000000000000000000000000000000000000000000000000000000000002"
          ],
          "data": "0x000000000000000000000000000000000000000000000000000000000000002000000000000000000000000000000000000000000000000000000000000000b9697066732f516d506d38397057624e706854385433636663696e665348456374575244456f505172743179316f6a6f4a4837772f30303030303030303030303030303030303030303030303030303030303030303030303030303030303030303030303030303030303030303030303030303032303030303030303030303030303030303030303030303030303030303030303030303030303030303030303030303030303030303030303030303030303030302e6a736f6e00000000000000",
          "blockHash": "0xca93d90b5a55aa68b3b2b1f649e0c9315c63ec749933c8b430186736c14970b0",
          "blockNumber": "0x7f7ddfa",
          "blockTimestamp": "0x67e395ad",
          "transactionHash": "0x2441b768a5374879dca966d9b2cc97232841726876ae5b48264a3dce883a99b0",
          "transactionIndex": "0x16",
          "logIndex": "0x4b",
          "removed": false
        }
      ],
      "logsBloom": "0x04000000040000000200000000000000000000000000000000000000000000000000000000000000000000000000000000000000000000000000000000000000000000000000000000000000000000000000000000000000000000000000000000000000000000000000000000000000000000000000000000000000000004000000000000000000000000000000000000000000000000000000000000000000000000000000000000000100000000000000000000000100000000000000000000000000000000000000000000000000000000000000000000004000400000000000000000000000000000000000000000000000008000000000000000000000",
      "type": "0x2",
      "transactionHash": "0x2441b768a5374879dca966d9b2cc97232841726876ae5b48264a3dce883a99b0",
      "transactionIndex": "0x16",
      "blockHash": "0xca93d90b5a55aa68b3b2b1f649e0c9315c63ec749933c8b430186736c14970b0",
      "blockNumber": "0x7f7ddfa",
      "gasUsed": "0x2f5a9",
      "effectiveGasPrice": "0xeee6",
      "from": "0x8835669696fb92839ab198cd80ce9f0d35f45ad5",
      "to": "0xbc24012488bfcfe44875a139299595879c43c2cd",
      "contractAddress": null,
      "l1BaseFeeScalar": "0x146b",
      "l1BlobBaseFee": "0x2",
      "l1BlobBaseFeeScalar": "0xf79c5",
      "l1Fee": "0xe6867fb7",
      "l1GasPrice": "0x14955058",
      "l1GasUsed": "0x85e"
    },
    {
      "status": "0x1",
      "cumulativeGasUsed": "0x6f107a",
      "logs": [
        {
          "address": "0xbc24012488bfcfe44875a139299595879c43c2cd",
          "topics": [
            "0x2e5977e12fac9a91696e22ba811f2893e11ad62f8aa53e99a628b031d18a379f",
            "0x0000000000000000000000000000000000000000000000000000000000000003"
          ],
          "data": "0x000000000000000000000000000000000000000000000000000000000000002000000000000000000000000000000000000000000000000000000000000000b9697066732f516d506d38397057624e706854385433636663696e665348456374575244456f505172743179316f6a6f4a4837772f30303030303030303030303030303030303030303030303030303030303030303030303030303030303030303030303030303030303030303030303030303033303030303030303030303030303030303030303030303030303030303030303030303030303030303030303030303030303030303030303030303030303030302e6a736f6e00000000000000",
          "blockHash": "0xca93d90b5a55aa68b3b2b1f649e0c9315c63ec749933c8b430186736c14970b0",
          "blockNumber": "0x7f7ddfa",
          "blockTimestamp": "0x67e395ad",
          "transactionHash": "0x84be9918c2d39c8eb97e1be01a1120a0f864d83602f235d3fc60a97dd0e33e18",
          "transactionIndex": "0x17",
          "logIndex": "0x4c",
          "removed": false
        }
      ],
      "logsBloom": "0x00000000040000000200000000000000000000000000000000000000000000000000000000000000000000000000000000000000020000000000000000000000000000000000000000000000000000000000000000000000000000000000000000000000000000000000000000000000000000000000000000000000000004000000000000000000000000000000000000000000000000000000000000000000000000000000000000000000000000000000000000800100000000000000400000000000000000000000000000000000000000000000000000004000400000000000000000000000000000000000000000000000000000000000000000000000",
      "type": "0x2",
      "transactionHash": "0x84be9918c2d39c8eb97e1be01a1120a0f864d83602f235d3fc60a97dd0e33e18",
      "transactionIndex": "0x17",
      "blockHash": "0xca93d90b5a55aa68b3b2b1f649e0c9315c63ec749933c8b430186736c14970b0",
      "blockNumber": "0x7f7ddfa",
      "gasUsed": "0x2f5a9",
      "effectiveGasPrice": "0xeee6",
      "from": "0x8835669696fb92839ab198cd80ce9f0d35f45ad5",
      "to": "0xbc24012488bfcfe44875a139299595879c43c2cd",
      "contractAddress": null,
      "l1BaseFeeScalar": "0x146b",
      "l1BlobBaseFee": "0x2",
      "l1BlobBaseFeeScalar": "0xf79c5",
      "l1Fee": "0xe6867fb7",
      "l1GasPrice": "0x14955058",
      "l1GasUsed": "0x85e"
    },
    {
      "status": "0x1",
      "cumulativeGasUsed": "0x720623",
      "logs": [
        {
          "address": "0xbc24012488bfcfe44875a139299595879c43c2cd",
          "topics": [
            "0x2e5977e12fac9a91696e22ba811f2893e11ad62f8aa53e99a628b031d18a379f",
            "0x0000000000000000000000000000000000000000000000000000000000000004"
          ],
          "data": "0x000000000000000000000000000000000000000000000000000000000000002000000000000000000000000000000000000000000000000000000000000000b9697066732f516d506d38397057624e706854385433636663696e665348456374575244456f505172743179316f6a6f4a4837772f30303030303030303030303030303030303030303030303030303030303030303030303030303030303030303030303030303030303030303030303030303034303030303030303030303030303030303030303030303030303030303030303030303030303030303030303030303030303030303030303030303030303030302e6a736f6e00000000000000",
          "blockHash": "0xca93d90b5a55aa68b3b2b1f649e0c9315c63ec749933c8b430186736c14970b0",
          "blockNumber": "0x7f7ddfa",
          "blockTimestamp": "0x67e395ad",
          "transactionHash": "0xa058fc27a7c7ca84f756182f7b9e0c24577d52b93690635478366ff9c4786830",
          "transactionIndex": "0x18",
          "logIndex": "0x4d",
          "removed": false
        }
      ],
      "logsBloom": "0x00000000040000000200000000000000000000000000000000000000000000000000000000000000000000000000000000000000000000000000000000000000000000000000000000000000000000000000000000000000000000000000000008000000000000000000000000000000000000000000000000000000000004000000000000000000000000000000000000000000000000000000000000000000000000000000000000000000000000000000000000000100002000000000000000000000000000000000000000000000000000008000000000004000400000000000000000000000000000000000000000000000000000000000000000000000",
      "type": "0x2",
      "transactionHash": "0xa058fc27a7c7ca84f756182f7b9e0c24577d52b93690635478366ff9c4786830",
      "transactionIndex": "0x18",
      "blockHash": "0xca93d90b5a55aa68b3b2b1f649e0c9315c63ec749933c8b430186736c14970b0",
      "blockNumber": "0x7f7ddfa",
      "gasUsed": "0x2f5a9",
      "effectiveGasPrice": "0xeee6",
      "from": "0x8835669696fb92839ab198cd80ce9f0d35f45ad5",
      "to": "0xbc24012488bfcfe44875a139299595879c43c2cd",
      "contractAddress": null,
      "l1BaseFeeScalar": "0x146b",
      "l1BlobBaseFee": "0x2",
      "l1BlobBaseFeeScalar": "0xf79c5",
      "l1Fee": "0xe6867fb7",
      "l1GasPrice": "0x14955058",
      "l1GasUsed": "0x85e"
    },
    {
      "status": "0x1",
      "cumulativeGasUsed": "0x74fbcc",
      "logs": [
        {
          "address": "0xbc24012488bfcfe44875a139299595879c43c2cd",
          "topics": [
            "0x2e5977e12fac9a91696e22ba811f2893e11ad62f8aa53e99a628b031d18a379f",
            "0x0000000000000000000000000000000000000000000000000000000000000005"
          ],
          "data": "0x000000000000000000000000000000000000000000000000000000000000002000000000000000000000000000000000000000000000000000000000000000b9697066732f516d506d38397057624e706854385433636663696e665348456374575244456f505172743179316f6a6f4a4837772f30303030303030303030303030303030303030303030303030303030303030303030303030303030303030303030303030303030303030303030303030303035303030303030303030303030303030303030303030303030303030303030303030303030303030303030303030303030303030303030303030303030303030302e6a736f6e00000000000000",
          "blockHash": "0xca93d90b5a55aa68b3b2b1f649e0c9315c63ec749933c8b430186736c14970b0",
          "blockNumber": "0x7f7ddfa",
          "blockTimestamp": "0x67e395ad",
          "transactionHash": "0xb74b68feff808870b6791eea5db675eec39da807ba8d0d427313ac0899b5adec",
          "transactionIndex": "0x19",
          "logIndex": "0x4e",
          "removed": false
        }
      ],
      "logsBloom": "0x00000000040000000200000000000000000000000000000000000000000000000000000000000000000000000000000000000000000000000000000000000000000010000000000000000000000000000000000000000000000000000000000000000000000000000000000000000000000000000000000000000000000004000000000000000000000000000000001000000800000000000000000000000000000000000000000000000000000000000000000000000100000000000000000000000000000000000000000000000000000000000000000000004000400000000000000000000000000000000000000000000000000000000000000000000000",
      "type": "0x2",
      "transactionHash": "0xb74b68feff808870b6791eea5db675eec39da807ba8d0d427313ac0899b5adec",
      "transactionIndex": "0x19",
      "blockHash": "0xca93d90b5a55aa68b3b2b1f649e0c9315c63ec749933c8b430186736c14970b0",
      "blockNumber": "0x7f7ddfa",
      "gasUsed": "0x2f5a9",
      "effectiveGasPrice": "0xeee6",
      "from": "0x8835669696fb92839ab198cd80ce9f0d35f45ad5",
      "to": "0xbc24012488bfcfe44875a139299595879c43c2cd",
      "contractAddress": null,
      "l1BaseFeeScalar": "0x146b",
      "l1BlobBaseFee": "0x2",
      "l1BlobBaseFeeScalar": "0xf79c5",
      "l1Fee": "0xe6867fb7",
      "l1GasPrice": "0x14955058",
      "l1GasUsed": "0x85e"
    },
    {
      "status": "0x1",
      "cumulativeGasUsed": "0x77f175",
      "logs": [
        {
          "address": "0xbc24012488bfcfe44875a139299595879c43c2cd",
          "topics": [
            "0x2e5977e12fac9a91696e22ba811f2893e11ad62f8aa53e99a628b031d18a379f",
            "0x0000000000000000000000000000000000000000000000000000000000000006"
          ],
          "data": "0x000000000000000000000000000000000000000000000000000000000000002000000000000000000000000000000000000000000000000000000000000000b9697066732f516d506d38397057624e706854385433636663696e665348456374575244456f505172743179316f6a6f4a4837772f30303030303030303030303030303030303030303030303030303030303030303030303030303030303030303030303030303030303030303030303030303036303030303030303030303030303030303030303030303030303030303030303030303030303030303030303030303030303030303030303030303030303030302e6a736f6e00000000000000",
          "blockHash": "0xca93d90b5a55aa68b3b2b1f649e0c9315c63ec749933c8b430186736c14970b0",
          "blockNumber": "0x7f7ddfa",
          "blockTimestamp": "0x67e395ad",
          "transactionHash": "0x745b91650f6a01ccd5e7f50b03e3479241e414691b2071546493b650b194cd3e",
          "transactionIndex": "0x1a",
          "logIndex": "0x4f",
          "removed": false
        }
      ],
      "logsBloom": "0x00000000040000000200000000000000000000000000000000000000000000000000000000000000000000000000000000000000000400000000000000000000000000000000000000000000000000000000000000000000000000000000000000000000000000000000000000000000000000000000000000000000000004000000000400000000000000000000000000000000000000000000000000000000000000000000000000000000000000000000000000000100000000080000000000000000000000000000000000000000000000000000000000004000400000000000000000000000000000000000000000000000000000000000000000000000",
      "type": "0x2",
      "transactionHash": "0x745b91650f6a01ccd5e7f50b03e3479241e414691b2071546493b650b194cd3e",
      "transactionIndex": "0x1a",
      "blockHash": "0xca93d90b5a55aa68b3b2b1f649e0c9315c63ec749933c8b430186736c14970b0",
      "blockNumber": "0x7f7ddfa",
      "gasUsed": "0x2f5a9",
      "effectiveGasPrice": "0xeee6",
      "from": "0x8835669696fb92839ab198cd80ce9f0d35f45ad5",
      "to": "0xbc24012488bfcfe44875a139299595879c43c2cd",
      "contractAddress": null,
      "l1BaseFeeScalar": "0x146b",
      "l1BlobBaseFee": "0x2",
      "l1BlobBaseFeeScalar": "0xf79c5",
      "l1Fee": "0xe6867fb7",
      "l1GasPrice": "0x14955058",
      "l1GasUsed": "0x85e"
    },
    {
      "status": "0x1",
      "cumulativeGasUsed": "0x7ae71e",
      "logs": [
        {
          "address": "0xbc24012488bfcfe44875a139299595879c43c2cd",
          "topics": [
            "0x2e5977e12fac9a91696e22ba811f2893e11ad62f8aa53e99a628b031d18a379f",
            "0x0000000000000000000000000000000000000000000000000000000000000007"
          ],
          "data": "0x000000000000000000000000000000000000000000000000000000000000002000000000000000000000000000000000000000000000000000000000000000b9697066732f516d506d38397057624e706854385433636663696e665348456374575244456f505172743179316f6a6f4a4837772f30303030303030303030303030303030303030303030303030303030303030303030303030303030303030303030303030303030303030303030303030303037303030303030303030303030303030303030303030303030303030303030303030303030303030303030303030303030303030303030303030303030303030302e6a736f6e00000000000000",
          "blockHash": "0xca93d90b5a55aa68b3b2b1f649e0c9315c63ec749933c8b430186736c14970b0",
          "blockNumber": "0x7f7ddfa",
          "blockTimestamp": "0x67e395ad",
          "transactionHash": "0x5a12ceb96bc3c656c143b79964c5d48249d057e6f6dc2f0e32600695d43e2b74",
          "transactionIndex": "0x1b",
          "logIndex": "0x50",
          "removed": false
        }
      ],
      "logsBloom": "0x00000000040000000200000000000000000000000000000000000000000000000000000000000000000000000000000000001000000000000000000000000000000020000000000000000000000000000000000000000000000000000000000000000000000000000000000000000000000000000000000000000000000004000000000000000000000000000000000000000000000000000000000000000000000000000000000000000000000000000000000000000100000000000000000000000000000000000000000000000000000000000000000000004100400000000000000000000000000000000000000000000000000000000000000000000000",
      "type": "0x2",
      "transactionHash": "0x5a12ceb96bc3c656c143b79964c5d48249d057e6f6dc2f0e32600695d43e2b74",
      "transactionIndex": "0x1b",
      "blockHash": "0xca93d90b5a55aa68b3b2b1f649e0c9315c63ec749933c8b430186736c14970b0",
      "blockNumber": "0x7f7ddfa",
      "gasUsed": "0x2f5a9",
      "effectiveGasPrice": "0xeee6",
      "from": "0x8835669696fb92839ab198cd80ce9f0d35f45ad5",
      "to": "0xbc24012488bfcfe44875a139299595879c43c2cd",
      "contractAddress": null,
      "l1BaseFeeScalar": "0x146b",
      "l1BlobBaseFee": "0x2",
      "l1BlobBaseFeeScalar": "0xf79c5",
      "l1Fee": "0xe6867fb7",
      "l1GasPrice": "0x14955058",
      "l1GasUsed": "0x85e"
    },
    {
      "status": "0x1",
      "cumulativeGasUsed": "0x7ddcc7",
      "logs": [
        {
          "address": "0xbc24012488bfcfe44875a139299595879c43c2cd",
          "topics": [
            "0x2e5977e12fac9a91696e22ba811f2893e11ad62f8aa53e99a628b031d18a379f",
            "0x0000000000000000000000000000000000000000000000000000000000000008"
          ],
          "data": "0x000000000000000000000000000000000000000000000000000000000000002000000000000000000000000000000000000000000000000000000000000000b9697066732f516d506d38397057624e706854385433636663696e665348456374575244456f505172743179316f6a6f4a4837772f30303030303030303030303030303030303030303030303030303030303030303030303030303030303030303030303030303030303030303030303030303038303030303030303030303030303030303030303030303030303030303030303030303030303030303030303030303030303030303030303030303030303030302e6a736f6e00000000000000",
          "blockHash": "0xca93d90b5a55aa68b3b2b1f649e0c9315c63ec749933c8b430186736c14970b0",
          "blockNumber": "0x7f7ddfa",
          "blockTimestamp": "0x67e395ad",
          "transactionHash": "0x9be4bf8267d250625448bc7d0dd2c03ad030b8f982ad7ee086d1ca4c82b20eac",
          "transactionIndex": "0x1c",
          "logIndex": "0x51",
          "removed": false
        }
      ],
      "logsBloom": "0x00000000040000000200000000000000000000000000000000000000000000000000000000000000000000000000000000000000000080000000000000000000000000000000000000000000000000000000000000000000000000000000000000000000000000000000000000000000000000000000000000000000000004000080000000000000000000000000000000000000000000000000000000000000000000000000000000000000000000000000000000000100000000000000000040000000000000000000000000000000000000000000000000004000400000000000000000000000000000000000000000000000000000000000000000000000",
      "type": "0x2",
      "transactionHash": "0x9be4bf8267d250625448bc7d0dd2c03ad030b8f982ad7ee086d1ca4c82b20eac",
      "transactionIndex": "0x1c",
      "blockHash": "0xca93d90b5a55aa68b3b2b1f649e0c9315c63ec749933c8b430186736c14970b0",
      "blockNumber": "0x7f7ddfa",
      "gasUsed": "0x2f5a9",
      "effectiveGasPrice": "0xeee6",
      "from": "0x8835669696fb92839ab198cd80ce9f0d35f45ad5",
      "to": "0xbc24012488bfcfe44875a139299595879c43c2cd",
      "contractAddress": null,
      "l1BaseFeeScalar": "0x146b",
      "l1BlobBaseFee": "0x2",
      "l1BlobBaseFeeScalar": "0xf79c5",
      "l1Fee": "0xe6867fb7",
      "l1GasPrice": "0x14955058",
      "l1GasUsed": "0x85e"
    },
    {
      "status": "0x1",
      "cumulativeGasUsed": "0x80d270",
      "logs": [
        {
          "address": "0xbc24012488bfcfe44875a139299595879c43c2cd",
          "topics": [
            "0x2e5977e12fac9a91696e22ba811f2893e11ad62f8aa53e99a628b031d18a379f",
            "0x0000000000000000000000000000000000000000000000000000000000000009"
          ],
          "data": "0x000000000000000000000000000000000000000000000000000000000000002000000000000000000000000000000000000000000000000000000000000000b9697066732f516d506d38397057624e706854385433636663696e665348456374575244456f505172743179316f6a6f4a4837772f30303030303030303030303030303030303030303030303030303030303030303030303030303030303030303030303030303030303030303030303030303039303030303030303030303030303030303030303030303030303030303030303030303030303030303030303030303030303030303030303030303030303030302e6a736f6e00000000000000",
          "blockHash": "0xca93d90b5a55aa68b3b2b1f649e0c9315c63ec749933c8b430186736c14970b0",
          "blockNumber": "0x7f7ddfa",
          "blockTimestamp": "0x67e395ad",
          "transactionHash": "0x2bbe069f160c3a3c852360b9532961448c7af9ea66672215c81fd400c4348472",
          "transactionIndex": "0x1d",
          "logIndex": "0x52",
          "removed": false
        }
      ],
      "logsBloom": "0x00000000040000000200000000000000000000000000000000000000000000000000000000000000000000000000000000000000000000000000000000200000000000000000000000000000000000000000000000000000000000000000000000000000000000000000000000000000000000000000000000000000000004000000000000000000000000000000000000001000000000000000000000000000000000000000000000000000000000000000000000000100000000000000000000000000000000000000000000000000000000000000000000004000400000000000000000000000000000000000000000000000000000000000000000800000",
      "type": "0x2",
      "transactionHash": "0x2bbe069f160c3a3c852360b9532961448c7af9ea66672215c81fd400c4348472",
      "transactionIndex": "0x1d",
      "blockHash": "0xca93d90b5a55aa68b3b2b1f649e0c9315c63ec749933c8b430186736c14970b0",
      "blockNumber": "0x7f7ddfa",
      "gasUsed": "0x2f5a9",
      "effectiveGasPrice": "0xeee6",
      "from": "0x8835669696fb92839ab198cd80ce9f0d35f45ad5",
      "to": "0xbc24012488bfcfe44875a139299595879c43c2cd",
      "contractAddress": null,
      "l1BaseFeeScalar": "0x146b",
      "l1BlobBaseFee": "0x2",
      "l1BlobBaseFeeScalar": "0xf79c5",
      "l1Fee": "0xe6867fb7",
      "l1GasPrice": "0x14955058",
      "l1GasUsed": "0x85e"
    },
    {
      "status": "0x1",
      "cumulativeGasUsed": "0x83c819",
      "logs": [
        {
          "address": "0xbc24012488bfcfe44875a139299595879c43c2cd",
          "topics": [
            "0x2e5977e12fac9a91696e22ba811f2893e11ad62f8aa53e99a628b031d18a379f",
            "0x000000000000000000000000000000000000000000000000000000000000000a"
          ],
          "data": "0x000000000000000000000000000000000000000000000000000000000000002000000000000000000000000000000000000000000000000000000000000000b9697066732f516d506d38397057624e706854385433636663696e665348456374575244456f505172743179316f6a6f4a4837772f30303030303030303030303030303030303030303030303030303030303030303030303030303030303030303030303030303030303030303030303030303130303030303030303030303030303030303030303030303030303030303030303030303030303030303030303030303030303030303030303030303030303030302e6a736f6e00000000000000",
          "blockHash": "0xca93d90b5a55aa68b3b2b1f649e0c9315c63ec749933c8b430186736c14970b0",
          "blockNumber": "0x7f7ddfa",
          "blockTimestamp": "0x67e395ad",
          "transactionHash": "0x94c7f020f2bdbc0804b352043f78f02c5b0b68b3d140eb6ee4b57c7e48f4f999",
          "transactionIndex": "0x1e",
          "logIndex": "0x53",
          "removed": false
        }
      ],
      "logsBloom": "0x00000000040000000200000000000000000000000000000000000000000000000000000000000000000000000000000000000000040000000020000000000000000000000000000000000000000000000000000000000000000000000000000000000000000000000000000000000000000000000000000000000000000004000000000000000000010000000000000000000000000000000000000000000000000000000000000000000000000000000000000000000100000000000000000000000000000000000000000000000000000000000000000000004000400000000000000000000000000000000000000000000000000000000000000000000000",
      "type": "0x2",
      "transactionHash": "0x94c7f020f2bdbc0804b352043f78f02c5b0b68b3d140eb6ee4b57c7e48f4f999",
      "transactionIndex": "0x1e",
      "blockHash": "0xca93d90b5a55aa68b3b2b1f649e0c9315c63ec749933c8b430186736c14970b0",
      "blockNumber": "0x7f7ddfa",
      "gasUsed": "0x2f5a9",
      "effectiveGasPrice": "0xeee6",
      "from": "0x8835669696fb92839ab198cd80ce9f0d35f45ad5",
      "to": "0xbc24012488bfcfe44875a139299595879c43c2cd",
      "contractAddress": null,
      "l1BaseFeeScalar": "0x146b",
      "l1BlobBaseFee": "0x2",
      "l1BlobBaseFeeScalar": "0xf79c5",
      "l1Fee": "0xe6867fb7",
      "l1GasPrice": "0x14955058",
      "l1GasUsed": "0x85e"
    },
    {
      "status": "0x1",
      "cumulativeGasUsed": "0x86bdc2",
      "logs": [
        {
          "address": "0xbc24012488bfcfe44875a139299595879c43c2cd",
          "topics": [
            "0x2e5977e12fac9a91696e22ba811f2893e11ad62f8aa53e99a628b031d18a379f",
            "0x000000000000000000000000000000000000000000000000000000000000000b"
          ],
          "data": "0x000000000000000000000000000000000000000000000000000000000000002000000000000000000000000000000000000000000000000000000000000000b9697066732f516d506d38397057624e706854385433636663696e665348456374575244456f505172743179316f6a6f4a4837772f30303030303030303030303030303030303030303030303030303030303030303030303030303030303030303030303030303030303030303030303030303131303030303030303030303030303030303030303030303030303030303030303030303030303030303030303030303030303030303030303030303030303030302e6a736f6e00000000000000",
          "blockHash": "0xca93d90b5a55aa68b3b2b1f649e0c9315c63ec749933c8b430186736c14970b0",
          "blockNumber": "0x7f7ddfa",
          "blockTimestamp": "0x67e395ad",
          "transactionHash": "0x12ef68e1825808182483a6d4b3af5bc3aee74d074dc8b111b5a5f184871401ab",
          "transactionIndex": "0x1f",
          "logIndex": "0x54",
          "removed": false
        }
      ],
      "logsBloom": "0x00000000040000000200004000000000000000000000000000000000000000000000000000000000000000000000000000000000000000000000000000000000000000000000000000000000000000000000000000000000000000000000000000000000000000000000000000000000000000000000000000000000000004000000000000000000000000000000000000000000000000000000000000000000000000000000000000000000000000000000000000000100000000000000000000000000000000000000000000000000002000000000000000004000400000000000000000000000000000000000000000000000000000040000000000000000",
      "type": "0x2",
      "transactionHash": "0x12ef68e1825808182483a6d4b3af5bc3aee74d074dc8b111b5a5f184871401ab",
      "transactionIndex": "0x1f",
      "blockHash": "0xca93d90b5a55aa68b3b2b1f649e0c9315c63ec749933c8b430186736c14970b0",
      "blockNumber": "0x7f7ddfa",
      "gasUsed": "0x2f5a9",
      "effectiveGasPrice": "0xeee6",
      "from": "0x8835669696fb92839ab198cd80ce9f0d35f45ad5",
      "to": "0xbc24012488bfcfe44875a139299595879c43c2cd",
      "contractAddress": null,
      "l1BaseFeeScalar": "0x146b",
      "l1BlobBaseFee": "0x2",
      "l1BlobBaseFeeScalar": "0xf79c5",
      "l1Fee": "0xe7f72165",
      "l1GasPrice": "0x14955058",
      "l1GasUsed": "0x86c"
    },
    {
      "status": "0x1",
      "cumulativeGasUsed": "0x87aa26",
      "logs": [
        {
          "address": "0xbc24012488bfcfe44875a139299595879c43c2cd",
          "topics": [
            "0x2e5977e12fac9a91696e22ba811f2893e11ad62f8aa53e99a628b031d18a379f",
            "0x000000000000000000000000000000000000000000000000000000000000000c"
          ],
          "data": "0x000000000000000000000000000000000000000000000000000000000000002000000000000000000000000000000000000000000000000000000000000000b9697066732f516d506d38397057624e706854385433636663696e665348456374575244456f505172743179316f6a6f4a4837772f30303030303030303030303030303030303030303030303030303030303030303030303030303030303030303030303030303030303030303030303030303132303030303030303030303030303030303030303030303030303030303030303030303030303030303030303030303030303030303030303030303030303030302e6a736f6e00000000000000",
          "blockHash": "0xca93d90b5a55aa68b3b2b1f649e0c9315c63ec749933c8b430186736c14970b0",
          "blockNumber": "0x7f7ddfa",
          "blockTimestamp": "0x67e395ad",
          "transactionHash": "0xe975d3c40a882c97ff56599bf88b1ce138050b854f761a0da76e5564f4ede17c",
          "transactionIndex": "0x20",
          "logIndex": "0x55",
          "removed": false
        }
      ],
      "logsBloom": "0x00000000040000000200000000000000000002000000000000000000000000000000000000000200000000000000000000000000000000000000000000000000000000000000000000000000000000000000000000000000000000000000000000000000000000000000000000000000000000000000000000000000000004000000000000000000000000000000000000000000000000000000000000000000000000000000000000000000000000000000000000000100000000000000000000000000000000000000000000000000000000000000000000004000400000200000000000000000000000000000000000000000000000000000000000000000",
      "type": "0x2",
      "transactionHash": "0xe975d3c40a882c97ff56599bf88b1ce138050b854f761a0da76e5564f4ede17c",
      "transactionIndex": "0x20",
      "blockHash": "0xca93d90b5a55aa68b3b2b1f649e0c9315c63ec749933c8b430186736c14970b0",
      "blockNumber": "0x7f7ddfa",
      "gasUsed": "0xec64",
      "effectiveGasPrice": "0xeee6",
      "from": "0x8835669696fb92839ab198cd80ce9f0d35f45ad5",
      "to": "0xbc24012488bfcfe44875a139299595879c43c2cd",
      "contractAddress": null,
      "l1BaseFeeScalar": "0x146b",
      "l1BlobBaseFee": "0x2",
      "l1BlobBaseFeeScalar": "0xf79c5",
      "l1Fee": "0xe7f72165",
      "l1GasPrice": "0x14955058",
      "l1GasUsed": "0x86c"
    },
    {
      "status": "0x1",
      "cumulativeGasUsed": "0x88968a",
      "logs": [
        {
          "address": "0xbc24012488bfcfe44875a139299595879c43c2cd",
          "topics": [
            "0x2e5977e12fac9a91696e22ba811f2893e11ad62f8aa53e99a628b031d18a379f",
            "0x000000000000000000000000000000000000000000000000000000000000000d"
          ],
          "data": "0x000000000000000000000000000000000000000000000000000000000000002000000000000000000000000000000000000000000000000000000000000000b9697066732f516d506d38397057624e706854385433636663696e665348456374575244456f505172743179316f6a6f4a4837772f30303030303030303030303030303030303030303030303030303030303030303030303030303030303030303030303030303030303030303030303030303133303030303030303030303030303030303030303030303030303030303030303030303030303030303030303030303030303030303030303030303030303030302e6a736f6e00000000000000",
          "blockHash": "0xca93d90b5a55aa68b3b2b1f649e0c9315c63ec749933c8b430186736c14970b0",
          "blockNumber": "0x7f7ddfa",
          "blockTimestamp": "0x67e395ad",
          "transactionHash": "0x4df73feacc6c2237671181e9659112c438a62d0566cccaf7905e0095c03fdce5",
          "transactionIndex": "0x21",
          "logIndex": "0x56",
          "removed": false
        }
      ],
      "logsBloom": "0x00000000040000000240000000000000000000000000000000000000000000000000000000000000000000000000000000000000000000000000000000000000000000000000000000000000000000000002000000000000000000000000000000000000000000000000000000000000000000000000000000000000000004000000000000000000000000000000000000000000000000000000000000000000000000000000000000000000000000000000000000000100000000000000000000000000000000000000000000000000000000000000000000004000400000020000000000000000000000000000000000000000000000000000000000000000",
      "type": "0x2",
      "transactionHash": "0x4df73feacc6c2237671181e9659112c438a62d0566cccaf7905e0095c03fdce5",
      "transactionIndex": "0x21",
      "blockHash": "0xca93d90b5a55aa68b3b2b1f649e0c9315c63ec749933c8b430186736c14970b0",
      "blockNumber": "0x7f7ddfa",
      "gasUsed": "0xec64",
      "effectiveGasPrice": "0xeee6",
      "from": "0x8835669696fb92839ab198cd80ce9f0d35f45ad5",
      "to": "0xbc24012488bfcfe44875a139299595879c43c2cd",
      "contractAddress": null,
      "l1BaseFeeScalar": "0x146b",
      "l1BlobBaseFee": "0x2",
      "l1BlobBaseFeeScalar": "0xf79c5",
      "l1Fee": "0xe7f72165",
      "l1GasPrice": "0x14955058",
      "l1GasUsed": "0x86c"
    },
    {
      "status": "0x1",
      "cumulativeGasUsed": "0x8982ee",
      "logs": [
        {
          "address": "0xbc24012488bfcfe44875a139299595879c43c2cd",
          "topics": [
            "0x2e5977e12fac9a91696e22ba811f2893e11ad62f8aa53e99a628b031d18a379f",
            "0x000000000000000000000000000000000000000000000000000000000000000e"
          ],
          "data": "0x000000000000000000000000000000000000000000000000000000000000002000000000000000000000000000000000000000000000000000000000000000b9697066732f516d506d38397057624e706854385433636663696e665348456374575244456f505172743179316f6a6f4a4837772f30303030303030303030303030303030303030303030303030303030303030303030303030303030303030303030303030303030303030303030303030303134303030303030303030303030303030303030303030303030303030303030303030303030303030303030303030303030303030303030303030303030303030302e6a736f6e00000000000000",
          "blockHash": "0xca93d90b5a55aa68b3b2b1f649e0c9315c63ec749933c8b430186736c14970b0",
          "blockNumber": "0x7f7ddfa",
          "blockTimestamp": "0x67e395ad",
          "transactionHash": "0x7226aaebf7c06a817ec610911c4473bc60483e52b841c0289320274a33f17326",
          "transactionIndex": "0x22",
          "logIndex": "0x57",
          "removed": false
        }
      ],
      "logsBloom": "0x00000000040000000200000000000000000000000000000000000000000000000000000000000000000000000000000000000000000000000000000000000000000000000000000800000000000000000000000000000000000000000000000000000000000000000000000000000000000000000000000000000000000004000000000000000000000000000000000008000000000000000000000000000000000000000000000000000000000000000000000000000120000000000000000000000000000000000000000000000000000000000000000000004000400000000000000000000000000000000000000000000000000000000000000000000000",
      "type": "0x2",
      "transactionHash": "0x7226aaebf7c06a817ec610911c4473bc60483e52b841c0289320274a33f17326",
      "transactionIndex": "0x22",
      "blockHash": "0xca93d90b5a55aa68b3b2b1f649e0c9315c63ec749933c8b430186736c14970b0",
      "blockNumber": "0x7f7ddfa",
      "gasUsed": "0xec64",
      "effectiveGasPrice": "0xeee6",
      "from": "0x8835669696fb92839ab198cd80ce9f0d35f45ad5",
      "to": "0xbc24012488bfcfe44875a139299595879c43c2cd",
      "contractAddress": null,
      "l1BaseFeeScalar": "0x146b",
      "l1BlobBaseFee": "0x2",
      "l1BlobBaseFeeScalar": "0xf79c5",
      "l1Fee": "0xe7f72165",
      "l1GasPrice": "0x14955058",
      "l1GasUsed": "0x86c"
    },
    {
      "status": "0x1",
      "cumulativeGasUsed": "0x8c7897",
      "logs": [
        {
          "address": "0xbc24012488bfcfe44875a139299595879c43c2cd",
          "topics": [
            "0x2e5977e12fac9a91696e22ba811f2893e11ad62f8aa53e99a628b031d18a379f",
            "0x000000000000000000000000000000000000000000000000000000000000000f"
          ],
          "data": "0x000000000000000000000000000000000000000000000000000000000000002000000000000000000000000000000000000000000000000000000000000000b9697066732f516d506d38397057624e706854385433636663696e665348456374575244456f505172743179316f6a6f4a4837772f30303030303030303030303030303030303030303030303030303030303030303030303030303030303030303030303030303030303030303030303030303135303030303030303030303030303030303030303030303030303030303030303030303030303030303030303030303030303030303030303030303030303030302e6a736f6e00000000000000",
          "blockHash": "0xca93d90b5a55aa68b3b2b1f649e0c9315c63ec749933c8b430186736c14970b0",
          "blockNumber": "0x7f7ddfa",
          "blockTimestamp": "0x67e395ad",
          "transactionHash": "0xc270c31272c8b67313a5e10aedf8412df55a3b2d4c1361de7af51759a7a6272b",
          "transactionIndex": "0x23",
          "logIndex": "0x58",
          "removed": false
        }
      ],
      "logsBloom": "0x00000000040000000200000000000000000000000000000000000000000000000000000000000000000000000000000000000000000000000000000000000000000000000000000000000000000000000000000000000000000000000002000000000000000000000000000000000000000000000000000000000000000004000000000000000800000000000000000000000000000000000000000000000000000000000000000000000000000000000000000000000100000000000000000000000000000000000000000000000000000000000000000000004000400000000000000200000000000000000000000000000000000000000000000000000000",
      "type": "0x2",
      "transactionHash": "0xc270c31272c8b67313a5e10aedf8412df55a3b2d4c1361de7af51759a7a6272b",
      "transactionIndex": "0x23",
      "blockHash": "0xca93d90b5a55aa68b3b2b1f649e0c9315c63ec749933c8b430186736c14970b0",
      "blockNumber": "0x7f7ddfa",
      "gasUsed": "0x2f5a9",
      "effectiveGasPrice": "0xeee6",
      "from": "0x8835669696fb92839ab198cd80ce9f0d35f45ad5",
      "to": "0xbc24012488bfcfe44875a139299595879c43c2cd",
      "contractAddress": null,
      "l1BaseFeeScalar": "0x146b",
      "l1BlobBaseFee": "0x2",
      "l1BlobBaseFeeScalar": "0xf79c5",
      "l1Fee": "0xe7f72165",
      "l1GasPrice": "0x14955058",
      "l1GasUsed": "0x86c"
    },
    {
      "status": "0x1",
      "cumulativeGasUsed": "0x8f6e40",
      "logs": [
        {
          "address": "0xbc24012488bfcfe44875a139299595879c43c2cd",
          "topics": [
            "0x2e5977e12fac9a91696e22ba811f2893e11ad62f8aa53e99a628b031d18a379f",
            "0x0000000000000000000000000000000000000000000000000000000000000010"
          ],
          "data": "0x000000000000000000000000000000000000000000000000000000000000002000000000000000000000000000000000000000000000000000000000000000b9697066732f516d506d38397057624e706854385433636663696e665348456374575244456f505172743179316f6a6f4a4837772f30303030303030303030303030303030303030303030303030303030303030303030303030303030303030303030303030303030303030303030303030303136303030303030303030303030303030303030303030303030303030303030303030303030303030303030303030303030303030303030303030303030303030302e6a736f6e00000000000000",
          "blockHash": "0xca93d90b5a55aa68b3b2b1f649e0c9315c63ec749933c8b430186736c14970b0",
          "blockNumber": "0x7f7ddfa",
          "blockTimestamp": "0x67e395ad",
          "transactionHash": "0xc9041da6d7274fbbdee50b5db383ea95b381bbe515ad9e0a4602174f1d651622",
          "transactionIndex": "0x24",
          "logIndex": "0x59",
          "removed": false
        }
      ],
      "logsBloom": "0x00000000140000000200000000000000000000000000000000000000000000000000000000000000000000000000000000000000000000000000000000000000000000000000000000000000000000000000000000000000000000000000000000000000000000000000000000000000000000000000000000000000040004000000000000000000000000000000000000000100000000000000000000000000000000000000000000000000000000000000000000000100000000000000000000000000000000000000000000000000000000000000000000004000400000000000000000000000000000000000000000000000000000000000000000000000",
      "type": "0x2",
      "transactionHash": "0xc9041da6d7274fbbdee50b5db383ea95b381bbe515ad9e0a4602174f1d651622",
      "transactionIndex": "0x24",
      "blockHash": "0xca93d90b5a55aa68b3b2b1f649e0c9315c63ec749933c8b430186736c14970b0",
      "blockNumber": "0x7f7ddfa",
      "gasUsed": "0x2f5a9",
      "effectiveGasPrice": "0xeee6",
      "from": "0x8835669696fb92839ab198cd80ce9f0d35f45ad5",
      "to": "0xbc24012488bfcfe44875a139299595879c43c2cd",
      "contractAddress": null,
      "l1BaseFeeScalar": "0x146b",
      "l1BlobBaseFee": "0x2",
      "l1BlobBaseFeeScalar": "0xf79c5",
      "l1Fee": "0xe7f72165",
      "l1GasPrice": "0x14955058",
      "l1GasUsed": "0x86c"
    },
    {
      "status": "0x1",
      "cumulativeGasUsed": "0x9263e9",
      "logs": [
        {
          "address": "0xbc24012488bfcfe44875a139299595879c43c2cd",
          "topics": [
            "0x2e5977e12fac9a91696e22ba811f2893e11ad62f8aa53e99a628b031d18a379f",
            "0x0000000000000000000000000000000000000000000000000000000000000011"
          ],
          "data": "0x000000000000000000000000000000000000000000000000000000000000002000000000000000000000000000000000000000000000000000000000000000b9697066732f516d506d38397057624e706854385433636663696e665348456374575244456f505172743179316f6a6f4a4837772f30303030303030303030303030303030303030303030303030303030303030303030303030303030303030303030303030303030303030303030303030303137303030303030303030303030303030303030303030303030303030303030303030303030303030303030303030303030303030303030303030303030303030302e6a736f6e00000000000000",
          "blockHash": "0xca93d90b5a55aa68b3b2b1f649e0c9315c63ec749933c8b430186736c14970b0",
          "blockNumber": "0x7f7ddfa",
          "blockTimestamp": "0x67e395ad",
          "transactionHash": "0x7f413ba5e5ae65a67dd84dd9987374dd5c0c6adbf075050037b08f86ab367b4b",
          "transactionIndex": "0x25",
          "logIndex": "0x5a",
          "removed": false
        }
      ],
      "logsBloom": "0x00000000040000000200000000000000000000000000000000000000000000000000000000000000000000000000000000000000000000000000000000000000000000000000000000000000000000000000000000000000000000000000000000000000000000000000000000000000000000004000000000000000000004000000000000000000000000000000000000000000000000000000000000000000000000000000000000000000000000000000000000000100000000000400000000001000000000000000000000000000000000000000000000004000400000000000000000000000000000000000000000000000000000000000000000000000",
      "type": "0x2",
      "transactionHash": "0x7f413ba5e5ae65a67dd84dd9987374dd5c0c6adbf075050037b08f86ab367b4b",
      "transactionIndex": "0x25",
      "blockHash": "0xca93d90b5a55aa68b3b2b1f649e0c9315c63ec749933c8b430186736c14970b0",
      "blockNumber": "0x7f7ddfa",
      "gasUsed": "0x2f5a9",
      "effectiveGasPrice": "0xeee6",
      "from": "0x8835669696fb92839ab198cd80ce9f0d35f45ad5",
      "to": "0xbc24012488bfcfe44875a139299595879c43c2cd",
      "contractAddress": null,
      "l1BaseFeeScalar": "0x146b",
      "l1BlobBaseFee": "0x2",
      "l1BlobBaseFeeScalar": "0xf79c5",
      "l1Fee": "0xe7f72165",
      "l1GasPrice": "0x14955058",
      "l1GasUsed": "0x86c"
    }
  ],
  "libraries": [],
  "pending": [],
  "returns": {
    "0": {
      "internal_type": "address",
      "value": "0x0000000000000000000000000000000000000000"
    }
  },
  "timestamp": 1742968239,
  "chain": 10,
  "commit": "56bb139"
}