{
  "transactions": [
    {
      "hash": "0x8d52d015b7deedb61d6d896a331443986ea336be6386dcb7ce0154f61964fffc",
      "transactionType": "CALL",
      "contractName": null,
      "contractAddress": "0xbc24012488bfcfe44875a139299595879c43c2cd",
      "function": "setBadgeMetadata(uint256,string)",
      "arguments": [
        "1",
        "ipfs/QmZwGU3UjbGffjYaMwhDGNGyWprejH2FpKWDxrgS7TzRKm/00000000000000000000000000000000000000000000000000000000000000010000000000000000000000000000000000000000000000000000000000000000.json"
      ],
      "transaction": {
        "from": "0x8835669696fb92839ab198cd80ce9f0d35f45ad5",
        "to": "0xbc24012488bfcfe44875a139299595879c43c2cd",
        "gas": "0x14683",
        "value": "0x0",
        "input": "0xce64b45f0000000000000000000000000000000000000000000000000000000000000001000000000000000000000000000000000000000000000000000000000000004000000000000000000000000000000000000000000000000000000000000000b9697066732f516d5a77475533556a624766666a59614d776844474e4779577072656a483246704b57447872675337547a524b6d2f30303030303030303030303030303030303030303030303030303030303030303030303030303030303030303030303030303030303030303030303030303031303030303030303030303030303030303030303030303030303030303030303030303030303030303030303030303030303030303030303030303030303030302e6a736f6e00000000000000",
        "nonce": "0x14061",
        "chainId": "0xa"
      },
      "additionalContracts": [],
      "isFixedGasLimit": false
    },
    {
      "hash": "0x0093869e34160388549968688bf0466165f8ceda1fe503ea6b0535fd96f3d065",
      "transactionType": "CALL",
      "contractName": null,
      "contractAddress": "0xbc24012488bfcfe44875a139299595879c43c2cd",
      "function": "setBadgeMetadata(uint256,string)",
      "arguments": [
        "2",
        "ipfs/QmZwGU3UjbGffjYaMwhDGNGyWprejH2FpKWDxrgS7TzRKm/00000000000000000000000000000000000000000000000000000000000000020000000000000000000000000000000000000000000000000000000000000000.json"
      ],
      "transaction": {
        "from": "0x8835669696fb92839ab198cd80ce9f0d35f45ad5",
        "to": "0xbc24012488bfcfe44875a139299595879c43c2cd",
        "gas": "0x14683",
        "value": "0x0",
        "input": "0xce64b45f0000000000000000000000000000000000000000000000000000000000000002000000000000000000000000000000000000000000000000000000000000004000000000000000000000000000000000000000000000000000000000000000b9697066732f516d5a77475533556a624766666a59614d776844474e4779577072656a483246704b57447872675337547a524b6d2f30303030303030303030303030303030303030303030303030303030303030303030303030303030303030303030303030303030303030303030303030303032303030303030303030303030303030303030303030303030303030303030303030303030303030303030303030303030303030303030303030303030303030302e6a736f6e00000000000000",
        "nonce": "0x14062",
        "chainId": "0xa"
      },
      "additionalContracts": [],
      "isFixedGasLimit": false
    },
    {
      "hash": "0xa5fbae1e2ae51d2fa9b892f57d55aee57acd2138b1fe5fcdd307128660d863ab",
      "transactionType": "CALL",
      "contractName": null,
      "contractAddress": "0xbc24012488bfcfe44875a139299595879c43c2cd",
      "function": "setBadgeMetadata(uint256,string)",
      "arguments": [
        "3",
        "ipfs/QmZwGU3UjbGffjYaMwhDGNGyWprejH2FpKWDxrgS7TzRKm/00000000000000000000000000000000000000000000000000000000000000030000000000000000000000000000000000000000000000000000000000000000.json"
      ],
      "transaction": {
        "from": "0x8835669696fb92839ab198cd80ce9f0d35f45ad5",
        "to": "0xbc24012488bfcfe44875a139299595879c43c2cd",
        "gas": "0x14683",
        "value": "0x0",
        "input": "0xce64b45f0000000000000000000000000000000000000000000000000000000000000003000000000000000000000000000000000000000000000000000000000000004000000000000000000000000000000000000000000000000000000000000000b9697066732f516d5a77475533556a624766666a59614d776844474e4779577072656a483246704b57447872675337547a524b6d2f30303030303030303030303030303030303030303030303030303030303030303030303030303030303030303030303030303030303030303030303030303033303030303030303030303030303030303030303030303030303030303030303030303030303030303030303030303030303030303030303030303030303030302e6a736f6e00000000000000",
        "nonce": "0x14063",
        "chainId": "0xa"
      },
      "additionalContracts": [],
      "isFixedGasLimit": false
    },
    {
      "hash": "0x4321c6aa8788cc94113f58c018d2b7be7eddc31ffe9cc6f5906279e54c5f5e72",
      "transactionType": "CALL",
      "contractName": null,
      "contractAddress": "0xbc24012488bfcfe44875a139299595879c43c2cd",
      "function": "setBadgeMetadata(uint256,string)",
      "arguments": [
        "4",
        "ipfs/QmZwGU3UjbGffjYaMwhDGNGyWprejH2FpKWDxrgS7TzRKm/00000000000000000000000000000000000000000000000000000000000000040000000000000000000000000000000000000000000000000000000000000000.json"
      ],
      "transaction": {
        "from": "0x8835669696fb92839ab198cd80ce9f0d35f45ad5",
        "to": "0xbc24012488bfcfe44875a139299595879c43c2cd",
        "gas": "0x14683",
        "value": "0x0",
        "input": "0xce64b45f0000000000000000000000000000000000000000000000000000000000000004000000000000000000000000000000000000000000000000000000000000004000000000000000000000000000000000000000000000000000000000000000b9697066732f516d5a77475533556a624766666a59614d776844474e4779577072656a483246704b57447872675337547a524b6d2f30303030303030303030303030303030303030303030303030303030303030303030303030303030303030303030303030303030303030303030303030303034303030303030303030303030303030303030303030303030303030303030303030303030303030303030303030303030303030303030303030303030303030302e6a736f6e00000000000000",
        "nonce": "0x14064",
        "chainId": "0xa"
      },
      "additionalContracts": [],
      "isFixedGasLimit": false
    },
    {
      "hash": "0x3ee9cda75c5c2db53224fa2cfc07c68a7711fa1bbb3bb3c51aacfff214a65f16",
      "transactionType": "CALL",
      "contractName": null,
      "contractAddress": "0xbc24012488bfcfe44875a139299595879c43c2cd",
      "function": "setBadgeMetadata(uint256,string)",
      "arguments": [
        "5",
        "ipfs/QmZwGU3UjbGffjYaMwhDGNGyWprejH2FpKWDxrgS7TzRKm/00000000000000000000000000000000000000000000000000000000000000050000000000000000000000000000000000000000000000000000000000000000.json"
      ],
      "transaction": {
        "from": "0x8835669696fb92839ab198cd80ce9f0d35f45ad5",
        "to": "0xbc24012488bfcfe44875a139299595879c43c2cd",
        "gas": "0x14683",
        "value": "0x0",
        "input": "0xce64b45f0000000000000000000000000000000000000000000000000000000000000005000000000000000000000000000000000000000000000000000000000000004000000000000000000000000000000000000000000000000000000000000000b9697066732f516d5a77475533556a624766666a59614d776844474e4779577072656a483246704b57447872675337547a524b6d2f30303030303030303030303030303030303030303030303030303030303030303030303030303030303030303030303030303030303030303030303030303035303030303030303030303030303030303030303030303030303030303030303030303030303030303030303030303030303030303030303030303030303030302e6a736f6e00000000000000",
        "nonce": "0x14065",
        "chainId": "0xa"
      },
      "additionalContracts": [],
      "isFixedGasLimit": false
    },
    {
      "hash": "0xfc596f1cb05b462b92137b0ed40bd3aa9488eeb78a8678c710f236e9c0dcc15f",
      "transactionType": "CALL",
      "contractName": null,
      "contractAddress": "0xbc24012488bfcfe44875a139299595879c43c2cd",
      "function": "setBadgeMetadata(uint256,string)",
      "arguments": [
        "6",
        "ipfs/QmZwGU3UjbGffjYaMwhDGNGyWprejH2FpKWDxrgS7TzRKm/00000000000000000000000000000000000000000000000000000000000000060000000000000000000000000000000000000000000000000000000000000000.json"
      ],
      "transaction": {
        "from": "0x8835669696fb92839ab198cd80ce9f0d35f45ad5",
        "to": "0xbc24012488bfcfe44875a139299595879c43c2cd",
        "gas": "0x14683",
        "value": "0x0",
        "input": "0xce64b45f0000000000000000000000000000000000000000000000000000000000000006000000000000000000000000000000000000000000000000000000000000004000000000000000000000000000000000000000000000000000000000000000b9697066732f516d5a77475533556a624766666a59614d776844474e4779577072656a483246704b57447872675337547a524b6d2f30303030303030303030303030303030303030303030303030303030303030303030303030303030303030303030303030303030303030303030303030303036303030303030303030303030303030303030303030303030303030303030303030303030303030303030303030303030303030303030303030303030303030302e6a736f6e00000000000000",
        "nonce": "0x14066",
        "chainId": "0xa"
      },
      "additionalContracts": [],
      "isFixedGasLimit": false
    },
    {
      "hash": "0x3d9588c6c4aec5a68b1424a3798d5120f9a54a99f3c95f63d25a14075a6b0f2a",
      "transactionType": "CALL",
      "contractName": null,
      "contractAddress": "0xbc24012488bfcfe44875a139299595879c43c2cd",
      "function": "setBadgeMetadata(uint256,string)",
      "arguments": [
        "7",
        "ipfs/QmZwGU3UjbGffjYaMwhDGNGyWprejH2FpKWDxrgS7TzRKm/00000000000000000000000000000000000000000000000000000000000000070000000000000000000000000000000000000000000000000000000000000000.json"
      ],
      "transaction": {
        "from": "0x8835669696fb92839ab198cd80ce9f0d35f45ad5",
        "to": "0xbc24012488bfcfe44875a139299595879c43c2cd",
        "gas": "0x14683",
        "value": "0x0",
        "input": "0xce64b45f0000000000000000000000000000000000000000000000000000000000000007000000000000000000000000000000000000000000000000000000000000004000000000000000000000000000000000000000000000000000000000000000b9697066732f516d5a77475533556a624766666a59614d776844474e4779577072656a483246704b57447872675337547a524b6d2f30303030303030303030303030303030303030303030303030303030303030303030303030303030303030303030303030303030303030303030303030303037303030303030303030303030303030303030303030303030303030303030303030303030303030303030303030303030303030303030303030303030303030302e6a736f6e00000000000000",
        "nonce": "0x14067",
        "chainId": "0xa"
      },
      "additionalContracts": [],
      "isFixedGasLimit": false
    },
    {
      "hash": "0x2f0245975b661066f8b65c6b371d0aafc213b8742ec2b8aef8cfbbe0189bb0ae",
      "transactionType": "CALL",
      "contractName": null,
      "contractAddress": "0xbc24012488bfcfe44875a139299595879c43c2cd",
      "function": "setBadgeMetadata(uint256,string)",
      "arguments": [
        "8",
        "ipfs/QmZwGU3UjbGffjYaMwhDGNGyWprejH2FpKWDxrgS7TzRKm/00000000000000000000000000000000000000000000000000000000000000080000000000000000000000000000000000000000000000000000000000000000.json"
      ],
      "transaction": {
        "from": "0x8835669696fb92839ab198cd80ce9f0d35f45ad5",
        "to": "0xbc24012488bfcfe44875a139299595879c43c2cd",
        "gas": "0x14683",
        "value": "0x0",
        "input": "0xce64b45f0000000000000000000000000000000000000000000000000000000000000008000000000000000000000000000000000000000000000000000000000000004000000000000000000000000000000000000000000000000000000000000000b9697066732f516d5a77475533556a624766666a59614d776844474e4779577072656a483246704b57447872675337547a524b6d2f30303030303030303030303030303030303030303030303030303030303030303030303030303030303030303030303030303030303030303030303030303038303030303030303030303030303030303030303030303030303030303030303030303030303030303030303030303030303030303030303030303030303030302e6a736f6e00000000000000",
        "nonce": "0x14068",
        "chainId": "0xa"
      },
      "additionalContracts": [],
      "isFixedGasLimit": false
    },
    {
      "hash": "0x51ef3ba442015fe03183a4ea89c617ea8a97c279d422bd0f8e738198c10a4422",
      "transactionType": "CALL",
      "contractName": null,
      "contractAddress": "0xbc24012488bfcfe44875a139299595879c43c2cd",
      "function": "setBadgeMetadata(uint256,string)",
      "arguments": [
        "9",
        "ipfs/QmZwGU3UjbGffjYaMwhDGNGyWprejH2FpKWDxrgS7TzRKm/00000000000000000000000000000000000000000000000000000000000000090000000000000000000000000000000000000000000000000000000000000000.json"
      ],
      "transaction": {
        "from": "0x8835669696fb92839ab198cd80ce9f0d35f45ad5",
        "to": "0xbc24012488bfcfe44875a139299595879c43c2cd",
        "gas": "0x14683",
        "value": "0x0",
        "input": "0xce64b45f0000000000000000000000000000000000000000000000000000000000000009000000000000000000000000000000000000000000000000000000000000004000000000000000000000000000000000000000000000000000000000000000b9697066732f516d5a77475533556a624766666a59614d776844474e4779577072656a483246704b57447872675337547a524b6d2f30303030303030303030303030303030303030303030303030303030303030303030303030303030303030303030303030303030303030303030303030303039303030303030303030303030303030303030303030303030303030303030303030303030303030303030303030303030303030303030303030303030303030302e6a736f6e00000000000000",
        "nonce": "0x14069",
        "chainId": "0xa"
      },
      "additionalContracts": [],
      "isFixedGasLimit": false
    },
    {
      "hash": "0x14efe7cff03aa656f686497f84fbd4a80ddb7e892ef1d96c2316201d729603bd",
      "transactionType": "CALL",
      "contractName": null,
      "contractAddress": "0xbc24012488bfcfe44875a139299595879c43c2cd",
      "function": "setBadgeMetadata(uint256,string)",
      "arguments": [
        "10",
        "ipfs/QmZwGU3UjbGffjYaMwhDGNGyWprejH2FpKWDxrgS7TzRKm/00000000000000000000000000000000000000000000000000000000000000100000000000000000000000000000000000000000000000000000000000000000.json"
      ],
      "transaction": {
        "from": "0x8835669696fb92839ab198cd80ce9f0d35f45ad5",
        "to": "0xbc24012488bfcfe44875a139299595879c43c2cd",
        "gas": "0x14683",
        "value": "0x0",
        "input": "0xce64b45f000000000000000000000000000000000000000000000000000000000000000a000000000000000000000000000000000000000000000000000000000000004000000000000000000000000000000000000000000000000000000000000000b9697066732f516d5a77475533556a624766666a59614d776844474e4779577072656a483246704b57447872675337547a524b6d2f30303030303030303030303030303030303030303030303030303030303030303030303030303030303030303030303030303030303030303030303030303130303030303030303030303030303030303030303030303030303030303030303030303030303030303030303030303030303030303030303030303030303030302e6a736f6e00000000000000",
        "nonce": "0x1406a",
        "chainId": "0xa"
      },
      "additionalContracts": [],
      "isFixedGasLimit": false
    },
    {
      "hash": "0xa4ef6164d80bf1d349028382e08ff0c8c69624c4578cb3d65b185c5f88c019d7",
      "transactionType": "CALL",
      "contractName": null,
      "contractAddress": "0xbc24012488bfcfe44875a139299595879c43c2cd",
      "function": "setBadgeMetadata(uint256,string)",
      "arguments": [
        "11",
        "ipfs/QmZwGU3UjbGffjYaMwhDGNGyWprejH2FpKWDxrgS7TzRKm/00000000000000000000000000000000000000000000000000000000000000110000000000000000000000000000000000000000000000000000000000000000.json"
      ],
      "transaction": {
        "from": "0x8835669696fb92839ab198cd80ce9f0d35f45ad5",
        "to": "0xbc24012488bfcfe44875a139299595879c43c2cd",
        "gas": "0x14683",
        "value": "0x0",
        "input": "0xce64b45f000000000000000000000000000000000000000000000000000000000000000b000000000000000000000000000000000000000000000000000000000000004000000000000000000000000000000000000000000000000000000000000000b9697066732f516d5a77475533556a624766666a59614d776844474e4779577072656a483246704b57447872675337547a524b6d2f30303030303030303030303030303030303030303030303030303030303030303030303030303030303030303030303030303030303030303030303030303131303030303030303030303030303030303030303030303030303030303030303030303030303030303030303030303030303030303030303030303030303030302e6a736f6e00000000000000",
        "nonce": "0x1406b",
        "chainId": "0xa"
      },
      "additionalContracts": [],
      "isFixedGasLimit": false
    },
    {
      "hash": "0x4dc739df35f27dc36cfddf12e1c8d4b835488a23f036735d713a4ee1ab970e7e",
      "transactionType": "CALL",
      "contractName": null,
      "contractAddress": "0xbc24012488bfcfe44875a139299595879c43c2cd",
      "function": "setBadgeMetadata(uint256,string)",
      "arguments": [
        "12",
        "ipfs/QmZwGU3UjbGffjYaMwhDGNGyWprejH2FpKWDxrgS7TzRKm/00000000000000000000000000000000000000000000000000000000000000120000000000000000000000000000000000000000000000000000000000000000.json"
      ],
      "transaction": {
        "from": "0x8835669696fb92839ab198cd80ce9f0d35f45ad5",
        "to": "0xbc24012488bfcfe44875a139299595879c43c2cd",
        "gas": "0x14683",
        "value": "0x0",
        "input": "0xce64b45f000000000000000000000000000000000000000000000000000000000000000c000000000000000000000000000000000000000000000000000000000000004000000000000000000000000000000000000000000000000000000000000000b9697066732f516d5a77475533556a624766666a59614d776844474e4779577072656a483246704b57447872675337547a524b6d2f30303030303030303030303030303030303030303030303030303030303030303030303030303030303030303030303030303030303030303030303030303132303030303030303030303030303030303030303030303030303030303030303030303030303030303030303030303030303030303030303030303030303030302e6a736f6e00000000000000",
        "nonce": "0x1406c",
        "chainId": "0xa"
      },
      "additionalContracts": [],
      "isFixedGasLimit": false
    },
    {
      "hash": "0x3ac5d65e124ef0191abe12191d95673018cc828be9561ef811ac6d7e42970091",
      "transactionType": "CALL",
      "contractName": null,
      "contractAddress": "0xbc24012488bfcfe44875a139299595879c43c2cd",
      "function": "setBadgeMetadata(uint256,string)",
      "arguments": [
        "13",
        "ipfs/QmZwGU3UjbGffjYaMwhDGNGyWprejH2FpKWDxrgS7TzRKm/00000000000000000000000000000000000000000000000000000000000000130000000000000000000000000000000000000000000000000000000000000000.json"
      ],
      "transaction": {
        "from": "0x8835669696fb92839ab198cd80ce9f0d35f45ad5",
        "to": "0xbc24012488bfcfe44875a139299595879c43c2cd",
        "gas": "0x14683",
        "value": "0x0",
        "input": "0xce64b45f000000000000000000000000000000000000000000000000000000000000000d000000000000000000000000000000000000000000000000000000000000004000000000000000000000000000000000000000000000000000000000000000b9697066732f516d5a77475533556a624766666a59614d776844474e4779577072656a483246704b57447872675337547a524b6d2f30303030303030303030303030303030303030303030303030303030303030303030303030303030303030303030303030303030303030303030303030303133303030303030303030303030303030303030303030303030303030303030303030303030303030303030303030303030303030303030303030303030303030302e6a736f6e00000000000000",
        "nonce": "0x1406d",
        "chainId": "0xa"
      },
      "additionalContracts": [],
      "isFixedGasLimit": false
    },
    {
      "hash": "0x9fd8d0b612bcec77dccce38d603a642a50c7a7fceac623bce7229ef8b7d9ab56",
      "transactionType": "CALL",
      "contractName": null,
      "contractAddress": "0xbc24012488bfcfe44875a139299595879c43c2cd",
      "function": "setBadgeMetadata(uint256,string)",
      "arguments": [
        "14",
        "ipfs/QmZwGU3UjbGffjYaMwhDGNGyWprejH2FpKWDxrgS7TzRKm/00000000000000000000000000000000000000000000000000000000000000140000000000000000000000000000000000000000000000000000000000000000.json"
      ],
      "transaction": {
        "from": "0x8835669696fb92839ab198cd80ce9f0d35f45ad5",
        "to": "0xbc24012488bfcfe44875a139299595879c43c2cd",
        "gas": "0x14683",
        "value": "0x0",
        "input": "0xce64b45f000000000000000000000000000000000000000000000000000000000000000e000000000000000000000000000000000000000000000000000000000000004000000000000000000000000000000000000000000000000000000000000000b9697066732f516d5a77475533556a624766666a59614d776844474e4779577072656a483246704b57447872675337547a524b6d2f30303030303030303030303030303030303030303030303030303030303030303030303030303030303030303030303030303030303030303030303030303134303030303030303030303030303030303030303030303030303030303030303030303030303030303030303030303030303030303030303030303030303030302e6a736f6e00000000000000",
        "nonce": "0x1406e",
        "chainId": "0xa"
      },
      "additionalContracts": [],
      "isFixedGasLimit": false
    },
    {
      "hash": "0x5ec2afd815019107bb71302d5c35cfdad14f19e015733cf934d119cbcdf01bd1",
      "transactionType": "CALL",
      "contractName": null,
      "contractAddress": "0xbc24012488bfcfe44875a139299595879c43c2cd",
      "function": "setBadgeMetadata(uint256,string)",
      "arguments": [
        "15",
        "ipfs/QmZwGU3UjbGffjYaMwhDGNGyWprejH2FpKWDxrgS7TzRKm/00000000000000000000000000000000000000000000000000000000000000150000000000000000000000000000000000000000000000000000000000000000.json"
      ],
      "transaction": {
        "from": "0x8835669696fb92839ab198cd80ce9f0d35f45ad5",
        "to": "0xbc24012488bfcfe44875a139299595879c43c2cd",
        "gas": "0x14683",
        "value": "0x0",
        "input": "0xce64b45f000000000000000000000000000000000000000000000000000000000000000f000000000000000000000000000000000000000000000000000000000000004000000000000000000000000000000000000000000000000000000000000000b9697066732f516d5a77475533556a624766666a59614d776844474e4779577072656a483246704b57447872675337547a524b6d2f30303030303030303030303030303030303030303030303030303030303030303030303030303030303030303030303030303030303030303030303030303135303030303030303030303030303030303030303030303030303030303030303030303030303030303030303030303030303030303030303030303030303030302e6a736f6e00000000000000",
        "nonce": "0x1406f",
        "chainId": "0xa"
      },
      "additionalContracts": [],
      "isFixedGasLimit": false
    },
    {
      "hash": "0x01abf8070bd72b4c630d13e53fa5b4435900c590f69c95a7a1670de63a71420d",
      "transactionType": "CALL",
      "contractName": null,
      "contractAddress": "0xbc24012488bfcfe44875a139299595879c43c2cd",
      "function": "setBadgeMetadata(uint256,string)",
      "arguments": [
        "16",
        "ipfs/QmZwGU3UjbGffjYaMwhDGNGyWprejH2FpKWDxrgS7TzRKm/00000000000000000000000000000000000000000000000000000000000000160000000000000000000000000000000000000000000000000000000000000000.json"
      ],
      "transaction": {
        "from": "0x8835669696fb92839ab198cd80ce9f0d35f45ad5",
        "to": "0xbc24012488bfcfe44875a139299595879c43c2cd",
        "gas": "0x14683",
        "value": "0x0",
        "input": "0xce64b45f0000000000000000000000000000000000000000000000000000000000000010000000000000000000000000000000000000000000000000000000000000004000000000000000000000000000000000000000000000000000000000000000b9697066732f516d5a77475533556a624766666a59614d776844474e4779577072656a483246704b57447872675337547a524b6d2f30303030303030303030303030303030303030303030303030303030303030303030303030303030303030303030303030303030303030303030303030303136303030303030303030303030303030303030303030303030303030303030303030303030303030303030303030303030303030303030303030303030303030302e6a736f6e00000000000000",
        "nonce": "0x14070",
        "chainId": "0xa"
      },
      "additionalContracts": [],
      "isFixedGasLimit": false
    },
    {
      "hash": "0xd5f6e2d7b5372f237c029cecbdb189efb4980393dcfd664f199395c705980f94",
      "transactionType": "CALL",
      "contractName": null,
      "contractAddress": "0xbc24012488bfcfe44875a139299595879c43c2cd",
      "function": "setBadgeMetadata(uint256,string)",
      "arguments": [
        "17",
        "ipfs/QmZwGU3UjbGffjYaMwhDGNGyWprejH2FpKWDxrgS7TzRKm/00000000000000000000000000000000000000000000000000000000000000170000000000000000000000000000000000000000000000000000000000000000.json"
      ],
      "transaction": {
        "from": "0x8835669696fb92839ab198cd80ce9f0d35f45ad5",
        "to": "0xbc24012488bfcfe44875a139299595879c43c2cd",
        "gas": "0x14683",
        "value": "0x0",
        "input": "0xce64b45f0000000000000000000000000000000000000000000000000000000000000011000000000000000000000000000000000000000000000000000000000000004000000000000000000000000000000000000000000000000000000000000000b9697066732f516d5a77475533556a624766666a59614d776844474e4779577072656a483246704b57447872675337547a524b6d2f30303030303030303030303030303030303030303030303030303030303030303030303030303030303030303030303030303030303030303030303030303137303030303030303030303030303030303030303030303030303030303030303030303030303030303030303030303030303030303030303030303030303030302e6a736f6e00000000000000",
        "nonce": "0x14071",
        "chainId": "0xa"
      },
      "additionalContracts": [],
      "isFixedGasLimit": false
    }
  ],
  "receipts": [
    {
      "status": "0x1",
      "cumulativeGasUsed": "0x595bff",
      "logs": [
        {
          "address": "0xbc24012488bfcfe44875a139299595879c43c2cd",
          "topics": [
            "0x2e5977e12fac9a91696e22ba811f2893e11ad62f8aa53e99a628b031d18a379f",
            "0x0000000000000000000000000000000000000000000000000000000000000001"
          ],
          "data": "0x000000000000000000000000000000000000000000000000000000000000002000000000000000000000000000000000000000000000000000000000000000b9697066732f516d5a77475533556a624766666a59614d776844474e4779577072656a483246704b57447872675337547a524b6d2f30303030303030303030303030303030303030303030303030303030303030303030303030303030303030303030303030303030303030303030303030303031303030303030303030303030303030303030303030303030303030303030303030303030303030303030303030303030303030303030303030303030303030302e6a736f6e00000000000000",
          "blockHash": "0x3402af58cd3176fd423ba69d8b10e727063786cf965e1a43f403c8ccd9f45975",
          "blockNumber": "0x7f7df1a",
          "blockTimestamp": "0x67e397ed",
          "transactionHash": "0x8d52d015b7deedb61d6d896a331443986ea336be6386dcb7ce0154f61964fffc",
          "transactionIndex": "0x11",
          "logIndex": "0x46",
          "removed": false
        }
      ],
      "logsBloom": "0x00000000040000000200000000000000000000000000000000000000000000000000000000000000000000000000000000000000000000000000000000040000000000000000000000000000000000000000000000040000000000000000000000000000000000000000000000000000000000000000000000000000000004000000000000000000000000000000000000000000000000000000000000000000000000000000000000000000000000000000000000000100000000000000000000000000000000000000000000000000000000000000000000004000400040000000000000000000000000000000000000000000000000000000000000000000",
      "type": "0x2",
      "transactionHash": "0x8d52d015b7deedb61d6d896a331443986ea336be6386dcb7ce0154f61964fffc",
      "transactionIndex": "0x11",
      "blockHash": "0x3402af58cd3176fd423ba69d8b10e727063786cf965e1a43f403c8ccd9f45975",
      "blockNumber": "0x7f7df1a",
      "gasUsed": "0xec64",
      "effectiveGasPrice": "0xf523",
      "from": "0x8835669696fb92839ab198cd80ce9f0d35f45ad5",
      "to": "0xbc24012488bfcfe44875a139299595879c43c2cd",
      "contractAddress": null,
      "l1BaseFeeScalar": "0x146b",
      "l1BlobBaseFee": "0x1",
      "l1BlobBaseFeeScalar": "0xf79c5",
      "l1Fee": "0xd68b3285",
      "l1GasPrice": "0x1328020b",
      "l1GasUsed": "0x85e"
    },
    {
      "status": "0x1",
      "cumulativeGasUsed": "0x5a4863",
      "logs": [
        {
          "address": "0xbc24012488bfcfe44875a139299595879c43c2cd",
          "topics": [
            "0x2e5977e12fac9a91696e22ba811f2893e11ad62f8aa53e99a628b031d18a379f",
            "0x0000000000000000000000000000000000000000000000000000000000000002"
          ],
          "data": "0x000000000000000000000000000000000000000000000000000000000000002000000000000000000000000000000000000000000000000000000000000000b9697066732f516d5a77475533556a624766666a59614d776844474e4779577072656a483246704b57447872675337547a524b6d2f30303030303030303030303030303030303030303030303030303030303030303030303030303030303030303030303030303030303030303030303030303032303030303030303030303030303030303030303030303030303030303030303030303030303030303030303030303030303030303030303030303030303030302e6a736f6e00000000000000",
          "blockHash": "0x3402af58cd3176fd423ba69d8b10e727063786cf965e1a43f403c8ccd9f45975",
          "blockNumber": "0x7f7df1a",
          "transactionHash": "0x0093869e34160388549968688bf0466165f8ceda1fe503ea6b0535fd96f3d065",
          "transactionIndex": "0x12",
          "logIndex": "0x47",
          "removed": false
        }
      ],
      "logsBloom": "0x04000000040000000200000000000000000000000000000000000000000000000000000000000000000000000000000000000000000000000000000000000000000000000000000000000000000000000000000000000000000000000000000000000000000000000000000000000000000000000000000000000000000004000000000000000000000000000000000000000000000000000000000000000000000000000000000000000100000000000000000000000100000000000000000000000000000000000000000000000000000000000000000000004000400000000000000000000000000000000000000000000000008000000000000000000000",
      "type": "0x2",
      "transactionHash": "0x0093869e34160388549968688bf0466165f8ceda1fe503ea6b0535fd96f3d065",
      "transactionIndex": "0x12",
      "blockHash": "0x3402af58cd3176fd423ba69d8b10e727063786cf965e1a43f403c8ccd9f45975",
      "blockNumber": "0x7f7df1a",
      "gasUsed": "0xec64",
      "effectiveGasPrice": "0xf523",
      "from": "0x8835669696fb92839ab198cd80ce9f0d35f45ad5",
      "to": "0xbc24012488bfcfe44875a139299595879c43c2cd",
      "contractAddress": null,
      "l1BaseFeeScalar": "0x146b",
      "l1BlobBaseFee": "0x1",
      "l1BlobBaseFeeScalar": "0xf79c5",
      "l1Fee": "0xd68b3285",
      "l1GasPrice": "0x1328020b",
      "l1GasUsed": "0x85e"
    },
    {
      "status": "0x1",
      "cumulativeGasUsed": "0x5b34c7",
      "logs": [
        {
          "address": "0xbc24012488bfcfe44875a139299595879c43c2cd",
          "topics": [
            "0x2e5977e12fac9a91696e22ba811f2893e11ad62f8aa53e99a628b031d18a379f",
            "0x0000000000000000000000000000000000000000000000000000000000000003"
          ],
          "data": "0x000000000000000000000000000000000000000000000000000000000000002000000000000000000000000000000000000000000000000000000000000000b9697066732f516d5a77475533556a624766666a59614d776844474e4779577072656a483246704b57447872675337547a524b6d2f30303030303030303030303030303030303030303030303030303030303030303030303030303030303030303030303030303030303030303030303030303033303030303030303030303030303030303030303030303030303030303030303030303030303030303030303030303030303030303030303030303030303030302e6a736f6e00000000000000",
          "blockHash": "0x3402af58cd3176fd423ba69d8b10e727063786cf965e1a43f403c8ccd9f45975",
          "blockNumber": "0x7f7df1a",
          "blockTimestamp": "0x67e397ed",
          "transactionHash": "0xa5fbae1e2ae51d2fa9b892f57d55aee57acd2138b1fe5fcdd307128660d863ab",
          "transactionIndex": "0x13",
          "logIndex": "0x48",
          "removed": false
        }
      ],
      "logsBloom": "0x00000000040000000200000000000000000000000000000000000000000000000000000000000000000000000000000000000000020000000000000000000000000000000000000000000000000000000000000000000000000000000000000000000000000000000000000000000000000000000000000000000000000004000000000000000000000000000000000000000000000000000000000000000000000000000000000000000000000000000000000000800100000000000000400000000000000000000000000000000000000000000000000000004000400000000000000000000000000000000000000000000000000000000000000000000000",
      "type": "0x2",
      "transactionHash": "0xa5fbae1e2ae51d2fa9b892f57d55aee57acd2138b1fe5fcdd307128660d863ab",
      "transactionIndex": "0x13",
      "blockHash": "0x3402af58cd3176fd423ba69d8b10e727063786cf965e1a43f403c8ccd9f45975",
      "blockNumber": "0x7f7df1a",
      "gasUsed": "0xec64",
      "effectiveGasPrice": "0xf523",
      "from": "0x8835669696fb92839ab198cd80ce9f0d35f45ad5",
      "to": "0xbc24012488bfcfe44875a139299595879c43c2cd",
      "contractAddress": null,
      "l1BaseFeeScalar": "0x146b",
      "l1BlobBaseFee": "0x1",
      "l1BlobBaseFeeScalar": "0xf79c5",
      "l1Fee": "0xd68b3285",
      "l1GasPrice": "0x1328020b",
      "l1GasUsed": "0x85e"
    },
    {
      "status": "0x1",
      "cumulativeGasUsed": "0x5c212b",
      "logs": [
        {
          "address": "0xbc24012488bfcfe44875a139299595879c43c2cd",
          "topics": [
            "0x2e5977e12fac9a91696e22ba811f2893e11ad62f8aa53e99a628b031d18a379f",
            "0x0000000000000000000000000000000000000000000000000000000000000004"
          ],
          "data": "0x000000000000000000000000000000000000000000000000000000000000002000000000000000000000000000000000000000000000000000000000000000b9697066732f516d5a77475533556a624766666a59614d776844474e4779577072656a483246704b57447872675337547a524b6d2f30303030303030303030303030303030303030303030303030303030303030303030303030303030303030303030303030303030303030303030303030303034303030303030303030303030303030303030303030303030303030303030303030303030303030303030303030303030303030303030303030303030303030302e6a736f6e00000000000000",
          "blockHash": "0x3402af58cd3176fd423ba69d8b10e727063786cf965e1a43f403c8ccd9f45975",
          "blockNumber": "0x7f7df1a",
          "blockTimestamp": "0x67e397ed",
          "transactionHash": "0x4321c6aa8788cc94113f58c018d2b7be7eddc31ffe9cc6f5906279e54c5f5e72",
          "transactionIndex": "0x14",
          "logIndex": "0x49",
          "removed": false
        }
      ],
      "logsBloom": "0x00000000040000000200000000000000000000000000000000000000000000000000000000000000000000000000000000000000000000000000000000000000000000000000000000000000000000000000000000000000000000000000000008000000000000000000000000000000000000000000000000000000000004000000000000000000000000000000000000000000000000000000000000000000000000000000000000000000000000000000000000000100002000000000000000000000000000000000000000000000000000008000000000004000400000000000000000000000000000000000000000000000000000000000000000000000",
      "type": "0x2",
      "transactionHash": "0x4321c6aa8788cc94113f58c018d2b7be7eddc31ffe9cc6f5906279e54c5f5e72",
      "transactionIndex": "0x14",
      "blockHash": "0x3402af58cd3176fd423ba69d8b10e727063786cf965e1a43f403c8ccd9f45975",
      "blockNumber": "0x7f7df1a",
      "gasUsed": "0xec64",
      "effectiveGasPrice": "0xf523",
      "from": "0x8835669696fb92839ab198cd80ce9f0d35f45ad5",
      "to": "0xbc24012488bfcfe44875a139299595879c43c2cd",
      "contractAddress": null,
      "l1BaseFeeScalar": "0x146b",
      "l1BlobBaseFee": "0x1",
      "l1BlobBaseFeeScalar": "0xf79c5",
      "l1Fee": "0xd68b3285",
      "l1GasPrice": "0x1328020b",
      "l1GasUsed": "0x85e"
    },
    {
      "status": "0x1",
      "cumulativeGasUsed": "0x5d0d8f",
      "logs": [
        {
          "address": "0xbc24012488bfcfe44875a139299595879c43c2cd",
          "topics": [
            "0x2e5977e12fac9a91696e22ba811f2893e11ad62f8aa53e99a628b031d18a379f",
            "0x0000000000000000000000000000000000000000000000000000000000000005"
          ],
          "data": "0x000000000000000000000000000000000000000000000000000000000000002000000000000000000000000000000000000000000000000000000000000000b9697066732f516d5a77475533556a624766666a59614d776844474e4779577072656a483246704b57447872675337547a524b6d2f30303030303030303030303030303030303030303030303030303030303030303030303030303030303030303030303030303030303030303030303030303035303030303030303030303030303030303030303030303030303030303030303030303030303030303030303030303030303030303030303030303030303030302e6a736f6e00000000000000",
          "blockHash": "0x3402af58cd3176fd423ba69d8b10e727063786cf965e1a43f403c8ccd9f45975",
          "blockNumber": "0x7f7df1a",
          "blockTimestamp": "0x67e397ed",
          "transactionHash": "0x3ee9cda75c5c2db53224fa2cfc07c68a7711fa1bbb3bb3c51aacfff214a65f16",
          "transactionIndex": "0x15",
          "logIndex": "0x4a",
          "removed": false
        }
      ],
      "logsBloom": "0x00000000040000000200000000000000000000000000000000000000000000000000000000000000000000000000000000000000000000000000000000000000000010000000000000000000000000000000000000000000000000000000000000000000000000000000000000000000000000000000000000000000000004000000000000000000000000000000001000000800000000000000000000000000000000000000000000000000000000000000000000000100000000000000000000000000000000000000000000000000000000000000000000004000400000000000000000000000000000000000000000000000000000000000000000000000",
      "type": "0x2",
      "transactionHash": "0x3ee9cda75c5c2db53224fa2cfc07c68a7711fa1bbb3bb3c51aacfff214a65f16",
      "transactionIndex": "0x15",
      "blockHash": "0x3402af58cd3176fd423ba69d8b10e727063786cf965e1a43f403c8ccd9f45975",
      "blockNumber": "0x7f7df1a",
      "gasUsed": "0xec64",
      "effectiveGasPrice": "0xf523",
      "from": "0x8835669696fb92839ab198cd80ce9f0d35f45ad5",
      "to": "0xbc24012488bfcfe44875a139299595879c43c2cd",
      "contractAddress": null,
      "l1BaseFeeScalar": "0x146b",
      "l1BlobBaseFee": "0x1",
      "l1BlobBaseFeeScalar": "0xf79c5",
      "l1Fee": "0xd68b3285",
      "l1GasPrice": "0x1328020b",
      "l1GasUsed": "0x85e"
    },
    {
      "status": "0x1",
      "cumulativeGasUsed": "0x5df9f3",
      "logs": [
        {
          "address": "0xbc24012488bfcfe44875a139299595879c43c2cd",
          "topics": [
            "0x2e5977e12fac9a91696e22ba811f2893e11ad62f8aa53e99a628b031d18a379f",
            "0x0000000000000000000000000000000000000000000000000000000000000006"
          ],
          "data": "0x000000000000000000000000000000000000000000000000000000000000002000000000000000000000000000000000000000000000000000000000000000b9697066732f516d5a77475533556a624766666a59614d776844474e4779577072656a483246704b57447872675337547a524b6d2f30303030303030303030303030303030303030303030303030303030303030303030303030303030303030303030303030303030303030303030303030303036303030303030303030303030303030303030303030303030303030303030303030303030303030303030303030303030303030303030303030303030303030302e6a736f6e00000000000000",
          "blockHash": "0x3402af58cd3176fd423ba69d8b10e727063786cf965e1a43f403c8ccd9f45975",
          "blockNumber": "0x7f7df1a",
          "blockTimestamp": "0x67e397ed",
          "transactionHash": "0xfc596f1cb05b462b92137b0ed40bd3aa9488eeb78a8678c710f236e9c0dcc15f",
          "transactionIndex": "0x16",
          "logIndex": "0x4b",
          "removed": false
        }
      ],
      "logsBloom": "0x00000000040000000200000000000000000000000000000000000000000000000000000000000000000000000000000000000000000400000000000000000000000000000000000000000000000000000000000000000000000000000000000000000000000000000000000000000000000000000000000000000000000004000000000400000000000000000000000000000000000000000000000000000000000000000000000000000000000000000000000000000100000000080000000000000000000000000000000000000000000000000000000000004000400000000000000000000000000000000000000000000000000000000000000000000000",
      "type": "0x2",
      "transactionHash": "0xfc596f1cb05b462b92137b0ed40bd3aa9488eeb78a8678c710f236e9c0dcc15f",
      "transactionIndex": "0x16",
      "blockHash": "0x3402af58cd3176fd423ba69d8b10e727063786cf965e1a43f403c8ccd9f45975",
      "blockNumber": "0x7f7df1a",
      "gasUsed": "0xec64",
      "effectiveGasPrice": "0xf523",
      "from": "0x8835669696fb92839ab198cd80ce9f0d35f45ad5",
      "to": "0xbc24012488bfcfe44875a139299595879c43c2cd",
      "contractAddress": null,
      "l1BaseFeeScalar": "0x146b",
      "l1BlobBaseFee": "0x1",
      "l1BlobBaseFeeScalar": "0xf79c5",
      "l1Fee": "0xd68b3285",
      "l1GasPrice": "0x1328020b",
      "l1GasUsed": "0x85e"
    },
    {
      "status": "0x1",
      "cumulativeGasUsed": "0x5ee657",
      "logs": [
        {
          "address": "0xbc24012488bfcfe44875a139299595879c43c2cd",
          "topics": [
            "0x2e5977e12fac9a91696e22ba811f2893e11ad62f8aa53e99a628b031d18a379f",
            "0x0000000000000000000000000000000000000000000000000000000000000007"
          ],
          "data": "0x000000000000000000000000000000000000000000000000000000000000002000000000000000000000000000000000000000000000000000000000000000b9697066732f516d5a77475533556a624766666a59614d776844474e4779577072656a483246704b57447872675337547a524b6d2f30303030303030303030303030303030303030303030303030303030303030303030303030303030303030303030303030303030303030303030303030303037303030303030303030303030303030303030303030303030303030303030303030303030303030303030303030303030303030303030303030303030303030302e6a736f6e00000000000000",
          "blockHash": "0x3402af58cd3176fd423ba69d8b10e727063786cf965e1a43f403c8ccd9f45975",
          "blockNumber": "0x7f7df1a",
          "blockTimestamp": "0x67e397ed",
          "transactionHash": "0x3d9588c6c4aec5a68b1424a3798d5120f9a54a99f3c95f63d25a14075a6b0f2a",
          "transactionIndex": "0x17",
          "logIndex": "0x4c",
          "removed": false
        }
      ],
      "logsBloom": "0x00000000040000000200000000000000000000000000000000000000000000000000000000000000000000000000000000001000000000000000000000000000000020000000000000000000000000000000000000000000000000000000000000000000000000000000000000000000000000000000000000000000000004000000000000000000000000000000000000000000000000000000000000000000000000000000000000000000000000000000000000000100000000000000000000000000000000000000000000000000000000000000000000004100400000000000000000000000000000000000000000000000000000000000000000000000",
      "type": "0x2",
      "transactionHash": "0x3d9588c6c4aec5a68b1424a3798d5120f9a54a99f3c95f63d25a14075a6b0f2a",
      "transactionIndex": "0x17",
      "blockHash": "0x3402af58cd3176fd423ba69d8b10e727063786cf965e1a43f403c8ccd9f45975",
      "blockNumber": "0x7f7df1a",
      "gasUsed": "0xec64",
      "effectiveGasPrice": "0xf523",
      "from": "0x8835669696fb92839ab198cd80ce9f0d35f45ad5",
      "to": "0xbc24012488bfcfe44875a139299595879c43c2cd",
      "contractAddress": null,
      "l1BaseFeeScalar": "0x146b",
      "l1BlobBaseFee": "0x1",
      "l1BlobBaseFeeScalar": "0xf79c5",
      "l1Fee": "0xd68b3285",
      "l1GasPrice": "0x1328020b",
      "l1GasUsed": "0x85e"
    },
    {
      "status": "0x1",
      "cumulativeGasUsed": "0x5fd2bb",
      "logs": [
        {
          "address": "0xbc24012488bfcfe44875a139299595879c43c2cd",
          "topics": [
            "0x2e5977e12fac9a91696e22ba811f2893e11ad62f8aa53e99a628b031d18a379f",
            "0x0000000000000000000000000000000000000000000000000000000000000008"
          ],
          "data": "0x000000000000000000000000000000000000000000000000000000000000002000000000000000000000000000000000000000000000000000000000000000b9697066732f516d5a77475533556a624766666a59614d776844474e4779577072656a483246704b57447872675337547a524b6d2f30303030303030303030303030303030303030303030303030303030303030303030303030303030303030303030303030303030303030303030303030303038303030303030303030303030303030303030303030303030303030303030303030303030303030303030303030303030303030303030303030303030303030302e6a736f6e00000000000000",
          "blockHash": "0x3402af58cd3176fd423ba69d8b10e727063786cf965e1a43f403c8ccd9f45975",
          "blockNumber": "0x7f7df1a",
          "blockTimestamp": "0x67e397ed",
          "transactionHash": "0x2f0245975b661066f8b65c6b371d0aafc213b8742ec2b8aef8cfbbe0189bb0ae",
          "transactionIndex": "0x18",
          "logIndex": "0x4d",
          "removed": false
        }
      ],
      "logsBloom": "0x00000000040000000200000000000000000000000000000000000000000000000000000000000000000000000000000000000000000080000000000000000000000000000000000000000000000000000000000000000000000000000000000000000000000000000000000000000000000000000000000000000000000004000080000000000000000000000000000000000000000000000000000000000000000000000000000000000000000000000000000000000100000000000000000040000000000000000000000000000000000000000000000000004000400000000000000000000000000000000000000000000000000000000000000000000000",
      "type": "0x2",
      "transactionHash": "0x2f0245975b661066f8b65c6b371d0aafc213b8742ec2b8aef8cfbbe0189bb0ae",
      "transactionIndex": "0x18",
      "blockHash": "0x3402af58cd3176fd423ba69d8b10e727063786cf965e1a43f403c8ccd9f45975",
      "blockNumber": "0x7f7df1a",
      "gasUsed": "0xec64",
      "effectiveGasPrice": "0xf523",
      "from": "0x8835669696fb92839ab198cd80ce9f0d35f45ad5",
      "to": "0xbc24012488bfcfe44875a139299595879c43c2cd",
      "contractAddress": null,
      "l1BaseFeeScalar": "0x146b",
      "l1BlobBaseFee": "0x1",
      "l1BlobBaseFeeScalar": "0xf79c5",
      "l1Fee": "0xd68b3285",
      "l1GasPrice": "0x1328020b",
      "l1GasUsed": "0x85e"
    },
    {
      "status": "0x1",
      "cumulativeGasUsed": "0x60bf1f",
      "logs": [
        {
          "address": "0xbc24012488bfcfe44875a139299595879c43c2cd",
          "topics": [
            "0x2e5977e12fac9a91696e22ba811f2893e11ad62f8aa53e99a628b031d18a379f",
            "0x0000000000000000000000000000000000000000000000000000000000000009"
          ],
          "data": "0x000000000000000000000000000000000000000000000000000000000000002000000000000000000000000000000000000000000000000000000000000000b9697066732f516d5a77475533556a624766666a59614d776844474e4779577072656a483246704b57447872675337547a524b6d2f30303030303030303030303030303030303030303030303030303030303030303030303030303030303030303030303030303030303030303030303030303039303030303030303030303030303030303030303030303030303030303030303030303030303030303030303030303030303030303030303030303030303030302e6a736f6e00000000000000",
          "blockHash": "0x3402af58cd3176fd423ba69d8b10e727063786cf965e1a43f403c8ccd9f45975",
          "blockNumber": "0x7f7df1a",
          "blockTimestamp": "0x67e397ed",
          "transactionHash": "0x51ef3ba442015fe03183a4ea89c617ea8a97c279d422bd0f8e738198c10a4422",
          "transactionIndex": "0x19",
          "logIndex": "0x4e",
          "removed": false
        }
      ],
      "logsBloom": "0x00000000040000000200000000000000000000000000000000000000000000000000000000000000000000000000000000000000000000000000000000200000000000000000000000000000000000000000000000000000000000000000000000000000000000000000000000000000000000000000000000000000000004000000000000000000000000000000000000001000000000000000000000000000000000000000000000000000000000000000000000000100000000000000000000000000000000000000000000000000000000000000000000004000400000000000000000000000000000000000000000000000000000000000000000800000",
      "type": "0x2",
      "transactionHash": "0x51ef3ba442015fe03183a4ea89c617ea8a97c279d422bd0f8e738198c10a4422",
      "transactionIndex": "0x19",
      "blockHash": "0x3402af58cd3176fd423ba69d8b10e727063786cf965e1a43f403c8ccd9f45975",
      "blockNumber": "0x7f7df1a",
      "gasUsed": "0xec64",
      "effectiveGasPrice": "0xf523",
      "from": "0x8835669696fb92839ab198cd80ce9f0d35f45ad5",
      "to": "0xbc24012488bfcfe44875a139299595879c43c2cd",
      "contractAddress": null,
      "l1BaseFeeScalar": "0x146b",
      "l1BlobBaseFee": "0x1",
      "l1BlobBaseFeeScalar": "0xf79c5",
      "l1Fee": "0xd68b3285",
      "l1GasPrice": "0x1328020b",
      "l1GasUsed": "0x85e"
    },
    {
      "status": "0x1",
      "cumulativeGasUsed": "0x61ab83",
      "logs": [
        {
          "address": "0xbc24012488bfcfe44875a139299595879c43c2cd",
          "topics": [
            "0x2e5977e12fac9a91696e22ba811f2893e11ad62f8aa53e99a628b031d18a379f",
            "0x000000000000000000000000000000000000000000000000000000000000000a"
          ],
          "data": "0x000000000000000000000000000000000000000000000000000000000000002000000000000000000000000000000000000000000000000000000000000000b9697066732f516d5a77475533556a624766666a59614d776844474e4779577072656a483246704b57447872675337547a524b6d2f30303030303030303030303030303030303030303030303030303030303030303030303030303030303030303030303030303030303030303030303030303130303030303030303030303030303030303030303030303030303030303030303030303030303030303030303030303030303030303030303030303030303030302e6a736f6e00000000000000",
          "blockHash": "0x3402af58cd3176fd423ba69d8b10e727063786cf965e1a43f403c8ccd9f45975",
          "blockNumber": "0x7f7df1a",
          "blockTimestamp": "0x67e397ed",
          "transactionHash": "0x14efe7cff03aa656f686497f84fbd4a80ddb7e892ef1d96c2316201d729603bd",
          "transactionIndex": "0x1a",
          "logIndex": "0x4f",
          "removed": false
        }
      ],
      "logsBloom": "0x00000000040000000200000000000000000000000000000000000000000000000000000000000000000000000000000000000000040000000020000000000000000000000000000000000000000000000000000000000000000000000000000000000000000000000000000000000000000000000000000000000000000004000000000000000000010000000000000000000000000000000000000000000000000000000000000000000000000000000000000000000100000000000000000000000000000000000000000000000000000000000000000000004000400000000000000000000000000000000000000000000000000000000000000000000000",
      "type": "0x2",
      "transactionHash": "0x14efe7cff03aa656f686497f84fbd4a80ddb7e892ef1d96c2316201d729603bd",
      "transactionIndex": "0x1a",
      "blockHash": "0x3402af58cd3176fd423ba69d8b10e727063786cf965e1a43f403c8ccd9f45975",
      "blockNumber": "0x7f7df1a",
      "gasUsed": "0xec64",
      "effectiveGasPrice": "0xf523",
      "from": "0x8835669696fb92839ab198cd80ce9f0d35f45ad5",
      "to": "0xbc24012488bfcfe44875a139299595879c43c2cd",
      "contractAddress": null,
      "l1BaseFeeScalar": "0x146b",
      "l1BlobBaseFee": "0x1",
      "l1BlobBaseFeeScalar": "0xf79c5",
      "l1Fee": "0xd68b3285",
      "l1GasPrice": "0x1328020b",
      "l1GasUsed": "0x85e"
    },
    {
      "status": "0x1",
      "cumulativeGasUsed": "0x6297e7",
      "logs": [
        {
          "address": "0xbc24012488bfcfe44875a139299595879c43c2cd",
          "topics": [
            "0x2e5977e12fac9a91696e22ba811f2893e11ad62f8aa53e99a628b031d18a379f",
            "0x000000000000000000000000000000000000000000000000000000000000000b"
          ],
          "data": "0x000000000000000000000000000000000000000000000000000000000000002000000000000000000000000000000000000000000000000000000000000000b9697066732f516d5a77475533556a624766666a59614d776844474e4779577072656a483246704b57447872675337547a524b6d2f30303030303030303030303030303030303030303030303030303030303030303030303030303030303030303030303030303030303030303030303030303131303030303030303030303030303030303030303030303030303030303030303030303030303030303030303030303030303030303030303030303030303030302e6a736f6e00000000000000",
          "blockHash": "0x3402af58cd3176fd423ba69d8b10e727063786cf965e1a43f403c8ccd9f45975",
          "blockNumber": "0x7f7df1a",
          "blockTimestamp": "0x67e397ed",
          "transactionHash": "0xa4ef6164d80bf1d349028382e08ff0c8c69624c4578cb3d65b185c5f88c019d7",
          "transactionIndex": "0x1b",
          "logIndex": "0x50",
          "removed": false
        }
      ],
      "logsBloom": "0x00000000040000000200004000000000000000000000000000000000000000000000000000000000000000000000000000000000000000000000000000000000000000000000000000000000000000000000000000000000000000000000000000000000000000000000000000000000000000000000000000000000000004000000000000000000000000000000000000000000000000000000000000000000000000000000000000000000000000000000000000000100000000000000000000000000000000000000000000000000002000000000000000004000400000000000000000000000000000000000000000000000000000040000000000000000",
      "type": "0x2",
      "transactionHash": "0xa4ef6164d80bf1d349028382e08ff0c8c69624c4578cb3d65b185c5f88c019d7",
      "transactionIndex": "0x1b",
      "blockHash": "0x3402af58cd3176fd423ba69d8b10e727063786cf965e1a43f403c8ccd9f45975",
      "blockNumber": "0x7f7df1a",
      "gasUsed": "0xec64",
      "effectiveGasPrice": "0xf523",
      "from": "0x8835669696fb92839ab198cd80ce9f0d35f45ad5",
      "to": "0xbc24012488bfcfe44875a139299595879c43c2cd",
      "contractAddress": null,
      "l1BaseFeeScalar": "0x146b",
      "l1BlobBaseFee": "0x1",
      "l1BlobBaseFeeScalar": "0xf79c5",
      "l1Fee": "0xd7e245d5",
      "l1GasPrice": "0x1328020b",
      "l1GasUsed": "0x86c"
    },
    {
      "status": "0x1",
      "cumulativeGasUsed": "0x63844b",
      "logs": [
        {
          "address": "0xbc24012488bfcfe44875a139299595879c43c2cd",
          "topics": [
            "0x2e5977e12fac9a91696e22ba811f2893e11ad62f8aa53e99a628b031d18a379f",
            "0x000000000000000000000000000000000000000000000000000000000000000c"
          ],
          "data": "0x000000000000000000000000000000000000000000000000000000000000002000000000000000000000000000000000000000000000000000000000000000b9697066732f516d5a77475533556a624766666a59614d776844474e4779577072656a483246704b57447872675337547a524b6d2f30303030303030303030303030303030303030303030303030303030303030303030303030303030303030303030303030303030303030303030303030303132303030303030303030303030303030303030303030303030303030303030303030303030303030303030303030303030303030303030303030303030303030302e6a736f6e00000000000000",
          "blockHash": "0x3402af58cd3176fd423ba69d8b10e727063786cf965e1a43f403c8ccd9f45975",
          "blockNumber": "0x7f7df1a",
          "blockTimestamp": "0x67e397ed",
          "transactionHash": "0x4dc739df35f27dc36cfddf12e1c8d4b835488a23f036735d713a4ee1ab970e7e",
          "transactionIndex": "0x1c",
          "logIndex": "0x51",
          "removed": false
        }
      ],
      "logsBloom": "0x00000000040000000200000000000000000002000000000000000000000000000000000000000200000000000000000000000000000000000000000000000000000000000000000000000000000000000000000000000000000000000000000000000000000000000000000000000000000000000000000000000000000004000000000000000000000000000000000000000000000000000000000000000000000000000000000000000000000000000000000000000100000000000000000000000000000000000000000000000000000000000000000000004000400000200000000000000000000000000000000000000000000000000000000000000000",
      "type": "0x2",
      "transactionHash": "0x4dc739df35f27dc36cfddf12e1c8d4b835488a23f036735d713a4ee1ab970e7e",
      "transactionIndex": "0x1c",
      "blockHash": "0x3402af58cd3176fd423ba69d8b10e727063786cf965e1a43f403c8ccd9f45975",
      "blockNumber": "0x7f7df1a",
      "gasUsed": "0xec64",
      "effectiveGasPrice": "0xf523",
      "from": "0x8835669696fb92839ab198cd80ce9f0d35f45ad5",
      "to": "0xbc24012488bfcfe44875a139299595879c43c2cd",
      "contractAddress": null,
      "l1BaseFeeScalar": "0x146b",
      "l1BlobBaseFee": "0x1",
      "l1BlobBaseFeeScalar": "0xf79c5",
      "l1Fee": "0xd7e245d5",
      "l1GasPrice": "0x1328020b",
      "l1GasUsed": "0x86c"
    },
    {
      "status": "0x1",
      "cumulativeGasUsed": "0x6470af",
      "logs": [
        {
          "address": "0xbc24012488bfcfe44875a139299595879c43c2cd",
          "topics": [
            "0x2e5977e12fac9a91696e22ba811f2893e11ad62f8aa53e99a628b031d18a379f",
            "0x000000000000000000000000000000000000000000000000000000000000000d"
          ],
          "data": "0x000000000000000000000000000000000000000000000000000000000000002000000000000000000000000000000000000000000000000000000000000000b9697066732f516d5a77475533556a624766666a59614d776844474e4779577072656a483246704b57447872675337547a524b6d2f30303030303030303030303030303030303030303030303030303030303030303030303030303030303030303030303030303030303030303030303030303133303030303030303030303030303030303030303030303030303030303030303030303030303030303030303030303030303030303030303030303030303030302e6a736f6e00000000000000",
          "blockHash": "0x3402af58cd3176fd423ba69d8b10e727063786cf965e1a43f403c8ccd9f45975",
          "blockNumber": "0x7f7df1a",
          "blockTimestamp": "0x67e397ed",
          "transactionHash": "0x3ac5d65e124ef0191abe12191d95673018cc828be9561ef811ac6d7e42970091",
          "transactionIndex": "0x1d",
          "logIndex": "0x52",
          "removed": false
        }
      ],
      "logsBloom": "0x00000000040000000240000000000000000000000000000000000000000000000000000000000000000000000000000000000000000000000000000000000000000000000000000000000000000000000002000000000000000000000000000000000000000000000000000000000000000000000000000000000000000004000000000000000000000000000000000000000000000000000000000000000000000000000000000000000000000000000000000000000100000000000000000000000000000000000000000000000000000000000000000000004000400000020000000000000000000000000000000000000000000000000000000000000000",
      "type": "0x2",
      "transactionHash": "0x3ac5d65e124ef0191abe12191d95673018cc828be9561ef811ac6d7e42970091",
      "transactionIndex": "0x1d",
      "blockHash": "0x3402af58cd3176fd423ba69d8b10e727063786cf965e1a43f403c8ccd9f45975",
      "blockNumber": "0x7f7df1a",
      "gasUsed": "0xec64",
      "effectiveGasPrice": "0xf523",
      "from": "0x8835669696fb92839ab198cd80ce9f0d35f45ad5",
      "to": "0xbc24012488bfcfe44875a139299595879c43c2cd",
      "contractAddress": null,
      "l1BaseFeeScalar": "0x146b",
      "l1BlobBaseFee": "0x1",
      "l1BlobBaseFeeScalar": "0xf79c5",
      "l1Fee": "0xd7e245d5",
      "l1GasPrice": "0x1328020b",
      "l1GasUsed": "0x86c"
    },
    {
      "status": "0x1",
      "cumulativeGasUsed": "0x655d13",
      "logs": [
        {
          "address": "0xbc24012488bfcfe44875a139299595879c43c2cd",
          "topics": [
            "0x2e5977e12fac9a91696e22ba811f2893e11ad62f8aa53e99a628b031d18a379f",
            "0x000000000000000000000000000000000000000000000000000000000000000e"
          ],
          "data": "0x000000000000000000000000000000000000000000000000000000000000002000000000000000000000000000000000000000000000000000000000000000b9697066732f516d5a77475533556a624766666a59614d776844474e4779577072656a483246704b57447872675337547a524b6d2f30303030303030303030303030303030303030303030303030303030303030303030303030303030303030303030303030303030303030303030303030303134303030303030303030303030303030303030303030303030303030303030303030303030303030303030303030303030303030303030303030303030303030302e6a736f6e00000000000000",
          "blockHash": "0x3402af58cd3176fd423ba69d8b10e727063786cf965e1a43f403c8ccd9f45975",
          "blockNumber": "0x7f7df1a",
          "blockTimestamp": "0x67e397ed",
          "transactionHash": "0x9fd8d0b612bcec77dccce38d603a642a50c7a7fceac623bce7229ef8b7d9ab56",
          "transactionIndex": "0x1e",
          "logIndex": "0x53",
          "removed": false
        }
      ],
      "logsBloom": "0x00000000040000000200000000000000000000000000000000000000000000000000000000000000000000000000000000000000000000000000000000000000000000000000000800000000000000000000000000000000000000000000000000000000000000000000000000000000000000000000000000000000000004000000000000000000000000000000000008000000000000000000000000000000000000000000000000000000000000000000000000000120000000000000000000000000000000000000000000000000000000000000000000004000400000000000000000000000000000000000000000000000000000000000000000000000",
      "type": "0x2",
      "transactionHash": "0x9fd8d0b612bcec77dccce38d603a642a50c7a7fceac623bce7229ef8b7d9ab56",
      "transactionIndex": "0x1e",
      "blockHash": "0x3402af58cd3176fd423ba69d8b10e727063786cf965e1a43f403c8ccd9f45975",
      "blockNumber": "0x7f7df1a",
      "gasUsed": "0xec64",
      "effectiveGasPrice": "0xf523",
      "from": "0x8835669696fb92839ab198cd80ce9f0d35f45ad5",
      "to": "0xbc24012488bfcfe44875a139299595879c43c2cd",
      "contractAddress": null,
      "l1BaseFeeScalar": "0x146b",
      "l1BlobBaseFee": "0x1",
      "l1BlobBaseFeeScalar": "0xf79c5",
      "l1Fee": "0xd7e245d5",
      "l1GasPrice": "0x1328020b",
      "l1GasUsed": "0x86c"
    },
    {
      "status": "0x1",
      "cumulativeGasUsed": "0x664977",
      "logs": [
        {
          "address": "0xbc24012488bfcfe44875a139299595879c43c2cd",
          "topics": [
            "0x2e5977e12fac9a91696e22ba811f2893e11ad62f8aa53e99a628b031d18a379f",
            "0x000000000000000000000000000000000000000000000000000000000000000f"
          ],
          "data": "0x000000000000000000000000000000000000000000000000000000000000002000000000000000000000000000000000000000000000000000000000000000b9697066732f516d5a77475533556a624766666a59614d776844474e4779577072656a483246704b57447872675337547a524b6d2f30303030303030303030303030303030303030303030303030303030303030303030303030303030303030303030303030303030303030303030303030303135303030303030303030303030303030303030303030303030303030303030303030303030303030303030303030303030303030303030303030303030303030302e6a736f6e00000000000000",
          "blockHash": "0x3402af58cd3176fd423ba69d8b10e727063786cf965e1a43f403c8ccd9f45975",
          "blockNumber": "0x7f7df1a",
          "blockTimestamp": "0x67e397ed",
          "transactionHash": "0x5ec2afd815019107bb71302d5c35cfdad14f19e015733cf934d119cbcdf01bd1",
          "transactionIndex": "0x1f",
          "logIndex": "0x54",
          "removed": false
        }
      ],
      "logsBloom": "0x00000000040000000200000000000000000000000000000000000000000000000000000000000000000000000000000000000000000000000000000000000000000000000000000000000000000000000000000000000000000000000002000000000000000000000000000000000000000000000000000000000000000004000000000000000800000000000000000000000000000000000000000000000000000000000000000000000000000000000000000000000100000000000000000000000000000000000000000000000000000000000000000000004000400000000000000200000000000000000000000000000000000000000000000000000000",
      "type": "0x2",
      "transactionHash": "0x5ec2afd815019107bb71302d5c35cfdad14f19e015733cf934d119cbcdf01bd1",
      "transactionIndex": "0x1f",
      "blockHash": "0x3402af58cd3176fd423ba69d8b10e727063786cf965e1a43f403c8ccd9f45975",
      "blockNumber": "0x7f7df1a",
      "gasUsed": "0xec64",
      "effectiveGasPrice": "0xf523",
      "from": "0x8835669696fb92839ab198cd80ce9f0d35f45ad5",
      "to": "0xbc24012488bfcfe44875a139299595879c43c2cd",
      "contractAddress": null,
      "l1BaseFeeScalar": "0x146b",
      "l1BlobBaseFee": "0x1",
      "l1BlobBaseFeeScalar": "0xf79c5",
      "l1Fee": "0xd7e245d5",
      "l1GasPrice": "0x1328020b",
      "l1GasUsed": "0x86c"
    },
    {
      "status": "0x1",
      "cumulativeGasUsed": "0x6735db",
      "logs": [
        {
          "address": "0xbc24012488bfcfe44875a139299595879c43c2cd",
          "topics": [
            "0x2e5977e12fac9a91696e22ba811f2893e11ad62f8aa53e99a628b031d18a379f",
            "0x0000000000000000000000000000000000000000000000000000000000000010"
          ],
          "data": "0x000000000000000000000000000000000000000000000000000000000000002000000000000000000000000000000000000000000000000000000000000000b9697066732f516d5a77475533556a624766666a59614d776844474e4779577072656a483246704b57447872675337547a524b6d2f30303030303030303030303030303030303030303030303030303030303030303030303030303030303030303030303030303030303030303030303030303136303030303030303030303030303030303030303030303030303030303030303030303030303030303030303030303030303030303030303030303030303030302e6a736f6e00000000000000",
          "blockHash": "0x3402af58cd3176fd423ba69d8b10e727063786cf965e1a43f403c8ccd9f45975",
          "blockNumber": "0x7f7df1a",
          "blockTimestamp": "0x67e397ed",
          "transactionHash": "0x01abf8070bd72b4c630d13e53fa5b4435900c590f69c95a7a1670de63a71420d",
          "transactionIndex": "0x20",
          "logIndex": "0x55",
          "removed": false
        }
      ],
      "logsBloom": "0x00000000140000000200000000000000000000000000000000000000000000000000000000000000000000000000000000000000000000000000000000000000000000000000000000000000000000000000000000000000000000000000000000000000000000000000000000000000000000000000000000000000040004000000000000000000000000000000000000000100000000000000000000000000000000000000000000000000000000000000000000000100000000000000000000000000000000000000000000000000000000000000000000004000400000000000000000000000000000000000000000000000000000000000000000000000",
      "type": "0x2",
      "transactionHash": "0x01abf8070bd72b4c630d13e53fa5b4435900c590f69c95a7a1670de63a71420d",
      "transactionIndex": "0x20",
      "blockHash": "0x3402af58cd3176fd423ba69d8b10e727063786cf965e1a43f403c8ccd9f45975",
      "blockNumber": "0x7f7df1a",
      "gasUsed": "0xec64",
      "effectiveGasPrice": "0xf523",
      "from": "0x8835669696fb92839ab198cd80ce9f0d35f45ad5",
      "to": "0xbc24012488bfcfe44875a139299595879c43c2cd",
      "contractAddress": null,
      "l1BaseFeeScalar": "0x146b",
      "l1BlobBaseFee": "0x1",
      "l1BlobBaseFeeScalar": "0xf79c5",
      "l1Fee": "0xd7e245d5",
      "l1GasPrice": "0x1328020b",
      "l1GasUsed": "0x86c"
    },
    {
      "status": "0x1",
      "cumulativeGasUsed": "0x68223f",
      "logs": [
        {
          "address": "0xbc24012488bfcfe44875a139299595879c43c2cd",
          "topics": [
            "0x2e5977e12fac9a91696e22ba811f2893e11ad62f8aa53e99a628b031d18a379f",
            "0x0000000000000000000000000000000000000000000000000000000000000011"
          ],
          "data": "0x000000000000000000000000000000000000000000000000000000000000002000000000000000000000000000000000000000000000000000000000000000b9697066732f516d5a77475533556a624766666a59614d776844474e4779577072656a483246704b57447872675337547a524b6d2f30303030303030303030303030303030303030303030303030303030303030303030303030303030303030303030303030303030303030303030303030303137303030303030303030303030303030303030303030303030303030303030303030303030303030303030303030303030303030303030303030303030303030302e6a736f6e00000000000000",
          "blockHash": "0x3402af58cd3176fd423ba69d8b10e727063786cf965e1a43f403c8ccd9f45975",
          "blockNumber": "0x7f7df1a",
          "blockTimestamp": "0x67e397ed",
          "transactionHash": "0xd5f6e2d7b5372f237c029cecbdb189efb4980393dcfd664f199395c705980f94",
          "transactionIndex": "0x21",
          "logIndex": "0x56",
          "removed": false
        }
      ],
      "logsBloom": "0x00000000040000000200000000000000000000000000000000000000000000000000000000000000000000000000000000000000000000000000000000000000000000000000000000000000000000000000000000000000000000000000000000000000000000000000000000000000000000004000000000000000000004000000000000000000000000000000000000000000000000000000000000000000000000000000000000000000000000000000000000000100000000000400000000001000000000000000000000000000000000000000000000004000400000000000000000000000000000000000000000000000000000000000000000000000",
      "type": "0x2",
      "transactionHash": "0xd5f6e2d7b5372f237c029cecbdb189efb4980393dcfd664f199395c705980f94",
      "transactionIndex": "0x21",
      "blockHash": "0x3402af58cd3176fd423ba69d8b10e727063786cf965e1a43f403c8ccd9f45975",
      "blockNumber": "0x7f7df1a",
      "gasUsed": "0xec64",
      "effectiveGasPrice": "0xf523",
      "from": "0x8835669696fb92839ab198cd80ce9f0d35f45ad5",
      "to": "0xbc24012488bfcfe44875a139299595879c43c2cd",
      "contractAddress": null,
      "l1BaseFeeScalar": "0x146b",
      "l1BlobBaseFee": "0x1",
      "l1BlobBaseFeeScalar": "0xf79c5",
      "l1Fee": "0xd7e245d5",
      "l1GasPrice": "0x1328020b",
      "l1GasUsed": "0x86c"
    }
  ],
  "libraries": [],
  "pending": [],
  "returns": {
    "0": {
      "internal_type": "address",
      "value": "0x0000000000000000000000000000000000000000"
    }
  },
  "timestamp": 1742968824,
  "chain": 10,
  "commit": "56bb139"
}