{
  "transactions": [
    {
      "hash": "0xbe634b61029cee8c666135201d0c7e13e5dce83927625e496d65b547c450781b",
      "transactionType": "CALL",
      "contractName": null,
      "contractAddress": "0xd47c56513e640e394024facbbe5032cf604bb699",
      "function": "updateBadgeMetadata(uint256,string)",
      "arguments": [
        "22",
        "ipfs/Qmej7mjohKduCHrTE1NDpSHZ12BZHUJgSKhu1coG6jnjGB/00000000000000000000000000000000000000000000000000000000000000220000000000000000000000000000000000000000000000000000000000000000.json"
      ],
      "transaction": {
        "from": "0x8835669696fb92839ab198cd80ce9f0d35f45ad5",
        "to": "0xd47c56513e640e394024facbbe5032cf604bb699",
        "gas": "0x14394",
        "value": "0x0",
        "input": "0x47461b400000000000000000000000000000000000000000000000000000000000000016000000000000000000000000000000000000000000000000000000000000004000000000000000000000000000000000000000000000000000000000000000b9697066732f516d656a376d6a6f684b64754348725445314e447053485a3132425a48554a67534b687531636f47366a6e6a47422f30303030303030303030303030303030303030303030303030303030303030303030303030303030303030303030303030303030303030303030303030303232303030303030303030303030303030303030303030303030303030303030303030303030303030303030303030303030303030303030303030303030303030302e6a736f6e00000000000000",
        "nonce": "0x5d6",
        "chainId": "0xa4ec"
      },
      "additionalContracts": [],
      "isFixedGasLimit": false
    },
    {
      "hash": "0xb256f3cd4ff285566feadf087aad1b8d6583f6b323cbc6789f856cbe4e311e76",
      "transactionType": "CALL",
      "contractName": null,
      "contractAddress": "0xd47c56513e640e394024facbbe5032cf604bb699",
      "function": "updateBadgeTierMetadata(uint256,uint256,string)",
      "arguments": [
        "22",
        "1",
        "ipfs/Qmej7mjohKduCHrTE1NDpSHZ12BZHUJgSKhu1coG6jnjGB/00000000000000000000000000000000000000000000000000000000000000220000000000000000000000000000000000000000000000000000000000000001.json"
      ],
      "transaction": {
        "from": "0x8835669696fb92839ab198cd80ce9f0d35f45ad5",
        "to": "0xd47c56513e640e394024facbbe5032cf604bb699",
        "gas": "0x1550e",
        "value": "0x0",
        "input": "0xc43e4f4c00000000000000000000000000000000000000000000000000000000000000160000000000000000000000000000000000000000000000000000000000000001000000000000000000000000000000000000000000000000000000000000006000000000000000000000000000000000000000000000000000000000000000b9697066732f516d656a376d6a6f684b64754348725445314e447053485a3132425a48554a67534b687531636f47366a6e6a47422f30303030303030303030303030303030303030303030303030303030303030303030303030303030303030303030303030303030303030303030303030303232303030303030303030303030303030303030303030303030303030303030303030303030303030303030303030303030303030303030303030303030303030312e6a736f6e00000000000000",
        "nonce": "0x5d7",
        "chainId": "0xa4ec"
      },
      "additionalContracts": [],
      "isFixedGasLimit": false
    },
    {
      "hash": "0xd7adda3b40a23387b1cea477029965d25c796c94e2421631b29fd56063e8a3df",
      "transactionType": "CALL",
      "contractName": null,
      "contractAddress": "0xd47c56513e640e394024facbbe5032cf604bb699",
      "function": "updateBadgeTierMetadata(uint256,uint256,string)",
      "arguments": [
        "22",
        "2",
        "ipfs/Qmej7mjohKduCHrTE1NDpSHZ12BZHUJgSKhu1coG6jnjGB/00000000000000000000000000000000000000000000000000000000000000220000000000000000000000000000000000000000000000000000000000000002.json"
      ],
      "transaction": {
        "from": "0x8835669696fb92839ab198cd80ce9f0d35f45ad5",
        "to": "0xd47c56513e640e394024facbbe5032cf604bb699",
        "gas": "0x1550e",
        "value": "0x0",
        "input": "0xc43e4f4c00000000000000000000000000000000000000000000000000000000000000160000000000000000000000000000000000000000000000000000000000000002000000000000000000000000000000000000000000000000000000000000006000000000000000000000000000000000000000000000000000000000000000b9697066732f516d656a376d6a6f684b64754348725445314e447053485a3132425a48554a67534b687531636f47366a6e6a47422f30303030303030303030303030303030303030303030303030303030303030303030303030303030303030303030303030303030303030303030303030303232303030303030303030303030303030303030303030303030303030303030303030303030303030303030303030303030303030303030303030303030303030322e6a736f6e00000000000000",
        "nonce": "0x5d8",
        "chainId": "0xa4ec"
      },
      "additionalContracts": [],
      "isFixedGasLimit": false
    },
    {
      "hash": "0x4e0ba395355bf0e039b04db846ea1eb4b8f726fc0ed3f37b5f35e193df382e7f",
      "transactionType": "CALL",
      "contractName": null,
      "contractAddress": "0xd47c56513e640e394024facbbe5032cf604bb699",
      "function": "updateBadgeTierMetadata(uint256,uint256,string)",
      "arguments": [
        "22",
        "3",
        "ipfs/Qmej7mjohKduCHrTE1NDpSHZ12BZHUJgSKhu1coG6jnjGB/00000000000000000000000000000000000000000000000000000000000000220000000000000000000000000000000000000000000000000000000000000003.json"
      ],
      "transaction": {
        "from": "0x8835669696fb92839ab198cd80ce9f0d35f45ad5",
        "to": "0xd47c56513e640e394024facbbe5032cf604bb699",
        "gas": "0x1550e",
        "value": "0x0",
        "input": "0xc43e4f4c00000000000000000000000000000000000000000000000000000000000000160000000000000000000000000000000000000000000000000000000000000003000000000000000000000000000000000000000000000000000000000000006000000000000000000000000000000000000000000000000000000000000000b9697066732f516d656a376d6a6f684b64754348725445314e447053485a3132425a48554a67534b687531636f47366a6e6a47422f30303030303030303030303030303030303030303030303030303030303030303030303030303030303030303030303030303030303030303030303030303232303030303030303030303030303030303030303030303030303030303030303030303030303030303030303030303030303030303030303030303030303030332e6a736f6e00000000000000",
        "nonce": "0x5d9",
        "chainId": "0xa4ec"
      },
      "additionalContracts": [],
      "isFixedGasLimit": false
    },
    {
      "hash": "0x9e9458cb242bfdb676be74b4086369d186880281fe09263478a06a27342a22bb",
      "transactionType": "CALL",
      "contractName": null,
      "contractAddress": "0xd47c56513e640e394024facbbe5032cf604bb699",
      "function": "updateBadgeTierMetadata(uint256,uint256,string)",
      "arguments": [
        "22",
        "4",
        "ipfs/Qmej7mjohKduCHrTE1NDpSHZ12BZHUJgSKhu1coG6jnjGB/00000000000000000000000000000000000000000000000000000000000000220000000000000000000000000000000000000000000000000000000000000004.json"
      ],
      "transaction": {
        "from": "0x8835669696fb92839ab198cd80ce9f0d35f45ad5",
        "to": "0xd47c56513e640e394024facbbe5032cf604bb699",
        "gas": "0x1550e",
        "value": "0x0",
        "input": "0xc43e4f4c00000000000000000000000000000000000000000000000000000000000000160000000000000000000000000000000000000000000000000000000000000004000000000000000000000000000000000000000000000000000000000000006000000000000000000000000000000000000000000000000000000000000000b9697066732f516d656a376d6a6f684b64754348725445314e447053485a3132425a48554a67534b687531636f47366a6e6a47422f30303030303030303030303030303030303030303030303030303030303030303030303030303030303030303030303030303030303030303030303030303232303030303030303030303030303030303030303030303030303030303030303030303030303030303030303030303030303030303030303030303030303030342e6a736f6e00000000000000",
        "nonce": "0x5da",
        "chainId": "0xa4ec"
      },
      "additionalContracts": [],
      "isFixedGasLimit": false
    },
    {
      "hash": "0x3ca19855999c31b1fa32fb1fbee086808bed320e3de4a41a3a0ef3c0edc55026",
      "transactionType": "CALL",
      "contractName": null,
      "contractAddress": "0xd47c56513e640e394024facbbe5032cf604bb699",
      "function": "updateBadgeTierMetadata(uint256,uint256,string)",
      "arguments": [
        "22",
        "5",
        "ipfs/Qmej7mjohKduCHrTE1NDpSHZ12BZHUJgSKhu1coG6jnjGB/00000000000000000000000000000000000000000000000000000000000000220000000000000000000000000000000000000000000000000000000000000005.json"
      ],
      "transaction": {
        "from": "0x8835669696fb92839ab198cd80ce9f0d35f45ad5",
        "to": "0xd47c56513e640e394024facbbe5032cf604bb699",
        "gas": "0x1550e",
        "value": "0x0",
        "input": "0xc43e4f4c00000000000000000000000000000000000000000000000000000000000000160000000000000000000000000000000000000000000000000000000000000005000000000000000000000000000000000000000000000000000000000000006000000000000000000000000000000000000000000000000000000000000000b9697066732f516d656a376d6a6f684b64754348725445314e447053485a3132425a48554a67534b687531636f47366a6e6a47422f30303030303030303030303030303030303030303030303030303030303030303030303030303030303030303030303030303030303030303030303030303232303030303030303030303030303030303030303030303030303030303030303030303030303030303030303030303030303030303030303030303030303030352e6a736f6e00000000000000",
        "nonce": "0x5db",
        "chainId": "0xa4ec"
      },
      "additionalContracts": [],
      "isFixedGasLimit": false
    }
  ],
  "receipts": [
    {
      "status": "0x1",
      "cumulativeGasUsed": "0x2f45b3",
      "logs": [
        {
          "address": "0xd47c56513e640e394024facbbe5032cf604bb699",
          "topics": [
            "0xb810609e93b7325976c078b96d9c92d3160d0d165073b8c9a8a6a4d257fd0477",
            "0x0000000000000000000000000000000000000000000000000000000000000016"
          ],
          "data": "0x000000000000000000000000000000000000000000000000000000000000002000000000000000000000000000000000000000000000000000000000000000b9697066732f516d656a376d6a6f684b64754348725445314e447053485a3132425a48554a67534b687531636f47366a6e6a47422f30303030303030303030303030303030303030303030303030303030303030303030303030303030303030303030303030303030303030303030303030303232303030303030303030303030303030303030303030303030303030303030303030303030303030303030303030303030303030303030303030303030303030302e6a736f6e00000000000000",
          "blockHash": "0x028ac55c44c2381574a05969ddbc280415a6850e3affd8464f04eb7acb949efe",
          "blockNumber": "0x2819d27",
          "transactionHash": "0xbe634b61029cee8c666135201d0c7e13e5dce83927625e496d65b547c450781b",
          "transactionIndex": "0xd",
          "logIndex": "0xf7",
          "removed": false
        }
      ],
      "logsBloom": "0x00000000000000000000000000000000000000000000000000000000000000040000000000000000000000000000000000000000000000000000000000000000000000000000000800000000000000004200000000000000000000400000000000000000000000000000000000000000200000000000000000000000000000000000000000000000000000000000000000000000000000000000000000000000000000000000000000000000000000000000000000000000000000000000000000000000000000000000000000000000000000000000000000000020000000000000000000000000000200000000000000000000000000000008000000000000",
      "type": "0x0",
      "transactionHash": "0xbe634b61029cee8c666135201d0c7e13e5dce83927625e496d65b547c450781b",
      "transactionIndex": "0xd",
      "blockHash": "0x028ac55c44c2381574a05969ddbc280415a6850e3affd8464f04eb7acb949efe",
      "blockNumber": "0x2819d27",
      "gasUsed": "0xea44",
      "effectiveGasPrice": "0x5d22cfc40",
      "from": "0x8835669696fb92839ab198cd80ce9f0d35f45ad5",
      "to": "0xd47c56513e640e394024facbbe5032cf604bb699",
      "contractAddress": null,
      "l1BaseFeeScalar": "0x0",
      "l1BlobBaseFee": "0x1",
      "l1BlobBaseFeeScalar": "0x0",
      "l1Fee": "0x0",
      "l1GasPrice": "0x9356c4c5",
      "l1GasUsed": "0x85e"
    },
    {
      "status": "0x1",
      "cumulativeGasUsed": "0x303c9f",
      "logs": [
        {
          "address": "0xd47c56513e640e394024facbbe5032cf604bb699",
          "topics": [
            "0x3e442b5d5a6ecd8c0a86017cabd5ee0efbf32debbee58f9cea68f1b8489e4193",
            "0x0000000000000000000000000000000000000000000000000000000000000016"
          ],
          "data": "0x0000000000000000000000000000000000000000000000000000000000000001000000000000000000000000000000000000000000000000000000000000004000000000000000000000000000000000000000000000000000000000000000b9697066732f516d656a376d6a6f684b64754348725445314e447053485a3132425a48554a67534b687531636f47366a6e6a47422f30303030303030303030303030303030303030303030303030303030303030303030303030303030303030303030303030303030303030303030303030303232303030303030303030303030303030303030303030303030303030303030303030303030303030303030303030303030303030303030303030303030303030312e6a736f6e00000000000000",
          "blockHash": "0x028ac55c44c2381574a05969ddbc280415a6850e3affd8464f04eb7acb949efe",
          "blockNumber": "0x2819d27",
          "transactionHash": "0xb256f3cd4ff285566feadf087aad1b8d6583f6b323cbc6789f856cbe4e311e76",
          "transactionIndex": "0xe",
          "logIndex": "0xf8",
          "removed": false
        }
      ],
      "logsBloom": "0x00000000000000000000000000000000000000000000000000000000000000000000000000000000000000000000000000000000000000000000000000000000000000000000000800000000000000004200000000000000000000000000000000000010000000000000000000000000200000000000000000000000000000000000000000000000000000000000000000000000000000000000000000000000000000200000000000000000000000000000000000000000000000000000000000000000000000000000000000000000000000000000000200000000000000000000000000000000000200000000000000000000000000000008000000000000",
      "type": "0x0",
      "transactionHash": "0xb256f3cd4ff285566feadf087aad1b8d6583f6b323cbc6789f856cbe4e311e76",
      "transactionIndex": "0xe",
      "blockHash": "0x028ac55c44c2381574a05969ddbc280415a6850e3affd8464f04eb7acb949efe",
      "blockNumber": "0x2819d27",
      "gasUsed": "0xf6ec",
      "effectiveGasPrice": "0x5d22cfc40",
      "from": "0x8835669696fb92839ab198cd80ce9f0d35f45ad5",
      "to": "0xd47c56513e640e394024facbbe5032cf604bb699",
      "contractAddress": null,
      "l1BaseFeeScalar": "0x0",
      "l1BlobBaseFee": "0x1",
      "l1BlobBaseFeeScalar": "0x0",
      "l1Fee": "0x0",
      "l1GasPrice": "0x9356c4c5",
      "l1GasUsed": "0x8f1"
    },
    {
      "status": "0x1",
      "cumulativeGasUsed": "0x31338b",
      "logs": [
        {
          "address": "0xd47c56513e640e394024facbbe5032cf604bb699",
          "topics": [
            "0x3e442b5d5a6ecd8c0a86017cabd5ee0efbf32debbee58f9cea68f1b8489e4193",
            "0x0000000000000000000000000000000000000000000000000000000000000016"
          ],
          "data": "0x0000000000000000000000000000000000000000000000000000000000000002000000000000000000000000000000000000000000000000000000000000004000000000000000000000000000000000000000000000000000000000000000b9697066732f516d656a376d6a6f684b64754348725445314e447053485a3132425a48554a67534b687531636f47366a6e6a47422f30303030303030303030303030303030303030303030303030303030303030303030303030303030303030303030303030303030303030303030303030303232303030303030303030303030303030303030303030303030303030303030303030303030303030303030303030303030303030303030303030303030303030322e6a736f6e00000000000000",
          "blockHash": "0x028ac55c44c2381574a05969ddbc280415a6850e3affd8464f04eb7acb949efe",
          "blockNumber": "0x2819d27",
          "transactionHash": "0xd7adda3b40a23387b1cea477029965d25c796c94e2421631b29fd56063e8a3df",
          "transactionIndex": "0xf",
          "logIndex": "0xf9",
          "removed": false
        }
      ],
      "logsBloom": "0x00000000000000000000000000000000000000000000000000000000000000000000000000000000000000000000000000000000000000000000000000000000000000000000000800000000000000004200000000000000000000000000000000000010000000000000000000000000200000000000000000000000000000000000000000000000000000000000000000000000000000000000000000000000000000200000000000000000000000000000000000000000000000000000000000000000000000000000000000000000000000000000000200000000000000000000000000000000000200000000000000000000000000000008000000000000",
      "type": "0x0",
      "transactionHash": "0xd7adda3b40a23387b1cea477029965d25c796c94e2421631b29fd56063e8a3df",
      "transactionIndex": "0xf",
      "blockHash": "0x028ac55c44c2381574a05969ddbc280415a6850e3affd8464f04eb7acb949efe",
      "blockNumber": "0x2819d27",
      "gasUsed": "0xf6ec",
      "effectiveGasPrice": "0x5d22cfc40",
      "from": "0x8835669696fb92839ab198cd80ce9f0d35f45ad5",
      "to": "0xd47c56513e640e394024facbbe5032cf604bb699",
      "contractAddress": null,
      "l1BaseFeeScalar": "0x0",
      "l1BlobBaseFee": "0x1",
      "l1BlobBaseFeeScalar": "0x0",
      "l1Fee": "0x0",
      "l1GasPrice": "0x9356c4c5",
      "l1GasUsed": "0x8e4"
    },
    {
      "status": "0x1",
      "cumulativeGasUsed": "0x322a77",
      "logs": [
        {
          "address": "0xd47c56513e640e394024facbbe5032cf604bb699",
          "topics": [
            "0x3e442b5d5a6ecd8c0a86017cabd5ee0efbf32debbee58f9cea68f1b8489e4193",
            "0x0000000000000000000000000000000000000000000000000000000000000016"
          ],
          "data": "0x0000000000000000000000000000000000000000000000000000000000000003000000000000000000000000000000000000000000000000000000000000004000000000000000000000000000000000000000000000000000000000000000b9697066732f516d656a376d6a6f684b64754348725445314e447053485a3132425a48554a67534b687531636f47366a6e6a47422f30303030303030303030303030303030303030303030303030303030303030303030303030303030303030303030303030303030303030303030303030303232303030303030303030303030303030303030303030303030303030303030303030303030303030303030303030303030303030303030303030303030303030332e6a736f6e00000000000000",
          "blockHash": "0x028ac55c44c2381574a05969ddbc280415a6850e3affd8464f04eb7acb949efe",
          "blockNumber": "0x2819d27",
          "transactionHash": "0x4e0ba395355bf0e039b04db846ea1eb4b8f726fc0ed3f37b5f35e193df382e7f",
          "transactionIndex": "0x10",
          "logIndex": "0xfa",
          "removed": false
        }
      ],
      "logsBloom": "0x00000000000000000000000000000000000000000000000000000000000000000000000000000000000000000000000000000000000000000000000000000000000000000000000800000000000000004200000000000000000000000000000000000010000000000000000000000000200000000000000000000000000000000000000000000000000000000000000000000000000000000000000000000000000000200000000000000000000000000000000000000000000000000000000000000000000000000000000000000000000000000000000200000000000000000000000000000000000200000000000000000000000000000008000000000000",
      "type": "0x0",
      "transactionHash": "0x4e0ba395355bf0e039b04db846ea1eb4b8f726fc0ed3f37b5f35e193df382e7f",
      "transactionIndex": "0x10",
      "blockHash": "0x028ac55c44c2381574a05969ddbc280415a6850e3affd8464f04eb7acb949efe",
      "blockNumber": "0x2819d27",
      "gasUsed": "0xf6ec",
      "effectiveGasPrice": "0x5d22cfc40",
      "from": "0x8835669696fb92839ab198cd80ce9f0d35f45ad5",
      "to": "0xd47c56513e640e394024facbbe5032cf604bb699",
      "contractAddress": null,
      "l1BaseFeeScalar": "0x0",
      "l1BlobBaseFee": "0x1",
      "l1BlobBaseFeeScalar": "0x0",
      "l1Fee": "0x0",
      "l1GasPrice": "0x9356c4c5",
      "l1GasUsed": "0x8f1"
    },
    {
      "status": "0x1",
      "cumulativeGasUsed": "0x200743",
      "logs": [
        {
          "address": "0xd47c56513e640e394024facbbe5032cf604bb699",
          "topics": [
            "0x3e442b5d5a6ecd8c0a86017cabd5ee0efbf32debbee58f9cea68f1b8489e4193",
            "0x0000000000000000000000000000000000000000000000000000000000000016"
          ],
          "data": "0x0000000000000000000000000000000000000000000000000000000000000004000000000000000000000000000000000000000000000000000000000000004000000000000000000000000000000000000000000000000000000000000000b9697066732f516d656a376d6a6f684b64754348725445314e447053485a3132425a48554a67534b687531636f47366a6e6a47422f30303030303030303030303030303030303030303030303030303030303030303030303030303030303030303030303030303030303030303030303030303232303030303030303030303030303030303030303030303030303030303030303030303030303030303030303030303030303030303030303030303030303030342e6a736f6e00000000000000",
          "blockHash": "0x6a4f846f664cf3aed5400f92b64aba20991d22befc250a09264ad9fdf872d922",
          "blockNumber": "0x2819d28",
          "transactionHash": "0x9e9458cb242bfdb676be74b4086369d186880281fe09263478a06a27342a22bb",
          "transactionIndex": "0xe",
          "logIndex": "0x5b",
          "removed": false
        }
      ],
      "logsBloom": "0x00000000000000000000000000000000000000000000000000000000000000000000000000000000000000000000000000000000000000000000000000000000000000000000000800000000000000004200000000000000000000000000000000000010000000000000000000000000200000000000000000000000000000000000000000000000000000000000000000000000000000000000000000000000000000200000000000000000000000000000000000000000000000000000000000000000000000000000000000000000000000000000000200000000000000000000000000000000000200000000000000000000000000000008000000000000",
      "type": "0x0",
      "transactionHash": "0x9e9458cb242bfdb676be74b4086369d186880281fe09263478a06a27342a22bb",
      "transactionIndex": "0xe",
      "blockHash": "0x6a4f846f664cf3aed5400f92b64aba20991d22befc250a09264ad9fdf872d922",
      "blockNumber": "0x2819d28",
      "gasUsed": "0xf6ec",
      "effectiveGasPrice": "0x5d22cfc40",
      "from": "0x8835669696fb92839ab198cd80ce9f0d35f45ad5",
      "to": "0xd47c56513e640e394024facbbe5032cf604bb699",
      "contractAddress": null,
      "l1BaseFeeScalar": "0x0",
      "l1BlobBaseFee": "0x1",
      "l1BlobBaseFeeScalar": "0x0",
      "l1Fee": "0x0",
      "l1GasPrice": "0x92c2e027",
      "l1GasUsed": "0x8f1"
    },
    {
      "status": "0x1",
      "cumulativeGasUsed": "0x20fe2f",
      "logs": [
        {
          "address": "0xd47c56513e640e394024facbbe5032cf604bb699",
          "topics": [
            "0x3e442b5d5a6ecd8c0a86017cabd5ee0efbf32debbee58f9cea68f1b8489e4193",
            "0x0000000000000000000000000000000000000000000000000000000000000016"
          ],
          "data": "0x0000000000000000000000000000000000000000000000000000000000000005000000000000000000000000000000000000000000000000000000000000004000000000000000000000000000000000000000000000000000000000000000b9697066732f516d656a376d6a6f684b64754348725445314e447053485a3132425a48554a67534b687531636f47366a6e6a47422f30303030303030303030303030303030303030303030303030303030303030303030303030303030303030303030303030303030303030303030303030303232303030303030303030303030303030303030303030303030303030303030303030303030303030303030303030303030303030303030303030303030303030352e6a736f6e00000000000000",
          "blockHash": "0x6a4f846f664cf3aed5400f92b64aba20991d22befc250a09264ad9fdf872d922",
          "blockNumber": "0x2819d28",
          "transactionHash": "0x3ca19855999c31b1fa32fb1fbee086808bed320e3de4a41a3a0ef3c0edc55026",
          "transactionIndex": "0xf",
          "logIndex": "0x5c",
          "removed": false
        }
      ],
      "logsBloom": "0x00000000000000000000000000000000000000000000000000000000000000000000000000000000000000000000000000000000000000000000000000000000000000000000000800000000000000004200000000000000000000000000000000000010000000000000000000000000200000000000000000000000000000000000000000000000000000000000000000000000000000000000000000000000000000200000000000000000000000000000000000000000000000000000000000000000000000000000000000000000000000000000000200000000000000000000000000000000000200000000000000000000000000000008000000000000",
      "type": "0x0",
      "transactionHash": "0x3ca19855999c31b1fa32fb1fbee086808bed320e3de4a41a3a0ef3c0edc55026",
      "transactionIndex": "0xf",
      "blockHash": "0x6a4f846f664cf3aed5400f92b64aba20991d22befc250a09264ad9fdf872d922",
      "blockNumber": "0x2819d28",
      "gasUsed": "0xf6ec",
      "effectiveGasPrice": "0x5d22cfc40",
      "from": "0x8835669696fb92839ab198cd80ce9f0d35f45ad5",
      "to": "0xd47c56513e640e394024facbbe5032cf604bb699",
      "contractAddress": null,
      "l1BaseFeeScalar": "0x0",
      "l1BlobBaseFee": "0x1",
      "l1BlobBaseFeeScalar": "0x0",
      "l1Fee": "0x0",
      "l1GasPrice": "0x92c2e027",
      "l1GasUsed": "0x8f1"
    }
  ],
  "libraries": [],
  "pending": [],
  "returns": {
    "0": {
      "internal_type": "address",
      "value": "0x0000000000000000000000000000000000000000"
    }
  },
  "timestamp": 1753949564,
  "chain": 42220,
  "commit": "0150d24"
}