{
  "transactions": [
    {
      "hash": "0x424032c9cd3be0dd59b70846d595ac5860baf6238e1b2b24bcbfd99c7a438d4f",
      "transactionType": "CALL",
      "contractName": null,
      "contractAddress": "0xd47c56513e640e394024facbbe5032cf604bb699",
      "function": "updateBadgeMetadata(uint256,string)",
      "arguments": [
        "24",
        "ipfs/QmYmpHyybED4mmgQYohYtUEXe2uDxhaAHKyxodBoUBNc1R/00000000000000000000000000000000000000000000000000000000000000240000000000000000000000000000000000000000000000000000000000000000.json"
      ],
      "transaction": {
        "from": "0x8835669696fb92839ab198cd80ce9f0d35f45ad5",
        "to": "0xd47c56513e640e394024facbbe5032cf604bb699",
        "gas": "0x14394",
        "value": "0x0",
        "input": "0x47461b400000000000000000000000000000000000000000000000000000000000000018000000000000000000000000000000000000000000000000000000000000004000000000000000000000000000000000000000000000000000000000000000b9697066732f516d596d70487979624544346d6d6751596f6859745545586532754478686141484b79786f64426f55424e6331522f30303030303030303030303030303030303030303030303030303030303030303030303030303030303030303030303030303030303030303030303030303234303030303030303030303030303030303030303030303030303030303030303030303030303030303030303030303030303030303030303030303030303030302e6a736f6e00000000000000",
        "nonce": "0x1cf8",
        "chainId": "0xa4ec"
      },
      "additionalContracts": [],
      "isFixedGasLimit": false
    },
    {
      "hash": "0x8d819e01b679fd014d70b63dd49c6f460334f20b075a78790bfe40c6bb590fe8",
      "transactionType": "CALL",
      "contractName": null,
      "contractAddress": "0xd47c56513e640e394024facbbe5032cf604bb699",
      "function": "updateBadgeTierMetadata(uint256,uint256,string)",
      "arguments": [
        "24",
        "1",
        "ipfs/QmYmpHyybED4mmgQYohYtUEXe2uDxhaAHKyxodBoUBNc1R/00000000000000000000000000000000000000000000000000000000000000240000000000000000000000000000000000000000000000000000000000000001.json"
      ],
      "transaction": {
        "from": "0x8835669696fb92839ab198cd80ce9f0d35f45ad5",
        "to": "0xd47c56513e640e394024facbbe5032cf604bb699",
        "gas": "0x136d7",
        "value": "0x0",
        "input": "0xc43e4f4c00000000000000000000000000000000000000000000000000000000000000180000000000000000000000000000000000000000000000000000000000000001000000000000000000000000000000000000000000000000000000000000006000000000000000000000000000000000000000000000000000000000000000b9697066732f516d596d70487979624544346d6d6751596f6859745545586532754478686141484b79786f64426f55424e6331522f30303030303030303030303030303030303030303030303030303030303030303030303030303030303030303030303030303030303030303030303030303234303030303030303030303030303030303030303030303030303030303030303030303030303030303030303030303030303030303030303030303030303030312e6a736f6e00000000000000",
        "nonce": "0x1cf9",
        "chainId": "0xa4ec"
      },
      "additionalContracts": [],
      "isFixedGasLimit": false
    },
    {
      "hash": "0x0a442189068c0d6fdd40e70d9a6bffc6e25aa13971104ec8bdb08a442aaaec44",
      "transactionType": "CALL",
      "contractName": null,
      "contractAddress": "0xd47c56513e640e394024facbbe5032cf604bb699",
      "function": "updateBadgeTierMetadata(uint256,uint256,string)",
      "arguments": [
        "24",
        "2",
        "ipfs/QmYmpHyybED4mmgQYohYtUEXe2uDxhaAHKyxodBoUBNc1R/00000000000000000000000000000000000000000000000000000000000000240000000000000000000000000000000000000000000000000000000000000002.json"
      ],
      "transaction": {
        "from": "0x8835669696fb92839ab198cd80ce9f0d35f45ad5",
        "to": "0xd47c56513e640e394024facbbe5032cf604bb699",
        "gas": "0x136d7",
        "value": "0x0",
        "input": "0xc43e4f4c00000000000000000000000000000000000000000000000000000000000000180000000000000000000000000000000000000000000000000000000000000002000000000000000000000000000000000000000000000000000000000000006000000000000000000000000000000000000000000000000000000000000000b9697066732f516d596d70487979624544346d6d6751596f6859745545586532754478686141484b79786f64426f55424e6331522f30303030303030303030303030303030303030303030303030303030303030303030303030303030303030303030303030303030303030303030303030303234303030303030303030303030303030303030303030303030303030303030303030303030303030303030303030303030303030303030303030303030303030322e6a736f6e00000000000000",
        "nonce": "0x1cfa",
        "chainId": "0xa4ec"
      },
      "additionalContracts": [],
      "isFixedGasLimit": false
    },
    {
      "hash": "0xa299e648cdb561365986077f088b6053fba8a6a29f17000de5ea514d5a07c570",
      "transactionType": "CALL",
      "contractName": null,
      "contractAddress": "0xd47c56513e640e394024facbbe5032cf604bb699",
      "function": "updateBadgeTierMetadata(uint256,uint256,string)",
      "arguments": [
        "24",
        "3",
        "ipfs/QmYmpHyybED4mmgQYohYtUEXe2uDxhaAHKyxodBoUBNc1R/00000000000000000000000000000000000000000000000000000000000000240000000000000000000000000000000000000000000000000000000000000003.json"
      ],
      "transaction": {
        "from": "0x8835669696fb92839ab198cd80ce9f0d35f45ad5",
        "to": "0xd47c56513e640e394024facbbe5032cf604bb699",
        "gas": "0x136d7",
        "value": "0x0",
        "input": "0xc43e4f4c00000000000000000000000000000000000000000000000000000000000000180000000000000000000000000000000000000000000000000000000000000003000000000000000000000000000000000000000000000000000000000000006000000000000000000000000000000000000000000000000000000000000000b9697066732f516d596d70487979624544346d6d6751596f6859745545586532754478686141484b79786f64426f55424e6331522f30303030303030303030303030303030303030303030303030303030303030303030303030303030303030303030303030303030303030303030303030303234303030303030303030303030303030303030303030303030303030303030303030303030303030303030303030303030303030303030303030303030303030332e6a736f6e00000000000000",
        "nonce": "0x1cfb",
        "chainId": "0xa4ec"
      },
      "additionalContracts": [],
      "isFixedGasLimit": false
    },
    {
      "hash": "0x87d7ab216a04a2cbd5895c6f524efa091d8d208518f401944c8dd85b53b8c694",
      "transactionType": "CALL",
      "contractName": null,
      "contractAddress": "0xd47c56513e640e394024facbbe5032cf604bb699",
      "function": "updateBadgeTierMetadata(uint256,uint256,string)",
      "arguments": [
        "24",
        "4",
        "ipfs/QmYmpHyybED4mmgQYohYtUEXe2uDxhaAHKyxodBoUBNc1R/00000000000000000000000000000000000000000000000000000000000000240000000000000000000000000000000000000000000000000000000000000004.json"
      ],
      "transaction": {
        "from": "0x8835669696fb92839ab198cd80ce9f0d35f45ad5",
        "to": "0xd47c56513e640e394024facbbe5032cf604bb699",
        "gas": "0x136d7",
        "value": "0x0",
        "input": "0xc43e4f4c00000000000000000000000000000000000000000000000000000000000000180000000000000000000000000000000000000000000000000000000000000004000000000000000000000000000000000000000000000000000000000000006000000000000000000000000000000000000000000000000000000000000000b9697066732f516d596d70487979624544346d6d6751596f6859745545586532754478686141484b79786f64426f55424e6331522f30303030303030303030303030303030303030303030303030303030303030303030303030303030303030303030303030303030303030303030303030303234303030303030303030303030303030303030303030303030303030303030303030303030303030303030303030303030303030303030303030303030303030342e6a736f6e00000000000000",
        "nonce": "0x1cfc",
        "chainId": "0xa4ec"
      },
      "additionalContracts": [],
      "isFixedGasLimit": false
    },
    {
      "hash": "0x1d8fb4116c4fd0b34c0d66bef7a64e032634357b44020050eaaac5f9fae02ad5",
      "transactionType": "CALL",
      "contractName": null,
      "contractAddress": "0xd47c56513e640e394024facbbe5032cf604bb699",
      "function": "updateBadgeTierMetadata(uint256,uint256,string)",
      "arguments": [
        "24",
        "5",
        "ipfs/QmYmpHyybED4mmgQYohYtUEXe2uDxhaAHKyxodBoUBNc1R/00000000000000000000000000000000000000000000000000000000000000240000000000000000000000000000000000000000000000000000000000000005.json"
      ],
      "transaction": {
        "from": "0x8835669696fb92839ab198cd80ce9f0d35f45ad5",
        "to": "0xd47c56513e640e394024facbbe5032cf604bb699",
        "gas": "0x136d7",
        "value": "0x0",
        "input": "0xc43e4f4c00000000000000000000000000000000000000000000000000000000000000180000000000000000000000000000000000000000000000000000000000000005000000000000000000000000000000000000000000000000000000000000006000000000000000000000000000000000000000000000000000000000000000b9697066732f516d596d70487979624544346d6d6751596f6859745545586532754478686141484b79786f64426f55424e6331522f30303030303030303030303030303030303030303030303030303030303030303030303030303030303030303030303030303030303030303030303030303234303030303030303030303030303030303030303030303030303030303030303030303030303030303030303030303030303030303030303030303030303030352e6a736f6e00000000000000",
        "nonce": "0x1cfd",
        "chainId": "0xa4ec"
      },
      "additionalContracts": [],
      "isFixedGasLimit": false
    }
  ],
  "receipts": [
    {
      "status": "0x1",
      "cumulativeGasUsed": "0x127cc2",
      "logs": [
        {
          "address": "0xd47c56513e640e394024facbbe5032cf604bb699",
          "topics": [
            "0xb810609e93b7325976c078b96d9c92d3160d0d165073b8c9a8a6a4d257fd0477",
            "0x0000000000000000000000000000000000000000000000000000000000000018"
          ],
          "data": "0x000000000000000000000000000000000000000000000000000000000000002000000000000000000000000000000000000000000000000000000000000000b9697066732f516d596d70487979624544346d6d6751596f6859745545586532754478686141484b79786f64426f55424e6331522f30303030303030303030303030303030303030303030303030303030303030303030303030303030303030303030303030303030303030303030303030303234303030303030303030303030303030303030303030303030303030303030303030303030303030303030303030303030303030303030303030303030303030302e6a736f6e00000000000000",
          "blockHash": "0x1374fa0210b5d7bd9fa2bea807a99665348ac248571c835437b43c3d848aa755",
          "blockNumber": "0x2d3056d",
          "transactionHash": "0x424032c9cd3be0dd59b70846d595ac5860baf6238e1b2b24bcbfd99c7a438d4f",
          "transactionIndex": "0x9",
          "logIndex": "0x23",
          "removed": false
        }
      ],
      "logsBloom": "0x00000000000000000000000000000000000000000000000000000000000000040000000000000000000000000000000000000000000000000000000000000000000000000000000000000000000000004240000000000000000000400000000000000000000000000000000000000000000000000000000000000000000000000000000000000000000000000000000000000000000000000000000000000000000000000000000000000000000000000000000000000000000000000000000000100000000000000000000000000000000000000000000020000020000000000000000000000000000200000000000000000000000000000000000000000000",
      "type": "0x0",
      "transactionHash": "0x424032c9cd3be0dd59b70846d595ac5860baf6238e1b2b24bcbfd99c7a438d4f",
      "transactionIndex": "0x9",
      "blockHash": "0x1374fa0210b5d7bd9fa2bea807a99665348ac248571c835437b43c3d848aa755",
      "blockNumber": "0x2d3056d",
      "gasUsed": "0xea44",
      "effectiveGasPrice": "0x5d22cfc40",
      "from": "0x8835669696fb92839ab198cd80ce9f0d35f45ad5",
      "to": "0xd47c56513e640e394024facbbe5032cf604bb699",
      "contractAddress": null,
      "l1BaseFeeScalar": "0x0",
      "l1BlobBaseFee": "0x1",
      "l1BlobBaseFeeScalar": "0x0",
      "l1Fee": "0x0",
      "l1GasPrice": "0x6f25c49",
      "l1GasUsed": "0x85e"
    },
    {
      "status": "0x1",
      "cumulativeGasUsed": "0x135dce",
      "logs": [
        {
          "address": "0xd47c56513e640e394024facbbe5032cf604bb699",
          "topics": [
            "0x3e442b5d5a6ecd8c0a86017cabd5ee0efbf32debbee58f9cea68f1b8489e4193",
            "0x0000000000000000000000000000000000000000000000000000000000000018"
          ],
          "data": "0x0000000000000000000000000000000000000000000000000000000000000001000000000000000000000000000000000000000000000000000000000000004000000000000000000000000000000000000000000000000000000000000000b9697066732f516d596d70487979624544346d6d6751596f6859745545586532754478686141484b79786f64426f55424e6331522f30303030303030303030303030303030303030303030303030303030303030303030303030303030303030303030303030303030303030303030303030303234303030303030303030303030303030303030303030303030303030303030303030303030303030303030303030303030303030303030303030303030303030312e6a736f6e00000000000000",
          "blockHash": "0x1374fa0210b5d7bd9fa2bea807a99665348ac248571c835437b43c3d848aa755",
          "blockNumber": "0x2d3056d",
          "transactionHash": "0x8d819e01b679fd014d70b63dd49c6f460334f20b075a78790bfe40c6bb590fe8",
          "transactionIndex": "0xa",
          "logIndex": "0x24",
          "removed": false
        }
      ],
      "logsBloom": "0x00000000000000000000000000000000000000000000000000000000000000000000000000000000000000000000000000000000000000000000000000000000000000000000000000000000000000004240000000000000000000000000000000000010000000000000000000000000000000000000000000000000000000000000000000000000000000000000000000000000000000000000000000000000000000200000000000000000000000000000000000000000000000000000000000100000000000000000000000000000000000000000000220000000000000000000000000000000000200000000000000000000000000000000000000000000",
      "type": "0x0",
      "transactionHash": "0x8d819e01b679fd014d70b63dd49c6f460334f20b075a78790bfe40c6bb590fe8",
      "transactionIndex": "0xa",
      "blockHash": "0x1374fa0210b5d7bd9fa2bea807a99665348ac248571c835437b43c3d848aa755",
      "blockNumber": "0x2d3056d",
      "gasUsed": "0xe10c",
      "effectiveGasPrice": "0x5d22cfc40",
      "from": "0x8835669696fb92839ab198cd80ce9f0d35f45ad5",
      "to": "0xd47c56513e640e394024facbbe5032cf604bb699",
      "contractAddress": null,
      "l1BaseFeeScalar": "0x0",
      "l1BlobBaseFee": "0x1",
      "l1BlobBaseFeeScalar": "0x0",
      "l1Fee": "0x0",
      "l1GasPrice": "0x6f25c49",
      "l1GasUsed": "0x8f1"
    },
    {
      "status": "0x1",
      "cumulativeGasUsed": "0x143eda",
      "logs": [
        {
          "address": "0xd47c56513e640e394024facbbe5032cf604bb699",
          "topics": [
            "0x3e442b5d5a6ecd8c0a86017cabd5ee0efbf32debbee58f9cea68f1b8489e4193",
            "0x0000000000000000000000000000000000000000000000000000000000000018"
          ],
          "data": "0x0000000000000000000000000000000000000000000000000000000000000002000000000000000000000000000000000000000000000000000000000000004000000000000000000000000000000000000000000000000000000000000000b9697066732f516d596d70487979624544346d6d6751596f6859745545586532754478686141484b79786f64426f55424e6331522f30303030303030303030303030303030303030303030303030303030303030303030303030303030303030303030303030303030303030303030303030303234303030303030303030303030303030303030303030303030303030303030303030303030303030303030303030303030303030303030303030303030303030322e6a736f6e00000000000000",
          "blockHash": "0x1374fa0210b5d7bd9fa2bea807a99665348ac248571c835437b43c3d848aa755",
          "blockNumber": "0x2d3056d",
          "transactionHash": "0x0a442189068c0d6fdd40e70d9a6bffc6e25aa13971104ec8bdb08a442aaaec44",
          "transactionIndex": "0xb",
          "logIndex": "0x25",
          "removed": false
        }
      ],
      "logsBloom": "0x00000000000000000000000000000000000000000000000000000000000000000000000000000000000000000000000000000000000000000000000000000000000000000000000000000000000000004240000000000000000000000000000000000010000000000000000000000000000000000000000000000000000000000000000000000000000000000000000000000000000000000000000000000000000000200000000000000000000000000000000000000000000000000000000000100000000000000000000000000000000000000000000220000000000000000000000000000000000200000000000000000000000000000000000000000000",
      "type": "0x0",
      "transactionHash": "0x0a442189068c0d6fdd40e70d9a6bffc6e25aa13971104ec8bdb08a442aaaec44",
      "transactionIndex": "0xb",
      "blockHash": "0x1374fa0210b5d7bd9fa2bea807a99665348ac248571c835437b43c3d848aa755",
      "blockNumber": "0x2d3056d",
      "gasUsed": "0xe10c",
      "effectiveGasPrice": "0x5d22cfc40",
      "from": "0x8835669696fb92839ab198cd80ce9f0d35f45ad5",
      "to": "0xd47c56513e640e394024facbbe5032cf604bb699",
      "contractAddress": null,
      "l1BaseFeeScalar": "0x0",
      "l1BlobBaseFee": "0x1",
      "l1BlobBaseFeeScalar": "0x0",
      "l1Fee": "0x0",
      "l1GasPrice": "0x6f25c49",
      "l1GasUsed": "0x8e4"
    },
    {
      "status": "0x1",
      "cumulativeGasUsed": "0x151fe6",
      "logs": [
        {
          "address": "0xd47c56513e640e394024facbbe5032cf604bb699",
          "topics": [
            "0x3e442b5d5a6ecd8c0a86017cabd5ee0efbf32debbee58f9cea68f1b8489e4193",
            "0x0000000000000000000000000000000000000000000000000000000000000018"
          ],
          "data": "0x0000000000000000000000000000000000000000000000000000000000000003000000000000000000000000000000000000000000000000000000000000004000000000000000000000000000000000000000000000000000000000000000b9697066732f516d596d70487979624544346d6d6751596f6859745545586532754478686141484b79786f64426f55424e6331522f30303030303030303030303030303030303030303030303030303030303030303030303030303030303030303030303030303030303030303030303030303234303030303030303030303030303030303030303030303030303030303030303030303030303030303030303030303030303030303030303030303030303030332e6a736f6e00000000000000",
          "blockHash": "0x1374fa0210b5d7bd9fa2bea807a99665348ac248571c835437b43c3d848aa755",
          "blockNumber": "0x2d3056d",
          "transactionHash": "0xa299e648cdb561365986077f088b6053fba8a6a29f17000de5ea514d5a07c570",
          "transactionIndex": "0xc",
          "logIndex": "0x26",
          "removed": false
        }
      ],
      "logsBloom": "0x00000000000000000000000000000000000000000000000000000000000000000000000000000000000000000000000000000000000000000000000000000000000000000000000000000000000000004240000000000000000000000000000000000010000000000000000000000000000000000000000000000000000000000000000000000000000000000000000000000000000000000000000000000000000000200000000000000000000000000000000000000000000000000000000000100000000000000000000000000000000000000000000220000000000000000000000000000000000200000000000000000000000000000000000000000000",
      "type": "0x0",
      "transactionHash": "0xa299e648cdb561365986077f088b6053fba8a6a29f17000de5ea514d5a07c570",
      "transactionIndex": "0xc",
      "blockHash": "0x1374fa0210b5d7bd9fa2bea807a99665348ac248571c835437b43c3d848aa755",
      "blockNumber": "0x2d3056d",
      "gasUsed": "0xe10c",
      "effectiveGasPrice": "0x5d22cfc40",
      "from": "0x8835669696fb92839ab198cd80ce9f0d35f45ad5",
      "to": "0xd47c56513e640e394024facbbe5032cf604bb699",
      "contractAddress": null,
      "l1BaseFeeScalar": "0x0",
      "l1BlobBaseFee": "0x1",
      "l1BlobBaseFeeScalar": "0x0",
      "l1Fee": "0x0",
      "l1GasPrice": "0x6f25c49",
      "l1GasUsed": "0x8f1"
    },
    {
      "status": "0x1",
      "cumulativeGasUsed": "0x1600f2",
      "logs": [
        {
          "address": "0xd47c56513e640e394024facbbe5032cf604bb699",
          "topics": [
            "0x3e442b5d5a6ecd8c0a86017cabd5ee0efbf32debbee58f9cea68f1b8489e4193",
            "0x0000000000000000000000000000000000000000000000000000000000000018"
          ],
          "data": "0x0000000000000000000000000000000000000000000000000000000000000004000000000000000000000000000000000000000000000000000000000000004000000000000000000000000000000000000000000000000000000000000000b9697066732f516d596d70487979624544346d6d6751596f6859745545586532754478686141484b79786f64426f55424e6331522f30303030303030303030303030303030303030303030303030303030303030303030303030303030303030303030303030303030303030303030303030303234303030303030303030303030303030303030303030303030303030303030303030303030303030303030303030303030303030303030303030303030303030342e6a736f6e00000000000000",
          "blockHash": "0x1374fa0210b5d7bd9fa2bea807a99665348ac248571c835437b43c3d848aa755",
          "blockNumber": "0x2d3056d",
          "transactionHash": "0x87d7ab216a04a2cbd5895c6f524efa091d8d208518f401944c8dd85b53b8c694",
          "transactionIndex": "0xd",
          "logIndex": "0x27",
          "removed": false
        }
      ],
      "logsBloom": "0x00000000000000000000000000000000000000000000000000000000000000000000000000000000000000000000000000000000000000000000000000000000000000000000000000000000000000004240000000000000000000000000000000000010000000000000000000000000000000000000000000000000000000000000000000000000000000000000000000000000000000000000000000000000000000200000000000000000000000000000000000000000000000000000000000100000000000000000000000000000000000000000000220000000000000000000000000000000000200000000000000000000000000000000000000000000",
      "type": "0x0",
      "transactionHash": "0x87d7ab216a04a2cbd5895c6f524efa091d8d208518f401944c8dd85b53b8c694",
      "transactionIndex": "0xd",
      "blockHash": "0x1374fa0210b5d7bd9fa2bea807a99665348ac248571c835437b43c3d848aa755",
      "blockNumber": "0x2d3056d",
      "gasUsed": "0xe10c",
      "effectiveGasPrice": "0x5d22cfc40",
      "from": "0x8835669696fb92839ab198cd80ce9f0d35f45ad5",
      "to": "0xd47c56513e640e394024facbbe5032cf604bb699",
      "contractAddress": null,
      "l1BaseFeeScalar": "0x0",
      "l1BlobBaseFee": "0x1",
      "l1BlobBaseFeeScalar": "0x0",
      "l1Fee": "0x0",
      "l1GasPrice": "0x6f25c49",
      "l1GasUsed": "0x8f1"
    },
    {
      "status": "0x1",
      "cumulativeGasUsed": "0x16e1fe",
      "logs": [
        {
          "address": "0xd47c56513e640e394024facbbe5032cf604bb699",
          "topics": [
            "0x3e442b5d5a6ecd8c0a86017cabd5ee0efbf32debbee58f9cea68f1b8489e4193",
            "0x0000000000000000000000000000000000000000000000000000000000000018"
          ],
          "data": "0x0000000000000000000000000000000000000000000000000000000000000005000000000000000000000000000000000000000000000000000000000000004000000000000000000000000000000000000000000000000000000000000000b9697066732f516d596d70487979624544346d6d6751596f6859745545586532754478686141484b79786f64426f55424e6331522f30303030303030303030303030303030303030303030303030303030303030303030303030303030303030303030303030303030303030303030303030303234303030303030303030303030303030303030303030303030303030303030303030303030303030303030303030303030303030303030303030303030303030352e6a736f6e00000000000000",
          "blockHash": "0x1374fa0210b5d7bd9fa2bea807a99665348ac248571c835437b43c3d848aa755",
          "blockNumber": "0x2d3056d",
          "transactionHash": "0x1d8fb4116c4fd0b34c0d66bef7a64e032634357b44020050eaaac5f9fae02ad5",
          "transactionIndex": "0xe",
          "logIndex": "0x28",
          "removed": false
        }
      ],
      "logsBloom": "0x00000000000000000000000000000000000000000000000000000000000000000000000000000000000000000000000000000000000000000000000000000000000000000000000000000000000000004240000000000000000000000000000000000010000000000000000000000000000000000000000000000000000000000000000000000000000000000000000000000000000000000000000000000000000000200000000000000000000000000000000000000000000000000000000000100000000000000000000000000000000000000000000220000000000000000000000000000000000200000000000000000000000000000000000000000000",
      "type": "0x0",
      "transactionHash": "0x1d8fb4116c4fd0b34c0d66bef7a64e032634357b44020050eaaac5f9fae02ad5",
      "transactionIndex": "0xe",
      "blockHash": "0x1374fa0210b5d7bd9fa2bea807a99665348ac248571c835437b43c3d848aa755",
      "blockNumber": "0x2d3056d",
      "gasUsed": "0xe10c",
      "effectiveGasPrice": "0x5d22cfc40",
      "from": "0x8835669696fb92839ab198cd80ce9f0d35f45ad5",
      "to": "0xd47c56513e640e394024facbbe5032cf604bb699",
      "contractAddress": null,
      "l1BaseFeeScalar": "0x0",
      "l1BlobBaseFee": "0x1",
      "l1BlobBaseFeeScalar": "0x0",
      "l1Fee": "0x0",
      "l1GasPrice": "0x6f25c49",
      "l1GasUsed": "0x8f1"
    }
  ],
  "libraries": [],
  "pending": [],
  "returns": {
    "0": {
      "internal_type": "address",
      "value": "0x0000000000000000000000000000000000000000"
    }
  },
  "timestamp": 1759284677,
  "chain": 42220,
  "commit": "ba283e1"
}