{
  "transactions": [
    {
      "hash": "0x765ce52bbc118320e8d3a3b2d43d6359bceed16f038b1d0e5372a689634e5924",
      "transactionType": "CALL",
      "contractName": null,
      "contractAddress": "0xd47c56513e640e394024facbbe5032cf604bb699",
      "function": "updateBadgeMetadata(uint256,string)",
      "arguments": [
        "16",
        "ipfs/Qmf7ew7KeZ935LCuLRQV5xASgjBr3DHXS9psCCzotqPEKe/00000000000000000000000000000000000000000000000000000000000000160000000000000000000000000000000000000000000000000000000000000000.json"
      ],
      "transaction": {
        "from": "0x8835669696fb92839ab198cd80ce9f0d35f45ad5",
        "to": "0xd47c56513e640e394024facbbe5032cf604bb699",
        "gas": "0x14394",
        "value": "0x0",
        "input": "0x47461b400000000000000000000000000000000000000000000000000000000000000010000000000000000000000000000000000000000000000000000000000000004000000000000000000000000000000000000000000000000000000000000000b9697066732f516d66376577374b655a3933354c43754c52515635784153676a4272334448585339707343437a6f747150454b652f30303030303030303030303030303030303030303030303030303030303030303030303030303030303030303030303030303030303030303030303030303136303030303030303030303030303030303030303030303030303030303030303030303030303030303030303030303030303030303030303030303030303030302e6a736f6e00000000000000",
        "nonce": "0xff9",
        "chainId": "0xa4ec"
      },
      "additionalContracts": [],
      "isFixedGasLimit": false
    },
    {
      "hash": "0xf335c39f5517a06c657f91b6c498de4858bddb9b5e00698d55c4d4e15b4cced4",
      "transactionType": "CALL",
      "contractName": null,
      "contractAddress": "0xd47c56513e640e394024facbbe5032cf604bb699",
      "function": "updateBadgeMetadata(uint256,string)",
      "arguments": [
        "17",
        "ipfs/Qmf7ew7KeZ935LCuLRQV5xASgjBr3DHXS9psCCzotqPEKe/00000000000000000000000000000000000000000000000000000000000000170000000000000000000000000000000000000000000000000000000000000000.json"
      ],
      "transaction": {
        "from": "0x8835669696fb92839ab198cd80ce9f0d35f45ad5",
        "to": "0xd47c56513e640e394024facbbe5032cf604bb699",
        "gas": "0x14394",
        "value": "0x0",
        "input": "0x47461b400000000000000000000000000000000000000000000000000000000000000011000000000000000000000000000000000000000000000000000000000000004000000000000000000000000000000000000000000000000000000000000000b9697066732f516d66376577374b655a3933354c43754c52515635784153676a4272334448585339707343437a6f747150454b652f30303030303030303030303030303030303030303030303030303030303030303030303030303030303030303030303030303030303030303030303030303137303030303030303030303030303030303030303030303030303030303030303030303030303030303030303030303030303030303030303030303030303030302e6a736f6e00000000000000",
        "nonce": "0xffa",
        "chainId": "0xa4ec"
      },
      "additionalContracts": [],
      "isFixedGasLimit": false
    },
    {
      "hash": "0xf1b12489cbf6ad03e4cc2693d47b0762d39d3d2909d6700a6e272ddaa6d6cdc7",
      "transactionType": "CALL",
      "contractName": null,
      "contractAddress": "0xd47c56513e640e394024facbbe5032cf604bb699",
      "function": "updateBadgeMetadata(uint256,string)",
      "arguments": [
        "19",
        "ipfs/Qmf7ew7KeZ935LCuLRQV5xASgjBr3DHXS9psCCzotqPEKe/00000000000000000000000000000000000000000000000000000000000000190000000000000000000000000000000000000000000000000000000000000000.json"
      ],
      "transaction": {
        "from": "0x8835669696fb92839ab198cd80ce9f0d35f45ad5",
        "to": "0xd47c56513e640e394024facbbe5032cf604bb699",
        "gas": "0x14394",
        "value": "0x0",
        "input": "0x47461b400000000000000000000000000000000000000000000000000000000000000013000000000000000000000000000000000000000000000000000000000000004000000000000000000000000000000000000000000000000000000000000000b9697066732f516d66376577374b655a3933354c43754c52515635784153676a4272334448585339707343437a6f747150454b652f30303030303030303030303030303030303030303030303030303030303030303030303030303030303030303030303030303030303030303030303030303139303030303030303030303030303030303030303030303030303030303030303030303030303030303030303030303030303030303030303030303030303030302e6a736f6e00000000000000",
        "nonce": "0xffb",
        "chainId": "0xa4ec"
      },
      "additionalContracts": [],
      "isFixedGasLimit": false
    },
    {
      "hash": "0xd783377a9e0211682895a28b2e3eecef8ddd85fd0cdd40084c1f11a442a792cd",
      "transactionType": "CALL",
      "contractName": null,
      "contractAddress": "0xd47c56513e640e394024facbbe5032cf604bb699",
      "function": "setBadgeMetadata(uint256,string)",
      "arguments": [
        "24",
        "ipfs/Qmf7ew7KeZ935LCuLRQV5xASgjBr3DHXS9psCCzotqPEKe/00000000000000000000000000000000000000000000000000000000000000240000000000000000000000000000000000000000000000000000000000000000.json"
      ],
      "transaction": {
        "from": "0x8835669696fb92839ab198cd80ce9f0d35f45ad5",
        "to": "0xd47c56513e640e394024facbbe5032cf604bb699",
        "gas": "0x4119d",
        "value": "0x0",
        "input": "0xce64b45f0000000000000000000000000000000000000000000000000000000000000018000000000000000000000000000000000000000000000000000000000000004000000000000000000000000000000000000000000000000000000000000000b9697066732f516d66376577374b655a3933354c43754c52515635784153676a4272334448585339707343437a6f747150454b652f30303030303030303030303030303030303030303030303030303030303030303030303030303030303030303030303030303030303030303030303030303234303030303030303030303030303030303030303030303030303030303030303030303030303030303030303030303030303030303030303030303030303030302e6a736f6e00000000000000",
        "nonce": "0xffc",
        "chainId": "0xa4ec"
      },
      "additionalContracts": [],
      "isFixedGasLimit": false
    },
    {
      "hash": "0xb89778fd5a6f5d67ef696309f9170dad60d06f13d849db02873095b53aaa708c",
      "transactionType": "CALL",
      "contractName": null,
      "contractAddress": "0xd47c56513e640e394024facbbe5032cf604bb699",
      "function": "updateBadgeTierMetadata(uint256,uint256,string)",
      "arguments": [
        "16",
        "1",
        "ipfs/Qmf7ew7KeZ935LCuLRQV5xASgjBr3DHXS9psCCzotqPEKe/00000000000000000000000000000000000000000000000000000000000000160000000000000000000000000000000000000000000000000000000000000001.json"
      ],
      "transaction": {
        "from": "0x8835669696fb92839ab198cd80ce9f0d35f45ad5",
        "to": "0xd47c56513e640e394024facbbe5032cf604bb699",
        "gas": "0x1550e",
        "value": "0x0",
        "input": "0xc43e4f4c00000000000000000000000000000000000000000000000000000000000000100000000000000000000000000000000000000000000000000000000000000001000000000000000000000000000000000000000000000000000000000000006000000000000000000000000000000000000000000000000000000000000000b9697066732f516d66376577374b655a3933354c43754c52515635784153676a4272334448585339707343437a6f747150454b652f30303030303030303030303030303030303030303030303030303030303030303030303030303030303030303030303030303030303030303030303030303136303030303030303030303030303030303030303030303030303030303030303030303030303030303030303030303030303030303030303030303030303030312e6a736f6e00000000000000",
        "nonce": "0xffd",
        "chainId": "0xa4ec"
      },
      "additionalContracts": [],
      "isFixedGasLimit": false
    },
    {
      "hash": "0x44f7bc4f92731b18e340ebe88495b67429e306519663a200f81f41ab32af7b85",
      "transactionType": "CALL",
      "contractName": null,
      "contractAddress": "0xd47c56513e640e394024facbbe5032cf604bb699",
      "function": "updateBadgeTierMetadata(uint256,uint256,string)",
      "arguments": [
        "17",
        "1",
        "ipfs/Qmf7ew7KeZ935LCuLRQV5xASgjBr3DHXS9psCCzotqPEKe/00000000000000000000000000000000000000000000000000000000000000170000000000000000000000000000000000000000000000000000000000000001.json"
      ],
      "transaction": {
        "from": "0x8835669696fb92839ab198cd80ce9f0d35f45ad5",
        "to": "0xd47c56513e640e394024facbbe5032cf604bb699",
        "gas": "0x1550e",
        "value": "0x0",
        "input": "0xc43e4f4c00000000000000000000000000000000000000000000000000000000000000110000000000000000000000000000000000000000000000000000000000000001000000000000000000000000000000000000000000000000000000000000006000000000000000000000000000000000000000000000000000000000000000b9697066732f516d66376577374b655a3933354c43754c52515635784153676a4272334448585339707343437a6f747150454b652f30303030303030303030303030303030303030303030303030303030303030303030303030303030303030303030303030303030303030303030303030303137303030303030303030303030303030303030303030303030303030303030303030303030303030303030303030303030303030303030303030303030303030312e6a736f6e00000000000000",
        "nonce": "0xffe",
        "chainId": "0xa4ec"
      },
      "additionalContracts": [],
      "isFixedGasLimit": false
    },
    {
      "hash": "0x5c5e8f434b61e4ea4299d5fad556bd5b094ea4cb696766ecc4621f247bf71cb9",
      "transactionType": "CALL",
      "contractName": null,
      "contractAddress": "0xd47c56513e640e394024facbbe5032cf604bb699",
      "function": "updateBadgeTierMetadata(uint256,uint256,string)",
      "arguments": [
        "19",
        "1",
        "ipfs/Qmf7ew7KeZ935LCuLRQV5xASgjBr3DHXS9psCCzotqPEKe/00000000000000000000000000000000000000000000000000000000000000190000000000000000000000000000000000000000000000000000000000000001.json"
      ],
      "transaction": {
        "from": "0x8835669696fb92839ab198cd80ce9f0d35f45ad5",
        "to": "0xd47c56513e640e394024facbbe5032cf604bb699",
        "gas": "0x1550e",
        "value": "0x0",
        "input": "0xc43e4f4c00000000000000000000000000000000000000000000000000000000000000130000000000000000000000000000000000000000000000000000000000000001000000000000000000000000000000000000000000000000000000000000006000000000000000000000000000000000000000000000000000000000000000b9697066732f516d66376577374b655a3933354c43754c52515635784153676a4272334448585339707343437a6f747150454b652f30303030303030303030303030303030303030303030303030303030303030303030303030303030303030303030303030303030303030303030303030303139303030303030303030303030303030303030303030303030303030303030303030303030303030303030303030303030303030303030303030303030303030312e6a736f6e00000000000000",
        "nonce": "0xfff",
        "chainId": "0xa4ec"
      },
      "additionalContracts": [],
      "isFixedGasLimit": false
    },
    {
      "hash": "0xc980d3c455773af4decee8c10086592db8de61a73760da17b4e909a87c40b81a",
      "transactionType": "CALL",
      "contractName": null,
      "contractAddress": "0xd47c56513e640e394024facbbe5032cf604bb699",
      "function": "updateBadgeTierMetadata(uint256,uint256,string)",
      "arguments": [
        "19",
        "2",
        "ipfs/Qmf7ew7KeZ935LCuLRQV5xASgjBr3DHXS9psCCzotqPEKe/00000000000000000000000000000000000000000000000000000000000000190000000000000000000000000000000000000000000000000000000000000002.json"
      ],
      "transaction": {
        "from": "0x8835669696fb92839ab198cd80ce9f0d35f45ad5",
        "to": "0xd47c56513e640e394024facbbe5032cf604bb699",
        "gas": "0x1550e",
        "value": "0x0",
        "input": "0xc43e4f4c00000000000000000000000000000000000000000000000000000000000000130000000000000000000000000000000000000000000000000000000000000002000000000000000000000000000000000000000000000000000000000000006000000000000000000000000000000000000000000000000000000000000000b9697066732f516d66376577374b655a3933354c43754c52515635784153676a4272334448585339707343437a6f747150454b652f30303030303030303030303030303030303030303030303030303030303030303030303030303030303030303030303030303030303030303030303030303139303030303030303030303030303030303030303030303030303030303030303030303030303030303030303030303030303030303030303030303030303030322e6a736f6e00000000000000",
        "nonce": "0x1000",
        "chainId": "0xa4ec"
      },
      "additionalContracts": [],
      "isFixedGasLimit": false
    },
    {
      "hash": "0x449369004ef271b0b5b0bdce4c28242d13a03ffd6ecb75a75b0848182d617dd4",
      "transactionType": "CALL",
      "contractName": null,
      "contractAddress": "0xd47c56513e640e394024facbbe5032cf604bb699",
      "function": "updateBadgeTierMetadata(uint256,uint256,string)",
      "arguments": [
        "19",
        "3",
        "ipfs/Qmf7ew7KeZ935LCuLRQV5xASgjBr3DHXS9psCCzotqPEKe/00000000000000000000000000000000000000000000000000000000000000190000000000000000000000000000000000000000000000000000000000000003.json"
      ],
      "transaction": {
        "from": "0x8835669696fb92839ab198cd80ce9f0d35f45ad5",
        "to": "0xd47c56513e640e394024facbbe5032cf604bb699",
        "gas": "0x1550e",
        "value": "0x0",
        "input": "0xc43e4f4c00000000000000000000000000000000000000000000000000000000000000130000000000000000000000000000000000000000000000000000000000000003000000000000000000000000000000000000000000000000000000000000006000000000000000000000000000000000000000000000000000000000000000b9697066732f516d66376577374b655a3933354c43754c52515635784153676a4272334448585339707343437a6f747150454b652f30303030303030303030303030303030303030303030303030303030303030303030303030303030303030303030303030303030303030303030303030303139303030303030303030303030303030303030303030303030303030303030303030303030303030303030303030303030303030303030303030303030303030332e6a736f6e00000000000000",
        "nonce": "0x1001",
        "chainId": "0xa4ec"
      },
      "additionalContracts": [],
      "isFixedGasLimit": false
    },
    {
      "hash": "0xace4d5d28cdfc23883db5dea6475c841764a9252d81cca22e21af19e7e81e039",
      "transactionType": "CALL",
      "contractName": null,
      "contractAddress": "0xd47c56513e640e394024facbbe5032cf604bb699",
      "function": "updateBadgeTierMetadata(uint256,uint256,string)",
      "arguments": [
        "19",
        "4",
        "ipfs/Qmf7ew7KeZ935LCuLRQV5xASgjBr3DHXS9psCCzotqPEKe/00000000000000000000000000000000000000000000000000000000000000190000000000000000000000000000000000000000000000000000000000000004.json"
      ],
      "transaction": {
        "from": "0x8835669696fb92839ab198cd80ce9f0d35f45ad5",
        "to": "0xd47c56513e640e394024facbbe5032cf604bb699",
        "gas": "0x1550e",
        "value": "0x0",
        "input": "0xc43e4f4c00000000000000000000000000000000000000000000000000000000000000130000000000000000000000000000000000000000000000000000000000000004000000000000000000000000000000000000000000000000000000000000006000000000000000000000000000000000000000000000000000000000000000b9697066732f516d66376577374b655a3933354c43754c52515635784153676a4272334448585339707343437a6f747150454b652f30303030303030303030303030303030303030303030303030303030303030303030303030303030303030303030303030303030303030303030303030303139303030303030303030303030303030303030303030303030303030303030303030303030303030303030303030303030303030303030303030303030303030342e6a736f6e00000000000000",
        "nonce": "0x1002",
        "chainId": "0xa4ec"
      },
      "additionalContracts": [],
      "isFixedGasLimit": false
    },
    {
      "hash": "0x834838997bee0f8422ee66f7bf18c9d14f67cdb330733c972fcd8e3d30d79c0f",
      "transactionType": "CALL",
      "contractName": null,
      "contractAddress": "0xd47c56513e640e394024facbbe5032cf604bb699",
      "function": "updateBadgeTierMetadata(uint256,uint256,string)",
      "arguments": [
        "19",
        "5",
        "ipfs/Qmf7ew7KeZ935LCuLRQV5xASgjBr3DHXS9psCCzotqPEKe/00000000000000000000000000000000000000000000000000000000000000190000000000000000000000000000000000000000000000000000000000000005.json"
      ],
      "transaction": {
        "from": "0x8835669696fb92839ab198cd80ce9f0d35f45ad5",
        "to": "0xd47c56513e640e394024facbbe5032cf604bb699",
        "gas": "0x1550e",
        "value": "0x0",
        "input": "0xc43e4f4c00000000000000000000000000000000000000000000000000000000000000130000000000000000000000000000000000000000000000000000000000000005000000000000000000000000000000000000000000000000000000000000006000000000000000000000000000000000000000000000000000000000000000b9697066732f516d66376577374b655a3933354c43754c52515635784153676a4272334448585339707343437a6f747150454b652f30303030303030303030303030303030303030303030303030303030303030303030303030303030303030303030303030303030303030303030303030303139303030303030303030303030303030303030303030303030303030303030303030303030303030303030303030303030303030303030303030303030303030352e6a736f6e00000000000000",
        "nonce": "0x1003",
        "chainId": "0xa4ec"
      },
      "additionalContracts": [],
      "isFixedGasLimit": false
    },
    {
      "hash": "0xf5925ea72c4bc02d5c9b202052fcc1386abc033ed8b8449c6af323215da00104",
      "transactionType": "CALL",
      "contractName": null,
      "contractAddress": "0xd47c56513e640e394024facbbe5032cf604bb699",
      "function": "setBadgeTier(uint256,uint256,string,uint256)",
      "arguments": [
        "24",
        "1",
        "ipfs/Qmf7ew7KeZ935LCuLRQV5xASgjBr3DHXS9psCCzotqPEKe/00000000000000000000000000000000000000000000000000000000000000240000000000000000000000000000000000000000000000000000000000000001.json",
        "10"
      ],
      "transaction": {
        "from": "0x8835669696fb92839ab198cd80ce9f0d35f45ad5",
        "to": "0xd47c56513e640e394024facbbe5032cf604bb699",
        "gas": "0x5178a",
        "value": "0x0",
        "input": "0xcf132d1c000000000000000000000000000000000000000000000000000000000000001800000000000000000000000000000000000000000000000000000000000000010000000000000000000000000000000000000000000000000000000000000080000000000000000000000000000000000000000000000000000000000000000a00000000000000000000000000000000000000000000000000000000000000b9697066732f516d66376577374b655a3933354c43754c52515635784153676a4272334448585339707343437a6f747150454b652f30303030303030303030303030303030303030303030303030303030303030303030303030303030303030303030303030303030303030303030303030303234303030303030303030303030303030303030303030303030303030303030303030303030303030303030303030303030303030303030303030303030303030312e6a736f6e00000000000000",
        "nonce": "0x1004",
        "chainId": "0xa4ec"
      },
      "additionalContracts": [],
      "isFixedGasLimit": false
    },
    {
      "hash": "0xf33e930129df3e430179a926c8bd7c5482349be6e4d35bcea57fb1b5c623f1b1",
      "transactionType": "CALL",
      "contractName": null,
      "contractAddress": "0xd47c56513e640e394024facbbe5032cf604bb699",
      "function": "setBadgeTier(uint256,uint256,string,uint256)",
      "arguments": [
        "24",
        "2",
        "ipfs/Qmf7ew7KeZ935LCuLRQV5xASgjBr3DHXS9psCCzotqPEKe/00000000000000000000000000000000000000000000000000000000000000240000000000000000000000000000000000000000000000000000000000000002.json",
        "20"
      ],
      "transaction": {
        "from": "0x8835669696fb92839ab198cd80ce9f0d35f45ad5",
        "to": "0xd47c56513e640e394024facbbe5032cf604bb699",
        "gas": "0x4c8af",
        "value": "0x0",
        "input": "0xcf132d1c000000000000000000000000000000000000000000000000000000000000001800000000000000000000000000000000000000000000000000000000000000020000000000000000000000000000000000000000000000000000000000000080000000000000000000000000000000000000000000000000000000000000001400000000000000000000000000000000000000000000000000000000000000b9697066732f516d66376577374b655a3933354c43754c52515635784153676a4272334448585339707343437a6f747150454b652f30303030303030303030303030303030303030303030303030303030303030303030303030303030303030303030303030303030303030303030303030303234303030303030303030303030303030303030303030303030303030303030303030303030303030303030303030303030303030303030303030303030303030322e6a736f6e00000000000000",
        "nonce": "0x1005",
        "chainId": "0xa4ec"
      },
      "additionalContracts": [],
      "isFixedGasLimit": false
    },
    {
      "hash": "0x1844898be6981899d384197af4cef0827a14fe80905bb87640c0692d4365f469",
      "transactionType": "CALL",
      "contractName": null,
      "contractAddress": "0xd47c56513e640e394024facbbe5032cf604bb699",
      "function": "setBadgeTier(uint256,uint256,string,uint256)",
      "arguments": [
        "24",
        "3",
        "ipfs/Qmf7ew7KeZ935LCuLRQV5xASgjBr3DHXS9psCCzotqPEKe/00000000000000000000000000000000000000000000000000000000000000240000000000000000000000000000000000000000000000000000000000000003.json",
        "30"
      ],
      "transaction": {
        "from": "0x8835669696fb92839ab198cd80ce9f0d35f45ad5",
        "to": "0xd47c56513e640e394024facbbe5032cf604bb699",
        "gas": "0x4c8af",
        "value": "0x0",
        "input": "0xcf132d1c000000000000000000000000000000000000000000000000000000000000001800000000000000000000000000000000000000000000000000000000000000030000000000000000000000000000000000000000000000000000000000000080000000000000000000000000000000000000000000000000000000000000001e00000000000000000000000000000000000000000000000000000000000000b9697066732f516d66376577374b655a3933354c43754c52515635784153676a4272334448585339707343437a6f747150454b652f30303030303030303030303030303030303030303030303030303030303030303030303030303030303030303030303030303030303030303030303030303234303030303030303030303030303030303030303030303030303030303030303030303030303030303030303030303030303030303030303030303030303030332e6a736f6e00000000000000",
        "nonce": "0x1006",
        "chainId": "0xa4ec"
      },
      "additionalContracts": [],
      "isFixedGasLimit": false
    },
    {
      "hash": "0xa37f7087d5e5c3bbcd9d8b0b71492ce34cedc4bcd13f8d777c5e8316a9d8663c",
      "transactionType": "CALL",
      "contractName": null,
      "contractAddress": "0xd47c56513e640e394024facbbe5032cf604bb699",
      "function": "setBadgeTier(uint256,uint256,string,uint256)",
      "arguments": [
        "24",
        "4",
        "ipfs/Qmf7ew7KeZ935LCuLRQV5xASgjBr3DHXS9psCCzotqPEKe/00000000000000000000000000000000000000000000000000000000000000240000000000000000000000000000000000000000000000000000000000000004.json",
        "40"
      ],
      "transaction": {
        "from": "0x8835669696fb92839ab198cd80ce9f0d35f45ad5",
        "to": "0xd47c56513e640e394024facbbe5032cf604bb699",
        "gas": "0x4c8af",
        "value": "0x0",
        "input": "0xcf132d1c000000000000000000000000000000000000000000000000000000000000001800000000000000000000000000000000000000000000000000000000000000040000000000000000000000000000000000000000000000000000000000000080000000000000000000000000000000000000000000000000000000000000002800000000000000000000000000000000000000000000000000000000000000b9697066732f516d66376577374b655a3933354c43754c52515635784153676a4272334448585339707343437a6f747150454b652f30303030303030303030303030303030303030303030303030303030303030303030303030303030303030303030303030303030303030303030303030303234303030303030303030303030303030303030303030303030303030303030303030303030303030303030303030303030303030303030303030303030303030342e6a736f6e00000000000000",
        "nonce": "0x1007",
        "chainId": "0xa4ec"
      },
      "additionalContracts": [],
      "isFixedGasLimit": false
    },
    {
      "hash": "0x306729c0126f16514946b69a7caf9f0593033d2d9f469a1f17cfb74e801e28fd",
      "transactionType": "CALL",
      "contractName": null,
      "contractAddress": "0xd47c56513e640e394024facbbe5032cf604bb699",
      "function": "setBadgeTier(uint256,uint256,string,uint256)",
      "arguments": [
        "24",
        "5",
        "ipfs/Qmf7ew7KeZ935LCuLRQV5xASgjBr3DHXS9psCCzotqPEKe/00000000000000000000000000000000000000000000000000000000000000240000000000000000000000000000000000000000000000000000000000000005.json",
        "50"
      ],
      "transaction": {
        "from": "0x8835669696fb92839ab198cd80ce9f0d35f45ad5",
        "to": "0xd47c56513e640e394024facbbe5032cf604bb699",
        "gas": "0x4c8af",
        "value": "0x0",
        "input": "0xcf132d1c000000000000000000000000000000000000000000000000000000000000001800000000000000000000000000000000000000000000000000000000000000050000000000000000000000000000000000000000000000000000000000000080000000000000000000000000000000000000000000000000000000000000003200000000000000000000000000000000000000000000000000000000000000b9697066732f516d66376577374b655a3933354c43754c52515635784153676a4272334448585339707343437a6f747150454b652f30303030303030303030303030303030303030303030303030303030303030303030303030303030303030303030303030303030303030303030303030303234303030303030303030303030303030303030303030303030303030303030303030303030303030303030303030303030303030303030303030303030303030352e6a736f6e00000000000000",
        "nonce": "0x1008",
        "chainId": "0xa4ec"
      },
      "additionalContracts": [],
      "isFixedGasLimit": false
    }
  ],
  "receipts": [
    {
      "status": "0x1",
      "cumulativeGasUsed": "0x5d7b8",
      "logs": [
        {
          "address": "0xd47c56513e640e394024facbbe5032cf604bb699",
          "topics": [
            "0xb810609e93b7325976c078b96d9c92d3160d0d165073b8c9a8a6a4d257fd0477",
            "0x0000000000000000000000000000000000000000000000000000000000000010"
          ],
          "data": "0x000000000000000000000000000000000000000000000000000000000000002000000000000000000000000000000000000000000000000000000000000000b9697066732f516d66376577374b655a3933354c43754c52515635784153676a4272334448585339707343437a6f747150454b652f30303030303030303030303030303030303030303030303030303030303030303030303030303030303030303030303030303030303030303030303030303136303030303030303030303030303030303030303030303030303030303030303030303030303030303030303030303030303030303030303030303030303030302e6a736f6e00000000000000",
          "blockHash": "0x5e4b831fd47fbfc21bfc58a7ebe63d7cad289e4b831dda16a64d054fac3920e7",
          "blockNumber": "0x2a4ab63",
          "transactionHash": "0x765ce52bbc118320e8d3a3b2d43d6359bceed16f038b1d0e5372a689634e5924",
          "transactionIndex": "0x3",
          "logIndex": "0x7",
          "removed": false
        }
      ],
      "logsBloom": "0x00000000100000000000000000000000000000000000000000000000000000040000000000000000000000000000000000000000000000000000000000000000000000000000000000000000000000004200000000000000000000400000000000000000000000000000000000000000000000000000000000000000040000000000000000000000000000000000000000000100000000000000000000000000000000000000000000000000000000000000000000000000000000000000000000000000000000000000000000000000000000000000000000000020000000000000000000000000000200000000000000000000000000000000000000000000",
      "type": "0x0",
      "transactionHash": "0x765ce52bbc118320e8d3a3b2d43d6359bceed16f038b1d0e5372a689634e5924",
      "transactionIndex": "0x3",
      "blockHash": "0x5e4b831fd47fbfc21bfc58a7ebe63d7cad289e4b831dda16a64d054fac3920e7",
      "blockNumber": "0x2a4ab63",
      "gasUsed": "0xea44",
      "effectiveGasPrice": "0x5d22cfc40",
      "from": "0x8835669696fb92839ab198cd80ce9f0d35f45ad5",
      "to": "0xd47c56513e640e394024facbbe5032cf604bb699",
      "contractAddress": null,
      "l1BaseFeeScalar": "0x0",
      "l1BlobBaseFee": "0x1",
      "l1BlobBaseFeeScalar": "0x0",
      "l1Fee": "0x0",
      "l1GasPrice": "0x161d8b3f",
      "l1GasUsed": "0x85e"
    },
    {
      "status": "0x1",
      "cumulativeGasUsed": "0x7add7",
      "logs": [
        {
          "address": "0xd47c56513e640e394024facbbe5032cf604bb699",
          "topics": [
            "0xb810609e93b7325976c078b96d9c92d3160d0d165073b8c9a8a6a4d257fd0477",
            "0x0000000000000000000000000000000000000000000000000000000000000011"
          ],
          "data": "0x000000000000000000000000000000000000000000000000000000000000002000000000000000000000000000000000000000000000000000000000000000b9697066732f516d66376577374b655a3933354c43754c52515635784153676a4272334448585339707343437a6f747150454b652f30303030303030303030303030303030303030303030303030303030303030303030303030303030303030303030303030303030303030303030303030303137303030303030303030303030303030303030303030303030303030303030303030303030303030303030303030303030303030303030303030303030303030302e6a736f6e00000000000000",
          "blockHash": "0x5e4b831fd47fbfc21bfc58a7ebe63d7cad289e4b831dda16a64d054fac3920e7",
          "blockNumber": "0x2a4ab63",
          "transactionHash": "0xf335c39f5517a06c657f91b6c498de4858bddb9b5e00698d55c4d4e15b4cced4",
          "transactionIndex": "0x5",
          "logIndex": "0xa",
          "removed": false
        }
      ],
      "logsBloom": "0x00000000000000000000000000000000000000000000000000000000000000040000000000000000000000000000000000000000000000000000000000000000000000000000000000000000000000004200000000000000000000400000000000000000000000000000000000000000000000004000000000000000000000000000000000000000000000000000000000000000000000000000000000000000000000000000000000000000000000000000000000000000000000000400000000001000000000000000000000000000000000000000000000000020000000000000000000000000000200000000000000000000000000000000000000000000",
      "type": "0x0",
      "transactionHash": "0xf335c39f5517a06c657f91b6c498de4858bddb9b5e00698d55c4d4e15b4cced4",
      "transactionIndex": "0x5",
      "blockHash": "0x5e4b831fd47fbfc21bfc58a7ebe63d7cad289e4b831dda16a64d054fac3920e7",
      "blockNumber": "0x2a4ab63",
      "gasUsed": "0xea44",
      "effectiveGasPrice": "0x5d22cfc40",
      "from": "0x8835669696fb92839ab198cd80ce9f0d35f45ad5",
      "to": "0xd47c56513e640e394024facbbe5032cf604bb699",
      "contractAddress": null,
      "l1BaseFeeScalar": "0x0",
      "l1BlobBaseFee": "0x1",
      "l1BlobBaseFeeScalar": "0x0",
      "l1Fee": "0x0",
      "l1GasPrice": "0x161d8b3f",
      "l1GasUsed": "0x85e"
    },
    {
      "status": "0x1",
      "cumulativeGasUsed": "0x8981b",
      "logs": [
        {
          "address": "0xd47c56513e640e394024facbbe5032cf604bb699",
          "topics": [
            "0xb810609e93b7325976c078b96d9c92d3160d0d165073b8c9a8a6a4d257fd0477",
            "0x0000000000000000000000000000000000000000000000000000000000000013"
          ],
          "data": "0x000000000000000000000000000000000000000000000000000000000000002000000000000000000000000000000000000000000000000000000000000000b9697066732f516d66376577374b655a3933354c43754c52515635784153676a4272334448585339707343437a6f747150454b652f30303030303030303030303030303030303030303030303030303030303030303030303030303030303030303030303030303030303030303030303030303139303030303030303030303030303030303030303030303030303030303030303030303030303030303030303030303030303030303030303030303030303030302e6a736f6e00000000000000",
          "blockHash": "0x5e4b831fd47fbfc21bfc58a7ebe63d7cad289e4b831dda16a64d054fac3920e7",
          "blockNumber": "0x2a4ab63",
          "transactionHash": "0xf1b12489cbf6ad03e4cc2693d47b0762d39d3d2909d6700a6e272ddaa6d6cdc7",
          "transactionIndex": "0x6",
          "logIndex": "0xb",
          "removed": false
        }
      ],
      "logsBloom": "0x20000000000000000000000000800000000000000000000000000000000000040000000040000000000000000000000000000000000000000000000000000000000000000000000000000000000000004200000000000000000000400000000000000000000000000000000000000000000000000000000000000000000000000000000000000000000000000000000000000000000000000000000000000000000000000000000000000000000000000000000000000000000000000000000000000000000000000000000000000000000000000000000000000020000000000000000000000000000200000000000000000000000000000000000000000000",
      "type": "0x0",
      "transactionHash": "0xf1b12489cbf6ad03e4cc2693d47b0762d39d3d2909d6700a6e272ddaa6d6cdc7",
      "transactionIndex": "0x6",
      "blockHash": "0x5e4b831fd47fbfc21bfc58a7ebe63d7cad289e4b831dda16a64d054fac3920e7",
      "blockNumber": "0x2a4ab63",
      "gasUsed": "0xea44",
      "effectiveGasPrice": "0x5d22cfc40",
      "from": "0x8835669696fb92839ab198cd80ce9f0d35f45ad5",
      "to": "0xd47c56513e640e394024facbbe5032cf604bb699",
      "contractAddress": null,
      "l1BaseFeeScalar": "0x0",
      "l1BlobBaseFee": "0x1",
      "l1BlobBaseFeeScalar": "0x0",
      "l1Fee": "0x0",
      "l1GasPrice": "0x161d8b3f",
      "l1GasUsed": "0x85e"
    },
    {
      "status": "0x1",
      "cumulativeGasUsed": "0xb8a38",
      "logs": [
        {
          "address": "0xd47c56513e640e394024facbbe5032cf604bb699",
          "topics": [
            "0x2e5977e12fac9a91696e22ba811f2893e11ad62f8aa53e99a628b031d18a379f",
            "0x0000000000000000000000000000000000000000000000000000000000000018"
          ],
          "data": "0x000000000000000000000000000000000000000000000000000000000000002000000000000000000000000000000000000000000000000000000000000000b9697066732f516d66376577374b655a3933354c43754c52515635784153676a4272334448585339707343437a6f747150454b652f30303030303030303030303030303030303030303030303030303030303030303030303030303030303030303030303030303030303030303030303030303234303030303030303030303030303030303030303030303030303030303030303030303030303030303030303030303030303030303030303030303030303030302e6a736f6e00000000000000",
          "blockHash": "0x5e4b831fd47fbfc21bfc58a7ebe63d7cad289e4b831dda16a64d054fac3920e7",
          "blockNumber": "0x2a4ab63",
          "transactionHash": "0xd783377a9e0211682895a28b2e3eecef8ddd85fd0cdd40084c1f11a442a792cd",
          "transactionIndex": "0x7",
          "logIndex": "0xc",
          "removed": false
        }
      ],
      "logsBloom": "0x00000000000000000000000000000000000000000000000000000000000000000000000000000000000000000000000000000000000000000000000000000000000000000000000000000000000000004240000000000000000000000000000000000000000000000000000000000000000000000000000000000000000004000000000000000000000000000000000000000000000000000000000000000000000000000000000000000000000000000000000000000100000000000000000000100000000000000000000000000000000000000000000020000000400000000000000000000000000200000000000000000000000000000000000000000000",
      "type": "0x0",
      "transactionHash": "0xd783377a9e0211682895a28b2e3eecef8ddd85fd0cdd40084c1f11a442a792cd",
      "transactionIndex": "0x7",
      "blockHash": "0x5e4b831fd47fbfc21bfc58a7ebe63d7cad289e4b831dda16a64d054fac3920e7",
      "blockNumber": "0x2a4ab63",
      "gasUsed": "0x2f21d",
      "effectiveGasPrice": "0x5d22cfc40",
      "from": "0x8835669696fb92839ab198cd80ce9f0d35f45ad5",
      "to": "0xd47c56513e640e394024facbbe5032cf604bb699",
      "contractAddress": null,
      "l1BaseFeeScalar": "0x0",
      "l1BlobBaseFee": "0x1",
      "l1BlobBaseFeeScalar": "0x0",
      "l1Fee": "0x0",
      "l1GasPrice": "0x161d8b3f",
      "l1GasUsed": "0x86c"
    },
    {
      "status": "0x1",
      "cumulativeGasUsed": "0xc2960",
      "logs": [
        {
          "address": "0xd47c56513e640e394024facbbe5032cf604bb699",
          "topics": [
            "0x3e442b5d5a6ecd8c0a86017cabd5ee0efbf32debbee58f9cea68f1b8489e4193",
            "0x0000000000000000000000000000000000000000000000000000000000000010"
          ],
          "data": "0x0000000000000000000000000000000000000000000000000000000000000001000000000000000000000000000000000000000000000000000000000000004000000000000000000000000000000000000000000000000000000000000000b9697066732f516d66376577374b655a3933354c43754c52515635784153676a4272334448585339707343437a6f747150454b652f30303030303030303030303030303030303030303030303030303030303030303030303030303030303030303030303030303030303030303030303030303136303030303030303030303030303030303030303030303030303030303030303030303030303030303030303030303030303030303030303030303030303030312e6a736f6e00000000000000",
          "blockHash": "0x90a80afe38072076df11512d99dda14021c7d08969f18ea2e18bfdb6cb5769bd",
          "blockNumber": "0x2a4ab64",
          "transactionHash": "0xb89778fd5a6f5d67ef696309f9170dad60d06f13d849db02873095b53aaa708c",
          "transactionIndex": "0x6",
          "logIndex": "0x14",
          "removed": false
        }
      ],
      "logsBloom": "0x00000000100000000000000000000000000000000000000000000000000000000000000000000000000000000000000000000000000000000000000000000000000000000000000000000000000000004200000000000000000000000000000000000010000000000000000000000000000000000000000000000000040000000000000000000000000000000000000000000100000000000000000000000000000000200000000000000000000000000000000000000000000000000000000000000000000000000000000000000000000000000000000200000000000000000000000000000000000200000000000000000000000000000000000000000000",
      "type": "0x0",
      "transactionHash": "0xb89778fd5a6f5d67ef696309f9170dad60d06f13d849db02873095b53aaa708c",
      "transactionIndex": "0x6",
      "blockHash": "0x90a80afe38072076df11512d99dda14021c7d08969f18ea2e18bfdb6cb5769bd",
      "blockNumber": "0x2a4ab64",
      "gasUsed": "0xf6ec",
      "effectiveGasPrice": "0x5d22cfc40",
      "from": "0x8835669696fb92839ab198cd80ce9f0d35f45ad5",
      "to": "0xd47c56513e640e394024facbbe5032cf604bb699",
      "contractAddress": null,
      "l1BaseFeeScalar": "0x0",
      "l1BlobBaseFee": "0x1",
      "l1BlobBaseFeeScalar": "0x0",
      "l1Fee": "0x0",
      "l1GasPrice": "0x161d8b3f",
      "l1GasUsed": "0x8e4"
    },
    {
      "status": "0x1",
      "cumulativeGasUsed": "0xd204c",
      "logs": [
        {
          "address": "0xd47c56513e640e394024facbbe5032cf604bb699",
          "topics": [
            "0x3e442b5d5a6ecd8c0a86017cabd5ee0efbf32debbee58f9cea68f1b8489e4193",
            "0x0000000000000000000000000000000000000000000000000000000000000011"
          ],
          "data": "0x0000000000000000000000000000000000000000000000000000000000000001000000000000000000000000000000000000000000000000000000000000004000000000000000000000000000000000000000000000000000000000000000b9697066732f516d66376577374b655a3933354c43754c52515635784153676a4272334448585339707343437a6f747150454b652f30303030303030303030303030303030303030303030303030303030303030303030303030303030303030303030303030303030303030303030303030303137303030303030303030303030303030303030303030303030303030303030303030303030303030303030303030303030303030303030303030303030303030312e6a736f6e00000000000000",
          "blockHash": "0x90a80afe38072076df11512d99dda14021c7d08969f18ea2e18bfdb6cb5769bd",
          "blockNumber": "0x2a4ab64",
          "transactionHash": "0x44f7bc4f92731b18e340ebe88495b67429e306519663a200f81f41ab32af7b85",
          "transactionIndex": "0x7",
          "logIndex": "0x15",
          "removed": false
        }
      ],
      "logsBloom": "0x00000000000000000000000000000000000000000000000000000000000000000000000000000000000000000000000000000000000000000000000000000000000000000000000000000000000000004200000000000000000000000000000000000010000000000000000000000000000000004000000000000000000000000000000000000000000000000000000000000000000000000000000000000000000000200000000000000000000000000000000000000000000000000400000000001000000000000000000000000000000000000000000200000000000000000000000000000000000200000000000000000000000000000000000000000000",
      "type": "0x0",
      "transactionHash": "0x44f7bc4f92731b18e340ebe88495b67429e306519663a200f81f41ab32af7b85",
      "transactionIndex": "0x7",
      "blockHash": "0x90a80afe38072076df11512d99dda14021c7d08969f18ea2e18bfdb6cb5769bd",
      "blockNumber": "0x2a4ab64",
      "gasUsed": "0xf6ec",
      "effectiveGasPrice": "0x5d22cfc40",
      "from": "0x8835669696fb92839ab198cd80ce9f0d35f45ad5",
      "to": "0xd47c56513e640e394024facbbe5032cf604bb699",
      "contractAddress": null,
      "l1BaseFeeScalar": "0x0",
      "l1BlobBaseFee": "0x1",
      "l1BlobBaseFeeScalar": "0x0",
      "l1Fee": "0x0",
      "l1GasPrice": "0x161d8b3f",
      "l1GasUsed": "0x8e4"
    },
    {
      "status": "0x1",
      "cumulativeGasUsed": "0xe1738",
      "logs": [
        {
          "address": "0xd47c56513e640e394024facbbe5032cf604bb699",
          "topics": [
            "0x3e442b5d5a6ecd8c0a86017cabd5ee0efbf32debbee58f9cea68f1b8489e4193",
            "0x0000000000000000000000000000000000000000000000000000000000000013"
          ],
          "data": "0x0000000000000000000000000000000000000000000000000000000000000001000000000000000000000000000000000000000000000000000000000000004000000000000000000000000000000000000000000000000000000000000000b9697066732f516d66376577374b655a3933354c43754c52515635784153676a4272334448585339707343437a6f747150454b652f30303030303030303030303030303030303030303030303030303030303030303030303030303030303030303030303030303030303030303030303030303139303030303030303030303030303030303030303030303030303030303030303030303030303030303030303030303030303030303030303030303030303030312e6a736f6e00000000000000",
          "blockHash": "0x90a80afe38072076df11512d99dda14021c7d08969f18ea2e18bfdb6cb5769bd",
          "blockNumber": "0x2a4ab64",
          "transactionHash": "0x5c5e8f434b61e4ea4299d5fad556bd5b094ea4cb696766ecc4621f247bf71cb9",
          "transactionIndex": "0x8",
          "logIndex": "0x16",
          "removed": false
        }
      ],
      "logsBloom": "0x20000000000000000000000000800000000000000000000000000000000000000000000040000000000000000000000000000000000000000000000000000000000000000000000000000000000000004200000000000000000000000000000000000010000000000000000000000000000000000000000000000000000000000000000000000000000000000000000000000000000000000000000000000000000000200000000000000000000000000000000000000000000000000000000000000000000000000000000000000000000000000000000200000000000000000000000000000000000200000000000000000000000000000000000000000000",
      "type": "0x0",
      "transactionHash": "0x5c5e8f434b61e4ea4299d5fad556bd5b094ea4cb696766ecc4621f247bf71cb9",
      "transactionIndex": "0x8",
      "blockHash": "0x90a80afe38072076df11512d99dda14021c7d08969f18ea2e18bfdb6cb5769bd",
      "blockNumber": "0x2a4ab64",
      "gasUsed": "0xf6ec",
      "effectiveGasPrice": "0x5d22cfc40",
      "from": "0x8835669696fb92839ab198cd80ce9f0d35f45ad5",
      "to": "0xd47c56513e640e394024facbbe5032cf604bb699",
      "contractAddress": null,
      "l1BaseFeeScalar": "0x0",
      "l1BlobBaseFee": "0x1",
      "l1BlobBaseFeeScalar": "0x0",
      "l1Fee": "0x0",
      "l1GasPrice": "0x161d8b3f",
      "l1GasUsed": "0x8e4"
    },
    {
      "status": "0x1",
      "cumulativeGasUsed": "0xf0e24",
      "logs": [
        {
          "address": "0xd47c56513e640e394024facbbe5032cf604bb699",
          "topics": [
            "0x3e442b5d5a6ecd8c0a86017cabd5ee0efbf32debbee58f9cea68f1b8489e4193",
            "0x0000000000000000000000000000000000000000000000000000000000000013"
          ],
          "data": "0x0000000000000000000000000000000000000000000000000000000000000002000000000000000000000000000000000000000000000000000000000000004000000000000000000000000000000000000000000000000000000000000000b9697066732f516d66376577374b655a3933354c43754c52515635784153676a4272334448585339707343437a6f747150454b652f30303030303030303030303030303030303030303030303030303030303030303030303030303030303030303030303030303030303030303030303030303139303030303030303030303030303030303030303030303030303030303030303030303030303030303030303030303030303030303030303030303030303030322e6a736f6e00000000000000",
          "blockHash": "0x90a80afe38072076df11512d99dda14021c7d08969f18ea2e18bfdb6cb5769bd",
          "blockNumber": "0x2a4ab64",
          "transactionHash": "0xc980d3c455773af4decee8c10086592db8de61a73760da17b4e909a87c40b81a",
          "transactionIndex": "0x9",
          "logIndex": "0x17",
          "removed": false
        }
      ],
      "logsBloom": "0x20000000000000000000000000800000000000000000000000000000000000000000000040000000000000000000000000000000000000000000000000000000000000000000000000000000000000004200000000000000000000000000000000000010000000000000000000000000000000000000000000000000000000000000000000000000000000000000000000000000000000000000000000000000000000200000000000000000000000000000000000000000000000000000000000000000000000000000000000000000000000000000000200000000000000000000000000000000000200000000000000000000000000000000000000000000",
      "type": "0x0",
      "transactionHash": "0xc980d3c455773af4decee8c10086592db8de61a73760da17b4e909a87c40b81a",
      "transactionIndex": "0x9",
      "blockHash": "0x90a80afe38072076df11512d99dda14021c7d08969f18ea2e18bfdb6cb5769bd",
      "blockNumber": "0x2a4ab64",
      "gasUsed": "0xf6ec",
      "effectiveGasPrice": "0x5d22cfc40",
      "from": "0x8835669696fb92839ab198cd80ce9f0d35f45ad5",
      "to": "0xd47c56513e640e394024facbbe5032cf604bb699",
      "contractAddress": null,
      "l1BaseFeeScalar": "0x0",
      "l1BlobBaseFee": "0x1",
      "l1BlobBaseFeeScalar": "0x0",
      "l1Fee": "0x0",
      "l1GasPrice": "0x161d8b3f",
      "l1GasUsed": "0x8f1"
    },
    {
      "status": "0x1",
      "cumulativeGasUsed": "0x100510",
      "logs": [
        {
          "address": "0xd47c56513e640e394024facbbe5032cf604bb699",
          "topics": [
            "0x3e442b5d5a6ecd8c0a86017cabd5ee0efbf32debbee58f9cea68f1b8489e4193",
            "0x0000000000000000000000000000000000000000000000000000000000000013"
          ],
          "data": "0x0000000000000000000000000000000000000000000000000000000000000003000000000000000000000000000000000000000000000000000000000000004000000000000000000000000000000000000000000000000000000000000000b9697066732f516d66376577374b655a3933354c43754c52515635784153676a4272334448585339707343437a6f747150454b652f30303030303030303030303030303030303030303030303030303030303030303030303030303030303030303030303030303030303030303030303030303139303030303030303030303030303030303030303030303030303030303030303030303030303030303030303030303030303030303030303030303030303030332e6a736f6e00000000000000",
          "blockHash": "0x90a80afe38072076df11512d99dda14021c7d08969f18ea2e18bfdb6cb5769bd",
          "blockNumber": "0x2a4ab64",
          "transactionHash": "0x449369004ef271b0b5b0bdce4c28242d13a03ffd6ecb75a75b0848182d617dd4",
          "transactionIndex": "0xa",
          "logIndex": "0x18",
          "removed": false
        }
      ],
      "logsBloom": "0x20000000000000000000000000800000000000000000000000000000000000000000000040000000000000000000000000000000000000000000000000000000000000000000000000000000000000004200000000000000000000000000000000000010000000000000000000000000000000000000000000000000000000000000000000000000000000000000000000000000000000000000000000000000000000200000000000000000000000000000000000000000000000000000000000000000000000000000000000000000000000000000000200000000000000000000000000000000000200000000000000000000000000000000000000000000",
      "type": "0x0",
      "transactionHash": "0x449369004ef271b0b5b0bdce4c28242d13a03ffd6ecb75a75b0848182d617dd4",
      "transactionIndex": "0xa",
      "blockHash": "0x90a80afe38072076df11512d99dda14021c7d08969f18ea2e18bfdb6cb5769bd",
      "blockNumber": "0x2a4ab64",
      "gasUsed": "0xf6ec",
      "effectiveGasPrice": "0x5d22cfc40",
      "from": "0x8835669696fb92839ab198cd80ce9f0d35f45ad5",
      "to": "0xd47c56513e640e394024facbbe5032cf604bb699",
      "contractAddress": null,
      "l1BaseFeeScalar": "0x0",
      "l1BlobBaseFee": "0x1",
      "l1BlobBaseFeeScalar": "0x0",
      "l1Fee": "0x0",
      "l1GasPrice": "0x161d8b3f",
      "l1GasUsed": "0x8f1"
    },
    {
      "status": "0x1",
      "cumulativeGasUsed": "0x10fbfc",
      "logs": [
        {
          "address": "0xd47c56513e640e394024facbbe5032cf604bb699",
          "topics": [
            "0x3e442b5d5a6ecd8c0a86017cabd5ee0efbf32debbee58f9cea68f1b8489e4193",
            "0x0000000000000000000000000000000000000000000000000000000000000013"
          ],
          "data": "0x0000000000000000000000000000000000000000000000000000000000000004000000000000000000000000000000000000000000000000000000000000004000000000000000000000000000000000000000000000000000000000000000b9697066732f516d66376577374b655a3933354c43754c52515635784153676a4272334448585339707343437a6f747150454b652f30303030303030303030303030303030303030303030303030303030303030303030303030303030303030303030303030303030303030303030303030303139303030303030303030303030303030303030303030303030303030303030303030303030303030303030303030303030303030303030303030303030303030342e6a736f6e00000000000000",
          "blockHash": "0x90a80afe38072076df11512d99dda14021c7d08969f18ea2e18bfdb6cb5769bd",
          "blockNumber": "0x2a4ab64",
          "transactionHash": "0xace4d5d28cdfc23883db5dea6475c841764a9252d81cca22e21af19e7e81e039",
          "transactionIndex": "0xb",
          "logIndex": "0x19",
          "removed": false
        }
      ],
      "logsBloom": "0x20000000000000000000000000800000000000000000000000000000000000000000000040000000000000000000000000000000000000000000000000000000000000000000000000000000000000004200000000000000000000000000000000000010000000000000000000000000000000000000000000000000000000000000000000000000000000000000000000000000000000000000000000000000000000200000000000000000000000000000000000000000000000000000000000000000000000000000000000000000000000000000000200000000000000000000000000000000000200000000000000000000000000000000000000000000",
      "type": "0x0",
      "transactionHash": "0xace4d5d28cdfc23883db5dea6475c841764a9252d81cca22e21af19e7e81e039",
      "transactionIndex": "0xb",
      "blockHash": "0x90a80afe38072076df11512d99dda14021c7d08969f18ea2e18bfdb6cb5769bd",
      "blockNumber": "0x2a4ab64",
      "gasUsed": "0xf6ec",
      "effectiveGasPrice": "0x5d22cfc40",
      "from": "0x8835669696fb92839ab198cd80ce9f0d35f45ad5",
      "to": "0xd47c56513e640e394024facbbe5032cf604bb699",
      "contractAddress": null,
      "l1BaseFeeScalar": "0x0",
      "l1BlobBaseFee": "0x1",
      "l1BlobBaseFeeScalar": "0x0",
      "l1Fee": "0x0",
      "l1GasPrice": "0x161d8b3f",
      "l1GasUsed": "0x8f1"
    },
    {
      "status": "0x1",
      "cumulativeGasUsed": "0x11f2e8",
      "logs": [
        {
          "address": "0xd47c56513e640e394024facbbe5032cf604bb699",
          "topics": [
            "0x3e442b5d5a6ecd8c0a86017cabd5ee0efbf32debbee58f9cea68f1b8489e4193",
            "0x0000000000000000000000000000000000000000000000000000000000000013"
          ],
          "data": "0x0000000000000000000000000000000000000000000000000000000000000005000000000000000000000000000000000000000000000000000000000000004000000000000000000000000000000000000000000000000000000000000000b9697066732f516d66376577374b655a3933354c43754c52515635784153676a4272334448585339707343437a6f747150454b652f30303030303030303030303030303030303030303030303030303030303030303030303030303030303030303030303030303030303030303030303030303139303030303030303030303030303030303030303030303030303030303030303030303030303030303030303030303030303030303030303030303030303030352e6a736f6e00000000000000",
          "blockHash": "0x90a80afe38072076df11512d99dda14021c7d08969f18ea2e18bfdb6cb5769bd",
          "blockNumber": "0x2a4ab64",
          "transactionHash": "0x834838997bee0f8422ee66f7bf18c9d14f67cdb330733c972fcd8e3d30d79c0f",
          "transactionIndex": "0xc",
          "logIndex": "0x1a",
          "removed": false
        }
      ],
      "logsBloom": "0x20000000000000000000000000800000000000000000000000000000000000000000000040000000000000000000000000000000000000000000000000000000000000000000000000000000000000004200000000000000000000000000000000000010000000000000000000000000000000000000000000000000000000000000000000000000000000000000000000000000000000000000000000000000000000200000000000000000000000000000000000000000000000000000000000000000000000000000000000000000000000000000000200000000000000000000000000000000000200000000000000000000000000000000000000000000",
      "type": "0x0",
      "transactionHash": "0x834838997bee0f8422ee66f7bf18c9d14f67cdb330733c972fcd8e3d30d79c0f",
      "transactionIndex": "0xc",
      "blockHash": "0x90a80afe38072076df11512d99dda14021c7d08969f18ea2e18bfdb6cb5769bd",
      "blockNumber": "0x2a4ab64",
      "gasUsed": "0xf6ec",
      "effectiveGasPrice": "0x5d22cfc40",
      "from": "0x8835669696fb92839ab198cd80ce9f0d35f45ad5",
      "to": "0xd47c56513e640e394024facbbe5032cf604bb699",
      "contractAddress": null,
      "l1BaseFeeScalar": "0x0",
      "l1BlobBaseFee": "0x1",
      "l1BlobBaseFeeScalar": "0x0",
      "l1Fee": "0x0",
      "l1GasPrice": "0x161d8b3f",
      "l1GasUsed": "0x8f1"
    },
    {
      "status": "0x1",
      "cumulativeGasUsed": "0x15a2a6",
      "logs": [
        {
          "address": "0xd47c56513e640e394024facbbe5032cf604bb699",
          "topics": [
            "0x5625f15df4cbadf2e6e3f80e2406aec5d99a432335ef0e9a1fba9e48b0558303",
            "0x0000000000000000000000000000000000000000000000000000000000000018"
          ],
          "data": "0x00000000000000000000000000000000000000000000000000000000000000010000000000000000000000000000000000000000000000000000000000000060000000000000000000000000000000000000000000000000000000000000000a00000000000000000000000000000000000000000000000000000000000000b9697066732f516d66376577374b655a3933354c43754c52515635784153676a4272334448585339707343437a6f747150454b652f30303030303030303030303030303030303030303030303030303030303030303030303030303030303030303030303030303030303030303030303030303234303030303030303030303030303030303030303030303030303030303030303030303030303030303030303030303030303030303030303030303030303030312e6a736f6e00000000000000",
          "blockHash": "0x90a80afe38072076df11512d99dda14021c7d08969f18ea2e18bfdb6cb5769bd",
          "blockNumber": "0x2a4ab64",
          "transactionHash": "0xf5925ea72c4bc02d5c9b202052fcc1386abc033ed8b8449c6af323215da00104",
          "transactionIndex": "0xd",
          "logIndex": "0x1b",
          "removed": false
        }
      ],
      "logsBloom": "0x00000000000000000000000000000000000000000000000000000000000000000000000000000000000000000000000000000000000000000000000000000000000000000000000000000000000000004240000000000000000000000000000000040000000000000000000000000000000000000000000000000000000000000000000000000000000000000000000000000000000000000000000000000000000000000000000000000000000000000000000000000000000000000000000000100000000000000000004000000000000000000000000020000000000000000000000000000000000200000000000000000000010000000000000000000000",
      "type": "0x0",
      "transactionHash": "0xf5925ea72c4bc02d5c9b202052fcc1386abc033ed8b8449c6af323215da00104",
      "transactionIndex": "0xd",
      "blockHash": "0x90a80afe38072076df11512d99dda14021c7d08969f18ea2e18bfdb6cb5769bd",
      "blockNumber": "0x2a4ab64",
      "gasUsed": "0x3afbe",
      "effectiveGasPrice": "0x5d22cfc40",
      "from": "0x8835669696fb92839ab198cd80ce9f0d35f45ad5",
      "to": "0xd47c56513e640e394024facbbe5032cf604bb699",
      "contractAddress": null,
      "l1BaseFeeScalar": "0x0",
      "l1BlobBaseFee": "0x1",
      "l1BlobBaseFeeScalar": "0x0",
      "l1Fee": "0x0",
      "l1GasPrice": "0x161d8b3f",
      "l1GasUsed": "0x934"
    },
    {
      "status": "0x1",
      "cumulativeGasUsed": "0x19194d",
      "logs": [
        {
          "address": "0xd47c56513e640e394024facbbe5032cf604bb699",
          "topics": [
            "0x5625f15df4cbadf2e6e3f80e2406aec5d99a432335ef0e9a1fba9e48b0558303",
            "0x0000000000000000000000000000000000000000000000000000000000000018"
          ],
          "data": "0x00000000000000000000000000000000000000000000000000000000000000020000000000000000000000000000000000000000000000000000000000000060000000000000000000000000000000000000000000000000000000000000001400000000000000000000000000000000000000000000000000000000000000b9697066732f516d66376577374b655a3933354c43754c52515635784153676a4272334448585339707343437a6f747150454b652f30303030303030303030303030303030303030303030303030303030303030303030303030303030303030303030303030303030303030303030303030303234303030303030303030303030303030303030303030303030303030303030303030303030303030303030303030303030303030303030303030303030303030322e6a736f6e00000000000000",
          "blockHash": "0x90a80afe38072076df11512d99dda14021c7d08969f18ea2e18bfdb6cb5769bd",
          "blockNumber": "0x2a4ab64",
          "transactionHash": "0xf33e930129df3e430179a926c8bd7c5482349be6e4d35bcea57fb1b5c623f1b1",
          "transactionIndex": "0xe",
          "logIndex": "0x1c",
          "removed": false
        }
      ],
      "logsBloom": "0x00000000000000000000000000000000000000000000000000000000000000000000000000000000000000000000000000000000000000000000000000000000000000000000000000000000000000004240000000000000000000000000000000040000000000000000000000000000000000000000000000000000000000000000000000000000000000000000000000000000000000000000000000000000000000000000000000000000000000000000000000000000000000000000000000100000000000000000004000000000000000000000000020000000000000000000000000000000000200000000000000000000010000000000000000000000",
      "type": "0x0",
      "transactionHash": "0xf33e930129df3e430179a926c8bd7c5482349be6e4d35bcea57fb1b5c623f1b1",
      "transactionIndex": "0xe",
      "blockHash": "0x90a80afe38072076df11512d99dda14021c7d08969f18ea2e18bfdb6cb5769bd",
      "blockNumber": "0x2a4ab64",
      "gasUsed": "0x376a7",
      "effectiveGasPrice": "0x5d22cfc40",
      "from": "0x8835669696fb92839ab198cd80ce9f0d35f45ad5",
      "to": "0xd47c56513e640e394024facbbe5032cf604bb699",
      "contractAddress": null,
      "l1BaseFeeScalar": "0x0",
      "l1BlobBaseFee": "0x1",
      "l1BlobBaseFeeScalar": "0x0",
      "l1Fee": "0x0",
      "l1GasPrice": "0x161d8b3f",
      "l1GasUsed": "0x927"
    },
    {
      "status": "0x1",
      "cumulativeGasUsed": "0x1c8ff4",
      "logs": [
        {
          "address": "0xd47c56513e640e394024facbbe5032cf604bb699",
          "topics": [
            "0x5625f15df4cbadf2e6e3f80e2406aec5d99a432335ef0e9a1fba9e48b0558303",
            "0x0000000000000000000000000000000000000000000000000000000000000018"
          ],
          "data": "0x00000000000000000000000000000000000000000000000000000000000000030000000000000000000000000000000000000000000000000000000000000060000000000000000000000000000000000000000000000000000000000000001e00000000000000000000000000000000000000000000000000000000000000b9697066732f516d66376577374b655a3933354c43754c52515635784153676a4272334448585339707343437a6f747150454b652f30303030303030303030303030303030303030303030303030303030303030303030303030303030303030303030303030303030303030303030303030303234303030303030303030303030303030303030303030303030303030303030303030303030303030303030303030303030303030303030303030303030303030332e6a736f6e00000000000000",
          "blockHash": "0x90a80afe38072076df11512d99dda14021c7d08969f18ea2e18bfdb6cb5769bd",
          "blockNumber": "0x2a4ab64",
          "transactionHash": "0x1844898be6981899d384197af4cef0827a14fe80905bb87640c0692d4365f469",
          "transactionIndex": "0xf",
          "logIndex": "0x1d",
          "removed": false
        }
      ],
      "logsBloom": "0x00000000000000000000000000000000000000000000000000000000000000000000000000000000000000000000000000000000000000000000000000000000000000000000000000000000000000004240000000000000000000000000000000040000000000000000000000000000000000000000000000000000000000000000000000000000000000000000000000000000000000000000000000000000000000000000000000000000000000000000000000000000000000000000000000100000000000000000004000000000000000000000000020000000000000000000000000000000000200000000000000000000010000000000000000000000",
      "type": "0x0",
      "transactionHash": "0x1844898be6981899d384197af4cef0827a14fe80905bb87640c0692d4365f469",
      "transactionIndex": "0xf",
      "blockHash": "0x90a80afe38072076df11512d99dda14021c7d08969f18ea2e18bfdb6cb5769bd",
      "blockNumber": "0x2a4ab64",
      "gasUsed": "0x376a7",
      "effectiveGasPrice": "0x5d22cfc40",
      "from": "0x8835669696fb92839ab198cd80ce9f0d35f45ad5",
      "to": "0xd47c56513e640e394024facbbe5032cf604bb699",
      "contractAddress": null,
      "l1BaseFeeScalar": "0x0",
      "l1BlobBaseFee": "0x1",
      "l1BlobBaseFeeScalar": "0x0",
      "l1Fee": "0x0",
      "l1GasPrice": "0x161d8b3f",
      "l1GasUsed": "0x934"
    },
    {
      "status": "0x1",
      "cumulativeGasUsed": "0x20069b",
      "logs": [
        {
          "address": "0xd47c56513e640e394024facbbe5032cf604bb699",
          "topics": [
            "0x5625f15df4cbadf2e6e3f80e2406aec5d99a432335ef0e9a1fba9e48b0558303",
            "0x0000000000000000000000000000000000000000000000000000000000000018"
          ],
          "data": "0x00000000000000000000000000000000000000000000000000000000000000040000000000000000000000000000000000000000000000000000000000000060000000000000000000000000000000000000000000000000000000000000002800000000000000000000000000000000000000000000000000000000000000b9697066732f516d66376577374b655a3933354c43754c52515635784153676a4272334448585339707343437a6f747150454b652f30303030303030303030303030303030303030303030303030303030303030303030303030303030303030303030303030303030303030303030303030303234303030303030303030303030303030303030303030303030303030303030303030303030303030303030303030303030303030303030303030303030303030342e6a736f6e00000000000000",
          "blockHash": "0x90a80afe38072076df11512d99dda14021c7d08969f18ea2e18bfdb6cb5769bd",
          "blockNumber": "0x2a4ab64",
          "transactionHash": "0xa37f7087d5e5c3bbcd9d8b0b71492ce34cedc4bcd13f8d777c5e8316a9d8663c",
          "transactionIndex": "0x10",
          "logIndex": "0x1e",
          "removed": false
        }
      ],
      "logsBloom": "0x00000000000000000000000000000000000000000000000000000000000000000000000000000000000000000000000000000000000000000000000000000000000000000000000000000000000000004240000000000000000000000000000000040000000000000000000000000000000000000000000000000000000000000000000000000000000000000000000000000000000000000000000000000000000000000000000000000000000000000000000000000000000000000000000000100000000000000000004000000000000000000000000020000000000000000000000000000000000200000000000000000000010000000000000000000000",
      "type": "0x0",
      "transactionHash": "0xa37f7087d5e5c3bbcd9d8b0b71492ce34cedc4bcd13f8d777c5e8316a9d8663c",
      "transactionIndex": "0x10",
      "blockHash": "0x90a80afe38072076df11512d99dda14021c7d08969f18ea2e18bfdb6cb5769bd",
      "blockNumber": "0x2a4ab64",
      "gasUsed": "0x376a7",
      "effectiveGasPrice": "0x5d22cfc40",
      "from": "0x8835669696fb92839ab198cd80ce9f0d35f45ad5",
      "to": "0xd47c56513e640e394024facbbe5032cf604bb699",
      "contractAddress": null,
      "l1BaseFeeScalar": "0x0",
      "l1BlobBaseFee": "0x1",
      "l1BlobBaseFeeScalar": "0x0",
      "l1Fee": "0x0",
      "l1GasPrice": "0x161d8b3f",
      "l1GasUsed": "0x934"
    },
    {
      "status": "0x1",
      "cumulativeGasUsed": "0x237d42",
      "logs": [
        {
          "address": "0xd47c56513e640e394024facbbe5032cf604bb699",
          "topics": [
            "0x5625f15df4cbadf2e6e3f80e2406aec5d99a432335ef0e9a1fba9e48b0558303",
            "0x0000000000000000000000000000000000000000000000000000000000000018"
          ],
          "data": "0x00000000000000000000000000000000000000000000000000000000000000050000000000000000000000000000000000000000000000000000000000000060000000000000000000000000000000000000000000000000000000000000003200000000000000000000000000000000000000000000000000000000000000b9697066732f516d66376577374b655a3933354c43754c52515635784153676a4272334448585339707343437a6f747150454b652f30303030303030303030303030303030303030303030303030303030303030303030303030303030303030303030303030303030303030303030303030303234303030303030303030303030303030303030303030303030303030303030303030303030303030303030303030303030303030303030303030303030303030352e6a736f6e00000000000000",
          "blockHash": "0x90a80afe38072076df11512d99dda14021c7d08969f18ea2e18bfdb6cb5769bd",
          "blockNumber": "0x2a4ab64",
          "transactionHash": "0x306729c0126f16514946b69a7caf9f0593033d2d9f469a1f17cfb74e801e28fd",
          "transactionIndex": "0x11",
          "logIndex": "0x1f",
          "removed": false
        }
      ],
      "logsBloom": "0x00000000000000000000000000000000000000000000000000000000000000000000000000000000000000000000000000000000000000000000000000000000000000000000000000000000000000004240000000000000000000000000000000040000000000000000000000000000000000000000000000000000000000000000000000000000000000000000000000000000000000000000000000000000000000000000000000000000000000000000000000000000000000000000000000100000000000000000004000000000000000000000000020000000000000000000000000000000000200000000000000000000010000000000000000000000",
      "type": "0x0",
      "transactionHash": "0x306729c0126f16514946b69a7caf9f0593033d2d9f469a1f17cfb74e801e28fd",
      "transactionIndex": "0x11",
      "blockHash": "0x90a80afe38072076df11512d99dda14021c7d08969f18ea2e18bfdb6cb5769bd",
      "blockNumber": "0x2a4ab64",
      "gasUsed": "0x376a7",
      "effectiveGasPrice": "0x5d22cfc40",
      "from": "0x8835669696fb92839ab198cd80ce9f0d35f45ad5",
      "to": "0xd47c56513e640e394024facbbe5032cf604bb699",
      "contractAddress": null,
      "l1BaseFeeScalar": "0x0",
      "l1BlobBaseFee": "0x1",
      "l1BlobBaseFeeScalar": "0x0",
      "l1Fee": "0x0",
      "l1GasPrice": "0x161d8b3f",
      "l1GasUsed": "0x934"
    }
  ],
  "libraries": [],
  "pending": [],
  "returns": {
    "0": {
      "internal_type": "address",
      "value": "0x0000000000000000000000000000000000000000"
    }
  },
  "timestamp": 1756246971,
  "chain": 42220,
  "commit": "c1232a6"
}