{
  "transactions": [
    {
      "hash": "0xe8be460a92a1a1de56781bf7b9181289ef0ae86326c802037ac8f5e6ffcb6388",
      "transactionType": "CALL",
      "contractName": null,
      "contractAddress": "0xd47c56513e640e394024facbbe5032cf604bb699",
      "function": "updateBadgeMetadata(uint256,string)",
      "arguments": [
        "13",
        "ipfs/QmYmpHyybED4mmgQYohYtUEXe2uDxhaAHKyxodBoUBNc1R/00000000000000000000000000000000000000000000000000000000000000130000000000000000000000000000000000000000000000000000000000000000.json"
      ],
      "transaction": {
        "from": "0x8835669696fb92839ab198cd80ce9f0d35f45ad5",
        "to": "0xd47c56513e640e394024facbbe5032cf604bb699",
        "gas": "0x14394",
        "value": "0x0",
        "input": "0x47461b40000000000000000000000000000000000000000000000000000000000000000d000000000000000000000000000000000000000000000000000000000000004000000000000000000000000000000000000000000000000000000000000000b9697066732f516d596d70487979624544346d6d6751596f6859745545586532754478686141484b79786f64426f55424e6331522f30303030303030303030303030303030303030303030303030303030303030303030303030303030303030303030303030303030303030303030303030303133303030303030303030303030303030303030303030303030303030303030303030303030303030303030303030303030303030303030303030303030303030302e6a736f6e00000000000000",
        "nonce": "0x1df2",
        "chainId": "0xa4ec"
      },
      "additionalContracts": [],
      "isFixedGasLimit": false
    },
    {
      "hash": "0x7d171932b260d993531782c019e4e9c2b0ca0ebdb172f8a008208c5c6c9119ef",
      "transactionType": "CALL",
      "contractName": null,
      "contractAddress": "0xd47c56513e640e394024facbbe5032cf604bb699",
      "function": "updateBadgeTierMetadata(uint256,uint256,string)",
      "arguments": [
        "13",
        "1",
        "ipfs/QmYmpHyybED4mmgQYohYtUEXe2uDxhaAHKyxodBoUBNc1R/00000000000000000000000000000000000000000000000000000000000000130000000000000000000000000000000000000000000000000000000000000001.json"
      ],
      "transaction": {
        "from": "0x8835669696fb92839ab198cd80ce9f0d35f45ad5",
        "to": "0xd47c56513e640e394024facbbe5032cf604bb699",
        "gas": "0x1550e",
        "value": "0x0",
        "input": "0xc43e4f4c000000000000000000000000000000000000000000000000000000000000000d0000000000000000000000000000000000000000000000000000000000000001000000000000000000000000000000000000000000000000000000000000006000000000000000000000000000000000000000000000000000000000000000b9697066732f516d596d70487979624544346d6d6751596f6859745545586532754478686141484b79786f64426f55424e6331522f30303030303030303030303030303030303030303030303030303030303030303030303030303030303030303030303030303030303030303030303030303133303030303030303030303030303030303030303030303030303030303030303030303030303030303030303030303030303030303030303030303030303030312e6a736f6e00000000000000",
        "nonce": "0x1df3",
        "chainId": "0xa4ec"
      },
      "additionalContracts": [],
      "isFixedGasLimit": false
    },
    {
      "hash": "0x45113315208e316b76a446e752aaec1496a973b8abf6de9b91299b5263d09a1c",
      "transactionType": "CALL",
      "contractName": null,
      "contractAddress": "0xd47c56513e640e394024facbbe5032cf604bb699",
      "function": "updateBadgeTierMetadata(uint256,uint256,string)",
      "arguments": [
        "13",
        "2",
        "ipfs/QmYmpHyybED4mmgQYohYtUEXe2uDxhaAHKyxodBoUBNc1R/00000000000000000000000000000000000000000000000000000000000000130000000000000000000000000000000000000000000000000000000000000002.json"
      ],
      "transaction": {
        "from": "0x8835669696fb92839ab198cd80ce9f0d35f45ad5",
        "to": "0xd47c56513e640e394024facbbe5032cf604bb699",
        "gas": "0x1550e",
        "value": "0x0",
        "input": "0xc43e4f4c000000000000000000000000000000000000000000000000000000000000000d0000000000000000000000000000000000000000000000000000000000000002000000000000000000000000000000000000000000000000000000000000006000000000000000000000000000000000000000000000000000000000000000b9697066732f516d596d70487979624544346d6d6751596f6859745545586532754478686141484b79786f64426f55424e6331522f30303030303030303030303030303030303030303030303030303030303030303030303030303030303030303030303030303030303030303030303030303133303030303030303030303030303030303030303030303030303030303030303030303030303030303030303030303030303030303030303030303030303030322e6a736f6e00000000000000",
        "nonce": "0x1df4",
        "chainId": "0xa4ec"
      },
      "additionalContracts": [],
      "isFixedGasLimit": false
    },
    {
      "hash": "0xdc43790bcbecdfab4a1365c4612fa26f5d2efe0e7e5fa3756f164e38a189e818",
      "transactionType": "CALL",
      "contractName": null,
      "contractAddress": "0xd47c56513e640e394024facbbe5032cf604bb699",
      "function": "updateBadgeTierMetadata(uint256,uint256,string)",
      "arguments": [
        "13",
        "3",
        "ipfs/QmYmpHyybED4mmgQYohYtUEXe2uDxhaAHKyxodBoUBNc1R/00000000000000000000000000000000000000000000000000000000000000130000000000000000000000000000000000000000000000000000000000000003.json"
      ],
      "transaction": {
        "from": "0x8835669696fb92839ab198cd80ce9f0d35f45ad5",
        "to": "0xd47c56513e640e394024facbbe5032cf604bb699",
        "gas": "0x1550e",
        "value": "0x0",
        "input": "0xc43e4f4c000000000000000000000000000000000000000000000000000000000000000d0000000000000000000000000000000000000000000000000000000000000003000000000000000000000000000000000000000000000000000000000000006000000000000000000000000000000000000000000000000000000000000000b9697066732f516d596d70487979624544346d6d6751596f6859745545586532754478686141484b79786f64426f55424e6331522f30303030303030303030303030303030303030303030303030303030303030303030303030303030303030303030303030303030303030303030303030303133303030303030303030303030303030303030303030303030303030303030303030303030303030303030303030303030303030303030303030303030303030332e6a736f6e00000000000000",
        "nonce": "0x1df5",
        "chainId": "0xa4ec"
      },
      "additionalContracts": [],
      "isFixedGasLimit": false
    },
    {
      "hash": "0x15524f65c4dfd74a85744bdd633e265d52fe6f6565a9098d19d78394a6c543aa",
      "transactionType": "CALL",
      "contractName": null,
      "contractAddress": "0xd47c56513e640e394024facbbe5032cf604bb699",
      "function": "updateBadgeTierMetadata(uint256,uint256,string)",
      "arguments": [
        "13",
        "4",
        "ipfs/QmYmpHyybED4mmgQYohYtUEXe2uDxhaAHKyxodBoUBNc1R/00000000000000000000000000000000000000000000000000000000000000130000000000000000000000000000000000000000000000000000000000000004.json"
      ],
      "transaction": {
        "from": "0x8835669696fb92839ab198cd80ce9f0d35f45ad5",
        "to": "0xd47c56513e640e394024facbbe5032cf604bb699",
        "gas": "0x1550e",
        "value": "0x0",
        "input": "0xc43e4f4c000000000000000000000000000000000000000000000000000000000000000d0000000000000000000000000000000000000000000000000000000000000004000000000000000000000000000000000000000000000000000000000000006000000000000000000000000000000000000000000000000000000000000000b9697066732f516d596d70487979624544346d6d6751596f6859745545586532754478686141484b79786f64426f55424e6331522f30303030303030303030303030303030303030303030303030303030303030303030303030303030303030303030303030303030303030303030303030303133303030303030303030303030303030303030303030303030303030303030303030303030303030303030303030303030303030303030303030303030303030342e6a736f6e00000000000000",
        "nonce": "0x1df6",
        "chainId": "0xa4ec"
      },
      "additionalContracts": [],
      "isFixedGasLimit": false
    },
    {
      "hash": "0xff782e2a9482d56342a072f599693de0a7f5cc37a0a656df87b7bc2a220d438e",
      "transactionType": "CALL",
      "contractName": null,
      "contractAddress": "0xd47c56513e640e394024facbbe5032cf604bb699",
      "function": "updateBadgeTierMetadata(uint256,uint256,string)",
      "arguments": [
        "13",
        "5",
        "ipfs/QmYmpHyybED4mmgQYohYtUEXe2uDxhaAHKyxodBoUBNc1R/00000000000000000000000000000000000000000000000000000000000000130000000000000000000000000000000000000000000000000000000000000005.json"
      ],
      "transaction": {
        "from": "0x8835669696fb92839ab198cd80ce9f0d35f45ad5",
        "to": "0xd47c56513e640e394024facbbe5032cf604bb699",
        "gas": "0x1550e",
        "value": "0x0",
        "input": "0xc43e4f4c000000000000000000000000000000000000000000000000000000000000000d0000000000000000000000000000000000000000000000000000000000000005000000000000000000000000000000000000000000000000000000000000006000000000000000000000000000000000000000000000000000000000000000b9697066732f516d596d70487979624544346d6d6751596f6859745545586532754478686141484b79786f64426f55424e6331522f30303030303030303030303030303030303030303030303030303030303030303030303030303030303030303030303030303030303030303030303030303133303030303030303030303030303030303030303030303030303030303030303030303030303030303030303030303030303030303030303030303030303030352e6a736f6e00000000000000",
        "nonce": "0x1df7",
        "chainId": "0xa4ec"
      },
      "additionalContracts": [],
      "isFixedGasLimit": false
    }
  ],
  "receipts": [
    {
      "status": "0x1",
      "cumulativeGasUsed": "0x3efbac",
      "logs": [
        {
          "address": "0xd47c56513e640e394024facbbe5032cf604bb699",
          "topics": [
            "0xb810609e93b7325976c078b96d9c92d3160d0d165073b8c9a8a6a4d257fd0477",
            "0x000000000000000000000000000000000000000000000000000000000000000d"
          ],
          "data": "0x000000000000000000000000000000000000000000000000000000000000002000000000000000000000000000000000000000000000000000000000000000b9697066732f516d596d70487979624544346d6d6751596f6859745545586532754478686141484b79786f64426f55424e6331522f30303030303030303030303030303030303030303030303030303030303030303030303030303030303030303030303030303030303030303030303030303133303030303030303030303030303030303030303030303030303030303030303030303030303030303030303030303030303030303030303030303030303030302e6a736f6e00000000000000",
          "blockHash": "0xdaf3d611235796145610dccbc177158d21347f7abda0b777b2cea1685b521cf1",
          "blockNumber": "0x2d4507b",
          "transactionHash": "0xe8be460a92a1a1de56781bf7b9181289ef0ae86326c802037ac8f5e6ffcb6388",
          "transactionIndex": "0x18",
          "logIndex": "0x75",
          "removed": false
        }
      ],
      "logsBloom": "0x00000000000000000040000000000000000000000000000000000000000000040000000000000000000000000000000000000000000000000000000000000000000000000000000000000000000000004202000000000000000000400000000000000000000000000000000000000000000000000000000000000000000000000000000000000000000000000000000000000000000000000000000000000000000000000000000000000000000000000000000000000000000000000000000000000000000000000000000000000000000000000000000000000020000000020000000000000000000200000000000000000000000000000000000000000000",
      "type": "0x0",
      "transactionHash": "0xe8be460a92a1a1de56781bf7b9181289ef0ae86326c802037ac8f5e6ffcb6388",
      "transactionIndex": "0x18",
      "blockHash": "0xdaf3d611235796145610dccbc177158d21347f7abda0b777b2cea1685b521cf1",
      "blockNumber": "0x2d4507b",
      "gasUsed": "0xea44",
      "effectiveGasPrice": "0x5d27e1df8",
      "from": "0x8835669696fb92839ab198cd80ce9f0d35f45ad5",
      "to": "0xd47c56513e640e394024facbbe5032cf604bb699",
      "contractAddress": null,
      "l1BaseFeeScalar": "0x0",
      "l1BlobBaseFee": "0x1",
      "l1BlobBaseFeeScalar": "0x0",
      "l1Fee": "0x0",
      "l1GasPrice": "0xcbec4bd",
      "l1GasUsed": "0x85e"
    },
    {
      "status": "0x1",
      "cumulativeGasUsed": "0x3ff298",
      "logs": [
        {
          "address": "0xd47c56513e640e394024facbbe5032cf604bb699",
          "topics": [
            "0x3e442b5d5a6ecd8c0a86017cabd5ee0efbf32debbee58f9cea68f1b8489e4193",
            "0x000000000000000000000000000000000000000000000000000000000000000d"
          ],
          "data": "0x0000000000000000000000000000000000000000000000000000000000000001000000000000000000000000000000000000000000000000000000000000004000000000000000000000000000000000000000000000000000000000000000b9697066732f516d596d70487979624544346d6d6751596f6859745545586532754478686141484b79786f64426f55424e6331522f30303030303030303030303030303030303030303030303030303030303030303030303030303030303030303030303030303030303030303030303030303133303030303030303030303030303030303030303030303030303030303030303030303030303030303030303030303030303030303030303030303030303030312e6a736f6e00000000000000",
          "blockHash": "0xdaf3d611235796145610dccbc177158d21347f7abda0b777b2cea1685b521cf1",
          "blockNumber": "0x2d4507b",
          "transactionHash": "0x7d171932b260d993531782c019e4e9c2b0ca0ebdb172f8a008208c5c6c9119ef",
          "transactionIndex": "0x19",
          "logIndex": "0x76",
          "removed": false
        }
      ],
      "logsBloom": "0x00000000000000000040000000000000000000000000000000000000000000000000000000000000000000000000000000000000000000000000000000000000000000000000000000000000000000004202000000000000000000000000000000000010000000000000000000000000000000000000000000000000000000000000000000000000000000000000000000000000000000000000000000000000000000200000000000000000000000000000000000000000000000000000000000000000000000000000000000000000000000000000000200000000000000020000000000000000000200000000000000000000000000000000000000000000",
      "type": "0x0",
      "transactionHash": "0x7d171932b260d993531782c019e4e9c2b0ca0ebdb172f8a008208c5c6c9119ef",
      "transactionIndex": "0x19",
      "blockHash": "0xdaf3d611235796145610dccbc177158d21347f7abda0b777b2cea1685b521cf1",
      "blockNumber": "0x2d4507b",
      "gasUsed": "0xf6ec",
      "effectiveGasPrice": "0x5d27e1df8",
      "from": "0x8835669696fb92839ab198cd80ce9f0d35f45ad5",
      "to": "0xd47c56513e640e394024facbbe5032cf604bb699",
      "contractAddress": null,
      "l1BaseFeeScalar": "0x0",
      "l1BlobBaseFee": "0x1",
      "l1BlobBaseFeeScalar": "0x0",
      "l1Fee": "0x0",
      "l1GasPrice": "0xcbec4bd",
      "l1GasUsed": "0x8e4"
    },
    {
      "status": "0x1",
      "cumulativeGasUsed": "0x40e984",
      "logs": [
        {
          "address": "0xd47c56513e640e394024facbbe5032cf604bb699",
          "topics": [
            "0x3e442b5d5a6ecd8c0a86017cabd5ee0efbf32debbee58f9cea68f1b8489e4193",
            "0x000000000000000000000000000000000000000000000000000000000000000d"
          ],
          "data": "0x0000000000000000000000000000000000000000000000000000000000000002000000000000000000000000000000000000000000000000000000000000004000000000000000000000000000000000000000000000000000000000000000b9697066732f516d596d70487979624544346d6d6751596f6859745545586532754478686141484b79786f64426f55424e6331522f30303030303030303030303030303030303030303030303030303030303030303030303030303030303030303030303030303030303030303030303030303133303030303030303030303030303030303030303030303030303030303030303030303030303030303030303030303030303030303030303030303030303030322e6a736f6e00000000000000",
          "blockHash": "0xdaf3d611235796145610dccbc177158d21347f7abda0b777b2cea1685b521cf1",
          "blockNumber": "0x2d4507b",
          "transactionHash": "0x45113315208e316b76a446e752aaec1496a973b8abf6de9b91299b5263d09a1c",
          "transactionIndex": "0x1a",
          "logIndex": "0x77",
          "removed": false
        }
      ],
      "logsBloom": "0x00000000000000000040000000000000000000000000000000000000000000000000000000000000000000000000000000000000000000000000000000000000000000000000000000000000000000004202000000000000000000000000000000000010000000000000000000000000000000000000000000000000000000000000000000000000000000000000000000000000000000000000000000000000000000200000000000000000000000000000000000000000000000000000000000000000000000000000000000000000000000000000000200000000000000020000000000000000000200000000000000000000000000000000000000000000",
      "type": "0x0",
      "transactionHash": "0x45113315208e316b76a446e752aaec1496a973b8abf6de9b91299b5263d09a1c",
      "transactionIndex": "0x1a",
      "blockHash": "0xdaf3d611235796145610dccbc177158d21347f7abda0b777b2cea1685b521cf1",
      "blockNumber": "0x2d4507b",
      "gasUsed": "0xf6ec",
      "effectiveGasPrice": "0x5d27e1df8",
      "from": "0x8835669696fb92839ab198cd80ce9f0d35f45ad5",
      "to": "0xd47c56513e640e394024facbbe5032cf604bb699",
      "contractAddress": null,
      "l1BaseFeeScalar": "0x0",
      "l1BlobBaseFee": "0x1",
      "l1BlobBaseFeeScalar": "0x0",
      "l1Fee": "0x0",
      "l1GasPrice": "0xcbec4bd",
      "l1GasUsed": "0x8f1"
    },
    {
      "status": "0x1",
      "cumulativeGasUsed": "0x41e070",
      "logs": [
        {
          "address": "0xd47c56513e640e394024facbbe5032cf604bb699",
          "topics": [
            "0x3e442b5d5a6ecd8c0a86017cabd5ee0efbf32debbee58f9cea68f1b8489e4193",
            "0x000000000000000000000000000000000000000000000000000000000000000d"
          ],
          "data": "0x0000000000000000000000000000000000000000000000000000000000000003000000000000000000000000000000000000000000000000000000000000004000000000000000000000000000000000000000000000000000000000000000b9697066732f516d596d70487979624544346d6d6751596f6859745545586532754478686141484b79786f64426f55424e6331522f30303030303030303030303030303030303030303030303030303030303030303030303030303030303030303030303030303030303030303030303030303133303030303030303030303030303030303030303030303030303030303030303030303030303030303030303030303030303030303030303030303030303030332e6a736f6e00000000000000",
          "blockHash": "0xdaf3d611235796145610dccbc177158d21347f7abda0b777b2cea1685b521cf1",
          "blockNumber": "0x2d4507b",
          "transactionHash": "0xdc43790bcbecdfab4a1365c4612fa26f5d2efe0e7e5fa3756f164e38a189e818",
          "transactionIndex": "0x1b",
          "logIndex": "0x78",
          "removed": false
        }
      ],
      "logsBloom": "0x00000000000000000040000000000000000000000000000000000000000000000000000000000000000000000000000000000000000000000000000000000000000000000000000000000000000000004202000000000000000000000000000000000010000000000000000000000000000000000000000000000000000000000000000000000000000000000000000000000000000000000000000000000000000000200000000000000000000000000000000000000000000000000000000000000000000000000000000000000000000000000000000200000000000000020000000000000000000200000000000000000000000000000000000000000000",
      "type": "0x0",
      "transactionHash": "0xdc43790bcbecdfab4a1365c4612fa26f5d2efe0e7e5fa3756f164e38a189e818",
      "transactionIndex": "0x1b",
      "blockHash": "0xdaf3d611235796145610dccbc177158d21347f7abda0b777b2cea1685b521cf1",
      "blockNumber": "0x2d4507b",
      "gasUsed": "0xf6ec",
      "effectiveGasPrice": "0x5d27e1df8",
      "from": "0x8835669696fb92839ab198cd80ce9f0d35f45ad5",
      "to": "0xd47c56513e640e394024facbbe5032cf604bb699",
      "contractAddress": null,
      "l1BaseFeeScalar": "0x0",
      "l1BlobBaseFee": "0x1",
      "l1BlobBaseFeeScalar": "0x0",
      "l1Fee": "0x0",
      "l1GasPrice": "0xcbec4bd",
      "l1GasUsed": "0x8f1"
    },
    {
      "status": "0x1",
      "cumulativeGasUsed": "0x42d75c",
      "logs": [
        {
          "address": "0xd47c56513e640e394024facbbe5032cf604bb699",
          "topics": [
            "0x3e442b5d5a6ecd8c0a86017cabd5ee0efbf32debbee58f9cea68f1b8489e4193",
            "0x000000000000000000000000000000000000000000000000000000000000000d"
          ],
          "data": "0x0000000000000000000000000000000000000000000000000000000000000004000000000000000000000000000000000000000000000000000000000000004000000000000000000000000000000000000000000000000000000000000000b9697066732f516d596d70487979624544346d6d6751596f6859745545586532754478686141484b79786f64426f55424e6331522f30303030303030303030303030303030303030303030303030303030303030303030303030303030303030303030303030303030303030303030303030303133303030303030303030303030303030303030303030303030303030303030303030303030303030303030303030303030303030303030303030303030303030342e6a736f6e00000000000000",
          "blockHash": "0xdaf3d611235796145610dccbc177158d21347f7abda0b777b2cea1685b521cf1",
          "blockNumber": "0x2d4507b",
          "transactionHash": "0x15524f65c4dfd74a85744bdd633e265d52fe6f6565a9098d19d78394a6c543aa",
          "transactionIndex": "0x1c",
          "logIndex": "0x79",
          "removed": false
        }
      ],
      "logsBloom": "0x00000000000000000040000000000000000000000000000000000000000000000000000000000000000000000000000000000000000000000000000000000000000000000000000000000000000000004202000000000000000000000000000000000010000000000000000000000000000000000000000000000000000000000000000000000000000000000000000000000000000000000000000000000000000000200000000000000000000000000000000000000000000000000000000000000000000000000000000000000000000000000000000200000000000000020000000000000000000200000000000000000000000000000000000000000000",
      "type": "0x0",
      "transactionHash": "0x15524f65c4dfd74a85744bdd633e265d52fe6f6565a9098d19d78394a6c543aa",
      "transactionIndex": "0x1c",
      "blockHash": "0xdaf3d611235796145610dccbc177158d21347f7abda0b777b2cea1685b521cf1",
      "blockNumber": "0x2d4507b",
      "gasUsed": "0xf6ec",
      "effectiveGasPrice": "0x5d27e1df8",
      "from": "0x8835669696fb92839ab198cd80ce9f0d35f45ad5",
      "to": "0xd47c56513e640e394024facbbe5032cf604bb699",
      "contractAddress": null,
      "l1BaseFeeScalar": "0x0",
      "l1BlobBaseFee": "0x1",
      "l1BlobBaseFeeScalar": "0x0",
      "l1Fee": "0x0",
      "l1GasPrice": "0xcbec4bd",
      "l1GasUsed": "0x8f1"
    },
    {
      "status": "0x1",
      "cumulativeGasUsed": "0x43ce48",
      "logs": [
        {
          "address": "0xd47c56513e640e394024facbbe5032cf604bb699",
          "topics": [
            "0x3e442b5d5a6ecd8c0a86017cabd5ee0efbf32debbee58f9cea68f1b8489e4193",
            "0x000000000000000000000000000000000000000000000000000000000000000d"
          ],
          "data": "0x0000000000000000000000000000000000000000000000000000000000000005000000000000000000000000000000000000000000000000000000000000004000000000000000000000000000000000000000000000000000000000000000b9697066732f516d596d70487979624544346d6d6751596f6859745545586532754478686141484b79786f64426f55424e6331522f30303030303030303030303030303030303030303030303030303030303030303030303030303030303030303030303030303030303030303030303030303133303030303030303030303030303030303030303030303030303030303030303030303030303030303030303030303030303030303030303030303030303030352e6a736f6e00000000000000",
          "blockHash": "0xdaf3d611235796145610dccbc177158d21347f7abda0b777b2cea1685b521cf1",
          "blockNumber": "0x2d4507b",
          "transactionHash": "0xff782e2a9482d56342a072f599693de0a7f5cc37a0a656df87b7bc2a220d438e",
          "transactionIndex": "0x1d",
          "logIndex": "0x7a",
          "removed": false
        }
      ],
      "logsBloom": "0x00000000000000000040000000000000000000000000000000000000000000000000000000000000000000000000000000000000000000000000000000000000000000000000000000000000000000004202000000000000000000000000000000000010000000000000000000000000000000000000000000000000000000000000000000000000000000000000000000000000000000000000000000000000000000200000000000000000000000000000000000000000000000000000000000000000000000000000000000000000000000000000000200000000000000020000000000000000000200000000000000000000000000000000000000000000",
      "type": "0x0",
      "transactionHash": "0xff782e2a9482d56342a072f599693de0a7f5cc37a0a656df87b7bc2a220d438e",
      "transactionIndex": "0x1d",
      "blockHash": "0xdaf3d611235796145610dccbc177158d21347f7abda0b777b2cea1685b521cf1",
      "blockNumber": "0x2d4507b",
      "gasUsed": "0xf6ec",
      "effectiveGasPrice": "0x5d27e1df8",
      "from": "0x8835669696fb92839ab198cd80ce9f0d35f45ad5",
      "to": "0xd47c56513e640e394024facbbe5032cf604bb699",
      "contractAddress": null,
      "l1BaseFeeScalar": "0x0",
      "l1BlobBaseFee": "0x1",
      "l1BlobBaseFeeScalar": "0x0",
      "l1Fee": "0x0",
      "l1GasPrice": "0xcbec4bd",
      "l1GasUsed": "0x8f1"
    }
  ],
  "libraries": [],
  "pending": [],
  "returns": {
    "0": {
      "internal_type": "address",
      "value": "0x0000000000000000000000000000000000000000"
    }
  },
  "timestamp": 1759369423,
  "chain": 42220,
  "commit": "671ce32"
}