{
  "transactions": [
    {
      "hash": "0xc65de44a8e640447fdd85b39c1f9871a339011529655cde35c70a195a8c7dd47",
      "transactionType": "CALL",
      "contractName": null,
      "contractAddress": "0xd47c56513e640e394024facbbe5032cf604bb699",
      "function": "setBadgeMetadata(uint256,string)",
      "arguments": [
        "30",
        "ipfs/QmYGzoR6Lt7JKnZeQ8QDuuvjzMMXCA8u9iJ9ahDpMs1Eaa/00000000000000000000000000000000000000000000000000000000000000300000000000000000000000000000000000000000000000000000000000000000.json"
      ],
      "transaction": {
        "from": "0x8835669696fb92839ab198cd80ce9f0d35f45ad5",
        "to": "0xd47c56513e640e394024facbbe5032cf604bb699",
        "gas": "0x4119d",
        "value": "0x0",
        "input": "0xce64b45f000000000000000000000000000000000000000000000000000000000000001e000000000000000000000000000000000000000000000000000000000000004000000000000000000000000000000000000000000000000000000000000000b9697066732f516d59477a6f52364c74374a4b6e5a65513851447575766a7a4d4d584341387539694a39616844704d73314561612f30303030303030303030303030303030303030303030303030303030303030303030303030303030303030303030303030303030303030303030303030303330303030303030303030303030303030303030303030303030303030303030303030303030303030303030303030303030303030303030303030303030303030302e6a736f6e00000000000000",
        "nonce": "0x2f6b",
        "chainId": "0xa4ec"
      },
      "additionalContracts": [],
      "isFixedGasLimit": false
    },
    {
      "hash": "0x09cb2716907bc84a3c9a3bd26ece513e57e21a9f6d63fc480133e2506427aa92",
      "transactionType": "CALL",
      "contractName": null,
      "contractAddress": "0xd47c56513e640e394024facbbe5032cf604bb699",
      "function": "setBadgeTier(uint256,uint256,string,uint256)",
      "arguments": [
        "30",
        "1",
        "ipfs/QmYGzoR6Lt7JKnZeQ8QDuuvjzMMXCA8u9iJ9ahDpMs1Eaa/00000000000000000000000000000000000000000000000000000000000000300000000000000000000000000000000000000000000000000000000000000001.json",
        "10"
      ],
      "transaction": {
        "from": "0x8835669696fb92839ab198cd80ce9f0d35f45ad5",
        "to": "0xd47c56513e640e394024facbbe5032cf604bb699",
        "gas": "0x5178a",
        "value": "0x0",
        "input": "0xcf132d1c000000000000000000000000000000000000000000000000000000000000001e00000000000000000000000000000000000000000000000000000000000000010000000000000000000000000000000000000000000000000000000000000080000000000000000000000000000000000000000000000000000000000000000a00000000000000000000000000000000000000000000000000000000000000b9697066732f516d59477a6f52364c74374a4b6e5a65513851447575766a7a4d4d584341387539694a39616844704d73314561612f30303030303030303030303030303030303030303030303030303030303030303030303030303030303030303030303030303030303030303030303030303330303030303030303030303030303030303030303030303030303030303030303030303030303030303030303030303030303030303030303030303030303030312e6a736f6e00000000000000",
        "nonce": "0x2f6c",
        "chainId": "0xa4ec"
      },
      "additionalContracts": [],
      "isFixedGasLimit": false
    },
    {
      "hash": "0xf6b7b3f38d2b99f0d726e364f0727d166a68976f67fb1cc6481058c66d731cdd",
      "transactionType": "CALL",
      "contractName": null,
      "contractAddress": "0xd47c56513e640e394024facbbe5032cf604bb699",
      "function": "setBadgeTier(uint256,uint256,string,uint256)",
      "arguments": [
        "30",
        "2",
        "ipfs/QmYGzoR6Lt7JKnZeQ8QDuuvjzMMXCA8u9iJ9ahDpMs1Eaa/00000000000000000000000000000000000000000000000000000000000000300000000000000000000000000000000000000000000000000000000000000002.json",
        "20"
      ],
      "transaction": {
        "from": "0x8835669696fb92839ab198cd80ce9f0d35f45ad5",
        "to": "0xd47c56513e640e394024facbbe5032cf604bb699",
        "gas": "0x4c8af",
        "value": "0x0",
        "input": "0xcf132d1c000000000000000000000000000000000000000000000000000000000000001e00000000000000000000000000000000000000000000000000000000000000020000000000000000000000000000000000000000000000000000000000000080000000000000000000000000000000000000000000000000000000000000001400000000000000000000000000000000000000000000000000000000000000b9697066732f516d59477a6f52364c74374a4b6e5a65513851447575766a7a4d4d584341387539694a39616844704d73314561612f30303030303030303030303030303030303030303030303030303030303030303030303030303030303030303030303030303030303030303030303030303330303030303030303030303030303030303030303030303030303030303030303030303030303030303030303030303030303030303030303030303030303030322e6a736f6e00000000000000",
        "nonce": "0x2f6d",
        "chainId": "0xa4ec"
      },
      "additionalContracts": [],
      "isFixedGasLimit": false
    },
    {
      "hash": "0x776fac3368a14e38bc7bf3651c1f7256ad087a8f03bd3f1877da6e82bf4c2487",
      "transactionType": "CALL",
      "contractName": null,
      "contractAddress": "0xd47c56513e640e394024facbbe5032cf604bb699",
      "function": "setBadgeTier(uint256,uint256,string,uint256)",
      "arguments": [
        "30",
        "3",
        "ipfs/QmYGzoR6Lt7JKnZeQ8QDuuvjzMMXCA8u9iJ9ahDpMs1Eaa/00000000000000000000000000000000000000000000000000000000000000300000000000000000000000000000000000000000000000000000000000000003.json",
        "30"
      ],
      "transaction": {
        "from": "0x8835669696fb92839ab198cd80ce9f0d35f45ad5",
        "to": "0xd47c56513e640e394024facbbe5032cf604bb699",
        "gas": "0x4c8af",
        "value": "0x0",
        "input": "0xcf132d1c000000000000000000000000000000000000000000000000000000000000001e00000000000000000000000000000000000000000000000000000000000000030000000000000000000000000000000000000000000000000000000000000080000000000000000000000000000000000000000000000000000000000000001e00000000000000000000000000000000000000000000000000000000000000b9697066732f516d59477a6f52364c74374a4b6e5a65513851447575766a7a4d4d584341387539694a39616844704d73314561612f30303030303030303030303030303030303030303030303030303030303030303030303030303030303030303030303030303030303030303030303030303330303030303030303030303030303030303030303030303030303030303030303030303030303030303030303030303030303030303030303030303030303030332e6a736f6e00000000000000",
        "nonce": "0x2f6e",
        "chainId": "0xa4ec"
      },
      "additionalContracts": [],
      "isFixedGasLimit": false
    }
  ],
  "receipts": [
    {
      "status": "0x1",
      "cumulativeGasUsed": "0x6d750",
      "logs": [
        {
          "address": "0xd47c56513e640e394024facbbe5032cf604bb699",
          "topics": [
            "0x2e5977e12fac9a91696e22ba811f2893e11ad62f8aa53e99a628b031d18a379f",
            "0x000000000000000000000000000000000000000000000000000000000000001e"
          ],
          "data": "0x000000000000000000000000000000000000000000000000000000000000002000000000000000000000000000000000000000000000000000000000000000b9697066732f516d59477a6f52364c74374a4b6e5a65513851447575766a7a4d4d584341387539694a39616844704d73314561612f30303030303030303030303030303030303030303030303030303030303030303030303030303030303030303030303030303030303030303030303030303330303030303030303030303030303030303030303030303030303030303030303030303030303030303030303030303030303030303030303030303030303030302e6a736f6e00000000000000",
          "blockHash": "0x8653d23bef3822b3caae117df89554ac6c6c6e56f3f675c567cfa7f9c3a13ae0",
          "blockNumber": "0x332f9ec",
          "transactionHash": "0xc65de44a8e640447fdd85b39c1f9871a339011529655cde35c70a195a8c7dd47",
          "transactionIndex": "0x2",
          "logIndex": "0x1",
          "removed": false
        }
      ],
      "logsBloom": "0x00000000000000000000000000000000000000000000000000000000000000000000000000000000000000000400000000000000000000000000000000000000000000000000008000000000000000004200000000000000000000000000000000000000000000000000000000000000000000000000000000000000000004000000000000000000000000000000000000000000000000000000000000000000000000000000000000000000000000000000000000000100000000000000000000000000000000000000000000000000000000000000000000000000400000000000000000000000080200000000000000000000000000000000000000000000",
      "type": "0x2",
      "transactionHash": "0xc65de44a8e640447fdd85b39c1f9871a339011529655cde35c70a195a8c7dd47",
      "transactionIndex": "0x2",
      "blockHash": "0x8653d23bef3822b3caae117df89554ac6c6c6e56f3f675c567cfa7f9c3a13ae0",
      "blockNumber": "0x332f9ec",
      "gasUsed": "0x2f21d",
      "effectiveGasPrice": "0x5d22e82d8",
      "from": "0x8835669696fb92839ab198cd80ce9f0d35f45ad5",
      "to": "0xd47c56513e640e394024facbbe5032cf604bb699",
      "contractAddress": null,
      "l1BaseFeeScalar": "0x0",
      "l1BlobBaseFee": "0x83a01f1aa",
      "l1BlobBaseFeeScalar": "0x0",
      "l1Fee": "0x0",
      "l1GasPrice": "0x1f2e88e",
      "l1GasUsed": "0x8ae"
    },
    {
      "status": "0x1",
      "cumulativeGasUsed": "0xa870e",
      "logs": [
        {
          "address": "0xd47c56513e640e394024facbbe5032cf604bb699",
          "topics": [
            "0x5625f15df4cbadf2e6e3f80e2406aec5d99a432335ef0e9a1fba9e48b0558303",
            "0x000000000000000000000000000000000000000000000000000000000000001e"
          ],
          "data": "0x00000000000000000000000000000000000000000000000000000000000000010000000000000000000000000000000000000000000000000000000000000060000000000000000000000000000000000000000000000000000000000000000a00000000000000000000000000000000000000000000000000000000000000b9697066732f516d59477a6f52364c74374a4b6e5a65513851447575766a7a4d4d584341387539694a39616844704d73314561612f30303030303030303030303030303030303030303030303030303030303030303030303030303030303030303030303030303030303030303030303030303330303030303030303030303030303030303030303030303030303030303030303030303030303030303030303030303030303030303030303030303030303030312e6a736f6e00000000000000",
          "blockHash": "0x8653d23bef3822b3caae117df89554ac6c6c6e56f3f675c567cfa7f9c3a13ae0",
          "blockNumber": "0x332f9ec",
          "transactionHash": "0x09cb2716907bc84a3c9a3bd26ece513e57e21a9f6d63fc480133e2506427aa92",
          "transactionIndex": "0x3",
          "logIndex": "0x2",
          "removed": false
        }
      ],
      "logsBloom": "0x00000000000000000000000000000000000000000000000000000000000000000000000000000000000000000400000000000000000000000000000000000000000000000000008000000000000000004200000000000000000000000000000000040000000000000000000000000000000000000000000000000000000000000000000000000000000000000000000000000000000000000000000000000000000000000000000000000000000000000000000000000000000000000000000000000000000000000000004000000000000000000000000000000000000000000000000000000000080200000000000000000000010000000000000000000000",
      "type": "0x2",
      "transactionHash": "0x09cb2716907bc84a3c9a3bd26ece513e57e21a9f6d63fc480133e2506427aa92",
      "transactionIndex": "0x3",
      "blockHash": "0x8653d23bef3822b3caae117df89554ac6c6c6e56f3f675c567cfa7f9c3a13ae0",
      "blockNumber": "0x332f9ec",
      "gasUsed": "0x3afbe",
      "effectiveGasPrice": "0x5d22e82d8",
      "from": "0x8835669696fb92839ab198cd80ce9f0d35f45ad5",
      "to": "0xd47c56513e640e394024facbbe5032cf604bb699",
      "contractAddress": null,
      "l1BaseFeeScalar": "0x0",
      "l1BlobBaseFee": "0x83a01f1aa",
      "l1BlobBaseFeeScalar": "0x0",
      "l1Fee": "0x0",
      "l1GasPrice": "0x1f2e88e",
      "l1GasUsed": "0x977"
    },
    {
      "status": "0x1",
      "cumulativeGasUsed": "0x14f5ca",
      "logs": [
        {
          "address": "0xd47c56513e640e394024facbbe5032cf604bb699",
          "topics": [
            "0x5625f15df4cbadf2e6e3f80e2406aec5d99a432335ef0e9a1fba9e48b0558303",
            "0x000000000000000000000000000000000000000000000000000000000000001e"
          ],
          "data": "0x00000000000000000000000000000000000000000000000000000000000000020000000000000000000000000000000000000000000000000000000000000060000000000000000000000000000000000000000000000000000000000000001400000000000000000000000000000000000000000000000000000000000000b9697066732f516d59477a6f52364c74374a4b6e5a65513851447575766a7a4d4d584341387539694a39616844704d73314561612f30303030303030303030303030303030303030303030303030303030303030303030303030303030303030303030303030303030303030303030303030303330303030303030303030303030303030303030303030303030303030303030303030303030303030303030303030303030303030303030303030303030303030322e6a736f6e00000000000000",
          "blockHash": "0x8653d23bef3822b3caae117df89554ac6c6c6e56f3f675c567cfa7f9c3a13ae0",
          "blockNumber": "0x332f9ec",
          "transactionHash": "0xf6b7b3f38d2b99f0d726e364f0727d166a68976f67fb1cc6481058c66d731cdd",
          "transactionIndex": "0x7",
          "logIndex": "0x14",
          "removed": false
        }
      ],
      "logsBloom": "0x00000000000000000000000000000000000000000000000000000000000000000000000000000000000000000400000000000000000000000000000000000000000000000000008000000000000000004200000000000000000000000000000000040000000000000000000000000000000000000000000000000000000000000000000000000000000000000000000000000000000000000000000000000000000000000000000000000000000000000000000000000000000000000000000000000000000000000000004000000000000000000000000000000000000000000000000000000000080200000000000000000000010000000000000000000000",
      "type": "0x2",
      "transactionHash": "0xf6b7b3f38d2b99f0d726e364f0727d166a68976f67fb1cc6481058c66d731cdd",
      "transactionIndex": "0x7",
      "blockHash": "0x8653d23bef3822b3caae117df89554ac6c6c6e56f3f675c567cfa7f9c3a13ae0",
      "blockNumber": "0x332f9ec",
      "gasUsed": "0x376a7",
      "effectiveGasPrice": "0x5d22e82d8",
      "from": "0x8835669696fb92839ab198cd80ce9f0d35f45ad5",
      "to": "0xd47c56513e640e394024facbbe5032cf604bb699",
      "contractAddress": null,
      "l1BaseFeeScalar": "0x0",
      "l1BlobBaseFee": "0x83a01f1aa",
      "l1BlobBaseFeeScalar": "0x0",
      "l1Fee": "0x0",
      "l1GasPrice": "0x1f2e88e",
      "l1GasUsed": "0x977"
    },
    {
      "status": "0x1",
      "cumulativeGasUsed": "0x186c71",
      "logs": [
        {
          "address": "0xd47c56513e640e394024facbbe5032cf604bb699",
          "topics": [
            "0x5625f15df4cbadf2e6e3f80e2406aec5d99a432335ef0e9a1fba9e48b0558303",
            "0x000000000000000000000000000000000000000000000000000000000000001e"
          ],
          "data": "0x00000000000000000000000000000000000000000000000000000000000000030000000000000000000000000000000000000000000000000000000000000060000000000000000000000000000000000000000000000000000000000000001e00000000000000000000000000000000000000000000000000000000000000b9697066732f516d59477a6f52364c74374a4b6e5a65513851447575766a7a4d4d584341387539694a39616844704d73314561612f30303030303030303030303030303030303030303030303030303030303030303030303030303030303030303030303030303030303030303030303030303330303030303030303030303030303030303030303030303030303030303030303030303030303030303030303030303030303030303030303030303030303030332e6a736f6e00000000000000",
          "blockHash": "0x8653d23bef3822b3caae117df89554ac6c6c6e56f3f675c567cfa7f9c3a13ae0",
          "blockNumber": "0x332f9ec",
          "transactionHash": "0x776fac3368a14e38bc7bf3651c1f7256ad087a8f03bd3f1877da6e82bf4c2487",
          "transactionIndex": "0x8",
          "logIndex": "0x15",
          "removed": false
        }
      ],
      "logsBloom": "0x00000000000000000000000000000000000000000000000000000000000000000000000000000000000000000400000000000000000000000000000000000000000000000000008000000000000000004200000000000000000000000000000000040000000000000000000000000000000000000000000000000000000000000000000000000000000000000000000000000000000000000000000000000000000000000000000000000000000000000000000000000000000000000000000000000000000000000000004000000000000000000000000000000000000000000000000000000000080200000000000000000000010000000000000000000000",
      "type": "0x2",
      "transactionHash": "0x776fac3368a14e38bc7bf3651c1f7256ad087a8f03bd3f1877da6e82bf4c2487",
      "transactionIndex": "0x8",
      "blockHash": "0x8653d23bef3822b3caae117df89554ac6c6c6e56f3f675c567cfa7f9c3a13ae0",
      "blockNumber": "0x332f9ec",
      "gasUsed": "0x376a7",
      "effectiveGasPrice": "0x5d22e82d8",
      "from": "0x8835669696fb92839ab198cd80ce9f0d35f45ad5",
      "to": "0xd47c56513e640e394024facbbe5032cf604bb699",
      "contractAddress": null,
      "l1BaseFeeScalar": "0x0",
      "l1BlobBaseFee": "0x83a01f1aa",
      "l1BlobBaseFeeScalar": "0x0",
      "l1Fee": "0x0",
      "l1GasPrice": "0x1f2e88e",
      "l1GasUsed": "0x95c"
    }
  ],
  "libraries": [],
  "pending": [],
  "returns": {
    "0": {
      "internal_type": "address",
      "value": "0x0000000000000000000000000000000000000000"
    }
  },
  "timestamp": 1765573185982,
  "chain": 42220,
  "commit": "ad2bcf8"
}