{
  "transactions": [
    {
      "hash": "0x2330382809bcff13b323056fd7950ae5895e67bc710959bcba3b8b3893cfc88a",
      "transactionType": "CALL",
      "contractName": null,
      "contractAddress": "0xd47c56513e640e394024facbbe5032cf604bb699",
      "function": "setBadgeMetadata(uint256,string)",
      "arguments": [
        "21",
        "ipfs/bafybeigglv3k4kh24hmcxe4mqu7kqchkoio5he73qpclufftkbtyuw2jym/00000000000000000000000000000000000000000000000000000000000000210000000000000000000000000000000000000000000000000000000000000000.json"
      ],
      "transaction": {
        "from": "0x8835669696fb92839ab198cd80ce9f0d35f45ad5",
        "to": "0xd47c56513e640e394024facbbe5032cf604bb699",
        "gas": "0x48cc3",
        "value": "0x0",
        "input": "0xce64b45f0000000000000000000000000000000000000000000000000000000000000015000000000000000000000000000000000000000000000000000000000000004000000000000000000000000000000000000000000000000000000000000000c6697066732f6261667962656967676c76336b346b683234686d637865346d7175376b7163686b6f696f35686537337170636c756666746b6274797577326a796d2f30303030303030303030303030303030303030303030303030303030303030303030303030303030303030303030303030303030303030303030303030303231303030303030303030303030303030303030303030303030303030303030303030303030303030303030303030303030303030303030303030303030303030302e6a736f6e0000000000000000000000000000000000000000000000000000",
        "nonce": "0x514",
        "chainId": "0xa4ec"
      },
      "additionalContracts": [],
      "isFixedGasLimit": false
    },
    {
      "hash": "0x365767f3bad25df1351d68c0362d62b02d631ab0c33a2daa718174510e9cfadc",
      "transactionType": "CALL",
      "contractName": null,
      "contractAddress": "0xd47c56513e640e394024facbbe5032cf604bb699",
      "function": "setBadgeTier(uint256,uint256,string,uint256)",
      "arguments": [
        "21",
        "1",
        "ipfs/bafybeigglv3k4kh24hmcxe4mqu7kqchkoio5he73qpclufftkbtyuw2jym/00000000000000000000000000000000000000000000000000000000000000210000000000000000000000000000000000000000000000000000000000000001.json",
        "5"
      ],
      "transaction": {
        "from": "0x8835669696fb92839ab198cd80ce9f0d35f45ad5",
        "to": "0xd47c56513e640e394024facbbe5032cf604bb699",
        "gas": "0x592b0",
        "value": "0x0",
        "input": "0xcf132d1c000000000000000000000000000000000000000000000000000000000000001500000000000000000000000000000000000000000000000000000000000000010000000000000000000000000000000000000000000000000000000000000080000000000000000000000000000000000000000000000000000000000000000500000000000000000000000000000000000000000000000000000000000000c6697066732f6261667962656967676c76336b346b683234686d637865346d7175376b7163686b6f696f35686537337170636c756666746b6274797577326a796d2f30303030303030303030303030303030303030303030303030303030303030303030303030303030303030303030303030303030303030303030303030303231303030303030303030303030303030303030303030303030303030303030303030303030303030303030303030303030303030303030303030303030303030312e6a736f6e0000000000000000000000000000000000000000000000000000",
        "nonce": "0x515",
        "chainId": "0xa4ec"
      },
      "additionalContracts": [],
      "isFixedGasLimit": false
    },
    {
      "hash": "0x4c1a87be4be0c0718402d61cc8cddcf920807d5fb20570345e479f64b456b051",
      "transactionType": "CALL",
      "contractName": null,
      "contractAddress": "0xd47c56513e640e394024facbbe5032cf604bb699",
      "function": "setBadgeTier(uint256,uint256,string,uint256)",
      "arguments": [
        "21",
        "2",
        "ipfs/bafybeigglv3k4kh24hmcxe4mqu7kqchkoio5he73qpclufftkbtyuw2jym/00000000000000000000000000000000000000000000000000000000000000210000000000000000000000000000000000000000000000000000000000000002.json",
        "10"
      ],
      "transaction": {
        "from": "0x8835669696fb92839ab198cd80ce9f0d35f45ad5",
        "to": "0xd47c56513e640e394024facbbe5032cf604bb699",
        "gas": "0x543d4",
        "value": "0x0",
        "input": "0xcf132d1c000000000000000000000000000000000000000000000000000000000000001500000000000000000000000000000000000000000000000000000000000000020000000000000000000000000000000000000000000000000000000000000080000000000000000000000000000000000000000000000000000000000000000a00000000000000000000000000000000000000000000000000000000000000c6697066732f6261667962656967676c76336b346b683234686d637865346d7175376b7163686b6f696f35686537337170636c756666746b6274797577326a796d2f30303030303030303030303030303030303030303030303030303030303030303030303030303030303030303030303030303030303030303030303030303231303030303030303030303030303030303030303030303030303030303030303030303030303030303030303030303030303030303030303030303030303030322e6a736f6e0000000000000000000000000000000000000000000000000000",
        "nonce": "0x516",
        "chainId": "0xa4ec"
      },
      "additionalContracts": [],
      "isFixedGasLimit": false
    },
    {
      "hash": "0xc2c60b1e051f56f1e58ef8c7d160d1476590ce4ccea3a8898d9a10d3c4ad3344",
      "transactionType": "CALL",
      "contractName": null,
      "contractAddress": "0xd47c56513e640e394024facbbe5032cf604bb699",
      "function": "setBadgeTier(uint256,uint256,string,uint256)",
      "arguments": [
        "21",
        "3",
        "ipfs/bafybeigglv3k4kh24hmcxe4mqu7kqchkoio5he73qpclufftkbtyuw2jym/00000000000000000000000000000000000000000000000000000000000000210000000000000000000000000000000000000000000000000000000000000003.json",
        "15"
      ],
      "transaction": {
        "from": "0x8835669696fb92839ab198cd80ce9f0d35f45ad5",
        "to": "0xd47c56513e640e394024facbbe5032cf604bb699",
        "gas": "0x543d4",
        "value": "0x0",
        "input": "0xcf132d1c000000000000000000000000000000000000000000000000000000000000001500000000000000000000000000000000000000000000000000000000000000030000000000000000000000000000000000000000000000000000000000000080000000000000000000000000000000000000000000000000000000000000000f00000000000000000000000000000000000000000000000000000000000000c6697066732f6261667962656967676c76336b346b683234686d637865346d7175376b7163686b6f696f35686537337170636c756666746b6274797577326a796d2f30303030303030303030303030303030303030303030303030303030303030303030303030303030303030303030303030303030303030303030303030303231303030303030303030303030303030303030303030303030303030303030303030303030303030303030303030303030303030303030303030303030303030332e6a736f6e0000000000000000000000000000000000000000000000000000",
        "nonce": "0x517",
        "chainId": "0xa4ec"
      },
      "additionalContracts": [],
      "isFixedGasLimit": false
    },
    {
      "hash": "0x75b49cb8089b39fc35ebc70478b0473010c70618a1f25775968fc961a9028287",
      "transactionType": "CALL",
      "contractName": null,
      "contractAddress": "0xd47c56513e640e394024facbbe5032cf604bb699",
      "function": "setBadgeTier(uint256,uint256,string,uint256)",
      "arguments": [
        "21",
        "4",
        "ipfs/bafybeigglv3k4kh24hmcxe4mqu7kqchkoio5he73qpclufftkbtyuw2jym/00000000000000000000000000000000000000000000000000000000000000210000000000000000000000000000000000000000000000000000000000000004.json",
        "20"
      ],
      "transaction": {
        "from": "0x8835669696fb92839ab198cd80ce9f0d35f45ad5",
        "to": "0xd47c56513e640e394024facbbe5032cf604bb699",
        "gas": "0x543d4",
        "value": "0x0",
        "input": "0xcf132d1c000000000000000000000000000000000000000000000000000000000000001500000000000000000000000000000000000000000000000000000000000000040000000000000000000000000000000000000000000000000000000000000080000000000000000000000000000000000000000000000000000000000000001400000000000000000000000000000000000000000000000000000000000000c6697066732f6261667962656967676c76336b346b683234686d637865346d7175376b7163686b6f696f35686537337170636c756666746b6274797577326a796d2f30303030303030303030303030303030303030303030303030303030303030303030303030303030303030303030303030303030303030303030303030303231303030303030303030303030303030303030303030303030303030303030303030303030303030303030303030303030303030303030303030303030303030342e6a736f6e0000000000000000000000000000000000000000000000000000",
        "nonce": "0x518",
        "chainId": "0xa4ec"
      },
      "additionalContracts": [],
      "isFixedGasLimit": false
    },
    {
      "hash": "0xde3fc9550b714c4776ec21389bf0b44a2820ffcadcc4d440d4809eeef89e6a0b",
      "transactionType": "CALL",
      "contractName": null,
      "contractAddress": "0xd47c56513e640e394024facbbe5032cf604bb699",
      "function": "setBadgeTier(uint256,uint256,string,uint256)",
      "arguments": [
        "21",
        "5",
        "ipfs/bafybeigglv3k4kh24hmcxe4mqu7kqchkoio5he73qpclufftkbtyuw2jym/00000000000000000000000000000000000000000000000000000000000000210000000000000000000000000000000000000000000000000000000000000005.json",
        "25"
      ],
      "transaction": {
        "from": "0x8835669696fb92839ab198cd80ce9f0d35f45ad5",
        "to": "0xd47c56513e640e394024facbbe5032cf604bb699",
        "gas": "0x543d4",
        "value": "0x0",
        "input": "0xcf132d1c000000000000000000000000000000000000000000000000000000000000001500000000000000000000000000000000000000000000000000000000000000050000000000000000000000000000000000000000000000000000000000000080000000000000000000000000000000000000000000000000000000000000001900000000000000000000000000000000000000000000000000000000000000c6697066732f6261667962656967676c76336b346b683234686d637865346d7175376b7163686b6f696f35686537337170636c756666746b6274797577326a796d2f30303030303030303030303030303030303030303030303030303030303030303030303030303030303030303030303030303030303030303030303030303231303030303030303030303030303030303030303030303030303030303030303030303030303030303030303030303030303030303030303030303030303030352e6a736f6e0000000000000000000000000000000000000000000000000000",
        "nonce": "0x519",
        "chainId": "0xa4ec"
      },
      "additionalContracts": [],
      "isFixedGasLimit": false
    }
  ],
  "receipts": [
    {
      "status": "0x1",
      "cumulativeGasUsed": "0x77adb",
      "logs": [
        {
          "address": "0xd47c56513e640e394024facbbe5032cf604bb699",
          "topics": [
            "0x2e5977e12fac9a91696e22ba811f2893e11ad62f8aa53e99a628b031d18a379f",
            "0x0000000000000000000000000000000000000000000000000000000000000015"
          ],
          "data": "0x000000000000000000000000000000000000000000000000000000000000002000000000000000000000000000000000000000000000000000000000000000c6697066732f6261667962656967676c76336b346b683234686d637865346d7175376b7163686b6f696f35686537337170636c756666746b6274797577326a796d2f30303030303030303030303030303030303030303030303030303030303030303030303030303030303030303030303030303030303030303030303030303231303030303030303030303030303030303030303030303030303030303030303030303030303030303030303030303030303030303030303030303030303030302e6a736f6e0000000000000000000000000000000000000000000000000000",
          "blockHash": "0x7ddf5c37796145af8337e3f0521ae7a729116dd99d90cacee2e086f89602b35c",
          "blockNumber": "0x27004f6",
          "transactionHash": "0x2330382809bcff13b323056fd7950ae5895e67bc710959bcba3b8b3893cfc88a",
          "transactionIndex": "0x4",
          "logIndex": "0x9",
          "removed": false
        }
      ],
      "logsBloom": "0x00000000000000000000000000000000000000000000000000000000000000000000000000000000000000000000000000000000000000000000000000000000001000000000000000000000000000004200000000000000000000000000000000000000000000000000000000000000000000000000000000000000000004000000000000000000000000000000000000000000000000000000000000000000000000000000000000000000010000000000000000000100000000000000000000000000000000000000000000000000000000000000000000000000400000002000000000000000000200000000000000000000000000000000000000000000",
      "type": "0x0",
      "transactionHash": "0x2330382809bcff13b323056fd7950ae5895e67bc710959bcba3b8b3893cfc88a",
      "transactionIndex": "0x4",
      "blockHash": "0x7ddf5c37796145af8337e3f0521ae7a729116dd99d90cacee2e086f89602b35c",
      "blockNumber": "0x27004f6",
      "gasUsed": "0x34b45",
      "effectiveGasPrice": "0x5d22cfc40",
      "from": "0x8835669696fb92839ab198cd80ce9f0d35f45ad5",
      "to": "0xd47c56513e640e394024facbbe5032cf604bb699",
      "contractAddress": null,
      "l1BaseFeeScalar": "0x0",
      "l1BlobBaseFee": "0x1",
      "l1BlobBaseFeeScalar": "0x0",
      "l1Fee": "0x0",
      "l1GasPrice": "0xcf95d360",
      "l1GasUsed": "0x934"
    },
    {
      "status": "0x1",
      "cumulativeGasUsed": "0xb83c1",
      "logs": [
        {
          "address": "0xd47c56513e640e394024facbbe5032cf604bb699",
          "topics": [
            "0x5625f15df4cbadf2e6e3f80e2406aec5d99a432335ef0e9a1fba9e48b0558303",
            "0x0000000000000000000000000000000000000000000000000000000000000015"
          ],
          "data": "0x00000000000000000000000000000000000000000000000000000000000000010000000000000000000000000000000000000000000000000000000000000060000000000000000000000000000000000000000000000000000000000000000500000000000000000000000000000000000000000000000000000000000000c6697066732f6261667962656967676c76336b346b683234686d637865346d7175376b7163686b6f696f35686537337170636c756666746b6274797577326a796d2f30303030303030303030303030303030303030303030303030303030303030303030303030303030303030303030303030303030303030303030303030303231303030303030303030303030303030303030303030303030303030303030303030303030303030303030303030303030303030303030303030303030303030312e6a736f6e0000000000000000000000000000000000000000000000000000",
          "blockHash": "0x7ddf5c37796145af8337e3f0521ae7a729116dd99d90cacee2e086f89602b35c",
          "blockNumber": "0x27004f6",
          "transactionHash": "0x365767f3bad25df1351d68c0362d62b02d631ab0c33a2daa718174510e9cfadc",
          "transactionIndex": "0x5",
          "logIndex": "0xa",
          "removed": false
        }
      ],
      "logsBloom": "0x00000000000000000000000000000000000000000000000000000000000000000000000000000000000000000000000000000000000000000000000000000000001000000000000000000000000000004200000000000000000000000000000000040000000000000000000000000000000000000000000000000000000000000000000000000000000000000000000000000000000000000000000000000000000000000000000000000000010000000000000000000000000000000000000000000000000000000000004000000000000000000000000000000000000000002000000000000000000200000000000000000000010000000000000000000000",
      "type": "0x0",
      "transactionHash": "0x365767f3bad25df1351d68c0362d62b02d631ab0c33a2daa718174510e9cfadc",
      "transactionIndex": "0x5",
      "blockHash": "0x7ddf5c37796145af8337e3f0521ae7a729116dd99d90cacee2e086f89602b35c",
      "blockNumber": "0x27004f6",
      "gasUsed": "0x408e6",
      "effectiveGasPrice": "0x5d22cfc40",
      "from": "0x8835669696fb92839ab198cd80ce9f0d35f45ad5",
      "to": "0xd47c56513e640e394024facbbe5032cf604bb699",
      "contractAddress": null,
      "l1BaseFeeScalar": "0x0",
      "l1BlobBaseFee": "0x1",
      "l1BlobBaseFeeScalar": "0x0",
      "l1Fee": "0x0",
      "l1GasPrice": "0xcf95d360",
      "l1GasUsed": "0x9fd"
    },
    {
      "status": "0x1",
      "cumulativeGasUsed": "0x880d6",
      "logs": [
        {
          "address": "0xd47c56513e640e394024facbbe5032cf604bb699",
          "topics": [
            "0x5625f15df4cbadf2e6e3f80e2406aec5d99a432335ef0e9a1fba9e48b0558303",
            "0x0000000000000000000000000000000000000000000000000000000000000015"
          ],
          "data": "0x00000000000000000000000000000000000000000000000000000000000000020000000000000000000000000000000000000000000000000000000000000060000000000000000000000000000000000000000000000000000000000000000a00000000000000000000000000000000000000000000000000000000000000c6697066732f6261667962656967676c76336b346b683234686d637865346d7175376b7163686b6f696f35686537337170636c756666746b6274797577326a796d2f30303030303030303030303030303030303030303030303030303030303030303030303030303030303030303030303030303030303030303030303030303231303030303030303030303030303030303030303030303030303030303030303030303030303030303030303030303030303030303030303030303030303030322e6a736f6e0000000000000000000000000000000000000000000000000000",
          "blockHash": "0xb4cde120cca333674d76d040d6025a5728df05dc20c93b9d07ed190f2e00d15f",
          "blockNumber": "0x27004f7",
          "transactionHash": "0x4c1a87be4be0c0718402d61cc8cddcf920807d5fb20570345e479f64b456b051",
          "transactionIndex": "0x3",
          "logIndex": "0x8",
          "removed": false
        }
      ],
      "logsBloom": "0x00000000000000000000000000000000000000000000000000000000000000000000000000000000000000000000000000000000000000000000000000000000001000000000000000000000000000004200000000000000000000000000000000040000000000000000000000000000000000000000000000000000000000000000000000000000000000000000000000000000000000000000000000000000000000000000000000000000010000000000000000000000000000000000000000000000000000000000004000000000000000000000000000000000000000002000000000000000000200000000000000000000010000000000000000000000",
      "type": "0x0",
      "transactionHash": "0x4c1a87be4be0c0718402d61cc8cddcf920807d5fb20570345e479f64b456b051",
      "transactionIndex": "0x3",
      "blockHash": "0xb4cde120cca333674d76d040d6025a5728df05dc20c93b9d07ed190f2e00d15f",
      "blockNumber": "0x27004f7",
      "gasUsed": "0x3cfcf",
      "effectiveGasPrice": "0x5d22cfc40",
      "from": "0x8835669696fb92839ab198cd80ce9f0d35f45ad5",
      "to": "0xd47c56513e640e394024facbbe5032cf604bb699",
      "contractAddress": null,
      "l1BaseFeeScalar": "0x0",
      "l1BlobBaseFee": "0x1",
      "l1BlobBaseFeeScalar": "0x0",
      "l1Fee": "0x0",
      "l1GasPrice": "0xcf95d360",
      "l1GasUsed": "0x9f0"
    },
    {
      "status": "0x1",
      "cumulativeGasUsed": "0xc50a5",
      "logs": [
        {
          "address": "0xd47c56513e640e394024facbbe5032cf604bb699",
          "topics": [
            "0x5625f15df4cbadf2e6e3f80e2406aec5d99a432335ef0e9a1fba9e48b0558303",
            "0x0000000000000000000000000000000000000000000000000000000000000015"
          ],
          "data": "0x00000000000000000000000000000000000000000000000000000000000000030000000000000000000000000000000000000000000000000000000000000060000000000000000000000000000000000000000000000000000000000000000f00000000000000000000000000000000000000000000000000000000000000c6697066732f6261667962656967676c76336b346b683234686d637865346d7175376b7163686b6f696f35686537337170636c756666746b6274797577326a796d2f30303030303030303030303030303030303030303030303030303030303030303030303030303030303030303030303030303030303030303030303030303231303030303030303030303030303030303030303030303030303030303030303030303030303030303030303030303030303030303030303030303030303030332e6a736f6e0000000000000000000000000000000000000000000000000000",
          "blockHash": "0xb4cde120cca333674d76d040d6025a5728df05dc20c93b9d07ed190f2e00d15f",
          "blockNumber": "0x27004f7",
          "transactionHash": "0xc2c60b1e051f56f1e58ef8c7d160d1476590ce4ccea3a8898d9a10d3c4ad3344",
          "transactionIndex": "0x4",
          "logIndex": "0x9",
          "removed": false
        }
      ],
      "logsBloom": "0x00000000000000000000000000000000000000000000000000000000000000000000000000000000000000000000000000000000000000000000000000000000001000000000000000000000000000004200000000000000000000000000000000040000000000000000000000000000000000000000000000000000000000000000000000000000000000000000000000000000000000000000000000000000000000000000000000000000010000000000000000000000000000000000000000000000000000000000004000000000000000000000000000000000000000002000000000000000000200000000000000000000010000000000000000000000",
      "type": "0x0",
      "transactionHash": "0xc2c60b1e051f56f1e58ef8c7d160d1476590ce4ccea3a8898d9a10d3c4ad3344",
      "transactionIndex": "0x4",
      "blockHash": "0xb4cde120cca333674d76d040d6025a5728df05dc20c93b9d07ed190f2e00d15f",
      "blockNumber": "0x27004f7",
      "gasUsed": "0x3cfcf",
      "effectiveGasPrice": "0x5d22cfc40",
      "from": "0x8835669696fb92839ab198cd80ce9f0d35f45ad5",
      "to": "0xd47c56513e640e394024facbbe5032cf604bb699",
      "contractAddress": null,
      "l1BaseFeeScalar": "0x0",
      "l1BlobBaseFee": "0x1",
      "l1BlobBaseFeeScalar": "0x0",
      "l1Fee": "0x0",
      "l1GasPrice": "0xcf95d360",
      "l1GasUsed": "0x9fd"
    },
    {
      "status": "0x1",
      "cumulativeGasUsed": "0x102074",
      "logs": [
        {
          "address": "0xd47c56513e640e394024facbbe5032cf604bb699",
          "topics": [
            "0x5625f15df4cbadf2e6e3f80e2406aec5d99a432335ef0e9a1fba9e48b0558303",
            "0x0000000000000000000000000000000000000000000000000000000000000015"
          ],
          "data": "0x00000000000000000000000000000000000000000000000000000000000000040000000000000000000000000000000000000000000000000000000000000060000000000000000000000000000000000000000000000000000000000000001400000000000000000000000000000000000000000000000000000000000000c6697066732f6261667962656967676c76336b346b683234686d637865346d7175376b7163686b6f696f35686537337170636c756666746b6274797577326a796d2f30303030303030303030303030303030303030303030303030303030303030303030303030303030303030303030303030303030303030303030303030303231303030303030303030303030303030303030303030303030303030303030303030303030303030303030303030303030303030303030303030303030303030342e6a736f6e0000000000000000000000000000000000000000000000000000",
          "blockHash": "0xb4cde120cca333674d76d040d6025a5728df05dc20c93b9d07ed190f2e00d15f",
          "blockNumber": "0x27004f7",
          "transactionHash": "0x75b49cb8089b39fc35ebc70478b0473010c70618a1f25775968fc961a9028287",
          "transactionIndex": "0x5",
          "logIndex": "0xa",
          "removed": false
        }
      ],
      "logsBloom": "0x00000000000000000000000000000000000000000000000000000000000000000000000000000000000000000000000000000000000000000000000000000000001000000000000000000000000000004200000000000000000000000000000000040000000000000000000000000000000000000000000000000000000000000000000000000000000000000000000000000000000000000000000000000000000000000000000000000000010000000000000000000000000000000000000000000000000000000000004000000000000000000000000000000000000000002000000000000000000200000000000000000000010000000000000000000000",
      "type": "0x0",
      "transactionHash": "0x75b49cb8089b39fc35ebc70478b0473010c70618a1f25775968fc961a9028287",
      "transactionIndex": "0x5",
      "blockHash": "0xb4cde120cca333674d76d040d6025a5728df05dc20c93b9d07ed190f2e00d15f",
      "blockNumber": "0x27004f7",
      "gasUsed": "0x3cfcf",
      "effectiveGasPrice": "0x5d22cfc40",
      "from": "0x8835669696fb92839ab198cd80ce9f0d35f45ad5",
      "to": "0xd47c56513e640e394024facbbe5032cf604bb699",
      "contractAddress": null,
      "l1BaseFeeScalar": "0x0",
      "l1BlobBaseFee": "0x1",
      "l1BlobBaseFeeScalar": "0x0",
      "l1Fee": "0x0",
      "l1GasPrice": "0xcf95d360",
      "l1GasUsed": "0x9fd"
    },
    {
      "status": "0x1",
      "cumulativeGasUsed": "0x13f043",
      "logs": [
        {
          "address": "0xd47c56513e640e394024facbbe5032cf604bb699",
          "topics": [
            "0x5625f15df4cbadf2e6e3f80e2406aec5d99a432335ef0e9a1fba9e48b0558303",
            "0x0000000000000000000000000000000000000000000000000000000000000015"
          ],
          "data": "0x00000000000000000000000000000000000000000000000000000000000000050000000000000000000000000000000000000000000000000000000000000060000000000000000000000000000000000000000000000000000000000000001900000000000000000000000000000000000000000000000000000000000000c6697066732f6261667962656967676c76336b346b683234686d637865346d7175376b7163686b6f696f35686537337170636c756666746b6274797577326a796d2f30303030303030303030303030303030303030303030303030303030303030303030303030303030303030303030303030303030303030303030303030303231303030303030303030303030303030303030303030303030303030303030303030303030303030303030303030303030303030303030303030303030303030352e6a736f6e0000000000000000000000000000000000000000000000000000",
          "blockHash": "0xb4cde120cca333674d76d040d6025a5728df05dc20c93b9d07ed190f2e00d15f",
          "blockNumber": "0x27004f7",
          "transactionHash": "0xde3fc9550b714c4776ec21389bf0b44a2820ffcadcc4d440d4809eeef89e6a0b",
          "transactionIndex": "0x6",
          "logIndex": "0xb",
          "removed": false
        }
      ],
      "logsBloom": "0x00000000000000000000000000000000000000000000000000000000000000000000000000000000000000000000000000000000000000000000000000000000001000000000000000000000000000004200000000000000000000000000000000040000000000000000000000000000000000000000000000000000000000000000000000000000000000000000000000000000000000000000000000000000000000000000000000000000010000000000000000000000000000000000000000000000000000000000004000000000000000000000000000000000000000002000000000000000000200000000000000000000010000000000000000000000",
      "type": "0x0",
      "transactionHash": "0xde3fc9550b714c4776ec21389bf0b44a2820ffcadcc4d440d4809eeef89e6a0b",
      "transactionIndex": "0x6",
      "blockHash": "0xb4cde120cca333674d76d040d6025a5728df05dc20c93b9d07ed190f2e00d15f",
      "blockNumber": "0x27004f7",
      "gasUsed": "0x3cfcf",
      "effectiveGasPrice": "0x5d22cfc40",
      "from": "0x8835669696fb92839ab198cd80ce9f0d35f45ad5",
      "to": "0xd47c56513e640e394024facbbe5032cf604bb699",
      "contractAddress": null,
      "l1BaseFeeScalar": "0x0",
      "l1BlobBaseFee": "0x1",
      "l1BlobBaseFeeScalar": "0x0",
      "l1Fee": "0x0",
      "l1GasPrice": "0xcf95d360",
      "l1GasUsed": "0x9fd"
    }
  ],
  "libraries": [],
  "pending": [],
  "returns": {
    "0": {
      "internal_type": "address",
      "value": "0x0000000000000000000000000000000000000000"
    }
  },
  "timestamp": 1752796494,
  "chain": 42220,
  "commit": "257e8c0"
}