{
  "transactions": [
    {
      "hash": "0xdd973eae71f729063a54dec776fbe8a6b477d42dd1b76f5c14922ca2c424f5b2",
      "transactionType": "CALL",
      "contractName": null,
      "contractAddress": "0xd47c56513e640e394024facbbe5032cf604bb699",
      "function": "updateBadgeMetadata(uint256,string)",
      "arguments": [
        "25",
        "ipfs/QmSUYPZ2o1dw1EXmRKyxn4JVQ17uPcCToUVqWrMb96Biup/00000000000000000000000000000000000000000000000000000000000000250000000000000000000000000000000000000000000000000000000000000000.json"
      ],
      "transaction": {
        "from": "0x8835669696fb92839ab198cd80ce9f0d35f45ad5",
        "to": "0xd47c56513e640e394024facbbe5032cf604bb699",
        "gas": "0x1255d",
        "value": "0x0",
        "input": "0x47461b400000000000000000000000000000000000000000000000000000000000000019000000000000000000000000000000000000000000000000000000000000004000000000000000000000000000000000000000000000000000000000000000b9697066732f516d535559505a326f3164773145586d524b79786e344a5651313775506343546f55567157724d623936426975702f30303030303030303030303030303030303030303030303030303030303030303030303030303030303030303030303030303030303030303030303030303235303030303030303030303030303030303030303030303030303030303030303030303030303030303030303030303030303030303030303030303030303030302e6a736f6e00000000000000",
        "nonce": "0x1de7",
        "chainId": "0xa4ec"
      },
      "additionalContracts": [],
      "isFixedGasLimit": false
    },
    {
      "hash": "0x319e92ed48b73020a74c323df46311df8ab6f0f919f8db693e268cde896ae2dd",
      "transactionType": "CALL",
      "contractName": null,
      "contractAddress": "0xd47c56513e640e394024facbbe5032cf604bb699",
      "function": "updateBadgeTierMetadata(uint256,uint256,string)",
      "arguments": [
        "25",
        "1",
        "ipfs/QmSUYPZ2o1dw1EXmRKyxn4JVQ17uPcCToUVqWrMb96Biup/00000000000000000000000000000000000000000000000000000000000000250000000000000000000000000000000000000000000000000000000000000001.json"
      ],
      "transaction": {
        "from": "0x8835669696fb92839ab198cd80ce9f0d35f45ad5",
        "to": "0xd47c56513e640e394024facbbe5032cf604bb699",
        "gas": "0x136d7",
        "value": "0x0",
        "input": "0xc43e4f4c00000000000000000000000000000000000000000000000000000000000000190000000000000000000000000000000000000000000000000000000000000001000000000000000000000000000000000000000000000000000000000000006000000000000000000000000000000000000000000000000000000000000000b9697066732f516d535559505a326f3164773145586d524b79786e344a5651313775506343546f55567157724d623936426975702f30303030303030303030303030303030303030303030303030303030303030303030303030303030303030303030303030303030303030303030303030303235303030303030303030303030303030303030303030303030303030303030303030303030303030303030303030303030303030303030303030303030303030312e6a736f6e00000000000000",
        "nonce": "0x1de8",
        "chainId": "0xa4ec"
      },
      "additionalContracts": [],
      "isFixedGasLimit": false
    },
    {
      "hash": "0x12bed57fb4edb8a9a798d881e52642199dbfd7d7d50750cff8c2c075311c5f39",
      "transactionType": "CALL",
      "contractName": null,
      "contractAddress": "0xd47c56513e640e394024facbbe5032cf604bb699",
      "function": "updateBadgeTierMetadata(uint256,uint256,string)",
      "arguments": [
        "25",
        "2",
        "ipfs/QmSUYPZ2o1dw1EXmRKyxn4JVQ17uPcCToUVqWrMb96Biup/00000000000000000000000000000000000000000000000000000000000000250000000000000000000000000000000000000000000000000000000000000002.json"
      ],
      "transaction": {
        "from": "0x8835669696fb92839ab198cd80ce9f0d35f45ad5",
        "to": "0xd47c56513e640e394024facbbe5032cf604bb699",
        "gas": "0x136d7",
        "value": "0x0",
        "input": "0xc43e4f4c00000000000000000000000000000000000000000000000000000000000000190000000000000000000000000000000000000000000000000000000000000002000000000000000000000000000000000000000000000000000000000000006000000000000000000000000000000000000000000000000000000000000000b9697066732f516d535559505a326f3164773145586d524b79786e344a5651313775506343546f55567157724d623936426975702f30303030303030303030303030303030303030303030303030303030303030303030303030303030303030303030303030303030303030303030303030303235303030303030303030303030303030303030303030303030303030303030303030303030303030303030303030303030303030303030303030303030303030322e6a736f6e00000000000000",
        "nonce": "0x1de9",
        "chainId": "0xa4ec"
      },
      "additionalContracts": [],
      "isFixedGasLimit": false
    },
    {
      "hash": "0x7851be82eebd80b32eda70307dfdd3a173c38612293c81da75b1232d50875d43",
      "transactionType": "CALL",
      "contractName": null,
      "contractAddress": "0xd47c56513e640e394024facbbe5032cf604bb699",
      "function": "updateBadgeTierMetadata(uint256,uint256,string)",
      "arguments": [
        "25",
        "3",
        "ipfs/QmSUYPZ2o1dw1EXmRKyxn4JVQ17uPcCToUVqWrMb96Biup/00000000000000000000000000000000000000000000000000000000000000250000000000000000000000000000000000000000000000000000000000000003.json"
      ],
      "transaction": {
        "from": "0x8835669696fb92839ab198cd80ce9f0d35f45ad5",
        "to": "0xd47c56513e640e394024facbbe5032cf604bb699",
        "gas": "0x136d7",
        "value": "0x0",
        "input": "0xc43e4f4c00000000000000000000000000000000000000000000000000000000000000190000000000000000000000000000000000000000000000000000000000000003000000000000000000000000000000000000000000000000000000000000006000000000000000000000000000000000000000000000000000000000000000b9697066732f516d535559505a326f3164773145586d524b79786e344a5651313775506343546f55567157724d623936426975702f30303030303030303030303030303030303030303030303030303030303030303030303030303030303030303030303030303030303030303030303030303235303030303030303030303030303030303030303030303030303030303030303030303030303030303030303030303030303030303030303030303030303030332e6a736f6e00000000000000",
        "nonce": "0x1dea",
        "chainId": "0xa4ec"
      },
      "additionalContracts": [],
      "isFixedGasLimit": false
    },
    {
      "hash": "0x816cc4c7f0c2fc9f6da54b0b4721bfab5665518ffcce5fc0678c09719415b300",
      "transactionType": "CALL",
      "contractName": null,
      "contractAddress": "0xd47c56513e640e394024facbbe5032cf604bb699",
      "function": "updateBadgeTierMetadata(uint256,uint256,string)",
      "arguments": [
        "25",
        "4",
        "ipfs/QmSUYPZ2o1dw1EXmRKyxn4JVQ17uPcCToUVqWrMb96Biup/00000000000000000000000000000000000000000000000000000000000000250000000000000000000000000000000000000000000000000000000000000004.json"
      ],
      "transaction": {
        "from": "0x8835669696fb92839ab198cd80ce9f0d35f45ad5",
        "to": "0xd47c56513e640e394024facbbe5032cf604bb699",
        "gas": "0x136d7",
        "value": "0x0",
        "input": "0xc43e4f4c00000000000000000000000000000000000000000000000000000000000000190000000000000000000000000000000000000000000000000000000000000004000000000000000000000000000000000000000000000000000000000000006000000000000000000000000000000000000000000000000000000000000000b9697066732f516d535559505a326f3164773145586d524b79786e344a5651313775506343546f55567157724d623936426975702f30303030303030303030303030303030303030303030303030303030303030303030303030303030303030303030303030303030303030303030303030303235303030303030303030303030303030303030303030303030303030303030303030303030303030303030303030303030303030303030303030303030303030342e6a736f6e00000000000000",
        "nonce": "0x1deb",
        "chainId": "0xa4ec"
      },
      "additionalContracts": [],
      "isFixedGasLimit": false
    },
    {
      "hash": "0xcc45738dcb504f70429938c5d50ea688bcb7d6ade87bf44164aeb9da0d6c3d8a",
      "transactionType": "CALL",
      "contractName": null,
      "contractAddress": "0xd47c56513e640e394024facbbe5032cf604bb699",
      "function": "updateBadgeTierMetadata(uint256,uint256,string)",
      "arguments": [
        "25",
        "5",
        "ipfs/QmSUYPZ2o1dw1EXmRKyxn4JVQ17uPcCToUVqWrMb96Biup/00000000000000000000000000000000000000000000000000000000000000250000000000000000000000000000000000000000000000000000000000000005.json"
      ],
      "transaction": {
        "from": "0x8835669696fb92839ab198cd80ce9f0d35f45ad5",
        "to": "0xd47c56513e640e394024facbbe5032cf604bb699",
        "gas": "0x136d7",
        "value": "0x0",
        "input": "0xc43e4f4c00000000000000000000000000000000000000000000000000000000000000190000000000000000000000000000000000000000000000000000000000000005000000000000000000000000000000000000000000000000000000000000006000000000000000000000000000000000000000000000000000000000000000b9697066732f516d535559505a326f3164773145586d524b79786e344a5651313775506343546f55567157724d623936426975702f30303030303030303030303030303030303030303030303030303030303030303030303030303030303030303030303030303030303030303030303030303235303030303030303030303030303030303030303030303030303030303030303030303030303030303030303030303030303030303030303030303030303030352e6a736f6e00000000000000",
        "nonce": "0x1dec",
        "chainId": "0xa4ec"
      },
      "additionalContracts": [],
      "isFixedGasLimit": false
    }
  ],
  "receipts": [
    {
      "status": "0x1",
      "cumulativeGasUsed": "0x4fd1a",
      "logs": [
        {
          "address": "0xd47c56513e640e394024facbbe5032cf604bb699",
          "topics": [
            "0xb810609e93b7325976c078b96d9c92d3160d0d165073b8c9a8a6a4d257fd0477",
            "0x0000000000000000000000000000000000000000000000000000000000000019"
          ],
          "data": "0x000000000000000000000000000000000000000000000000000000000000002000000000000000000000000000000000000000000000000000000000000000b9697066732f516d535559505a326f3164773145586d524b79786e344a5651313775506343546f55567157724d623936426975702f30303030303030303030303030303030303030303030303030303030303030303030303030303030303030303030303030303030303030303030303030303235303030303030303030303030303030303030303030303030303030303030303030303030303030303030303030303030303030303030303030303030303030302e6a736f6e00000000000000",
          "blockHash": "0x47a548a5bb0540e32c378cf6df08a081d1d76f9d2c9b8eb178383c0d84d63d68",
          "blockNumber": "0x2d440a7",
          "transactionHash": "0xdd973eae71f729063a54dec776fbe8a6b477d42dd1b76f5c14922ca2c424f5b2",
          "transactionIndex": "0x4",
          "logIndex": "0x3",
          "removed": false
        }
      ],
      "logsBloom": "0x00000000000000000000000000000000000000000000000000000000000000040000000000000000000000000000000000000000000000800000000000000000000000000000000000000000000000004200000000000000000000400000000000000000000000000000000000000000000000000000020000000000000000000000000000000000000000000000000000000000000000000000000000000000000000000000000000000000000000000000000000000000000000000000000000000000000000000000000000000000000000000000000000000020000000000000000000000000000200000000000000000000000000000000008000000000",
      "type": "0x0",
      "transactionHash": "0xdd973eae71f729063a54dec776fbe8a6b477d42dd1b76f5c14922ca2c424f5b2",
      "transactionIndex": "0x4",
      "blockHash": "0x47a548a5bb0540e32c378cf6df08a081d1d76f9d2c9b8eb178383c0d84d63d68",
      "blockNumber": "0x2d440a7",
      "gasUsed": "0xd464",
      "effectiveGasPrice": "0x5d242e7a8",
      "from": "0x8835669696fb92839ab198cd80ce9f0d35f45ad5",
      "to": "0xd47c56513e640e394024facbbe5032cf604bb699",
      "contractAddress": null,
      "l1BaseFeeScalar": "0x0",
      "l1BlobBaseFee": "0x1",
      "l1BlobBaseFeeScalar": "0x0",
      "l1Fee": "0x0",
      "l1GasPrice": "0x2567ff0a",
      "l1GasUsed": "0x85e"
    },
    {
      "status": "0x1",
      "cumulativeGasUsed": "0x5de26",
      "logs": [
        {
          "address": "0xd47c56513e640e394024facbbe5032cf604bb699",
          "topics": [
            "0x3e442b5d5a6ecd8c0a86017cabd5ee0efbf32debbee58f9cea68f1b8489e4193",
            "0x0000000000000000000000000000000000000000000000000000000000000019"
          ],
          "data": "0x0000000000000000000000000000000000000000000000000000000000000001000000000000000000000000000000000000000000000000000000000000004000000000000000000000000000000000000000000000000000000000000000b9697066732f516d535559505a326f3164773145586d524b79786e344a5651313775506343546f55567157724d623936426975702f30303030303030303030303030303030303030303030303030303030303030303030303030303030303030303030303030303030303030303030303030303235303030303030303030303030303030303030303030303030303030303030303030303030303030303030303030303030303030303030303030303030303030312e6a736f6e00000000000000",
          "blockHash": "0x47a548a5bb0540e32c378cf6df08a081d1d76f9d2c9b8eb178383c0d84d63d68",
          "blockNumber": "0x2d440a7",
          "transactionHash": "0x319e92ed48b73020a74c323df46311df8ab6f0f919f8db693e268cde896ae2dd",
          "transactionIndex": "0x5",
          "logIndex": "0x4",
          "removed": false
        }
      ],
      "logsBloom": "0x00000000000000000000000000000000000000000000000000000000000000000000000000000000000000000000000000000000000000800000000000000000000000000000000000000000000000004200000000000000000000000000000000000010000000000000000000000000000000000000020000000000000000000000000000000000000000000000000000000000000000000000000000000000000000200000000000000000000000000000000000000000000000000000000000000000000000000000000000000000000000000000000200000000000000000000000000000000000200000000000000000000000000000000008000000000",
      "type": "0x0",
      "transactionHash": "0x319e92ed48b73020a74c323df46311df8ab6f0f919f8db693e268cde896ae2dd",
      "transactionIndex": "0x5",
      "blockHash": "0x47a548a5bb0540e32c378cf6df08a081d1d76f9d2c9b8eb178383c0d84d63d68",
      "blockNumber": "0x2d440a7",
      "gasUsed": "0xe10c",
      "effectiveGasPrice": "0x5d242e7a8",
      "from": "0x8835669696fb92839ab198cd80ce9f0d35f45ad5",
      "to": "0xd47c56513e640e394024facbbe5032cf604bb699",
      "contractAddress": null,
      "l1BaseFeeScalar": "0x0",
      "l1BlobBaseFee": "0x1",
      "l1BlobBaseFeeScalar": "0x0",
      "l1Fee": "0x0",
      "l1GasPrice": "0x2567ff0a",
      "l1GasUsed": "0x8f1"
    },
    {
      "status": "0x1",
      "cumulativeGasUsed": "0x6bf32",
      "logs": [
        {
          "address": "0xd47c56513e640e394024facbbe5032cf604bb699",
          "topics": [
            "0x3e442b5d5a6ecd8c0a86017cabd5ee0efbf32debbee58f9cea68f1b8489e4193",
            "0x0000000000000000000000000000000000000000000000000000000000000019"
          ],
          "data": "0x0000000000000000000000000000000000000000000000000000000000000002000000000000000000000000000000000000000000000000000000000000004000000000000000000000000000000000000000000000000000000000000000b9697066732f516d535559505a326f3164773145586d524b79786e344a5651313775506343546f55567157724d623936426975702f30303030303030303030303030303030303030303030303030303030303030303030303030303030303030303030303030303030303030303030303030303235303030303030303030303030303030303030303030303030303030303030303030303030303030303030303030303030303030303030303030303030303030322e6a736f6e00000000000000",
          "blockHash": "0x47a548a5bb0540e32c378cf6df08a081d1d76f9d2c9b8eb178383c0d84d63d68",
          "blockNumber": "0x2d440a7",
          "transactionHash": "0x12bed57fb4edb8a9a798d881e52642199dbfd7d7d50750cff8c2c075311c5f39",
          "transactionIndex": "0x6",
          "logIndex": "0x5",
          "removed": false
        }
      ],
      "logsBloom": "0x00000000000000000000000000000000000000000000000000000000000000000000000000000000000000000000000000000000000000800000000000000000000000000000000000000000000000004200000000000000000000000000000000000010000000000000000000000000000000000000020000000000000000000000000000000000000000000000000000000000000000000000000000000000000000200000000000000000000000000000000000000000000000000000000000000000000000000000000000000000000000000000000200000000000000000000000000000000000200000000000000000000000000000000008000000000",
      "type": "0x0",
      "transactionHash": "0x12bed57fb4edb8a9a798d881e52642199dbfd7d7d50750cff8c2c075311c5f39",
      "transactionIndex": "0x6",
      "blockHash": "0x47a548a5bb0540e32c378cf6df08a081d1d76f9d2c9b8eb178383c0d84d63d68",
      "blockNumber": "0x2d440a7",
      "gasUsed": "0xe10c",
      "effectiveGasPrice": "0x5d242e7a8",
      "from": "0x8835669696fb92839ab198cd80ce9f0d35f45ad5",
      "to": "0xd47c56513e640e394024facbbe5032cf604bb699",
      "contractAddress": null,
      "l1BaseFeeScalar": "0x0",
      "l1BlobBaseFee": "0x1",
      "l1BlobBaseFeeScalar": "0x0",
      "l1Fee": "0x0",
      "l1GasPrice": "0x2567ff0a",
      "l1GasUsed": "0x8e4"
    },
    {
      "status": "0x1",
      "cumulativeGasUsed": "0x7a03e",
      "logs": [
        {
          "address": "0xd47c56513e640e394024facbbe5032cf604bb699",
          "topics": [
            "0x3e442b5d5a6ecd8c0a86017cabd5ee0efbf32debbee58f9cea68f1b8489e4193",
            "0x0000000000000000000000000000000000000000000000000000000000000019"
          ],
          "data": "0x0000000000000000000000000000000000000000000000000000000000000003000000000000000000000000000000000000000000000000000000000000004000000000000000000000000000000000000000000000000000000000000000b9697066732f516d535559505a326f3164773145586d524b79786e344a5651313775506343546f55567157724d623936426975702f30303030303030303030303030303030303030303030303030303030303030303030303030303030303030303030303030303030303030303030303030303235303030303030303030303030303030303030303030303030303030303030303030303030303030303030303030303030303030303030303030303030303030332e6a736f6e00000000000000",
          "blockHash": "0x47a548a5bb0540e32c378cf6df08a081d1d76f9d2c9b8eb178383c0d84d63d68",
          "blockNumber": "0x2d440a7",
          "transactionHash": "0x7851be82eebd80b32eda70307dfdd3a173c38612293c81da75b1232d50875d43",
          "transactionIndex": "0x7",
          "logIndex": "0x6",
          "removed": false
        }
      ],
      "logsBloom": "0x00000000000000000000000000000000000000000000000000000000000000000000000000000000000000000000000000000000000000800000000000000000000000000000000000000000000000004200000000000000000000000000000000000010000000000000000000000000000000000000020000000000000000000000000000000000000000000000000000000000000000000000000000000000000000200000000000000000000000000000000000000000000000000000000000000000000000000000000000000000000000000000000200000000000000000000000000000000000200000000000000000000000000000000008000000000",
      "type": "0x0",
      "transactionHash": "0x7851be82eebd80b32eda70307dfdd3a173c38612293c81da75b1232d50875d43",
      "transactionIndex": "0x7",
      "blockHash": "0x47a548a5bb0540e32c378cf6df08a081d1d76f9d2c9b8eb178383c0d84d63d68",
      "blockNumber": "0x2d440a7",
      "gasUsed": "0xe10c",
      "effectiveGasPrice": "0x5d242e7a8",
      "from": "0x8835669696fb92839ab198cd80ce9f0d35f45ad5",
      "to": "0xd47c56513e640e394024facbbe5032cf604bb699",
      "contractAddress": null,
      "l1BaseFeeScalar": "0x0",
      "l1BlobBaseFee": "0x1",
      "l1BlobBaseFeeScalar": "0x0",
      "l1Fee": "0x0",
      "l1GasPrice": "0x2567ff0a",
      "l1GasUsed": "0x8f1"
    },
    {
      "status": "0x1",
      "cumulativeGasUsed": "0x8814a",
      "logs": [
        {
          "address": "0xd47c56513e640e394024facbbe5032cf604bb699",
          "topics": [
            "0x3e442b5d5a6ecd8c0a86017cabd5ee0efbf32debbee58f9cea68f1b8489e4193",
            "0x0000000000000000000000000000000000000000000000000000000000000019"
          ],
          "data": "0x0000000000000000000000000000000000000000000000000000000000000004000000000000000000000000000000000000000000000000000000000000004000000000000000000000000000000000000000000000000000000000000000b9697066732f516d535559505a326f3164773145586d524b79786e344a5651313775506343546f55567157724d623936426975702f30303030303030303030303030303030303030303030303030303030303030303030303030303030303030303030303030303030303030303030303030303235303030303030303030303030303030303030303030303030303030303030303030303030303030303030303030303030303030303030303030303030303030342e6a736f6e00000000000000",
          "blockHash": "0x47a548a5bb0540e32c378cf6df08a081d1d76f9d2c9b8eb178383c0d84d63d68",
          "blockNumber": "0x2d440a7",
          "transactionHash": "0x816cc4c7f0c2fc9f6da54b0b4721bfab5665518ffcce5fc0678c09719415b300",
          "transactionIndex": "0x8",
          "logIndex": "0x7",
          "removed": false
        }
      ],
      "logsBloom": "0x00000000000000000000000000000000000000000000000000000000000000000000000000000000000000000000000000000000000000800000000000000000000000000000000000000000000000004200000000000000000000000000000000000010000000000000000000000000000000000000020000000000000000000000000000000000000000000000000000000000000000000000000000000000000000200000000000000000000000000000000000000000000000000000000000000000000000000000000000000000000000000000000200000000000000000000000000000000000200000000000000000000000000000000008000000000",
      "type": "0x0",
      "transactionHash": "0x816cc4c7f0c2fc9f6da54b0b4721bfab5665518ffcce5fc0678c09719415b300",
      "transactionIndex": "0x8",
      "blockHash": "0x47a548a5bb0540e32c378cf6df08a081d1d76f9d2c9b8eb178383c0d84d63d68",
      "blockNumber": "0x2d440a7",
      "gasUsed": "0xe10c",
      "effectiveGasPrice": "0x5d242e7a8",
      "from": "0x8835669696fb92839ab198cd80ce9f0d35f45ad5",
      "to": "0xd47c56513e640e394024facbbe5032cf604bb699",
      "contractAddress": null,
      "l1BaseFeeScalar": "0x0",
      "l1BlobBaseFee": "0x1",
      "l1BlobBaseFeeScalar": "0x0",
      "l1Fee": "0x0",
      "l1GasPrice": "0x2567ff0a",
      "l1GasUsed": "0x8f1"
    },
    {
      "status": "0x1",
      "cumulativeGasUsed": "0x96256",
      "logs": [
        {
          "address": "0xd47c56513e640e394024facbbe5032cf604bb699",
          "topics": [
            "0x3e442b5d5a6ecd8c0a86017cabd5ee0efbf32debbee58f9cea68f1b8489e4193",
            "0x0000000000000000000000000000000000000000000000000000000000000019"
          ],
          "data": "0x0000000000000000000000000000000000000000000000000000000000000005000000000000000000000000000000000000000000000000000000000000004000000000000000000000000000000000000000000000000000000000000000b9697066732f516d535559505a326f3164773145586d524b79786e344a5651313775506343546f55567157724d623936426975702f30303030303030303030303030303030303030303030303030303030303030303030303030303030303030303030303030303030303030303030303030303235303030303030303030303030303030303030303030303030303030303030303030303030303030303030303030303030303030303030303030303030303030352e6a736f6e00000000000000",
          "blockHash": "0x47a548a5bb0540e32c378cf6df08a081d1d76f9d2c9b8eb178383c0d84d63d68",
          "blockNumber": "0x2d440a7",
          "transactionHash": "0xcc45738dcb504f70429938c5d50ea688bcb7d6ade87bf44164aeb9da0d6c3d8a",
          "transactionIndex": "0x9",
          "logIndex": "0x8",
          "removed": false
        }
      ],
      "logsBloom": "0x00000000000000000000000000000000000000000000000000000000000000000000000000000000000000000000000000000000000000800000000000000000000000000000000000000000000000004200000000000000000000000000000000000010000000000000000000000000000000000000020000000000000000000000000000000000000000000000000000000000000000000000000000000000000000200000000000000000000000000000000000000000000000000000000000000000000000000000000000000000000000000000000200000000000000000000000000000000000200000000000000000000000000000000008000000000",
      "type": "0x0",
      "transactionHash": "0xcc45738dcb504f70429938c5d50ea688bcb7d6ade87bf44164aeb9da0d6c3d8a",
      "transactionIndex": "0x9",
      "blockHash": "0x47a548a5bb0540e32c378cf6df08a081d1d76f9d2c9b8eb178383c0d84d63d68",
      "blockNumber": "0x2d440a7",
      "gasUsed": "0xe10c",
      "effectiveGasPrice": "0x5d242e7a8",
      "from": "0x8835669696fb92839ab198cd80ce9f0d35f45ad5",
      "to": "0xd47c56513e640e394024facbbe5032cf604bb699",
      "contractAddress": null,
      "l1BaseFeeScalar": "0x0",
      "l1BlobBaseFee": "0x1",
      "l1BlobBaseFeeScalar": "0x0",
      "l1Fee": "0x0",
      "l1GasPrice": "0x2567ff0a",
      "l1GasUsed": "0x8f1"
    }
  ],
  "libraries": [],
  "pending": [],
  "returns": {
    "0": {
      "internal_type": "address",
      "value": "0x0000000000000000000000000000000000000000"
    }
  },
  "timestamp": 1759365371,
  "chain": 42220,
  "commit": "16f13c9"
}