{
  "transactions": [
    {
      "hash": "0x025a8ad922becaa3e65ca734258a4f366534dfff91ed87bdfde8b7155da7a7a6",
      "transactionType": "CALL",
      "contractName": null,
      "contractAddress": "0xd47c56513e640e394024facbbe5032cf604bb699",
      "function": "setBadgeMetadata(uint256,string)",
      "arguments": [
        "25",
        "ipfs/QmSUYPZ2o1dw1EXmRKyxn4JVQ17uPcCToUVqWrMb96Biup/00000000000000000000000000000000000000000000000000000000000000250000000000000000000000000000000000000000000000000000000000000000.json"
      ],
      "transaction": {
        "from": "0x8835669696fb92839ab198cd80ce9f0d35f45ad5",
        "to": "0xd47c56513e640e394024facbbe5032cf604bb699",
        "gas": "0x4119d",
        "value": "0x0",
        "input": "0xce64b45f0000000000000000000000000000000000000000000000000000000000000019000000000000000000000000000000000000000000000000000000000000004000000000000000000000000000000000000000000000000000000000000000b9697066732f516d535559505a326f3164773145586d524b79786e344a5651313775506343546f55567157724d623936426975702f30303030303030303030303030303030303030303030303030303030303030303030303030303030303030303030303030303030303030303030303030303235303030303030303030303030303030303030303030303030303030303030303030303030303030303030303030303030303030303030303030303030303030302e6a736f6e00000000000000",
        "nonce": "0x12da",
        "chainId": "0xa4ec"
      },
      "additionalContracts": [],
      "isFixedGasLimit": false
    },
    {
      "hash": "0x719f411ddd5b3e16628ff0adb95433ec22196abbe632b2171e33b4984808c2cc",
      "transactionType": "CALL",
      "contractName": null,
      "contractAddress": "0xd47c56513e640e394024facbbe5032cf604bb699",
      "function": "setBadgeTier(uint256,uint256,string,uint256)",
      "arguments": [
        "25",
        "1",
        "ipfs/QmSUYPZ2o1dw1EXmRKyxn4JVQ17uPcCToUVqWrMb96Biup/00000000000000000000000000000000000000000000000000000000000000250000000000000000000000000000000000000000000000000000000000000001.json",
        "10"
      ],
      "transaction": {
        "from": "0x8835669696fb92839ab198cd80ce9f0d35f45ad5",
        "to": "0xd47c56513e640e394024facbbe5032cf604bb699",
        "gas": "0x5178a",
        "value": "0x0",
        "input": "0xcf132d1c000000000000000000000000000000000000000000000000000000000000001900000000000000000000000000000000000000000000000000000000000000010000000000000000000000000000000000000000000000000000000000000080000000000000000000000000000000000000000000000000000000000000000a00000000000000000000000000000000000000000000000000000000000000b9697066732f516d535559505a326f3164773145586d524b79786e344a5651313775506343546f55567157724d623936426975702f30303030303030303030303030303030303030303030303030303030303030303030303030303030303030303030303030303030303030303030303030303235303030303030303030303030303030303030303030303030303030303030303030303030303030303030303030303030303030303030303030303030303030312e6a736f6e00000000000000",
        "nonce": "0x12db",
        "chainId": "0xa4ec"
      },
      "additionalContracts": [],
      "isFixedGasLimit": false
    },
    {
      "hash": "0x311200c514bc82a7fa16813adecb015cd7c88820e1f928de458eea3bcc35cb72",
      "transactionType": "CALL",
      "contractName": null,
      "contractAddress": "0xd47c56513e640e394024facbbe5032cf604bb699",
      "function": "setBadgeTier(uint256,uint256,string,uint256)",
      "arguments": [
        "25",
        "2",
        "ipfs/QmSUYPZ2o1dw1EXmRKyxn4JVQ17uPcCToUVqWrMb96Biup/00000000000000000000000000000000000000000000000000000000000000250000000000000000000000000000000000000000000000000000000000000002.json",
        "20"
      ],
      "transaction": {
        "from": "0x8835669696fb92839ab198cd80ce9f0d35f45ad5",
        "to": "0xd47c56513e640e394024facbbe5032cf604bb699",
        "gas": "0x4c8af",
        "value": "0x0",
        "input": "0xcf132d1c000000000000000000000000000000000000000000000000000000000000001900000000000000000000000000000000000000000000000000000000000000020000000000000000000000000000000000000000000000000000000000000080000000000000000000000000000000000000000000000000000000000000001400000000000000000000000000000000000000000000000000000000000000b9697066732f516d535559505a326f3164773145586d524b79786e344a5651313775506343546f55567157724d623936426975702f30303030303030303030303030303030303030303030303030303030303030303030303030303030303030303030303030303030303030303030303030303235303030303030303030303030303030303030303030303030303030303030303030303030303030303030303030303030303030303030303030303030303030322e6a736f6e00000000000000",
        "nonce": "0x12dc",
        "chainId": "0xa4ec"
      },
      "additionalContracts": [],
      "isFixedGasLimit": false
    },
    {
      "hash": "0x9fad24ed9ee18f25fb0d713192a947bf776b7a8d8dfaac2da5da205cc564905b",
      "transactionType": "CALL",
      "contractName": null,
      "contractAddress": "0xd47c56513e640e394024facbbe5032cf604bb699",
      "function": "setBadgeTier(uint256,uint256,string,uint256)",
      "arguments": [
        "25",
        "3",
        "ipfs/QmSUYPZ2o1dw1EXmRKyxn4JVQ17uPcCToUVqWrMb96Biup/00000000000000000000000000000000000000000000000000000000000000250000000000000000000000000000000000000000000000000000000000000003.json",
        "30"
      ],
      "transaction": {
        "from": "0x8835669696fb92839ab198cd80ce9f0d35f45ad5",
        "to": "0xd47c56513e640e394024facbbe5032cf604bb699",
        "gas": "0x4c8af",
        "value": "0x0",
        "input": "0xcf132d1c000000000000000000000000000000000000000000000000000000000000001900000000000000000000000000000000000000000000000000000000000000030000000000000000000000000000000000000000000000000000000000000080000000000000000000000000000000000000000000000000000000000000001e00000000000000000000000000000000000000000000000000000000000000b9697066732f516d535559505a326f3164773145586d524b79786e344a5651313775506343546f55567157724d623936426975702f30303030303030303030303030303030303030303030303030303030303030303030303030303030303030303030303030303030303030303030303030303235303030303030303030303030303030303030303030303030303030303030303030303030303030303030303030303030303030303030303030303030303030332e6a736f6e00000000000000",
        "nonce": "0x12dd",
        "chainId": "0xa4ec"
      },
      "additionalContracts": [],
      "isFixedGasLimit": false
    },
    {
      "hash": "0x16b8f1fc936280f21cb67794cee9bf9b263abaf02d5602284782d285c5556ff1",
      "transactionType": "CALL",
      "contractName": null,
      "contractAddress": "0xd47c56513e640e394024facbbe5032cf604bb699",
      "function": "setBadgeTier(uint256,uint256,string,uint256)",
      "arguments": [
        "25",
        "4",
        "ipfs/QmSUYPZ2o1dw1EXmRKyxn4JVQ17uPcCToUVqWrMb96Biup/00000000000000000000000000000000000000000000000000000000000000250000000000000000000000000000000000000000000000000000000000000004.json",
        "40"
      ],
      "transaction": {
        "from": "0x8835669696fb92839ab198cd80ce9f0d35f45ad5",
        "to": "0xd47c56513e640e394024facbbe5032cf604bb699",
        "gas": "0x4c8af",
        "value": "0x0",
        "input": "0xcf132d1c000000000000000000000000000000000000000000000000000000000000001900000000000000000000000000000000000000000000000000000000000000040000000000000000000000000000000000000000000000000000000000000080000000000000000000000000000000000000000000000000000000000000002800000000000000000000000000000000000000000000000000000000000000b9697066732f516d535559505a326f3164773145586d524b79786e344a5651313775506343546f55567157724d623936426975702f30303030303030303030303030303030303030303030303030303030303030303030303030303030303030303030303030303030303030303030303030303235303030303030303030303030303030303030303030303030303030303030303030303030303030303030303030303030303030303030303030303030303030342e6a736f6e00000000000000",
        "nonce": "0x12de",
        "chainId": "0xa4ec"
      },
      "additionalContracts": [],
      "isFixedGasLimit": false
    },
    {
      "hash": "0x25a37fda6c6a01c3d047d583f00671e0d9c78b405b7c1e241085fae1715385dc",
      "transactionType": "CALL",
      "contractName": null,
      "contractAddress": "0xd47c56513e640e394024facbbe5032cf604bb699",
      "function": "setBadgeTier(uint256,uint256,string,uint256)",
      "arguments": [
        "25",
        "5",
        "ipfs/QmSUYPZ2o1dw1EXmRKyxn4JVQ17uPcCToUVqWrMb96Biup/00000000000000000000000000000000000000000000000000000000000000250000000000000000000000000000000000000000000000000000000000000005.json",
        "50"
      ],
      "transaction": {
        "from": "0x8835669696fb92839ab198cd80ce9f0d35f45ad5",
        "to": "0xd47c56513e640e394024facbbe5032cf604bb699",
        "gas": "0x4c8af",
        "value": "0x0",
        "input": "0xcf132d1c000000000000000000000000000000000000000000000000000000000000001900000000000000000000000000000000000000000000000000000000000000050000000000000000000000000000000000000000000000000000000000000080000000000000000000000000000000000000000000000000000000000000003200000000000000000000000000000000000000000000000000000000000000b9697066732f516d535559505a326f3164773145586d524b79786e344a5651313775506343546f55567157724d623936426975702f30303030303030303030303030303030303030303030303030303030303030303030303030303030303030303030303030303030303030303030303030303235303030303030303030303030303030303030303030303030303030303030303030303030303030303030303030303030303030303030303030303030303030352e6a736f6e00000000000000",
        "nonce": "0x12df",
        "chainId": "0xa4ec"
      },
      "additionalContracts": [],
      "isFixedGasLimit": false
    }
  ],
  "receipts": [
    {
      "status": "0x1",
      "cumulativeGasUsed": "0x18d494",
      "logs": [
        {
          "address": "0xd47c56513e640e394024facbbe5032cf604bb699",
          "topics": [
            "0x2e5977e12fac9a91696e22ba811f2893e11ad62f8aa53e99a628b031d18a379f",
            "0x0000000000000000000000000000000000000000000000000000000000000019"
          ],
          "data": "0x000000000000000000000000000000000000000000000000000000000000002000000000000000000000000000000000000000000000000000000000000000b9697066732f516d535559505a326f3164773145586d524b79786e344a5651313775506343546f55567157724d623936426975702f30303030303030303030303030303030303030303030303030303030303030303030303030303030303030303030303030303030303030303030303030303235303030303030303030303030303030303030303030303030303030303030303030303030303030303030303030303030303030303030303030303030303030302e6a736f6e00000000000000",
          "blockHash": "0x4710b98fd4763906beb1b371a1d0db2084addafc60da49708fefd743e29d0596",
          "blockNumber": "0x2b12936",
          "transactionHash": "0x025a8ad922becaa3e65ca734258a4f366534dfff91ed87bdfde8b7155da7a7a6",
          "transactionIndex": "0xb",
          "logIndex": "0x34",
          "removed": false
        }
      ],
      "logsBloom": "0x00000000000000000000000000000000000000000000000000000000000000000000000000000000000000000000000000000000000000800000000000000000000000000000000000000000000000004200000000000000000000000000000000000000000000000000000000000000000000000000020000000000000004000000000000000000000000000000000000000000000000000000000000000000000000000000000000000000000000000000000000000100000000000000000000000000000000000000000000000000000000000000000000000000400000000000000000000000000200000000000000000000000000000000008000000000",
      "type": "0x0",
      "transactionHash": "0x025a8ad922becaa3e65ca734258a4f366534dfff91ed87bdfde8b7155da7a7a6",
      "transactionIndex": "0xb",
      "blockHash": "0x4710b98fd4763906beb1b371a1d0db2084addafc60da49708fefd743e29d0596",
      "blockNumber": "0x2b12936",
      "gasUsed": "0x2f21d",
      "effectiveGasPrice": "0x5d22cfc40",
      "from": "0x8835669696fb92839ab198cd80ce9f0d35f45ad5",
      "to": "0xd47c56513e640e394024facbbe5032cf604bb699",
      "contractAddress": null,
      "l1BaseFeeScalar": "0x0",
      "l1BlobBaseFee": "0x1",
      "l1BlobBaseFeeScalar": "0x0",
      "l1Fee": "0x0",
      "l1GasPrice": "0xdefef09",
      "l1GasUsed": "0x86c"
    },
    {
      "status": "0x1",
      "cumulativeGasUsed": "0x1c8452",
      "logs": [
        {
          "address": "0xd47c56513e640e394024facbbe5032cf604bb699",
          "topics": [
            "0x5625f15df4cbadf2e6e3f80e2406aec5d99a432335ef0e9a1fba9e48b0558303",
            "0x0000000000000000000000000000000000000000000000000000000000000019"
          ],
          "data": "0x00000000000000000000000000000000000000000000000000000000000000010000000000000000000000000000000000000000000000000000000000000060000000000000000000000000000000000000000000000000000000000000000a00000000000000000000000000000000000000000000000000000000000000b9697066732f516d535559505a326f3164773145586d524b79786e344a5651313775506343546f55567157724d623936426975702f30303030303030303030303030303030303030303030303030303030303030303030303030303030303030303030303030303030303030303030303030303235303030303030303030303030303030303030303030303030303030303030303030303030303030303030303030303030303030303030303030303030303030312e6a736f6e00000000000000",
          "blockHash": "0x4710b98fd4763906beb1b371a1d0db2084addafc60da49708fefd743e29d0596",
          "blockNumber": "0x2b12936",
          "transactionHash": "0x719f411ddd5b3e16628ff0adb95433ec22196abbe632b2171e33b4984808c2cc",
          "transactionIndex": "0xc",
          "logIndex": "0x35",
          "removed": false
        }
      ],
      "logsBloom": "0x00000000000000000000000000000000000000000000000000000000000000000000000000000000000000000000000000000000000000800000000000000000000000000000000000000000000000004200000000000000000000000000000000040000000000000000000000000000000000000000020000000000000000000000000000000000000000000000000000000000000000000000000000000000000000000000000000000000000000000000000000000000000000000000000000000000000000000000004000000000000000000000000000000000000000000000000000000000000200000000000000000000010000000000008000000000",
      "type": "0x0",
      "transactionHash": "0x719f411ddd5b3e16628ff0adb95433ec22196abbe632b2171e33b4984808c2cc",
      "transactionIndex": "0xc",
      "blockHash": "0x4710b98fd4763906beb1b371a1d0db2084addafc60da49708fefd743e29d0596",
      "blockNumber": "0x2b12936",
      "gasUsed": "0x3afbe",
      "effectiveGasPrice": "0x5d22cfc40",
      "from": "0x8835669696fb92839ab198cd80ce9f0d35f45ad5",
      "to": "0xd47c56513e640e394024facbbe5032cf604bb699",
      "contractAddress": null,
      "l1BaseFeeScalar": "0x0",
      "l1BlobBaseFee": "0x1",
      "l1BlobBaseFeeScalar": "0x0",
      "l1Fee": "0x0",
      "l1GasPrice": "0xdefef09",
      "l1GasUsed": "0x934"
    },
    {
      "status": "0x1",
      "cumulativeGasUsed": "0x1ffaf9",
      "logs": [
        {
          "address": "0xd47c56513e640e394024facbbe5032cf604bb699",
          "topics": [
            "0x5625f15df4cbadf2e6e3f80e2406aec5d99a432335ef0e9a1fba9e48b0558303",
            "0x0000000000000000000000000000000000000000000000000000000000000019"
          ],
          "data": "0x00000000000000000000000000000000000000000000000000000000000000020000000000000000000000000000000000000000000000000000000000000060000000000000000000000000000000000000000000000000000000000000001400000000000000000000000000000000000000000000000000000000000000b9697066732f516d535559505a326f3164773145586d524b79786e344a5651313775506343546f55567157724d623936426975702f30303030303030303030303030303030303030303030303030303030303030303030303030303030303030303030303030303030303030303030303030303235303030303030303030303030303030303030303030303030303030303030303030303030303030303030303030303030303030303030303030303030303030322e6a736f6e00000000000000",
          "blockHash": "0x4710b98fd4763906beb1b371a1d0db2084addafc60da49708fefd743e29d0596",
          "blockNumber": "0x2b12936",
          "transactionHash": "0x311200c514bc82a7fa16813adecb015cd7c88820e1f928de458eea3bcc35cb72",
          "transactionIndex": "0xd",
          "logIndex": "0x36",
          "removed": false
        }
      ],
      "logsBloom": "0x00000000000000000000000000000000000000000000000000000000000000000000000000000000000000000000000000000000000000800000000000000000000000000000000000000000000000004200000000000000000000000000000000040000000000000000000000000000000000000000020000000000000000000000000000000000000000000000000000000000000000000000000000000000000000000000000000000000000000000000000000000000000000000000000000000000000000000000004000000000000000000000000000000000000000000000000000000000000200000000000000000000010000000000008000000000",
      "type": "0x0",
      "transactionHash": "0x311200c514bc82a7fa16813adecb015cd7c88820e1f928de458eea3bcc35cb72",
      "transactionIndex": "0xd",
      "blockHash": "0x4710b98fd4763906beb1b371a1d0db2084addafc60da49708fefd743e29d0596",
      "blockNumber": "0x2b12936",
      "gasUsed": "0x376a7",
      "effectiveGasPrice": "0x5d22cfc40",
      "from": "0x8835669696fb92839ab198cd80ce9f0d35f45ad5",
      "to": "0xd47c56513e640e394024facbbe5032cf604bb699",
      "contractAddress": null,
      "l1BaseFeeScalar": "0x0",
      "l1BlobBaseFee": "0x1",
      "l1BlobBaseFeeScalar": "0x0",
      "l1Fee": "0x0",
      "l1GasPrice": "0xdefef09",
      "l1GasUsed": "0x927"
    },
    {
      "status": "0x1",
      "cumulativeGasUsed": "0x2371a0",
      "logs": [
        {
          "address": "0xd47c56513e640e394024facbbe5032cf604bb699",
          "topics": [
            "0x5625f15df4cbadf2e6e3f80e2406aec5d99a432335ef0e9a1fba9e48b0558303",
            "0x0000000000000000000000000000000000000000000000000000000000000019"
          ],
          "data": "0x00000000000000000000000000000000000000000000000000000000000000030000000000000000000000000000000000000000000000000000000000000060000000000000000000000000000000000000000000000000000000000000001e00000000000000000000000000000000000000000000000000000000000000b9697066732f516d535559505a326f3164773145586d524b79786e344a5651313775506343546f55567157724d623936426975702f30303030303030303030303030303030303030303030303030303030303030303030303030303030303030303030303030303030303030303030303030303235303030303030303030303030303030303030303030303030303030303030303030303030303030303030303030303030303030303030303030303030303030332e6a736f6e00000000000000",
          "blockHash": "0x4710b98fd4763906beb1b371a1d0db2084addafc60da49708fefd743e29d0596",
          "blockNumber": "0x2b12936",
          "transactionHash": "0x9fad24ed9ee18f25fb0d713192a947bf776b7a8d8dfaac2da5da205cc564905b",
          "transactionIndex": "0xe",
          "logIndex": "0x37",
          "removed": false
        }
      ],
      "logsBloom": "0x00000000000000000000000000000000000000000000000000000000000000000000000000000000000000000000000000000000000000800000000000000000000000000000000000000000000000004200000000000000000000000000000000040000000000000000000000000000000000000000020000000000000000000000000000000000000000000000000000000000000000000000000000000000000000000000000000000000000000000000000000000000000000000000000000000000000000000000004000000000000000000000000000000000000000000000000000000000000200000000000000000000010000000000008000000000",
      "type": "0x0",
      "transactionHash": "0x9fad24ed9ee18f25fb0d713192a947bf776b7a8d8dfaac2da5da205cc564905b",
      "transactionIndex": "0xe",
      "blockHash": "0x4710b98fd4763906beb1b371a1d0db2084addafc60da49708fefd743e29d0596",
      "blockNumber": "0x2b12936",
      "gasUsed": "0x376a7",
      "effectiveGasPrice": "0x5d22cfc40",
      "from": "0x8835669696fb92839ab198cd80ce9f0d35f45ad5",
      "to": "0xd47c56513e640e394024facbbe5032cf604bb699",
      "contractAddress": null,
      "l1BaseFeeScalar": "0x0",
      "l1BlobBaseFee": "0x1",
      "l1BlobBaseFeeScalar": "0x0",
      "l1Fee": "0x0",
      "l1GasPrice": "0xdefef09",
      "l1GasUsed": "0x934"
    },
    {
      "status": "0x1",
      "cumulativeGasUsed": "0x26e847",
      "logs": [
        {
          "address": "0xd47c56513e640e394024facbbe5032cf604bb699",
          "topics": [
            "0x5625f15df4cbadf2e6e3f80e2406aec5d99a432335ef0e9a1fba9e48b0558303",
            "0x0000000000000000000000000000000000000000000000000000000000000019"
          ],
          "data": "0x00000000000000000000000000000000000000000000000000000000000000040000000000000000000000000000000000000000000000000000000000000060000000000000000000000000000000000000000000000000000000000000002800000000000000000000000000000000000000000000000000000000000000b9697066732f516d535559505a326f3164773145586d524b79786e344a5651313775506343546f55567157724d623936426975702f30303030303030303030303030303030303030303030303030303030303030303030303030303030303030303030303030303030303030303030303030303235303030303030303030303030303030303030303030303030303030303030303030303030303030303030303030303030303030303030303030303030303030342e6a736f6e00000000000000",
          "blockHash": "0x4710b98fd4763906beb1b371a1d0db2084addafc60da49708fefd743e29d0596",
          "blockNumber": "0x2b12936",
          "transactionHash": "0x16b8f1fc936280f21cb67794cee9bf9b263abaf02d5602284782d285c5556ff1",
          "transactionIndex": "0xf",
          "logIndex": "0x38",
          "removed": false
        }
      ],
      "logsBloom": "0x00000000000000000000000000000000000000000000000000000000000000000000000000000000000000000000000000000000000000800000000000000000000000000000000000000000000000004200000000000000000000000000000000040000000000000000000000000000000000000000020000000000000000000000000000000000000000000000000000000000000000000000000000000000000000000000000000000000000000000000000000000000000000000000000000000000000000000000004000000000000000000000000000000000000000000000000000000000000200000000000000000000010000000000008000000000",
      "type": "0x0",
      "transactionHash": "0x16b8f1fc936280f21cb67794cee9bf9b263abaf02d5602284782d285c5556ff1",
      "transactionIndex": "0xf",
      "blockHash": "0x4710b98fd4763906beb1b371a1d0db2084addafc60da49708fefd743e29d0596",
      "blockNumber": "0x2b12936",
      "gasUsed": "0x376a7",
      "effectiveGasPrice": "0x5d22cfc40",
      "from": "0x8835669696fb92839ab198cd80ce9f0d35f45ad5",
      "to": "0xd47c56513e640e394024facbbe5032cf604bb699",
      "contractAddress": null,
      "l1BaseFeeScalar": "0x0",
      "l1BlobBaseFee": "0x1",
      "l1BlobBaseFeeScalar": "0x0",
      "l1Fee": "0x0",
      "l1GasPrice": "0xdefef09",
      "l1GasUsed": "0x934"
    },
    {
      "status": "0x1",
      "cumulativeGasUsed": "0x2ad7e8",
      "logs": [
        {
          "address": "0xd47c56513e640e394024facbbe5032cf604bb699",
          "topics": [
            "0x5625f15df4cbadf2e6e3f80e2406aec5d99a432335ef0e9a1fba9e48b0558303",
            "0x0000000000000000000000000000000000000000000000000000000000000019"
          ],
          "data": "0x00000000000000000000000000000000000000000000000000000000000000050000000000000000000000000000000000000000000000000000000000000060000000000000000000000000000000000000000000000000000000000000003200000000000000000000000000000000000000000000000000000000000000b9697066732f516d535559505a326f3164773145586d524b79786e344a5651313775506343546f55567157724d623936426975702f30303030303030303030303030303030303030303030303030303030303030303030303030303030303030303030303030303030303030303030303030303235303030303030303030303030303030303030303030303030303030303030303030303030303030303030303030303030303030303030303030303030303030352e6a736f6e00000000000000",
          "blockHash": "0x4710b98fd4763906beb1b371a1d0db2084addafc60da49708fefd743e29d0596",
          "blockNumber": "0x2b12936",
          "transactionHash": "0x25a37fda6c6a01c3d047d583f00671e0d9c78b405b7c1e241085fae1715385dc",
          "transactionIndex": "0x11",
          "logIndex": "0x3a",
          "removed": false
        }
      ],
      "logsBloom": "0x00000000000000000000000000000000000000000000000000000000000000000000000000000000000000000000000000000000000000800000000000000000000000000000000000000000000000004200000000000000000000000000000000040000000000000000000000000000000000000000020000000000000000000000000000000000000000000000000000000000000000000000000000000000000000000000000000000000000000000000000000000000000000000000000000000000000000000000004000000000000000000000000000000000000000000000000000000000000200000000000000000000010000000000008000000000",
      "type": "0x0",
      "transactionHash": "0x25a37fda6c6a01c3d047d583f00671e0d9c78b405b7c1e241085fae1715385dc",
      "transactionIndex": "0x11",
      "blockHash": "0x4710b98fd4763906beb1b371a1d0db2084addafc60da49708fefd743e29d0596",
      "blockNumber": "0x2b12936",
      "gasUsed": "0x376a7",
      "effectiveGasPrice": "0x5d22cfc40",
      "from": "0x8835669696fb92839ab198cd80ce9f0d35f45ad5",
      "to": "0xd47c56513e640e394024facbbe5032cf604bb699",
      "contractAddress": null,
      "l1BaseFeeScalar": "0x0",
      "l1BlobBaseFee": "0x1",
      "l1BlobBaseFeeScalar": "0x0",
      "l1Fee": "0x0",
      "l1GasPrice": "0xdefef09",
      "l1GasUsed": "0x934"
    }
  ],
  "libraries": [],
  "pending": [],
  "returns": {
    "0": {
      "internal_type": "address",
      "value": "0x0000000000000000000000000000000000000000"
    }
  },
  "timestamp": 1757065612,
  "chain": 42220,
  "commit": "47f9d2e"
}