{
  "transactions": [
    {
      "hash": null,
      "transactionType": "CALL",
      "contractName": null,
      "contractAddress": "0xd47c56513e640e394024facbbe5032cf604bb699",
      "function": "setBadgeMetadata(uint256,string)",
      "arguments": [
        "21",
        "ipfs/bafybeigglv3k4kh24hmcxe4mqu7kqchkoio5he73qpclufftkbtyuw2jym/00000000000000000000000000000000000000000000000000000000000000210000000000000000000000000000000000000000000000000000000000000000.json"
      ],
      "transaction": {
        "from": "0x8835669696fb92839ab198cd80ce9f0d35f45ad5",
        "to": "0xd47c56513e640e394024facbbe5032cf604bb699",
        "gas": "0x48cc3",
        "value": "0x0",
        "input": "0xce64b45f0000000000000000000000000000000000000000000000000000000000000015000000000000000000000000000000000000000000000000000000000000004000000000000000000000000000000000000000000000000000000000000000c6697066732f6261667962656967676c76336b346b683234686d637865346d7175376b7163686b6f696f35686537337170636c756666746b6274797577326a796d2f30303030303030303030303030303030303030303030303030303030303030303030303030303030303030303030303030303030303030303030303030303231303030303030303030303030303030303030303030303030303030303030303030303030303030303030303030303030303030303030303030303030303030302e6a736f6e0000000000000000000000000000000000000000000000000000",
        "nonce": "0x514",
        "chainId": "0xa4ec"
      },
      "additionalContracts": [],
      "isFixedGasLimit": false
    },
    {
      "hash": null,
      "transactionType": "CALL",
      "contractName": null,
      "contractAddress": "0xd47c56513e640e394024facbbe5032cf604bb699",
      "function": "setBadgeTier(uint256,uint256,string,uint256)",
      "arguments": [
        "21",
        "1",
        "ipfs/bafybeigglv3k4kh24hmcxe4mqu7kqchkoio5he73qpclufftkbtyuw2jym/00000000000000000000000000000000000000000000000000000000000000210000000000000000000000000000000000000000000000000000000000000001.json",
        "5"
      ],
      "transaction": {
        "from": "0x8835669696fb92839ab198cd80ce9f0d35f45ad5",
        "to": "0xd47c56513e640e394024facbbe5032cf604bb699",
        "gas": "0x592b0",
        "value": "0x0",
        "input": "0xcf132d1c000000000000000000000000000000000000000000000000000000000000001500000000000000000000000000000000000000000000000000000000000000010000000000000000000000000000000000000000000000000000000000000080000000000000000000000000000000000000000000000000000000000000000500000000000000000000000000000000000000000000000000000000000000c6697066732f6261667962656967676c76336b346b683234686d637865346d7175376b7163686b6f696f35686537337170636c756666746b6274797577326a796d2f30303030303030303030303030303030303030303030303030303030303030303030303030303030303030303030303030303030303030303030303030303231303030303030303030303030303030303030303030303030303030303030303030303030303030303030303030303030303030303030303030303030303030312e6a736f6e0000000000000000000000000000000000000000000000000000",
        "nonce": "0x515",
        "chainId": "0xa4ec"
      },
      "additionalContracts": [],
      "isFixedGasLimit": false
    },
    {
      "hash": null,
      "transactionType": "CALL",
      "contractName": null,
      "contractAddress": "0xd47c56513e640e394024facbbe5032cf604bb699",
      "function": "setBadgeTier(uint256,uint256,string,uint256)",
      "arguments": [
        "21",
        "2",
        "ipfs/bafybeigglv3k4kh24hmcxe4mqu7kqchkoio5he73qpclufftkbtyuw2jym/00000000000000000000000000000000000000000000000000000000000000210000000000000000000000000000000000000000000000000000000000000002.json",
        "10"
      ],
      "transaction": {
        "from": "0x8835669696fb92839ab198cd80ce9f0d35f45ad5",
        "to": "0xd47c56513e640e394024facbbe5032cf604bb699",
        "gas": "0x543d4",
        "value": "0x0",
        "input": "0xcf132d1c000000000000000000000000000000000000000000000000000000000000001500000000000000000000000000000000000000000000000000000000000000020000000000000000000000000000000000000000000000000000000000000080000000000000000000000000000000000000000000000000000000000000000a00000000000000000000000000000000000000000000000000000000000000c6697066732f6261667962656967676c76336b346b683234686d637865346d7175376b7163686b6f696f35686537337170636c756666746b6274797577326a796d2f30303030303030303030303030303030303030303030303030303030303030303030303030303030303030303030303030303030303030303030303030303231303030303030303030303030303030303030303030303030303030303030303030303030303030303030303030303030303030303030303030303030303030322e6a736f6e0000000000000000000000000000000000000000000000000000",
        "nonce": "0x516",
        "chainId": "0xa4ec"
      },
      "additionalContracts": [],
      "isFixedGasLimit": false
    },
    {
      "hash": null,
      "transactionType": "CALL",
      "contractName": null,
      "contractAddress": "0xd47c56513e640e394024facbbe5032cf604bb699",
      "function": "setBadgeTier(uint256,uint256,string,uint256)",
      "arguments": [
        "21",
        "3",
        "ipfs/bafybeigglv3k4kh24hmcxe4mqu7kqchkoio5he73qpclufftkbtyuw2jym/00000000000000000000000000000000000000000000000000000000000000210000000000000000000000000000000000000000000000000000000000000003.json",
        "15"
      ],
      "transaction": {
        "from": "0x8835669696fb92839ab198cd80ce9f0d35f45ad5",
        "to": "0xd47c56513e640e394024facbbe5032cf604bb699",
        "gas": "0x543d4",
        "value": "0x0",
        "input": "0xcf132d1c000000000000000000000000000000000000000000000000000000000000001500000000000000000000000000000000000000000000000000000000000000030000000000000000000000000000000000000000000000000000000000000080000000000000000000000000000000000000000000000000000000000000000f00000000000000000000000000000000000000000000000000000000000000c6697066732f6261667962656967676c76336b346b683234686d637865346d7175376b7163686b6f696f35686537337170636c756666746b6274797577326a796d2f30303030303030303030303030303030303030303030303030303030303030303030303030303030303030303030303030303030303030303030303030303231303030303030303030303030303030303030303030303030303030303030303030303030303030303030303030303030303030303030303030303030303030332e6a736f6e0000000000000000000000000000000000000000000000000000",
        "nonce": "0x517",
        "chainId": "0xa4ec"
      },
      "additionalContracts": [],
      "isFixedGasLimit": false
    },
    {
      "hash": null,
      "transactionType": "CALL",
      "contractName": null,
      "contractAddress": "0xd47c56513e640e394024facbbe5032cf604bb699",
      "function": "setBadgeTier(uint256,uint256,string,uint256)",
      "arguments": [
        "21",
        "4",
        "ipfs/bafybeigglv3k4kh24hmcxe4mqu7kqchkoio5he73qpclufftkbtyuw2jym/00000000000000000000000000000000000000000000000000000000000000210000000000000000000000000000000000000000000000000000000000000004.json",
        "20"
      ],
      "transaction": {
        "from": "0x8835669696fb92839ab198cd80ce9f0d35f45ad5",
        "to": "0xd47c56513e640e394024facbbe5032cf604bb699",
        "gas": "0x543d4",
        "value": "0x0",
        "input": "0xcf132d1c000000000000000000000000000000000000000000000000000000000000001500000000000000000000000000000000000000000000000000000000000000040000000000000000000000000000000000000000000000000000000000000080000000000000000000000000000000000000000000000000000000000000001400000000000000000000000000000000000000000000000000000000000000c6697066732f6261667962656967676c76336b346b683234686d637865346d7175376b7163686b6f696f35686537337170636c756666746b6274797577326a796d2f30303030303030303030303030303030303030303030303030303030303030303030303030303030303030303030303030303030303030303030303030303231303030303030303030303030303030303030303030303030303030303030303030303030303030303030303030303030303030303030303030303030303030342e6a736f6e0000000000000000000000000000000000000000000000000000",
        "nonce": "0x518",
        "chainId": "0xa4ec"
      },
      "additionalContracts": [],
      "isFixedGasLimit": false
    },
    {
      "hash": null,
      "transactionType": "CALL",
      "contractName": null,
      "contractAddress": "0xd47c56513e640e394024facbbe5032cf604bb699",
      "function": "setBadgeTier(uint256,uint256,string,uint256)",
      "arguments": [
        "21",
        "5",
        "ipfs/bafybeigglv3k4kh24hmcxe4mqu7kqchkoio5he73qpclufftkbtyuw2jym/00000000000000000000000000000000000000000000000000000000000000210000000000000000000000000000000000000000000000000000000000000005.json",
        "25"
      ],
      "transaction": {
        "from": "0x8835669696fb92839ab198cd80ce9f0d35f45ad5",
        "to": "0xd47c56513e640e394024facbbe5032cf604bb699",
        "gas": "0x543d4",
        "value": "0x0",
        "input": "0xcf132d1c000000000000000000000000000000000000000000000000000000000000001500000000000000000000000000000000000000000000000000000000000000050000000000000000000000000000000000000000000000000000000000000080000000000000000000000000000000000000000000000000000000000000001900000000000000000000000000000000000000000000000000000000000000c6697066732f6261667962656967676c76336b346b683234686d637865346d7175376b7163686b6f696f35686537337170636c756666746b6274797577326a796d2f30303030303030303030303030303030303030303030303030303030303030303030303030303030303030303030303030303030303030303030303030303231303030303030303030303030303030303030303030303030303030303030303030303030303030303030303030303030303030303030303030303030303030352e6a736f6e0000000000000000000000000000000000000000000000000000",
        "nonce": "0x519",
        "chainId": "0xa4ec"
      },
      "additionalContracts": [],
      "isFixedGasLimit": false
    }
  ],
  "receipts": [],
  "libraries": [],
  "pending": [],
  "returns": {
    "0": {
      "internal_type": "address",
      "value": "0x0000000000000000000000000000000000000000"
    }
  },
  "timestamp": 1752796412,
  "chain": 42220,
  "commit": "257e8c0"
}