{
  "transactions": [
    {
      "hash": "0x6a7ba41806c770738f6d290d62fc2b823194dcddab280ec9abb46336b8eaab27",
      "transactionType": "CALL",
      "contractName": null,
      "contractAddress": "0xd47c56513e640e394024facbbe5032cf604bb699",
      "function": "setBadgeMetadata(uint256,string)",
      "arguments": [
        "27",
        "ipfs/Qma5gbHQcxRGt56mD23Scxm1pYhSN9t1a7zUpQTb7Lk3V4/00000000000000000000000000000000000000000000000000000000000000270000000000000000000000000000000000000000000000000000000000000000.json"
      ],
      "transaction": {
        "from": "0x8835669696fb92839ab198cd80ce9f0d35f45ad5",
        "to": "0xd47c56513e640e394024facbbe5032cf604bb699",
        "gas": "0x4119d",
        "value": "0x0",
        "input": "0xce64b45f000000000000000000000000000000000000000000000000000000000000001b000000000000000000000000000000000000000000000000000000000000004000000000000000000000000000000000000000000000000000000000000000b9697066732f516d613567624851637852477435366d4432335363786d31705968534e39743161377a5570515462374c6b3356342f30303030303030303030303030303030303030303030303030303030303030303030303030303030303030303030303030303030303030303030303030303237303030303030303030303030303030303030303030303030303030303030303030303030303030303030303030303030303030303030303030303030303030302e6a736f6e00000000000000",
        "nonce": "0x2eec",
        "chainId": "0xa4ec"
      },
      "additionalContracts": [],
      "isFixedGasLimit": false
    },
    {
      "hash": "0xd6d3a74e9d39694448e569c917f91ffade889eaa29530419450a64ba361a0fc5",
      "transactionType": "CALL",
      "contractName": null,
      "contractAddress": "0xd47c56513e640e394024facbbe5032cf604bb699",
      "function": "setBadgeMetadata(uint256,string)",
      "arguments": [
        "28",
        "ipfs/Qma5gbHQcxRGt56mD23Scxm1pYhSN9t1a7zUpQTb7Lk3V4/00000000000000000000000000000000000000000000000000000000000000280000000000000000000000000000000000000000000000000000000000000000.json"
      ],
      "transaction": {
        "from": "0x8835669696fb92839ab198cd80ce9f0d35f45ad5",
        "to": "0xd47c56513e640e394024facbbe5032cf604bb699",
        "gas": "0x4119d",
        "value": "0x0",
        "input": "0xce64b45f000000000000000000000000000000000000000000000000000000000000001c000000000000000000000000000000000000000000000000000000000000004000000000000000000000000000000000000000000000000000000000000000b9697066732f516d613567624851637852477435366d4432335363786d31705968534e39743161377a5570515462374c6b3356342f30303030303030303030303030303030303030303030303030303030303030303030303030303030303030303030303030303030303030303030303030303238303030303030303030303030303030303030303030303030303030303030303030303030303030303030303030303030303030303030303030303030303030302e6a736f6e00000000000000",
        "nonce": "0x2eed",
        "chainId": "0xa4ec"
      },
      "additionalContracts": [],
      "isFixedGasLimit": false
    },
    {
      "hash": "0x0f1b21a3a7113de4243a85db56b21a6659a04a174b563c24332daa4fb899bf2c",
      "transactionType": "CALL",
      "contractName": null,
      "contractAddress": "0xd47c56513e640e394024facbbe5032cf604bb699",
      "function": "setBadgeMetadata(uint256,string)",
      "arguments": [
        "29",
        "ipfs/Qma5gbHQcxRGt56mD23Scxm1pYhSN9t1a7zUpQTb7Lk3V4/00000000000000000000000000000000000000000000000000000000000000290000000000000000000000000000000000000000000000000000000000000000.json"
      ],
      "transaction": {
        "from": "0x8835669696fb92839ab198cd80ce9f0d35f45ad5",
        "to": "0xd47c56513e640e394024facbbe5032cf604bb699",
        "gas": "0x4119d",
        "value": "0x0",
        "input": "0xce64b45f000000000000000000000000000000000000000000000000000000000000001d000000000000000000000000000000000000000000000000000000000000004000000000000000000000000000000000000000000000000000000000000000b9697066732f516d613567624851637852477435366d4432335363786d31705968534e39743161377a5570515462374c6b3356342f30303030303030303030303030303030303030303030303030303030303030303030303030303030303030303030303030303030303030303030303030303239303030303030303030303030303030303030303030303030303030303030303030303030303030303030303030303030303030303030303030303030303030302e6a736f6e00000000000000",
        "nonce": "0x2eee",
        "chainId": "0xa4ec"
      },
      "additionalContracts": [],
      "isFixedGasLimit": false
    },
    {
      "hash": "0xbbc97e454d6bc7cdca5e5b7283926e33522fa2a16724b781a194c8700e4502a0",
      "transactionType": "CALL",
      "contractName": null,
      "contractAddress": "0xd47c56513e640e394024facbbe5032cf604bb699",
      "function": "setBadgeTier(uint256,uint256,string,uint256)",
      "arguments": [
        "27",
        "1",
        "ipfs/Qma5gbHQcxRGt56mD23Scxm1pYhSN9t1a7zUpQTb7Lk3V4/00000000000000000000000000000000000000000000000000000000000000270000000000000000000000000000000000000000000000000000000000000001.json",
        "10"
      ],
      "transaction": {
        "from": "0x8835669696fb92839ab198cd80ce9f0d35f45ad5",
        "to": "0xd47c56513e640e394024facbbe5032cf604bb699",
        "gas": "0x5178a",
        "value": "0x0",
        "input": "0xcf132d1c000000000000000000000000000000000000000000000000000000000000001b00000000000000000000000000000000000000000000000000000000000000010000000000000000000000000000000000000000000000000000000000000080000000000000000000000000000000000000000000000000000000000000000a00000000000000000000000000000000000000000000000000000000000000b9697066732f516d613567624851637852477435366d4432335363786d31705968534e39743161377a5570515462374c6b3356342f30303030303030303030303030303030303030303030303030303030303030303030303030303030303030303030303030303030303030303030303030303237303030303030303030303030303030303030303030303030303030303030303030303030303030303030303030303030303030303030303030303030303030312e6a736f6e00000000000000",
        "nonce": "0x2eef",
        "chainId": "0xa4ec"
      },
      "additionalContracts": [],
      "isFixedGasLimit": false
    },
    {
      "hash": "0x2404b520eaaa50b6ca5f6681f54df44870cfdaee84b5abe5a42bd450c2a949b4",
      "transactionType": "CALL",
      "contractName": null,
      "contractAddress": "0xd47c56513e640e394024facbbe5032cf604bb699",
      "function": "setBadgeTier(uint256,uint256,string,uint256)",
      "arguments": [
        "27",
        "2",
        "ipfs/Qma5gbHQcxRGt56mD23Scxm1pYhSN9t1a7zUpQTb7Lk3V4/00000000000000000000000000000000000000000000000000000000000000270000000000000000000000000000000000000000000000000000000000000002.json",
        "20"
      ],
      "transaction": {
        "from": "0x8835669696fb92839ab198cd80ce9f0d35f45ad5",
        "to": "0xd47c56513e640e394024facbbe5032cf604bb699",
        "gas": "0x4c8af",
        "value": "0x0",
        "input": "0xcf132d1c000000000000000000000000000000000000000000000000000000000000001b00000000000000000000000000000000000000000000000000000000000000020000000000000000000000000000000000000000000000000000000000000080000000000000000000000000000000000000000000000000000000000000001400000000000000000000000000000000000000000000000000000000000000b9697066732f516d613567624851637852477435366d4432335363786d31705968534e39743161377a5570515462374c6b3356342f30303030303030303030303030303030303030303030303030303030303030303030303030303030303030303030303030303030303030303030303030303237303030303030303030303030303030303030303030303030303030303030303030303030303030303030303030303030303030303030303030303030303030322e6a736f6e00000000000000",
        "nonce": "0x2ef0",
        "chainId": "0xa4ec"
      },
      "additionalContracts": [],
      "isFixedGasLimit": false
    },
    {
      "hash": "0xd2a1856db0e142e321c319686f3ec05ad6117de219d0425ce18b67e4c25f1244",
      "transactionType": "CALL",
      "contractName": null,
      "contractAddress": "0xd47c56513e640e394024facbbe5032cf604bb699",
      "function": "setBadgeTier(uint256,uint256,string,uint256)",
      "arguments": [
        "27",
        "3",
        "ipfs/Qma5gbHQcxRGt56mD23Scxm1pYhSN9t1a7zUpQTb7Lk3V4/00000000000000000000000000000000000000000000000000000000000000270000000000000000000000000000000000000000000000000000000000000003.json",
        "30"
      ],
      "transaction": {
        "from": "0x8835669696fb92839ab198cd80ce9f0d35f45ad5",
        "to": "0xd47c56513e640e394024facbbe5032cf604bb699",
        "gas": "0x4c8af",
        "value": "0x0",
        "input": "0xcf132d1c000000000000000000000000000000000000000000000000000000000000001b00000000000000000000000000000000000000000000000000000000000000030000000000000000000000000000000000000000000000000000000000000080000000000000000000000000000000000000000000000000000000000000001e00000000000000000000000000000000000000000000000000000000000000b9697066732f516d613567624851637852477435366d4432335363786d31705968534e39743161377a5570515462374c6b3356342f30303030303030303030303030303030303030303030303030303030303030303030303030303030303030303030303030303030303030303030303030303237303030303030303030303030303030303030303030303030303030303030303030303030303030303030303030303030303030303030303030303030303030332e6a736f6e00000000000000",
        "nonce": "0x2ef1",
        "chainId": "0xa4ec"
      },
      "additionalContracts": [],
      "isFixedGasLimit": false
    },
    {
      "hash": "0x8cd80895de948b4506b48f2052577b4e9a67c54b02659ac5bcd19821755d50b3",
      "transactionType": "CALL",
      "contractName": null,
      "contractAddress": "0xd47c56513e640e394024facbbe5032cf604bb699",
      "function": "setBadgeTier(uint256,uint256,string,uint256)",
      "arguments": [
        "27",
        "4",
        "ipfs/Qma5gbHQcxRGt56mD23Scxm1pYhSN9t1a7zUpQTb7Lk3V4/00000000000000000000000000000000000000000000000000000000000000270000000000000000000000000000000000000000000000000000000000000004.json",
        "40"
      ],
      "transaction": {
        "from": "0x8835669696fb92839ab198cd80ce9f0d35f45ad5",
        "to": "0xd47c56513e640e394024facbbe5032cf604bb699",
        "gas": "0x4c8af",
        "value": "0x0",
        "input": "0xcf132d1c000000000000000000000000000000000000000000000000000000000000001b00000000000000000000000000000000000000000000000000000000000000040000000000000000000000000000000000000000000000000000000000000080000000000000000000000000000000000000000000000000000000000000002800000000000000000000000000000000000000000000000000000000000000b9697066732f516d613567624851637852477435366d4432335363786d31705968534e39743161377a5570515462374c6b3356342f30303030303030303030303030303030303030303030303030303030303030303030303030303030303030303030303030303030303030303030303030303237303030303030303030303030303030303030303030303030303030303030303030303030303030303030303030303030303030303030303030303030303030342e6a736f6e00000000000000",
        "nonce": "0x2ef2",
        "chainId": "0xa4ec"
      },
      "additionalContracts": [],
      "isFixedGasLimit": false
    },
    {
      "hash": "0x431b93762912754d32b67267c34bb7ea90c8d5ea3600dce7ae8249ec50b28ba5",
      "transactionType": "CALL",
      "contractName": null,
      "contractAddress": "0xd47c56513e640e394024facbbe5032cf604bb699",
      "function": "setBadgeTier(uint256,uint256,string,uint256)",
      "arguments": [
        "27",
        "5",
        "ipfs/Qma5gbHQcxRGt56mD23Scxm1pYhSN9t1a7zUpQTb7Lk3V4/00000000000000000000000000000000000000000000000000000000000000270000000000000000000000000000000000000000000000000000000000000005.json",
        "50"
      ],
      "transaction": {
        "from": "0x8835669696fb92839ab198cd80ce9f0d35f45ad5",
        "to": "0xd47c56513e640e394024facbbe5032cf604bb699",
        "gas": "0x4c8af",
        "value": "0x0",
        "input": "0xcf132d1c000000000000000000000000000000000000000000000000000000000000001b00000000000000000000000000000000000000000000000000000000000000050000000000000000000000000000000000000000000000000000000000000080000000000000000000000000000000000000000000000000000000000000003200000000000000000000000000000000000000000000000000000000000000b9697066732f516d613567624851637852477435366d4432335363786d31705968534e39743161377a5570515462374c6b3356342f30303030303030303030303030303030303030303030303030303030303030303030303030303030303030303030303030303030303030303030303030303237303030303030303030303030303030303030303030303030303030303030303030303030303030303030303030303030303030303030303030303030303030352e6a736f6e00000000000000",
        "nonce": "0x2ef3",
        "chainId": "0xa4ec"
      },
      "additionalContracts": [],
      "isFixedGasLimit": false
    },
    {
      "hash": "0x42d23e88c4f12a1e8daee030ae5e2a4cb5eb8b4e83fa689e3049dad3232fde4d",
      "transactionType": "CALL",
      "contractName": null,
      "contractAddress": "0xd47c56513e640e394024facbbe5032cf604bb699",
      "function": "setBadgeTier(uint256,uint256,string,uint256)",
      "arguments": [
        "28",
        "1",
        "ipfs/Qma5gbHQcxRGt56mD23Scxm1pYhSN9t1a7zUpQTb7Lk3V4/00000000000000000000000000000000000000000000000000000000000000280000000000000000000000000000000000000000000000000000000000000001.json",
        "10"
      ],
      "transaction": {
        "from": "0x8835669696fb92839ab198cd80ce9f0d35f45ad5",
        "to": "0xd47c56513e640e394024facbbe5032cf604bb699",
        "gas": "0x5178a",
        "value": "0x0",
        "input": "0xcf132d1c000000000000000000000000000000000000000000000000000000000000001c00000000000000000000000000000000000000000000000000000000000000010000000000000000000000000000000000000000000000000000000000000080000000000000000000000000000000000000000000000000000000000000000a00000000000000000000000000000000000000000000000000000000000000b9697066732f516d613567624851637852477435366d4432335363786d31705968534e39743161377a5570515462374c6b3356342f30303030303030303030303030303030303030303030303030303030303030303030303030303030303030303030303030303030303030303030303030303238303030303030303030303030303030303030303030303030303030303030303030303030303030303030303030303030303030303030303030303030303030312e6a736f6e00000000000000",
        "nonce": "0x2ef4",
        "chainId": "0xa4ec"
      },
      "additionalContracts": [],
      "isFixedGasLimit": false
    },
    {
      "hash": "0xb2600944faf453f976e373b0211b7e51922327bbc58f9730939cd91c668a6fc7",
      "transactionType": "CALL",
      "contractName": null,
      "contractAddress": "0xd47c56513e640e394024facbbe5032cf604bb699",
      "function": "setBadgeTier(uint256,uint256,string,uint256)",
      "arguments": [
        "28",
        "2",
        "ipfs/Qma5gbHQcxRGt56mD23Scxm1pYhSN9t1a7zUpQTb7Lk3V4/00000000000000000000000000000000000000000000000000000000000000280000000000000000000000000000000000000000000000000000000000000002.json",
        "20"
      ],
      "transaction": {
        "from": "0x8835669696fb92839ab198cd80ce9f0d35f45ad5",
        "to": "0xd47c56513e640e394024facbbe5032cf604bb699",
        "gas": "0x4c8af",
        "value": "0x0",
        "input": "0xcf132d1c000000000000000000000000000000000000000000000000000000000000001c00000000000000000000000000000000000000000000000000000000000000020000000000000000000000000000000000000000000000000000000000000080000000000000000000000000000000000000000000000000000000000000001400000000000000000000000000000000000000000000000000000000000000b9697066732f516d613567624851637852477435366d4432335363786d31705968534e39743161377a5570515462374c6b3356342f30303030303030303030303030303030303030303030303030303030303030303030303030303030303030303030303030303030303030303030303030303238303030303030303030303030303030303030303030303030303030303030303030303030303030303030303030303030303030303030303030303030303030322e6a736f6e00000000000000",
        "nonce": "0x2ef5",
        "chainId": "0xa4ec"
      },
      "additionalContracts": [],
      "isFixedGasLimit": false
    },
    {
      "hash": "0x44296a79442822a2b9435d634e35f46c72ef46d5544f7356dc7990235b8dccab",
      "transactionType": "CALL",
      "contractName": null,
      "contractAddress": "0xd47c56513e640e394024facbbe5032cf604bb699",
      "function": "setBadgeTier(uint256,uint256,string,uint256)",
      "arguments": [
        "28",
        "3",
        "ipfs/Qma5gbHQcxRGt56mD23Scxm1pYhSN9t1a7zUpQTb7Lk3V4/00000000000000000000000000000000000000000000000000000000000000280000000000000000000000000000000000000000000000000000000000000003.json",
        "30"
      ],
      "transaction": {
        "from": "0x8835669696fb92839ab198cd80ce9f0d35f45ad5",
        "to": "0xd47c56513e640e394024facbbe5032cf604bb699",
        "gas": "0x4c8af",
        "value": "0x0",
        "input": "0xcf132d1c000000000000000000000000000000000000000000000000000000000000001c00000000000000000000000000000000000000000000000000000000000000030000000000000000000000000000000000000000000000000000000000000080000000000000000000000000000000000000000000000000000000000000001e00000000000000000000000000000000000000000000000000000000000000b9697066732f516d613567624851637852477435366d4432335363786d31705968534e39743161377a5570515462374c6b3356342f30303030303030303030303030303030303030303030303030303030303030303030303030303030303030303030303030303030303030303030303030303238303030303030303030303030303030303030303030303030303030303030303030303030303030303030303030303030303030303030303030303030303030332e6a736f6e00000000000000",
        "nonce": "0x2ef6",
        "chainId": "0xa4ec"
      },
      "additionalContracts": [],
      "isFixedGasLimit": false
    },
    {
      "hash": "0x9a6445fff1b9780f2f2ae07b52a95151209e1f029c88f07cd74985537f4ee55f",
      "transactionType": "CALL",
      "contractName": null,
      "contractAddress": "0xd47c56513e640e394024facbbe5032cf604bb699",
      "function": "setBadgeTier(uint256,uint256,string,uint256)",
      "arguments": [
        "28",
        "4",
        "ipfs/Qma5gbHQcxRGt56mD23Scxm1pYhSN9t1a7zUpQTb7Lk3V4/00000000000000000000000000000000000000000000000000000000000000280000000000000000000000000000000000000000000000000000000000000004.json",
        "40"
      ],
      "transaction": {
        "from": "0x8835669696fb92839ab198cd80ce9f0d35f45ad5",
        "to": "0xd47c56513e640e394024facbbe5032cf604bb699",
        "gas": "0x4c8af",
        "value": "0x0",
        "input": "0xcf132d1c000000000000000000000000000000000000000000000000000000000000001c00000000000000000000000000000000000000000000000000000000000000040000000000000000000000000000000000000000000000000000000000000080000000000000000000000000000000000000000000000000000000000000002800000000000000000000000000000000000000000000000000000000000000b9697066732f516d613567624851637852477435366d4432335363786d31705968534e39743161377a5570515462374c6b3356342f30303030303030303030303030303030303030303030303030303030303030303030303030303030303030303030303030303030303030303030303030303238303030303030303030303030303030303030303030303030303030303030303030303030303030303030303030303030303030303030303030303030303030342e6a736f6e00000000000000",
        "nonce": "0x2ef7",
        "chainId": "0xa4ec"
      },
      "additionalContracts": [],
      "isFixedGasLimit": false
    },
    {
      "hash": "0x1733de501943095d9defcf4cdc3e40fcde58dada9f586fb5c3eb903b9c2ac70a",
      "transactionType": "CALL",
      "contractName": null,
      "contractAddress": "0xd47c56513e640e394024facbbe5032cf604bb699",
      "function": "setBadgeTier(uint256,uint256,string,uint256)",
      "arguments": [
        "28",
        "5",
        "ipfs/Qma5gbHQcxRGt56mD23Scxm1pYhSN9t1a7zUpQTb7Lk3V4/00000000000000000000000000000000000000000000000000000000000000280000000000000000000000000000000000000000000000000000000000000005.json",
        "50"
      ],
      "transaction": {
        "from": "0x8835669696fb92839ab198cd80ce9f0d35f45ad5",
        "to": "0xd47c56513e640e394024facbbe5032cf604bb699",
        "gas": "0x4c8af",
        "value": "0x0",
        "input": "0xcf132d1c000000000000000000000000000000000000000000000000000000000000001c00000000000000000000000000000000000000000000000000000000000000050000000000000000000000000000000000000000000000000000000000000080000000000000000000000000000000000000000000000000000000000000003200000000000000000000000000000000000000000000000000000000000000b9697066732f516d613567624851637852477435366d4432335363786d31705968534e39743161377a5570515462374c6b3356342f30303030303030303030303030303030303030303030303030303030303030303030303030303030303030303030303030303030303030303030303030303238303030303030303030303030303030303030303030303030303030303030303030303030303030303030303030303030303030303030303030303030303030352e6a736f6e00000000000000",
        "nonce": "0x2ef8",
        "chainId": "0xa4ec"
      },
      "additionalContracts": [],
      "isFixedGasLimit": false
    },
    {
      "hash": "0xb6c6c27273db7e0eb0765d8827f6213a5a60b3d723385b72f5ca68b86f8f1d6b",
      "transactionType": "CALL",
      "contractName": null,
      "contractAddress": "0xd47c56513e640e394024facbbe5032cf604bb699",
      "function": "setBadgeTier(uint256,uint256,string,uint256)",
      "arguments": [
        "29",
        "1",
        "ipfs/Qma5gbHQcxRGt56mD23Scxm1pYhSN9t1a7zUpQTb7Lk3V4/00000000000000000000000000000000000000000000000000000000000000290000000000000000000000000000000000000000000000000000000000000001.json",
        "10"
      ],
      "transaction": {
        "from": "0x8835669696fb92839ab198cd80ce9f0d35f45ad5",
        "to": "0xd47c56513e640e394024facbbe5032cf604bb699",
        "gas": "0x5178a",
        "value": "0x0",
        "input": "0xcf132d1c000000000000000000000000000000000000000000000000000000000000001d00000000000000000000000000000000000000000000000000000000000000010000000000000000000000000000000000000000000000000000000000000080000000000000000000000000000000000000000000000000000000000000000a00000000000000000000000000000000000000000000000000000000000000b9697066732f516d613567624851637852477435366d4432335363786d31705968534e39743161377a5570515462374c6b3356342f30303030303030303030303030303030303030303030303030303030303030303030303030303030303030303030303030303030303030303030303030303239303030303030303030303030303030303030303030303030303030303030303030303030303030303030303030303030303030303030303030303030303030312e6a736f6e00000000000000",
        "nonce": "0x2ef9",
        "chainId": "0xa4ec"
      },
      "additionalContracts": [],
      "isFixedGasLimit": false
    },
    {
      "hash": "0x952825f3c991ffe156656c3d581fe155c0cdf3ec7f15ab09db48353be40c6f3b",
      "transactionType": "CALL",
      "contractName": null,
      "contractAddress": "0xd47c56513e640e394024facbbe5032cf604bb699",
      "function": "setBadgeTier(uint256,uint256,string,uint256)",
      "arguments": [
        "29",
        "2",
        "ipfs/Qma5gbHQcxRGt56mD23Scxm1pYhSN9t1a7zUpQTb7Lk3V4/00000000000000000000000000000000000000000000000000000000000000290000000000000000000000000000000000000000000000000000000000000002.json",
        "20"
      ],
      "transaction": {
        "from": "0x8835669696fb92839ab198cd80ce9f0d35f45ad5",
        "to": "0xd47c56513e640e394024facbbe5032cf604bb699",
        "gas": "0x4c8af",
        "value": "0x0",
        "input": "0xcf132d1c000000000000000000000000000000000000000000000000000000000000001d00000000000000000000000000000000000000000000000000000000000000020000000000000000000000000000000000000000000000000000000000000080000000000000000000000000000000000000000000000000000000000000001400000000000000000000000000000000000000000000000000000000000000b9697066732f516d613567624851637852477435366d4432335363786d31705968534e39743161377a5570515462374c6b3356342f30303030303030303030303030303030303030303030303030303030303030303030303030303030303030303030303030303030303030303030303030303239303030303030303030303030303030303030303030303030303030303030303030303030303030303030303030303030303030303030303030303030303030322e6a736f6e00000000000000",
        "nonce": "0x2efa",
        "chainId": "0xa4ec"
      },
      "additionalContracts": [],
      "isFixedGasLimit": false
    },
    {
      "hash": "0x66cbf8ed8836eb351bc6ee8cae46888067081737926c759bc23c5090af312ddc",
      "transactionType": "CALL",
      "contractName": null,
      "contractAddress": "0xd47c56513e640e394024facbbe5032cf604bb699",
      "function": "setBadgeTier(uint256,uint256,string,uint256)",
      "arguments": [
        "29",
        "3",
        "ipfs/Qma5gbHQcxRGt56mD23Scxm1pYhSN9t1a7zUpQTb7Lk3V4/00000000000000000000000000000000000000000000000000000000000000290000000000000000000000000000000000000000000000000000000000000003.json",
        "30"
      ],
      "transaction": {
        "from": "0x8835669696fb92839ab198cd80ce9f0d35f45ad5",
        "to": "0xd47c56513e640e394024facbbe5032cf604bb699",
        "gas": "0x4c8af",
        "value": "0x0",
        "input": "0xcf132d1c000000000000000000000000000000000000000000000000000000000000001d00000000000000000000000000000000000000000000000000000000000000030000000000000000000000000000000000000000000000000000000000000080000000000000000000000000000000000000000000000000000000000000001e00000000000000000000000000000000000000000000000000000000000000b9697066732f516d613567624851637852477435366d4432335363786d31705968534e39743161377a5570515462374c6b3356342f30303030303030303030303030303030303030303030303030303030303030303030303030303030303030303030303030303030303030303030303030303239303030303030303030303030303030303030303030303030303030303030303030303030303030303030303030303030303030303030303030303030303030332e6a736f6e00000000000000",
        "nonce": "0x2efb",
        "chainId": "0xa4ec"
      },
      "additionalContracts": [],
      "isFixedGasLimit": false
    },
    {
      "hash": "0x269262eabdbd7de8729afa742a88b5bc78e26feb955b0b603f497ab287930258",
      "transactionType": "CALL",
      "contractName": null,
      "contractAddress": "0xd47c56513e640e394024facbbe5032cf604bb699",
      "function": "setBadgeTier(uint256,uint256,string,uint256)",
      "arguments": [
        "29",
        "4",
        "ipfs/Qma5gbHQcxRGt56mD23Scxm1pYhSN9t1a7zUpQTb7Lk3V4/00000000000000000000000000000000000000000000000000000000000000290000000000000000000000000000000000000000000000000000000000000004.json",
        "40"
      ],
      "transaction": {
        "from": "0x8835669696fb92839ab198cd80ce9f0d35f45ad5",
        "to": "0xd47c56513e640e394024facbbe5032cf604bb699",
        "gas": "0x4c8af",
        "value": "0x0",
        "input": "0xcf132d1c000000000000000000000000000000000000000000000000000000000000001d00000000000000000000000000000000000000000000000000000000000000040000000000000000000000000000000000000000000000000000000000000080000000000000000000000000000000000000000000000000000000000000002800000000000000000000000000000000000000000000000000000000000000b9697066732f516d613567624851637852477435366d4432335363786d31705968534e39743161377a5570515462374c6b3356342f30303030303030303030303030303030303030303030303030303030303030303030303030303030303030303030303030303030303030303030303030303239303030303030303030303030303030303030303030303030303030303030303030303030303030303030303030303030303030303030303030303030303030342e6a736f6e00000000000000",
        "nonce": "0x2efc",
        "chainId": "0xa4ec"
      },
      "additionalContracts": [],
      "isFixedGasLimit": false
    },
    {
      "hash": "0x8b6f36ab687036b4cdd5f28dee1f4f8a712903da50c486ba71c8ecebd47e95da",
      "transactionType": "CALL",
      "contractName": null,
      "contractAddress": "0xd47c56513e640e394024facbbe5032cf604bb699",
      "function": "setBadgeTier(uint256,uint256,string,uint256)",
      "arguments": [
        "29",
        "5",
        "ipfs/Qma5gbHQcxRGt56mD23Scxm1pYhSN9t1a7zUpQTb7Lk3V4/00000000000000000000000000000000000000000000000000000000000000290000000000000000000000000000000000000000000000000000000000000005.json",
        "50"
      ],
      "transaction": {
        "from": "0x8835669696fb92839ab198cd80ce9f0d35f45ad5",
        "to": "0xd47c56513e640e394024facbbe5032cf604bb699",
        "gas": "0x4c8af",
        "value": "0x0",
        "input": "0xcf132d1c000000000000000000000000000000000000000000000000000000000000001d00000000000000000000000000000000000000000000000000000000000000050000000000000000000000000000000000000000000000000000000000000080000000000000000000000000000000000000000000000000000000000000003200000000000000000000000000000000000000000000000000000000000000b9697066732f516d613567624851637852477435366d4432335363786d31705968534e39743161377a5570515462374c6b3356342f30303030303030303030303030303030303030303030303030303030303030303030303030303030303030303030303030303030303030303030303030303239303030303030303030303030303030303030303030303030303030303030303030303030303030303030303030303030303030303030303030303030303030352e6a736f6e00000000000000",
        "nonce": "0x2efd",
        "chainId": "0xa4ec"
      },
      "additionalContracts": [],
      "isFixedGasLimit": false
    }
  ],
  "receipts": [
    {
      "status": "0x1",
      "cumulativeGasUsed": "0x63c70",
      "logs": [
        {
          "address": "0xd47c56513e640e394024facbbe5032cf604bb699",
          "topics": [
            "0x2e5977e12fac9a91696e22ba811f2893e11ad62f8aa53e99a628b031d18a379f",
            "0x000000000000000000000000000000000000000000000000000000000000001b"
          ],
          "data": "0x000000000000000000000000000000000000000000000000000000000000002000000000000000000000000000000000000000000000000000000000000000b9697066732f516d613567624851637852477435366d4432335363786d31705968534e39743161377a5570515462374c6b3356342f30303030303030303030303030303030303030303030303030303030303030303030303030303030303030303030303030303030303030303030303030303237303030303030303030303030303030303030303030303030303030303030303030303030303030303030303030303030303030303030303030303030303030302e6a736f6e00000000000000",
          "blockHash": "0xf8ce14ff779da16ce489462813c90f4f54e4a07109ced0b7d5342e34a0e8be67",
          "blockNumber": "0x32f22d8",
          "transactionHash": "0x6a7ba41806c770738f6d290d62fc2b823194dcddab280ec9abb46336b8eaab27",
          "transactionIndex": "0x5",
          "logIndex": "0x3",
          "removed": false
        }
      ],
      "logsBloom": "0x00000000000000000000000000000000000000000010000000000000000000000000000000000000000000000000000000000000000000000000000000000000000000000000000000000000000000004200000000000000000000000000000000000000000000000000000000000000000000000000000000000000000004000000000000000000000000000000000000000000000000000000000000000000000000000100000000000000000000000000000000008100000000000000000000000000000000000000000000000000000000000000000000000000400000000000000000000000000200000000000000000000000000000000000000000000",
      "type": "0x0",
      "transactionHash": "0x6a7ba41806c770738f6d290d62fc2b823194dcddab280ec9abb46336b8eaab27",
      "transactionIndex": "0x5",
      "blockHash": "0xf8ce14ff779da16ce489462813c90f4f54e4a07109ced0b7d5342e34a0e8be67",
      "blockNumber": "0x32f22d8",
      "gasUsed": "0x2f21d",
      "effectiveGasPrice": "0x5d22cfc40",
      "from": "0x8835669696fb92839ab198cd80ce9f0d35f45ad5",
      "to": "0xd47c56513e640e394024facbbe5032cf604bb699",
      "contractAddress": null,
      "l1BaseFeeScalar": "0x0",
      "l1BlobBaseFee": "0x966ad264ab",
      "l1BlobBaseFeeScalar": "0x0",
      "l1Fee": "0x0",
      "l1GasPrice": "0xb43d13c",
      "l1GasUsed": "0x86c"
    },
    {
      "status": "0x1",
      "cumulativeGasUsed": "0x92e8d",
      "logs": [
        {
          "address": "0xd47c56513e640e394024facbbe5032cf604bb699",
          "topics": [
            "0x2e5977e12fac9a91696e22ba811f2893e11ad62f8aa53e99a628b031d18a379f",
            "0x000000000000000000000000000000000000000000000000000000000000001c"
          ],
          "data": "0x000000000000000000000000000000000000000000000000000000000000002000000000000000000000000000000000000000000000000000000000000000b9697066732f516d613567624851637852477435366d4432335363786d31705968534e39743161377a5570515462374c6b3356342f30303030303030303030303030303030303030303030303030303030303030303030303030303030303030303030303030303030303030303030303030303238303030303030303030303030303030303030303030303030303030303030303030303030303030303030303030303030303030303030303030303030303030302e6a736f6e00000000000000",
          "blockHash": "0xf8ce14ff779da16ce489462813c90f4f54e4a07109ced0b7d5342e34a0e8be67",
          "blockNumber": "0x32f22d8",
          "transactionHash": "0xd6d3a74e9d39694448e569c917f91ffade889eaa29530419450a64ba361a0fc5",
          "transactionIndex": "0x6",
          "logIndex": "0x4",
          "removed": false
        }
      ],
      "logsBloom": "0x00000000000000000000000000000000000000000000000000000000000000000000000000000000000000000000000000000000000000200000000000000000000000000000000000000000000000004200000000000000000000000000000000000000000000000000000000000000000000000000000000000000000004000000000000000000000000000000000200000000000000000000000000000000000000000000000000000002000000000000000000000100000000000000000000000000000000000000000000000000000000000000000000000000400000000000000000000000000200000000000000000000000000000000000000000000",
      "type": "0x0",
      "transactionHash": "0xd6d3a74e9d39694448e569c917f91ffade889eaa29530419450a64ba361a0fc5",
      "transactionIndex": "0x6",
      "blockHash": "0xf8ce14ff779da16ce489462813c90f4f54e4a07109ced0b7d5342e34a0e8be67",
      "blockNumber": "0x32f22d8",
      "gasUsed": "0x2f21d",
      "effectiveGasPrice": "0x5d22cfc40",
      "from": "0x8835669696fb92839ab198cd80ce9f0d35f45ad5",
      "to": "0xd47c56513e640e394024facbbe5032cf604bb699",
      "contractAddress": null,
      "l1BaseFeeScalar": "0x0",
      "l1BlobBaseFee": "0x966ad264ab",
      "l1BlobBaseFeeScalar": "0x0",
      "l1Fee": "0x0",
      "l1GasPrice": "0xb43d13c",
      "l1GasUsed": "0x86c"
    },
    {
      "status": "0x1",
      "cumulativeGasUsed": "0xc20aa",
      "logs": [
        {
          "address": "0xd47c56513e640e394024facbbe5032cf604bb699",
          "topics": [
            "0x2e5977e12fac9a91696e22ba811f2893e11ad62f8aa53e99a628b031d18a379f",
            "0x000000000000000000000000000000000000000000000000000000000000001d"
          ],
          "data": "0x000000000000000000000000000000000000000000000000000000000000002000000000000000000000000000000000000000000000000000000000000000b9697066732f516d613567624851637852477435366d4432335363786d31705968534e39743161377a5570515462374c6b3356342f30303030303030303030303030303030303030303030303030303030303030303030303030303030303030303030303030303030303030303030303030303239303030303030303030303030303030303030303030303030303030303030303030303030303030303030303030303030303030303030303030303030303030302e6a736f6e00000000000000",
          "blockHash": "0xf8ce14ff779da16ce489462813c90f4f54e4a07109ced0b7d5342e34a0e8be67",
          "blockNumber": "0x32f22d8",
          "transactionHash": "0x0f1b21a3a7113de4243a85db56b21a6659a04a174b563c24332daa4fb899bf2c",
          "transactionIndex": "0x7",
          "logIndex": "0x5",
          "removed": false
        }
      ],
      "logsBloom": "0x00000080000000000000000000000000000000000000000000000000000000000000000000000000000000000000000000000000000000000000000200000000000000000000000000000000000000004200000000000010000000000000000000000000000000000000000000000000000000000000000000000000000004000000000000000000000000000000000000000000000000000000000000000000000000000000000000000000000000000000000000000100000000000000000000000000000000000000000000000000000000000000000000000000400000000000000000000000000200000000000000000000000000000000000000000000",
      "type": "0x0",
      "transactionHash": "0x0f1b21a3a7113de4243a85db56b21a6659a04a174b563c24332daa4fb899bf2c",
      "transactionIndex": "0x7",
      "blockHash": "0xf8ce14ff779da16ce489462813c90f4f54e4a07109ced0b7d5342e34a0e8be67",
      "blockNumber": "0x32f22d8",
      "gasUsed": "0x2f21d",
      "effectiveGasPrice": "0x5d22cfc40",
      "from": "0x8835669696fb92839ab198cd80ce9f0d35f45ad5",
      "to": "0xd47c56513e640e394024facbbe5032cf604bb699",
      "contractAddress": null,
      "l1BaseFeeScalar": "0x0",
      "l1BlobBaseFee": "0x966ad264ab",
      "l1BlobBaseFeeScalar": "0x0",
      "l1Fee": "0x0",
      "l1GasPrice": "0xb43d13c",
      "l1GasUsed": "0x86c"
    },
    {
      "status": "0x1",
      "cumulativeGasUsed": "0xfd068",
      "logs": [
        {
          "address": "0xd47c56513e640e394024facbbe5032cf604bb699",
          "topics": [
            "0x5625f15df4cbadf2e6e3f80e2406aec5d99a432335ef0e9a1fba9e48b0558303",
            "0x000000000000000000000000000000000000000000000000000000000000001b"
          ],
          "data": "0x00000000000000000000000000000000000000000000000000000000000000010000000000000000000000000000000000000000000000000000000000000060000000000000000000000000000000000000000000000000000000000000000a00000000000000000000000000000000000000000000000000000000000000b9697066732f516d613567624851637852477435366d4432335363786d31705968534e39743161377a5570515462374c6b3356342f30303030303030303030303030303030303030303030303030303030303030303030303030303030303030303030303030303030303030303030303030303237303030303030303030303030303030303030303030303030303030303030303030303030303030303030303030303030303030303030303030303030303030312e6a736f6e00000000000000",
          "blockHash": "0xf8ce14ff779da16ce489462813c90f4f54e4a07109ced0b7d5342e34a0e8be67",
          "blockNumber": "0x32f22d8",
          "transactionHash": "0xbbc97e454d6bc7cdca5e5b7283926e33522fa2a16724b781a194c8700e4502a0",
          "transactionIndex": "0x8",
          "logIndex": "0x6",
          "removed": false
        }
      ],
      "logsBloom": "0x00000000000000000000000000000000000000000010000000000000000000000000000000000000000000000000000000000000000000000000000000000000000000000000000000000000000000004200000000000000000000000000000000040000000000000000000000000000000000000000000000000000000000000000000000000000000000000000000000000000000000000000000000000000000000000100000000000000000000000000000000008000000000000000000000000000000000000000004000000000000000000000000000000000000000000000000000000000000200000000000000000000010000000000000000000000",
      "type": "0x0",
      "transactionHash": "0xbbc97e454d6bc7cdca5e5b7283926e33522fa2a16724b781a194c8700e4502a0",
      "transactionIndex": "0x8",
      "blockHash": "0xf8ce14ff779da16ce489462813c90f4f54e4a07109ced0b7d5342e34a0e8be67",
      "blockNumber": "0x32f22d8",
      "gasUsed": "0x3afbe",
      "effectiveGasPrice": "0x5d22cfc40",
      "from": "0x8835669696fb92839ab198cd80ce9f0d35f45ad5",
      "to": "0xd47c56513e640e394024facbbe5032cf604bb699",
      "contractAddress": null,
      "l1BaseFeeScalar": "0x0",
      "l1BlobBaseFee": "0x966ad264ab",
      "l1BlobBaseFeeScalar": "0x0",
      "l1Fee": "0x0",
      "l1GasPrice": "0xb43d13c",
      "l1GasUsed": "0x934"
    },
    {
      "status": "0x1",
      "cumulativeGasUsed": "0x13470f",
      "logs": [
        {
          "address": "0xd47c56513e640e394024facbbe5032cf604bb699",
          "topics": [
            "0x5625f15df4cbadf2e6e3f80e2406aec5d99a432335ef0e9a1fba9e48b0558303",
            "0x000000000000000000000000000000000000000000000000000000000000001b"
          ],
          "data": "0x00000000000000000000000000000000000000000000000000000000000000020000000000000000000000000000000000000000000000000000000000000060000000000000000000000000000000000000000000000000000000000000001400000000000000000000000000000000000000000000000000000000000000b9697066732f516d613567624851637852477435366d4432335363786d31705968534e39743161377a5570515462374c6b3356342f30303030303030303030303030303030303030303030303030303030303030303030303030303030303030303030303030303030303030303030303030303237303030303030303030303030303030303030303030303030303030303030303030303030303030303030303030303030303030303030303030303030303030322e6a736f6e00000000000000",
          "blockHash": "0xf8ce14ff779da16ce489462813c90f4f54e4a07109ced0b7d5342e34a0e8be67",
          "blockNumber": "0x32f22d8",
          "transactionHash": "0x2404b520eaaa50b6ca5f6681f54df44870cfdaee84b5abe5a42bd450c2a949b4",
          "transactionIndex": "0x9",
          "logIndex": "0x7",
          "removed": false
        }
      ],
      "logsBloom": "0x00000000000000000000000000000000000000000010000000000000000000000000000000000000000000000000000000000000000000000000000000000000000000000000000000000000000000004200000000000000000000000000000000040000000000000000000000000000000000000000000000000000000000000000000000000000000000000000000000000000000000000000000000000000000000000100000000000000000000000000000000008000000000000000000000000000000000000000004000000000000000000000000000000000000000000000000000000000000200000000000000000000010000000000000000000000",
      "type": "0x0",
      "transactionHash": "0x2404b520eaaa50b6ca5f6681f54df44870cfdaee84b5abe5a42bd450c2a949b4",
      "transactionIndex": "0x9",
      "blockHash": "0xf8ce14ff779da16ce489462813c90f4f54e4a07109ced0b7d5342e34a0e8be67",
      "blockNumber": "0x32f22d8",
      "gasUsed": "0x376a7",
      "effectiveGasPrice": "0x5d22cfc40",
      "from": "0x8835669696fb92839ab198cd80ce9f0d35f45ad5",
      "to": "0xd47c56513e640e394024facbbe5032cf604bb699",
      "contractAddress": null,
      "l1BaseFeeScalar": "0x0",
      "l1BlobBaseFee": "0x966ad264ab",
      "l1BlobBaseFeeScalar": "0x0",
      "l1Fee": "0x0",
      "l1GasPrice": "0xb43d13c",
      "l1GasUsed": "0x927"
    },
    {
      "status": "0x1",
      "cumulativeGasUsed": "0x16bdb6",
      "logs": [
        {
          "address": "0xd47c56513e640e394024facbbe5032cf604bb699",
          "topics": [
            "0x5625f15df4cbadf2e6e3f80e2406aec5d99a432335ef0e9a1fba9e48b0558303",
            "0x000000000000000000000000000000000000000000000000000000000000001b"
          ],
          "data": "0x00000000000000000000000000000000000000000000000000000000000000030000000000000000000000000000000000000000000000000000000000000060000000000000000000000000000000000000000000000000000000000000001e00000000000000000000000000000000000000000000000000000000000000b9697066732f516d613567624851637852477435366d4432335363786d31705968534e39743161377a5570515462374c6b3356342f30303030303030303030303030303030303030303030303030303030303030303030303030303030303030303030303030303030303030303030303030303237303030303030303030303030303030303030303030303030303030303030303030303030303030303030303030303030303030303030303030303030303030332e6a736f6e00000000000000",
          "blockHash": "0xf8ce14ff779da16ce489462813c90f4f54e4a07109ced0b7d5342e34a0e8be67",
          "blockNumber": "0x32f22d8",
          "transactionHash": "0xd2a1856db0e142e321c319686f3ec05ad6117de219d0425ce18b67e4c25f1244",
          "transactionIndex": "0xa",
          "logIndex": "0x8",
          "removed": false
        }
      ],
      "logsBloom": "0x00000000000000000000000000000000000000000010000000000000000000000000000000000000000000000000000000000000000000000000000000000000000000000000000000000000000000004200000000000000000000000000000000040000000000000000000000000000000000000000000000000000000000000000000000000000000000000000000000000000000000000000000000000000000000000100000000000000000000000000000000008000000000000000000000000000000000000000004000000000000000000000000000000000000000000000000000000000000200000000000000000000010000000000000000000000",
      "type": "0x0",
      "transactionHash": "0xd2a1856db0e142e321c319686f3ec05ad6117de219d0425ce18b67e4c25f1244",
      "transactionIndex": "0xa",
      "blockHash": "0xf8ce14ff779da16ce489462813c90f4f54e4a07109ced0b7d5342e34a0e8be67",
      "blockNumber": "0x32f22d8",
      "gasUsed": "0x376a7",
      "effectiveGasPrice": "0x5d22cfc40",
      "from": "0x8835669696fb92839ab198cd80ce9f0d35f45ad5",
      "to": "0xd47c56513e640e394024facbbe5032cf604bb699",
      "contractAddress": null,
      "l1BaseFeeScalar": "0x0",
      "l1BlobBaseFee": "0x966ad264ab",
      "l1BlobBaseFeeScalar": "0x0",
      "l1Fee": "0x0",
      "l1GasPrice": "0xb43d13c",
      "l1GasUsed": "0x934"
    },
    {
      "status": "0x1",
      "cumulativeGasUsed": "0x1aa73f",
      "logs": [
        {
          "address": "0xd47c56513e640e394024facbbe5032cf604bb699",
          "topics": [
            "0x5625f15df4cbadf2e6e3f80e2406aec5d99a432335ef0e9a1fba9e48b0558303",
            "0x000000000000000000000000000000000000000000000000000000000000001b"
          ],
          "data": "0x00000000000000000000000000000000000000000000000000000000000000040000000000000000000000000000000000000000000000000000000000000060000000000000000000000000000000000000000000000000000000000000002800000000000000000000000000000000000000000000000000000000000000b9697066732f516d613567624851637852477435366d4432335363786d31705968534e39743161377a5570515462374c6b3356342f30303030303030303030303030303030303030303030303030303030303030303030303030303030303030303030303030303030303030303030303030303237303030303030303030303030303030303030303030303030303030303030303030303030303030303030303030303030303030303030303030303030303030342e6a736f6e00000000000000",
          "blockHash": "0xf8ce14ff779da16ce489462813c90f4f54e4a07109ced0b7d5342e34a0e8be67",
          "blockNumber": "0x32f22d8",
          "transactionHash": "0x8cd80895de948b4506b48f2052577b4e9a67c54b02659ac5bcd19821755d50b3",
          "transactionIndex": "0xc",
          "logIndex": "0xa",
          "removed": false
        }
      ],
      "logsBloom": "0x00000000000000000000000000000000000000000010000000000000000000000000000000000000000000000000000000000000000000000000000000000000000000000000000000000000000000004200000000000000000000000000000000040000000000000000000000000000000000000000000000000000000000000000000000000000000000000000000000000000000000000000000000000000000000000100000000000000000000000000000000008000000000000000000000000000000000000000004000000000000000000000000000000000000000000000000000000000000200000000000000000000010000000000000000000000",
      "type": "0x0",
      "transactionHash": "0x8cd80895de948b4506b48f2052577b4e9a67c54b02659ac5bcd19821755d50b3",
      "transactionIndex": "0xc",
      "blockHash": "0xf8ce14ff779da16ce489462813c90f4f54e4a07109ced0b7d5342e34a0e8be67",
      "blockNumber": "0x32f22d8",
      "gasUsed": "0x376a7",
      "effectiveGasPrice": "0x5d22cfc40",
      "from": "0x8835669696fb92839ab198cd80ce9f0d35f45ad5",
      "to": "0xd47c56513e640e394024facbbe5032cf604bb699",
      "contractAddress": null,
      "l1BaseFeeScalar": "0x0",
      "l1BlobBaseFee": "0x966ad264ab",
      "l1BlobBaseFeeScalar": "0x0",
      "l1Fee": "0x0",
      "l1GasPrice": "0xb43d13c",
      "l1GasUsed": "0x934"
    },
    {
      "status": "0x1",
      "cumulativeGasUsed": "0x1e1de6",
      "logs": [
        {
          "address": "0xd47c56513e640e394024facbbe5032cf604bb699",
          "topics": [
            "0x5625f15df4cbadf2e6e3f80e2406aec5d99a432335ef0e9a1fba9e48b0558303",
            "0x000000000000000000000000000000000000000000000000000000000000001b"
          ],
          "data": "0x00000000000000000000000000000000000000000000000000000000000000050000000000000000000000000000000000000000000000000000000000000060000000000000000000000000000000000000000000000000000000000000003200000000000000000000000000000000000000000000000000000000000000b9697066732f516d613567624851637852477435366d4432335363786d31705968534e39743161377a5570515462374c6b3356342f30303030303030303030303030303030303030303030303030303030303030303030303030303030303030303030303030303030303030303030303030303237303030303030303030303030303030303030303030303030303030303030303030303030303030303030303030303030303030303030303030303030303030352e6a736f6e00000000000000",
          "blockHash": "0xf8ce14ff779da16ce489462813c90f4f54e4a07109ced0b7d5342e34a0e8be67",
          "blockNumber": "0x32f22d8",
          "transactionHash": "0x431b93762912754d32b67267c34bb7ea90c8d5ea3600dce7ae8249ec50b28ba5",
          "transactionIndex": "0xd",
          "logIndex": "0xb",
          "removed": false
        }
      ],
      "logsBloom": "0x00000000000000000000000000000000000000000010000000000000000000000000000000000000000000000000000000000000000000000000000000000000000000000000000000000000000000004200000000000000000000000000000000040000000000000000000000000000000000000000000000000000000000000000000000000000000000000000000000000000000000000000000000000000000000000100000000000000000000000000000000008000000000000000000000000000000000000000004000000000000000000000000000000000000000000000000000000000000200000000000000000000010000000000000000000000",
      "type": "0x0",
      "transactionHash": "0x431b93762912754d32b67267c34bb7ea90c8d5ea3600dce7ae8249ec50b28ba5",
      "transactionIndex": "0xd",
      "blockHash": "0xf8ce14ff779da16ce489462813c90f4f54e4a07109ced0b7d5342e34a0e8be67",
      "blockNumber": "0x32f22d8",
      "gasUsed": "0x376a7",
      "effectiveGasPrice": "0x5d22cfc40",
      "from": "0x8835669696fb92839ab198cd80ce9f0d35f45ad5",
      "to": "0xd47c56513e640e394024facbbe5032cf604bb699",
      "contractAddress": null,
      "l1BaseFeeScalar": "0x0",
      "l1BlobBaseFee": "0x966ad264ab",
      "l1BlobBaseFeeScalar": "0x0",
      "l1Fee": "0x0",
      "l1GasPrice": "0xb43d13c",
      "l1GasUsed": "0x934"
    },
    {
      "status": "0x1",
      "cumulativeGasUsed": "0x21cda4",
      "logs": [
        {
          "address": "0xd47c56513e640e394024facbbe5032cf604bb699",
          "topics": [
            "0x5625f15df4cbadf2e6e3f80e2406aec5d99a432335ef0e9a1fba9e48b0558303",
            "0x000000000000000000000000000000000000000000000000000000000000001c"
          ],
          "data": "0x00000000000000000000000000000000000000000000000000000000000000010000000000000000000000000000000000000000000000000000000000000060000000000000000000000000000000000000000000000000000000000000000a00000000000000000000000000000000000000000000000000000000000000b9697066732f516d613567624851637852477435366d4432335363786d31705968534e39743161377a5570515462374c6b3356342f30303030303030303030303030303030303030303030303030303030303030303030303030303030303030303030303030303030303030303030303030303238303030303030303030303030303030303030303030303030303030303030303030303030303030303030303030303030303030303030303030303030303030312e6a736f6e00000000000000",
          "blockHash": "0xf8ce14ff779da16ce489462813c90f4f54e4a07109ced0b7d5342e34a0e8be67",
          "blockNumber": "0x32f22d8",
          "transactionHash": "0x42d23e88c4f12a1e8daee030ae5e2a4cb5eb8b4e83fa689e3049dad3232fde4d",
          "transactionIndex": "0xe",
          "logIndex": "0xc",
          "removed": false
        }
      ],
      "logsBloom": "0x00000000000000000000000000000000000000000000000000000000000000000000000000000000000000000000000000000000000000200000000000000000000000000000000000000000000000004200000000000000000000000000000000040000000000000000000000000000000000000000000000000000000000000000000000000000000000000000000200000000000000000000000000000000000000000000000000000002000000000000000000000000000000000000000000000000000000000000004000000000000000000000000000000000000000000000000000000000000200000000000000000000010000000000000000000000",
      "type": "0x0",
      "transactionHash": "0x42d23e88c4f12a1e8daee030ae5e2a4cb5eb8b4e83fa689e3049dad3232fde4d",
      "transactionIndex": "0xe",
      "blockHash": "0xf8ce14ff779da16ce489462813c90f4f54e4a07109ced0b7d5342e34a0e8be67",
      "blockNumber": "0x32f22d8",
      "gasUsed": "0x3afbe",
      "effectiveGasPrice": "0x5d22cfc40",
      "from": "0x8835669696fb92839ab198cd80ce9f0d35f45ad5",
      "to": "0xd47c56513e640e394024facbbe5032cf604bb699",
      "contractAddress": null,
      "l1BaseFeeScalar": "0x0",
      "l1BlobBaseFee": "0x966ad264ab",
      "l1BlobBaseFeeScalar": "0x0",
      "l1Fee": "0x0",
      "l1GasPrice": "0xb43d13c",
      "l1GasUsed": "0x91a"
    },
    {
      "status": "0x1",
      "cumulativeGasUsed": "0x25444b",
      "logs": [
        {
          "address": "0xd47c56513e640e394024facbbe5032cf604bb699",
          "topics": [
            "0x5625f15df4cbadf2e6e3f80e2406aec5d99a432335ef0e9a1fba9e48b0558303",
            "0x000000000000000000000000000000000000000000000000000000000000001c"
          ],
          "data": "0x00000000000000000000000000000000000000000000000000000000000000020000000000000000000000000000000000000000000000000000000000000060000000000000000000000000000000000000000000000000000000000000001400000000000000000000000000000000000000000000000000000000000000b9697066732f516d613567624851637852477435366d4432335363786d31705968534e39743161377a5570515462374c6b3356342f30303030303030303030303030303030303030303030303030303030303030303030303030303030303030303030303030303030303030303030303030303238303030303030303030303030303030303030303030303030303030303030303030303030303030303030303030303030303030303030303030303030303030322e6a736f6e00000000000000",
          "blockHash": "0xf8ce14ff779da16ce489462813c90f4f54e4a07109ced0b7d5342e34a0e8be67",
          "blockNumber": "0x32f22d8",
          "transactionHash": "0xb2600944faf453f976e373b0211b7e51922327bbc58f9730939cd91c668a6fc7",
          "transactionIndex": "0xf",
          "logIndex": "0xd",
          "removed": false
        }
      ],
      "logsBloom": "0x00000000000000000000000000000000000000000000000000000000000000000000000000000000000000000000000000000000000000200000000000000000000000000000000000000000000000004200000000000000000000000000000000040000000000000000000000000000000000000000000000000000000000000000000000000000000000000000000200000000000000000000000000000000000000000000000000000002000000000000000000000000000000000000000000000000000000000000004000000000000000000000000000000000000000000000000000000000000200000000000000000000010000000000000000000000",
      "type": "0x0",
      "transactionHash": "0xb2600944faf453f976e373b0211b7e51922327bbc58f9730939cd91c668a6fc7",
      "transactionIndex": "0xf",
      "blockHash": "0xf8ce14ff779da16ce489462813c90f4f54e4a07109ced0b7d5342e34a0e8be67",
      "blockNumber": "0x32f22d8",
      "gasUsed": "0x376a7",
      "effectiveGasPrice": "0x5d22cfc40",
      "from": "0x8835669696fb92839ab198cd80ce9f0d35f45ad5",
      "to": "0xd47c56513e640e394024facbbe5032cf604bb699",
      "contractAddress": null,
      "l1BaseFeeScalar": "0x0",
      "l1BlobBaseFee": "0x966ad264ab",
      "l1BlobBaseFeeScalar": "0x0",
      "l1Fee": "0x0",
      "l1GasPrice": "0xb43d13c",
      "l1GasUsed": "0x90c"
    },
    {
      "status": "0x1",
      "cumulativeGasUsed": "0xa30d4",
      "logs": [
        {
          "address": "0xd47c56513e640e394024facbbe5032cf604bb699",
          "topics": [
            "0x5625f15df4cbadf2e6e3f80e2406aec5d99a432335ef0e9a1fba9e48b0558303",
            "0x000000000000000000000000000000000000000000000000000000000000001c"
          ],
          "data": "0x00000000000000000000000000000000000000000000000000000000000000030000000000000000000000000000000000000000000000000000000000000060000000000000000000000000000000000000000000000000000000000000001e00000000000000000000000000000000000000000000000000000000000000b9697066732f516d613567624851637852477435366d4432335363786d31705968534e39743161377a5570515462374c6b3356342f30303030303030303030303030303030303030303030303030303030303030303030303030303030303030303030303030303030303030303030303030303238303030303030303030303030303030303030303030303030303030303030303030303030303030303030303030303030303030303030303030303030303030332e6a736f6e00000000000000",
          "blockHash": "0xbf381d57cee84b86245fede0575ae430340219fe3e65cb94196f4bceadff7649",
          "blockNumber": "0x32f22d9",
          "transactionHash": "0x44296a79442822a2b9435d634e35f46c72ef46d5544f7356dc7990235b8dccab",
          "transactionIndex": "0x3",
          "logIndex": "0x7",
          "removed": false
        }
      ],
      "logsBloom": "0x00000000000000000000000000000000000000000000000000000000000000000000000000000000000000000000000000000000000000200000000000000000000000000000000000000000000000004200000000000000000000000000000000040000000000000000000000000000000000000000000000000000000000000000000000000000000000000000000200000000000000000000000000000000000000000000000000000002000000000000000000000000000000000000000000000000000000000000004000000000000000000000000000000000000000000000000000000000000200000000000000000000010000000000000000000000",
      "type": "0x0",
      "transactionHash": "0x44296a79442822a2b9435d634e35f46c72ef46d5544f7356dc7990235b8dccab",
      "transactionIndex": "0x3",
      "blockHash": "0xbf381d57cee84b86245fede0575ae430340219fe3e65cb94196f4bceadff7649",
      "blockNumber": "0x32f22d9",
      "gasUsed": "0x376a7",
      "effectiveGasPrice": "0x5d22cfc40",
      "from": "0x8835669696fb92839ab198cd80ce9f0d35f45ad5",
      "to": "0xd47c56513e640e394024facbbe5032cf604bb699",
      "contractAddress": null,
      "l1BaseFeeScalar": "0x0",
      "l1BlobBaseFee": "0x966ad264ab",
      "l1BlobBaseFeeScalar": "0x0",
      "l1Fee": "0x0",
      "l1GasPrice": "0xb43d13c",
      "l1GasUsed": "0x91a"
    },
    {
      "status": "0x1",
      "cumulativeGasUsed": "0xda77b",
      "logs": [
        {
          "address": "0xd47c56513e640e394024facbbe5032cf604bb699",
          "topics": [
            "0x5625f15df4cbadf2e6e3f80e2406aec5d99a432335ef0e9a1fba9e48b0558303",
            "0x000000000000000000000000000000000000000000000000000000000000001c"
          ],
          "data": "0x00000000000000000000000000000000000000000000000000000000000000040000000000000000000000000000000000000000000000000000000000000060000000000000000000000000000000000000000000000000000000000000002800000000000000000000000000000000000000000000000000000000000000b9697066732f516d613567624851637852477435366d4432335363786d31705968534e39743161377a5570515462374c6b3356342f30303030303030303030303030303030303030303030303030303030303030303030303030303030303030303030303030303030303030303030303030303238303030303030303030303030303030303030303030303030303030303030303030303030303030303030303030303030303030303030303030303030303030342e6a736f6e00000000000000",
          "blockHash": "0xbf381d57cee84b86245fede0575ae430340219fe3e65cb94196f4bceadff7649",
          "blockNumber": "0x32f22d9",
          "transactionHash": "0x9a6445fff1b9780f2f2ae07b52a95151209e1f029c88f07cd74985537f4ee55f",
          "transactionIndex": "0x4",
          "logIndex": "0x8",
          "removed": false
        }
      ],
      "logsBloom": "0x00000000000000000000000000000000000000000000000000000000000000000000000000000000000000000000000000000000000000200000000000000000000000000000000000000000000000004200000000000000000000000000000000040000000000000000000000000000000000000000000000000000000000000000000000000000000000000000000200000000000000000000000000000000000000000000000000000002000000000000000000000000000000000000000000000000000000000000004000000000000000000000000000000000000000000000000000000000000200000000000000000000010000000000000000000000",
      "type": "0x0",
      "transactionHash": "0x9a6445fff1b9780f2f2ae07b52a95151209e1f029c88f07cd74985537f4ee55f",
      "transactionIndex": "0x4",
      "blockHash": "0xbf381d57cee84b86245fede0575ae430340219fe3e65cb94196f4bceadff7649",
      "blockNumber": "0x32f22d9",
      "gasUsed": "0x376a7",
      "effectiveGasPrice": "0x5d22cfc40",
      "from": "0x8835669696fb92839ab198cd80ce9f0d35f45ad5",
      "to": "0xd47c56513e640e394024facbbe5032cf604bb699",
      "contractAddress": null,
      "l1BaseFeeScalar": "0x0",
      "l1BlobBaseFee": "0x966ad264ab",
      "l1BlobBaseFeeScalar": "0x0",
      "l1Fee": "0x0",
      "l1GasPrice": "0xb43d13c",
      "l1GasUsed": "0x91a"
    },
    {
      "status": "0x1",
      "cumulativeGasUsed": "0x111e22",
      "logs": [
        {
          "address": "0xd47c56513e640e394024facbbe5032cf604bb699",
          "topics": [
            "0x5625f15df4cbadf2e6e3f80e2406aec5d99a432335ef0e9a1fba9e48b0558303",
            "0x000000000000000000000000000000000000000000000000000000000000001c"
          ],
          "data": "0x00000000000000000000000000000000000000000000000000000000000000050000000000000000000000000000000000000000000000000000000000000060000000000000000000000000000000000000000000000000000000000000003200000000000000000000000000000000000000000000000000000000000000b9697066732f516d613567624851637852477435366d4432335363786d31705968534e39743161377a5570515462374c6b3356342f30303030303030303030303030303030303030303030303030303030303030303030303030303030303030303030303030303030303030303030303030303238303030303030303030303030303030303030303030303030303030303030303030303030303030303030303030303030303030303030303030303030303030352e6a736f6e00000000000000",
          "blockHash": "0xbf381d57cee84b86245fede0575ae430340219fe3e65cb94196f4bceadff7649",
          "blockNumber": "0x32f22d9",
          "transactionHash": "0x1733de501943095d9defcf4cdc3e40fcde58dada9f586fb5c3eb903b9c2ac70a",
          "transactionIndex": "0x5",
          "logIndex": "0x9",
          "removed": false
        }
      ],
      "logsBloom": "0x00000000000000000000000000000000000000000000000000000000000000000000000000000000000000000000000000000000000000200000000000000000000000000000000000000000000000004200000000000000000000000000000000040000000000000000000000000000000000000000000000000000000000000000000000000000000000000000000200000000000000000000000000000000000000000000000000000002000000000000000000000000000000000000000000000000000000000000004000000000000000000000000000000000000000000000000000000000000200000000000000000000010000000000000000000000",
      "type": "0x0",
      "transactionHash": "0x1733de501943095d9defcf4cdc3e40fcde58dada9f586fb5c3eb903b9c2ac70a",
      "transactionIndex": "0x5",
      "blockHash": "0xbf381d57cee84b86245fede0575ae430340219fe3e65cb94196f4bceadff7649",
      "blockNumber": "0x32f22d9",
      "gasUsed": "0x376a7",
      "effectiveGasPrice": "0x5d22cfc40",
      "from": "0x8835669696fb92839ab198cd80ce9f0d35f45ad5",
      "to": "0xd47c56513e640e394024facbbe5032cf604bb699",
      "contractAddress": null,
      "l1BaseFeeScalar": "0x0",
      "l1BlobBaseFee": "0x966ad264ab",
      "l1BlobBaseFeeScalar": "0x0",
      "l1Fee": "0x0",
      "l1GasPrice": "0xb43d13c",
      "l1GasUsed": "0x91a"
    },
    {
      "status": "0x1",
      "cumulativeGasUsed": "0x14cde0",
      "logs": [
        {
          "address": "0xd47c56513e640e394024facbbe5032cf604bb699",
          "topics": [
            "0x5625f15df4cbadf2e6e3f80e2406aec5d99a432335ef0e9a1fba9e48b0558303",
            "0x000000000000000000000000000000000000000000000000000000000000001d"
          ],
          "data": "0x00000000000000000000000000000000000000000000000000000000000000010000000000000000000000000000000000000000000000000000000000000060000000000000000000000000000000000000000000000000000000000000000a00000000000000000000000000000000000000000000000000000000000000b9697066732f516d613567624851637852477435366d4432335363786d31705968534e39743161377a5570515462374c6b3356342f30303030303030303030303030303030303030303030303030303030303030303030303030303030303030303030303030303030303030303030303030303239303030303030303030303030303030303030303030303030303030303030303030303030303030303030303030303030303030303030303030303030303030312e6a736f6e00000000000000",
          "blockHash": "0xbf381d57cee84b86245fede0575ae430340219fe3e65cb94196f4bceadff7649",
          "blockNumber": "0x32f22d9",
          "transactionHash": "0xb6c6c27273db7e0eb0765d8827f6213a5a60b3d723385b72f5ca68b86f8f1d6b",
          "transactionIndex": "0x6",
          "logIndex": "0xa",
          "removed": false
        }
      ],
      "logsBloom": "0x00000080000000000000000000000000000000000000000000000000000000000000000000000000000000000000000000000000000000000000000200000000000000000000000000000000000000004200000000000010000000000000000000040000000000000000000000000000000000000000000000000000000000000000000000000000000000000000000000000000000000000000000000000000000000000000000000000000000000000000000000000000000000000000000000000000000000000000004000000000000000000000000000000000000000000000000000000000000200000000000000000000010000000000000000000000",
      "type": "0x0",
      "transactionHash": "0xb6c6c27273db7e0eb0765d8827f6213a5a60b3d723385b72f5ca68b86f8f1d6b",
      "transactionIndex": "0x6",
      "blockHash": "0xbf381d57cee84b86245fede0575ae430340219fe3e65cb94196f4bceadff7649",
      "blockNumber": "0x32f22d9",
      "gasUsed": "0x3afbe",
      "effectiveGasPrice": "0x5d22cfc40",
      "from": "0x8835669696fb92839ab198cd80ce9f0d35f45ad5",
      "to": "0xd47c56513e640e394024facbbe5032cf604bb699",
      "contractAddress": null,
      "l1BaseFeeScalar": "0x0",
      "l1BlobBaseFee": "0x966ad264ab",
      "l1BlobBaseFeeScalar": "0x0",
      "l1Fee": "0x0",
      "l1GasPrice": "0xb43d13c",
      "l1GasUsed": "0x934"
    },
    {
      "status": "0x1",
      "cumulativeGasUsed": "0x1fe8d6",
      "logs": [
        {
          "address": "0xd47c56513e640e394024facbbe5032cf604bb699",
          "topics": [
            "0x5625f15df4cbadf2e6e3f80e2406aec5d99a432335ef0e9a1fba9e48b0558303",
            "0x000000000000000000000000000000000000000000000000000000000000001d"
          ],
          "data": "0x00000000000000000000000000000000000000000000000000000000000000020000000000000000000000000000000000000000000000000000000000000060000000000000000000000000000000000000000000000000000000000000001400000000000000000000000000000000000000000000000000000000000000b9697066732f516d613567624851637852477435366d4432335363786d31705968534e39743161377a5570515462374c6b3356342f30303030303030303030303030303030303030303030303030303030303030303030303030303030303030303030303030303030303030303030303030303239303030303030303030303030303030303030303030303030303030303030303030303030303030303030303030303030303030303030303030303030303030322e6a736f6e00000000000000",
          "blockHash": "0xbf381d57cee84b86245fede0575ae430340219fe3e65cb94196f4bceadff7649",
          "blockNumber": "0x32f22d9",
          "transactionHash": "0x952825f3c991ffe156656c3d581fe155c0cdf3ec7f15ab09db48353be40c6f3b",
          "transactionIndex": "0xa",
          "logIndex": "0x12",
          "removed": false
        }
      ],
      "logsBloom": "0x00000080000000000000000000000000000000000000000000000000000000000000000000000000000000000000000000000000000000000000000200000000000000000000000000000000000000004200000000000010000000000000000000040000000000000000000000000000000000000000000000000000000000000000000000000000000000000000000000000000000000000000000000000000000000000000000000000000000000000000000000000000000000000000000000000000000000000000004000000000000000000000000000000000000000000000000000000000000200000000000000000000010000000000000000000000",
      "type": "0x0",
      "transactionHash": "0x952825f3c991ffe156656c3d581fe155c0cdf3ec7f15ab09db48353be40c6f3b",
      "transactionIndex": "0xa",
      "blockHash": "0xbf381d57cee84b86245fede0575ae430340219fe3e65cb94196f4bceadff7649",
      "blockNumber": "0x32f22d9",
      "gasUsed": "0x376a7",
      "effectiveGasPrice": "0x5d22cfc40",
      "from": "0x8835669696fb92839ab198cd80ce9f0d35f45ad5",
      "to": "0xd47c56513e640e394024facbbe5032cf604bb699",
      "contractAddress": null,
      "l1BaseFeeScalar": "0x0",
      "l1BlobBaseFee": "0x966ad264ab",
      "l1BlobBaseFeeScalar": "0x0",
      "l1Fee": "0x0",
      "l1GasPrice": "0xb43d13c",
      "l1GasUsed": "0x927"
    },
    {
      "status": "0x1",
      "cumulativeGasUsed": "0x235f7d",
      "logs": [
        {
          "address": "0xd47c56513e640e394024facbbe5032cf604bb699",
          "topics": [
            "0x5625f15df4cbadf2e6e3f80e2406aec5d99a432335ef0e9a1fba9e48b0558303",
            "0x000000000000000000000000000000000000000000000000000000000000001d"
          ],
          "data": "0x00000000000000000000000000000000000000000000000000000000000000030000000000000000000000000000000000000000000000000000000000000060000000000000000000000000000000000000000000000000000000000000001e00000000000000000000000000000000000000000000000000000000000000b9697066732f516d613567624851637852477435366d4432335363786d31705968534e39743161377a5570515462374c6b3356342f30303030303030303030303030303030303030303030303030303030303030303030303030303030303030303030303030303030303030303030303030303239303030303030303030303030303030303030303030303030303030303030303030303030303030303030303030303030303030303030303030303030303030332e6a736f6e00000000000000",
          "blockHash": "0xbf381d57cee84b86245fede0575ae430340219fe3e65cb94196f4bceadff7649",
          "blockNumber": "0x32f22d9",
          "transactionHash": "0x66cbf8ed8836eb351bc6ee8cae46888067081737926c759bc23c5090af312ddc",
          "transactionIndex": "0xb",
          "logIndex": "0x13",
          "removed": false
        }
      ],
      "logsBloom": "0x00000080000000000000000000000000000000000000000000000000000000000000000000000000000000000000000000000000000000000000000200000000000000000000000000000000000000004200000000000010000000000000000000040000000000000000000000000000000000000000000000000000000000000000000000000000000000000000000000000000000000000000000000000000000000000000000000000000000000000000000000000000000000000000000000000000000000000000004000000000000000000000000000000000000000000000000000000000000200000000000000000000010000000000000000000000",
      "type": "0x0",
      "transactionHash": "0x66cbf8ed8836eb351bc6ee8cae46888067081737926c759bc23c5090af312ddc",
      "transactionIndex": "0xb",
      "blockHash": "0xbf381d57cee84b86245fede0575ae430340219fe3e65cb94196f4bceadff7649",
      "blockNumber": "0x32f22d9",
      "gasUsed": "0x376a7",
      "effectiveGasPrice": "0x5d22cfc40",
      "from": "0x8835669696fb92839ab198cd80ce9f0d35f45ad5",
      "to": "0xd47c56513e640e394024facbbe5032cf604bb699",
      "contractAddress": null,
      "l1BaseFeeScalar": "0x0",
      "l1BlobBaseFee": "0x966ad264ab",
      "l1BlobBaseFeeScalar": "0x0",
      "l1Fee": "0x0",
      "l1GasPrice": "0xb43d13c",
      "l1GasUsed": "0x934"
    },
    {
      "status": "0x1",
      "cumulativeGasUsed": "0x26d624",
      "logs": [
        {
          "address": "0xd47c56513e640e394024facbbe5032cf604bb699",
          "topics": [
            "0x5625f15df4cbadf2e6e3f80e2406aec5d99a432335ef0e9a1fba9e48b0558303",
            "0x000000000000000000000000000000000000000000000000000000000000001d"
          ],
          "data": "0x00000000000000000000000000000000000000000000000000000000000000040000000000000000000000000000000000000000000000000000000000000060000000000000000000000000000000000000000000000000000000000000002800000000000000000000000000000000000000000000000000000000000000b9697066732f516d613567624851637852477435366d4432335363786d31705968534e39743161377a5570515462374c6b3356342f30303030303030303030303030303030303030303030303030303030303030303030303030303030303030303030303030303030303030303030303030303239303030303030303030303030303030303030303030303030303030303030303030303030303030303030303030303030303030303030303030303030303030342e6a736f6e00000000000000",
          "blockHash": "0xbf381d57cee84b86245fede0575ae430340219fe3e65cb94196f4bceadff7649",
          "blockNumber": "0x32f22d9",
          "transactionHash": "0x269262eabdbd7de8729afa742a88b5bc78e26feb955b0b603f497ab287930258",
          "transactionIndex": "0xc",
          "logIndex": "0x14",
          "removed": false
        }
      ],
      "logsBloom": "0x00000080000000000000000000000000000000000000000000000000000000000000000000000000000000000000000000000000000000000000000200000000000000000000000000000000000000004200000000000010000000000000000000040000000000000000000000000000000000000000000000000000000000000000000000000000000000000000000000000000000000000000000000000000000000000000000000000000000000000000000000000000000000000000000000000000000000000000004000000000000000000000000000000000000000000000000000000000000200000000000000000000010000000000000000000000",
      "type": "0x0",
      "transactionHash": "0x269262eabdbd7de8729afa742a88b5bc78e26feb955b0b603f497ab287930258",
      "transactionIndex": "0xc",
      "blockHash": "0xbf381d57cee84b86245fede0575ae430340219fe3e65cb94196f4bceadff7649",
      "blockNumber": "0x32f22d9",
      "gasUsed": "0x376a7",
      "effectiveGasPrice": "0x5d22cfc40",
      "from": "0x8835669696fb92839ab198cd80ce9f0d35f45ad5",
      "to": "0xd47c56513e640e394024facbbe5032cf604bb699",
      "contractAddress": null,
      "l1BaseFeeScalar": "0x0",
      "l1BlobBaseFee": "0x966ad264ab",
      "l1BlobBaseFeeScalar": "0x0",
      "l1Fee": "0x0",
      "l1GasPrice": "0xb43d13c",
      "l1GasUsed": "0x927"
    },
    {
      "status": "0x1",
      "cumulativeGasUsed": "0x2a4ccb",
      "logs": [
        {
          "address": "0xd47c56513e640e394024facbbe5032cf604bb699",
          "topics": [
            "0x5625f15df4cbadf2e6e3f80e2406aec5d99a432335ef0e9a1fba9e48b0558303",
            "0x000000000000000000000000000000000000000000000000000000000000001d"
          ],
          "data": "0x00000000000000000000000000000000000000000000000000000000000000050000000000000000000000000000000000000000000000000000000000000060000000000000000000000000000000000000000000000000000000000000003200000000000000000000000000000000000000000000000000000000000000b9697066732f516d613567624851637852477435366d4432335363786d31705968534e39743161377a5570515462374c6b3356342f30303030303030303030303030303030303030303030303030303030303030303030303030303030303030303030303030303030303030303030303030303239303030303030303030303030303030303030303030303030303030303030303030303030303030303030303030303030303030303030303030303030303030352e6a736f6e00000000000000",
          "blockHash": "0xbf381d57cee84b86245fede0575ae430340219fe3e65cb94196f4bceadff7649",
          "blockNumber": "0x32f22d9",
          "transactionHash": "0x8b6f36ab687036b4cdd5f28dee1f4f8a712903da50c486ba71c8ecebd47e95da",
          "transactionIndex": "0xd",
          "logIndex": "0x15",
          "removed": false
        }
      ],
      "logsBloom": "0x00000080000000000000000000000000000000000000000000000000000000000000000000000000000000000000000000000000000000000000000200000000000000000000000000000000000000004200000000000010000000000000000000040000000000000000000000000000000000000000000000000000000000000000000000000000000000000000000000000000000000000000000000000000000000000000000000000000000000000000000000000000000000000000000000000000000000000000004000000000000000000000000000000000000000000000000000000000000200000000000000000000010000000000000000000000",
      "type": "0x0",
      "transactionHash": "0x8b6f36ab687036b4cdd5f28dee1f4f8a712903da50c486ba71c8ecebd47e95da",
      "transactionIndex": "0xd",
      "blockHash": "0xbf381d57cee84b86245fede0575ae430340219fe3e65cb94196f4bceadff7649",
      "blockNumber": "0x32f22d9",
      "gasUsed": "0x376a7",
      "effectiveGasPrice": "0x5d22cfc40",
      "from": "0x8835669696fb92839ab198cd80ce9f0d35f45ad5",
      "to": "0xd47c56513e640e394024facbbe5032cf604bb699",
      "contractAddress": null,
      "l1BaseFeeScalar": "0x0",
      "l1BlobBaseFee": "0x966ad264ab",
      "l1BlobBaseFeeScalar": "0x0",
      "l1Fee": "0x0",
      "l1GasPrice": "0xb43d13c",
      "l1GasUsed": "0x934"
    }
  ],
  "libraries": [],
  "pending": [],
  "returns": {
    "0": {
      "internal_type": "address",
      "value": "0x0000000000000000000000000000000000000000"
    }
  },
  "timestamp": 1765321519,
  "chain": 42220,
  "commit": "e4f1d6b"
}