{
  "transactions": [
    {
      "hash": "0x0566bb8e15152e1793968160a4940b7caa92e364c2ed703ea53080e671628943",
      "transactionType": "CALL",
      "contractName": null,
      "contractAddress": "0xd47c56513e640e394024facbbe5032cf604bb699",
      "function": "updateBadgeMetadata(uint256,string)",
      "arguments": [
        "22",
        "ipfs/Qmej7mjohKduCHrTE1NDpSHZ12BZHUJgSKhu1coG6jnjGB/00000000000000000000000000000000000000000000000000000000000000220000000000000000000000000000000000000000000000000000000000000000.json"
      ],
      "transaction": {
        "from": "0x8835669696fb92839ab198cd80ce9f0d35f45ad5",
        "to": "0xd47c56513e640e394024facbbe5032cf604bb699",
        "gas": "0x1255d",
        "value": "0x0",
        "input": "0x47461b400000000000000000000000000000000000000000000000000000000000000016000000000000000000000000000000000000000000000000000000000000004000000000000000000000000000000000000000000000000000000000000000b9697066732f516d656a376d6a6f684b64754348725445314e447053485a3132425a48554a67534b687531636f47366a6e6a47422f30303030303030303030303030303030303030303030303030303030303030303030303030303030303030303030303030303030303030303030303030303232303030303030303030303030303030303030303030303030303030303030303030303030303030303030303030303030303030303030303030303030303030302e6a736f6e00000000000000",
        "nonce": "0x5dd",
        "chainId": "0xa4ec"
      },
      "additionalContracts": [],
      "isFixedGasLimit": false
    },
    {
      "hash": "0x46c257e8f1932b7f69cf49396677fc04e08aaa94a9b0b20e87396439af44a287",
      "transactionType": "CALL",
      "contractName": null,
      "contractAddress": "0xd47c56513e640e394024facbbe5032cf604bb699",
      "function": "updateBadgeTierMetadata(uint256,uint256,string)",
      "arguments": [
        "22",
        "1",
        "ipfs/Qmej7mjohKduCHrTE1NDpSHZ12BZHUJgSKhu1coG6jnjGB/00000000000000000000000000000000000000000000000000000000000000220000000000000000000000000000000000000000000000000000000000000001.json"
      ],
      "transaction": {
        "from": "0x8835669696fb92839ab198cd80ce9f0d35f45ad5",
        "to": "0xd47c56513e640e394024facbbe5032cf604bb699",
        "gas": "0x136d7",
        "value": "0x0",
        "input": "0xc43e4f4c00000000000000000000000000000000000000000000000000000000000000160000000000000000000000000000000000000000000000000000000000000001000000000000000000000000000000000000000000000000000000000000006000000000000000000000000000000000000000000000000000000000000000b9697066732f516d656a376d6a6f684b64754348725445314e447053485a3132425a48554a67534b687531636f47366a6e6a47422f30303030303030303030303030303030303030303030303030303030303030303030303030303030303030303030303030303030303030303030303030303232303030303030303030303030303030303030303030303030303030303030303030303030303030303030303030303030303030303030303030303030303030312e6a736f6e00000000000000",
        "nonce": "0x5de",
        "chainId": "0xa4ec"
      },
      "additionalContracts": [],
      "isFixedGasLimit": false
    },
    {
      "hash": "0xd88732ba5699be107d97872c983a897136c6017893ae3edd5133fdecb800dc79",
      "transactionType": "CALL",
      "contractName": null,
      "contractAddress": "0xd47c56513e640e394024facbbe5032cf604bb699",
      "function": "updateBadgeTierMetadata(uint256,uint256,string)",
      "arguments": [
        "22",
        "2",
        "ipfs/Qmej7mjohKduCHrTE1NDpSHZ12BZHUJgSKhu1coG6jnjGB/00000000000000000000000000000000000000000000000000000000000000220000000000000000000000000000000000000000000000000000000000000002.json"
      ],
      "transaction": {
        "from": "0x8835669696fb92839ab198cd80ce9f0d35f45ad5",
        "to": "0xd47c56513e640e394024facbbe5032cf604bb699",
        "gas": "0x136d7",
        "value": "0x0",
        "input": "0xc43e4f4c00000000000000000000000000000000000000000000000000000000000000160000000000000000000000000000000000000000000000000000000000000002000000000000000000000000000000000000000000000000000000000000006000000000000000000000000000000000000000000000000000000000000000b9697066732f516d656a376d6a6f684b64754348725445314e447053485a3132425a48554a67534b687531636f47366a6e6a47422f30303030303030303030303030303030303030303030303030303030303030303030303030303030303030303030303030303030303030303030303030303232303030303030303030303030303030303030303030303030303030303030303030303030303030303030303030303030303030303030303030303030303030322e6a736f6e00000000000000",
        "nonce": "0x5df",
        "chainId": "0xa4ec"
      },
      "additionalContracts": [],
      "isFixedGasLimit": false
    },
    {
      "hash": "0x529275244e8abbe23e810e0c2a9a4a7a49e7d415c0a5f3683345cdf5289f93fd",
      "transactionType": "CALL",
      "contractName": null,
      "contractAddress": "0xd47c56513e640e394024facbbe5032cf604bb699",
      "function": "updateBadgeTierMetadata(uint256,uint256,string)",
      "arguments": [
        "22",
        "3",
        "ipfs/Qmej7mjohKduCHrTE1NDpSHZ12BZHUJgSKhu1coG6jnjGB/00000000000000000000000000000000000000000000000000000000000000220000000000000000000000000000000000000000000000000000000000000003.json"
      ],
      "transaction": {
        "from": "0x8835669696fb92839ab198cd80ce9f0d35f45ad5",
        "to": "0xd47c56513e640e394024facbbe5032cf604bb699",
        "gas": "0x136d7",
        "value": "0x0",
        "input": "0xc43e4f4c00000000000000000000000000000000000000000000000000000000000000160000000000000000000000000000000000000000000000000000000000000003000000000000000000000000000000000000000000000000000000000000006000000000000000000000000000000000000000000000000000000000000000b9697066732f516d656a376d6a6f684b64754348725445314e447053485a3132425a48554a67534b687531636f47366a6e6a47422f30303030303030303030303030303030303030303030303030303030303030303030303030303030303030303030303030303030303030303030303030303232303030303030303030303030303030303030303030303030303030303030303030303030303030303030303030303030303030303030303030303030303030332e6a736f6e00000000000000",
        "nonce": "0x5e0",
        "chainId": "0xa4ec"
      },
      "additionalContracts": [],
      "isFixedGasLimit": false
    },
    {
      "hash": "0x9e01eda3cf5347dca7de40654765476790f10f1947b6e6881af23a15f859bef1",
      "transactionType": "CALL",
      "contractName": null,
      "contractAddress": "0xd47c56513e640e394024facbbe5032cf604bb699",
      "function": "updateBadgeTierMetadata(uint256,uint256,string)",
      "arguments": [
        "22",
        "4",
        "ipfs/Qmej7mjohKduCHrTE1NDpSHZ12BZHUJgSKhu1coG6jnjGB/00000000000000000000000000000000000000000000000000000000000000220000000000000000000000000000000000000000000000000000000000000004.json"
      ],
      "transaction": {
        "from": "0x8835669696fb92839ab198cd80ce9f0d35f45ad5",
        "to": "0xd47c56513e640e394024facbbe5032cf604bb699",
        "gas": "0x136d7",
        "value": "0x0",
        "input": "0xc43e4f4c00000000000000000000000000000000000000000000000000000000000000160000000000000000000000000000000000000000000000000000000000000004000000000000000000000000000000000000000000000000000000000000006000000000000000000000000000000000000000000000000000000000000000b9697066732f516d656a376d6a6f684b64754348725445314e447053485a3132425a48554a67534b687531636f47366a6e6a47422f30303030303030303030303030303030303030303030303030303030303030303030303030303030303030303030303030303030303030303030303030303232303030303030303030303030303030303030303030303030303030303030303030303030303030303030303030303030303030303030303030303030303030342e6a736f6e00000000000000",
        "nonce": "0x5e1",
        "chainId": "0xa4ec"
      },
      "additionalContracts": [],
      "isFixedGasLimit": false
    },
    {
      "hash": "0xe2b23cc286173bc3b62b7c80c7654317b8286ec3c09692e42436fb1ccf8b43d1",
      "transactionType": "CALL",
      "contractName": null,
      "contractAddress": "0xd47c56513e640e394024facbbe5032cf604bb699",
      "function": "updateBadgeTierMetadata(uint256,uint256,string)",
      "arguments": [
        "22",
        "5",
        "ipfs/Qmej7mjohKduCHrTE1NDpSHZ12BZHUJgSKhu1coG6jnjGB/00000000000000000000000000000000000000000000000000000000000000220000000000000000000000000000000000000000000000000000000000000005.json"
      ],
      "transaction": {
        "from": "0x8835669696fb92839ab198cd80ce9f0d35f45ad5",
        "to": "0xd47c56513e640e394024facbbe5032cf604bb699",
        "gas": "0x136d7",
        "value": "0x0",
        "input": "0xc43e4f4c00000000000000000000000000000000000000000000000000000000000000160000000000000000000000000000000000000000000000000000000000000005000000000000000000000000000000000000000000000000000000000000006000000000000000000000000000000000000000000000000000000000000000b9697066732f516d656a376d6a6f684b64754348725445314e447053485a3132425a48554a67534b687531636f47366a6e6a47422f30303030303030303030303030303030303030303030303030303030303030303030303030303030303030303030303030303030303030303030303030303232303030303030303030303030303030303030303030303030303030303030303030303030303030303030303030303030303030303030303030303030303030352e6a736f6e00000000000000",
        "nonce": "0x5e2",
        "chainId": "0xa4ec"
      },
      "additionalContracts": [],
      "isFixedGasLimit": false
    }
  ],
  "receipts": [
    {
      "status": "0x1",
      "cumulativeGasUsed": "0x2032f8",
      "logs": [
        {
          "address": "0xd47c56513e640e394024facbbe5032cf604bb699",
          "topics": [
            "0xb810609e93b7325976c078b96d9c92d3160d0d165073b8c9a8a6a4d257fd0477",
            "0x0000000000000000000000000000000000000000000000000000000000000016"
          ],
          "data": "0x000000000000000000000000000000000000000000000000000000000000002000000000000000000000000000000000000000000000000000000000000000b9697066732f516d656a376d6a6f684b64754348725445314e447053485a3132425a48554a67534b687531636f47366a6e6a47422f30303030303030303030303030303030303030303030303030303030303030303030303030303030303030303030303030303030303030303030303030303232303030303030303030303030303030303030303030303030303030303030303030303030303030303030303030303030303030303030303030303030303030302e6a736f6e00000000000000",
          "blockHash": "0x4530c2addffb683087324706b482967704ba8ada92b8192755f46b874dd8285d",
          "blockNumber": "0x2819f84",
          "transactionHash": "0x0566bb8e15152e1793968160a4940b7caa92e364c2ed703ea53080e671628943",
          "transactionIndex": "0xd",
          "logIndex": "0x35",
          "removed": false
        }
      ],
      "logsBloom": "0x00000000000000000000000000000000000000000000000000000000000000040000000000000000000000000000000000000000000000000000000000000000000000000000000800000000000000004200000000000000000000400000000000000000000000000000000000000000200000000000000000000000000000000000000000000000000000000000000000000000000000000000000000000000000000000000000000000000000000000000000000000000000000000000000000000000000000000000000000000000000000000000000000000020000000000000000000000000000200000000000000000000000000000008000000000000",
      "type": "0x0",
      "transactionHash": "0x0566bb8e15152e1793968160a4940b7caa92e364c2ed703ea53080e671628943",
      "transactionIndex": "0xd",
      "blockHash": "0x4530c2addffb683087324706b482967704ba8ada92b8192755f46b874dd8285d",
      "blockNumber": "0x2819f84",
      "gasUsed": "0xd464",
      "effectiveGasPrice": "0x5d22cfc40",
      "from": "0x8835669696fb92839ab198cd80ce9f0d35f45ad5",
      "to": "0xd47c56513e640e394024facbbe5032cf604bb699",
      "contractAddress": null,
      "l1BaseFeeScalar": "0x0",
      "l1BlobBaseFee": "0x1",
      "l1BlobBaseFeeScalar": "0x0",
      "l1Fee": "0x0",
      "l1GasPrice": "0x984c9f4c",
      "l1GasUsed": "0x85e"
    },
    {
      "status": "0x1",
      "cumulativeGasUsed": "0x211404",
      "logs": [
        {
          "address": "0xd47c56513e640e394024facbbe5032cf604bb699",
          "topics": [
            "0x3e442b5d5a6ecd8c0a86017cabd5ee0efbf32debbee58f9cea68f1b8489e4193",
            "0x0000000000000000000000000000000000000000000000000000000000000016"
          ],
          "data": "0x0000000000000000000000000000000000000000000000000000000000000001000000000000000000000000000000000000000000000000000000000000004000000000000000000000000000000000000000000000000000000000000000b9697066732f516d656a376d6a6f684b64754348725445314e447053485a3132425a48554a67534b687531636f47366a6e6a47422f30303030303030303030303030303030303030303030303030303030303030303030303030303030303030303030303030303030303030303030303030303232303030303030303030303030303030303030303030303030303030303030303030303030303030303030303030303030303030303030303030303030303030312e6a736f6e00000000000000",
          "blockHash": "0x4530c2addffb683087324706b482967704ba8ada92b8192755f46b874dd8285d",
          "blockNumber": "0x2819f84",
          "transactionHash": "0x46c257e8f1932b7f69cf49396677fc04e08aaa94a9b0b20e87396439af44a287",
          "transactionIndex": "0xe",
          "logIndex": "0x36",
          "removed": false
        }
      ],
      "logsBloom": "0x00000000000000000000000000000000000000000000000000000000000000000000000000000000000000000000000000000000000000000000000000000000000000000000000800000000000000004200000000000000000000000000000000000010000000000000000000000000200000000000000000000000000000000000000000000000000000000000000000000000000000000000000000000000000000200000000000000000000000000000000000000000000000000000000000000000000000000000000000000000000000000000000200000000000000000000000000000000000200000000000000000000000000000008000000000000",
      "type": "0x0",
      "transactionHash": "0x46c257e8f1932b7f69cf49396677fc04e08aaa94a9b0b20e87396439af44a287",
      "transactionIndex": "0xe",
      "blockHash": "0x4530c2addffb683087324706b482967704ba8ada92b8192755f46b874dd8285d",
      "blockNumber": "0x2819f84",
      "gasUsed": "0xe10c",
      "effectiveGasPrice": "0x5d22cfc40",
      "from": "0x8835669696fb92839ab198cd80ce9f0d35f45ad5",
      "to": "0xd47c56513e640e394024facbbe5032cf604bb699",
      "contractAddress": null,
      "l1BaseFeeScalar": "0x0",
      "l1BlobBaseFee": "0x1",
      "l1BlobBaseFeeScalar": "0x0",
      "l1Fee": "0x0",
      "l1GasPrice": "0x984c9f4c",
      "l1GasUsed": "0x8f1"
    },
    {
      "status": "0x1",
      "cumulativeGasUsed": "0x21f510",
      "logs": [
        {
          "address": "0xd47c56513e640e394024facbbe5032cf604bb699",
          "topics": [
            "0x3e442b5d5a6ecd8c0a86017cabd5ee0efbf32debbee58f9cea68f1b8489e4193",
            "0x0000000000000000000000000000000000000000000000000000000000000016"
          ],
          "data": "0x0000000000000000000000000000000000000000000000000000000000000002000000000000000000000000000000000000000000000000000000000000004000000000000000000000000000000000000000000000000000000000000000b9697066732f516d656a376d6a6f684b64754348725445314e447053485a3132425a48554a67534b687531636f47366a6e6a47422f30303030303030303030303030303030303030303030303030303030303030303030303030303030303030303030303030303030303030303030303030303232303030303030303030303030303030303030303030303030303030303030303030303030303030303030303030303030303030303030303030303030303030322e6a736f6e00000000000000",
          "blockHash": "0x4530c2addffb683087324706b482967704ba8ada92b8192755f46b874dd8285d",
          "blockNumber": "0x2819f84",
          "transactionHash": "0xd88732ba5699be107d97872c983a897136c6017893ae3edd5133fdecb800dc79",
          "transactionIndex": "0xf",
          "logIndex": "0x37",
          "removed": false
        }
      ],
      "logsBloom": "0x00000000000000000000000000000000000000000000000000000000000000000000000000000000000000000000000000000000000000000000000000000000000000000000000800000000000000004200000000000000000000000000000000000010000000000000000000000000200000000000000000000000000000000000000000000000000000000000000000000000000000000000000000000000000000200000000000000000000000000000000000000000000000000000000000000000000000000000000000000000000000000000000200000000000000000000000000000000000200000000000000000000000000000008000000000000",
      "type": "0x0",
      "transactionHash": "0xd88732ba5699be107d97872c983a897136c6017893ae3edd5133fdecb800dc79",
      "transactionIndex": "0xf",
      "blockHash": "0x4530c2addffb683087324706b482967704ba8ada92b8192755f46b874dd8285d",
      "blockNumber": "0x2819f84",
      "gasUsed": "0xe10c",
      "effectiveGasPrice": "0x5d22cfc40",
      "from": "0x8835669696fb92839ab198cd80ce9f0d35f45ad5",
      "to": "0xd47c56513e640e394024facbbe5032cf604bb699",
      "contractAddress": null,
      "l1BaseFeeScalar": "0x0",
      "l1BlobBaseFee": "0x1",
      "l1BlobBaseFeeScalar": "0x0",
      "l1Fee": "0x0",
      "l1GasPrice": "0x984c9f4c",
      "l1GasUsed": "0x8e4"
    },
    {
      "status": "0x1",
      "cumulativeGasUsed": "0x22d61c",
      "logs": [
        {
          "address": "0xd47c56513e640e394024facbbe5032cf604bb699",
          "topics": [
            "0x3e442b5d5a6ecd8c0a86017cabd5ee0efbf32debbee58f9cea68f1b8489e4193",
            "0x0000000000000000000000000000000000000000000000000000000000000016"
          ],
          "data": "0x0000000000000000000000000000000000000000000000000000000000000003000000000000000000000000000000000000000000000000000000000000004000000000000000000000000000000000000000000000000000000000000000b9697066732f516d656a376d6a6f684b64754348725445314e447053485a3132425a48554a67534b687531636f47366a6e6a47422f30303030303030303030303030303030303030303030303030303030303030303030303030303030303030303030303030303030303030303030303030303232303030303030303030303030303030303030303030303030303030303030303030303030303030303030303030303030303030303030303030303030303030332e6a736f6e00000000000000",
          "blockHash": "0x4530c2addffb683087324706b482967704ba8ada92b8192755f46b874dd8285d",
          "blockNumber": "0x2819f84",
          "transactionHash": "0x529275244e8abbe23e810e0c2a9a4a7a49e7d415c0a5f3683345cdf5289f93fd",
          "transactionIndex": "0x10",
          "logIndex": "0x38",
          "removed": false
        }
      ],
      "logsBloom": "0x00000000000000000000000000000000000000000000000000000000000000000000000000000000000000000000000000000000000000000000000000000000000000000000000800000000000000004200000000000000000000000000000000000010000000000000000000000000200000000000000000000000000000000000000000000000000000000000000000000000000000000000000000000000000000200000000000000000000000000000000000000000000000000000000000000000000000000000000000000000000000000000000200000000000000000000000000000000000200000000000000000000000000000008000000000000",
      "type": "0x0",
      "transactionHash": "0x529275244e8abbe23e810e0c2a9a4a7a49e7d415c0a5f3683345cdf5289f93fd",
      "transactionIndex": "0x10",
      "blockHash": "0x4530c2addffb683087324706b482967704ba8ada92b8192755f46b874dd8285d",
      "blockNumber": "0x2819f84",
      "gasUsed": "0xe10c",
      "effectiveGasPrice": "0x5d22cfc40",
      "from": "0x8835669696fb92839ab198cd80ce9f0d35f45ad5",
      "to": "0xd47c56513e640e394024facbbe5032cf604bb699",
      "contractAddress": null,
      "l1BaseFeeScalar": "0x0",
      "l1BlobBaseFee": "0x1",
      "l1BlobBaseFeeScalar": "0x0",
      "l1Fee": "0x0",
      "l1GasPrice": "0x984c9f4c",
      "l1GasUsed": "0x8f1"
    },
    {
      "status": "0x1",
      "cumulativeGasUsed": "0x23b728",
      "logs": [
        {
          "address": "0xd47c56513e640e394024facbbe5032cf604bb699",
          "topics": [
            "0x3e442b5d5a6ecd8c0a86017cabd5ee0efbf32debbee58f9cea68f1b8489e4193",
            "0x0000000000000000000000000000000000000000000000000000000000000016"
          ],
          "data": "0x0000000000000000000000000000000000000000000000000000000000000004000000000000000000000000000000000000000000000000000000000000004000000000000000000000000000000000000000000000000000000000000000b9697066732f516d656a376d6a6f684b64754348725445314e447053485a3132425a48554a67534b687531636f47366a6e6a47422f30303030303030303030303030303030303030303030303030303030303030303030303030303030303030303030303030303030303030303030303030303232303030303030303030303030303030303030303030303030303030303030303030303030303030303030303030303030303030303030303030303030303030342e6a736f6e00000000000000",
          "blockHash": "0x4530c2addffb683087324706b482967704ba8ada92b8192755f46b874dd8285d",
          "blockNumber": "0x2819f84",
          "transactionHash": "0x9e01eda3cf5347dca7de40654765476790f10f1947b6e6881af23a15f859bef1",
          "transactionIndex": "0x11",
          "logIndex": "0x39",
          "removed": false
        }
      ],
      "logsBloom": "0x00000000000000000000000000000000000000000000000000000000000000000000000000000000000000000000000000000000000000000000000000000000000000000000000800000000000000004200000000000000000000000000000000000010000000000000000000000000200000000000000000000000000000000000000000000000000000000000000000000000000000000000000000000000000000200000000000000000000000000000000000000000000000000000000000000000000000000000000000000000000000000000000200000000000000000000000000000000000200000000000000000000000000000008000000000000",
      "type": "0x0",
      "transactionHash": "0x9e01eda3cf5347dca7de40654765476790f10f1947b6e6881af23a15f859bef1",
      "transactionIndex": "0x11",
      "blockHash": "0x4530c2addffb683087324706b482967704ba8ada92b8192755f46b874dd8285d",
      "blockNumber": "0x2819f84",
      "gasUsed": "0xe10c",
      "effectiveGasPrice": "0x5d22cfc40",
      "from": "0x8835669696fb92839ab198cd80ce9f0d35f45ad5",
      "to": "0xd47c56513e640e394024facbbe5032cf604bb699",
      "contractAddress": null,
      "l1BaseFeeScalar": "0x0",
      "l1BlobBaseFee": "0x1",
      "l1BlobBaseFeeScalar": "0x0",
      "l1Fee": "0x0",
      "l1GasPrice": "0x984c9f4c",
      "l1GasUsed": "0x8f1"
    },
    {
      "status": "0x1",
      "cumulativeGasUsed": "0x249834",
      "logs": [
        {
          "address": "0xd47c56513e640e394024facbbe5032cf604bb699",
          "topics": [
            "0x3e442b5d5a6ecd8c0a86017cabd5ee0efbf32debbee58f9cea68f1b8489e4193",
            "0x0000000000000000000000000000000000000000000000000000000000000016"
          ],
          "data": "0x0000000000000000000000000000000000000000000000000000000000000005000000000000000000000000000000000000000000000000000000000000004000000000000000000000000000000000000000000000000000000000000000b9697066732f516d656a376d6a6f684b64754348725445314e447053485a3132425a48554a67534b687531636f47366a6e6a47422f30303030303030303030303030303030303030303030303030303030303030303030303030303030303030303030303030303030303030303030303030303232303030303030303030303030303030303030303030303030303030303030303030303030303030303030303030303030303030303030303030303030303030352e6a736f6e00000000000000",
          "blockHash": "0x4530c2addffb683087324706b482967704ba8ada92b8192755f46b874dd8285d",
          "blockNumber": "0x2819f84",
          "transactionHash": "0xe2b23cc286173bc3b62b7c80c7654317b8286ec3c09692e42436fb1ccf8b43d1",
          "transactionIndex": "0x12",
          "logIndex": "0x3a",
          "removed": false
        }
      ],
      "logsBloom": "0x00000000000000000000000000000000000000000000000000000000000000000000000000000000000000000000000000000000000000000000000000000000000000000000000800000000000000004200000000000000000000000000000000000010000000000000000000000000200000000000000000000000000000000000000000000000000000000000000000000000000000000000000000000000000000200000000000000000000000000000000000000000000000000000000000000000000000000000000000000000000000000000000200000000000000000000000000000000000200000000000000000000000000000008000000000000",
      "type": "0x0",
      "transactionHash": "0xe2b23cc286173bc3b62b7c80c7654317b8286ec3c09692e42436fb1ccf8b43d1",
      "transactionIndex": "0x12",
      "blockHash": "0x4530c2addffb683087324706b482967704ba8ada92b8192755f46b874dd8285d",
      "blockNumber": "0x2819f84",
      "gasUsed": "0xe10c",
      "effectiveGasPrice": "0x5d22cfc40",
      "from": "0x8835669696fb92839ab198cd80ce9f0d35f45ad5",
      "to": "0xd47c56513e640e394024facbbe5032cf604bb699",
      "contractAddress": null,
      "l1BaseFeeScalar": "0x0",
      "l1BlobBaseFee": "0x1",
      "l1BlobBaseFeeScalar": "0x0",
      "l1Fee": "0x0",
      "l1GasPrice": "0x984c9f4c",
      "l1GasUsed": "0x8f1"
    }
  ],
  "libraries": [],
  "pending": [],
  "returns": {
    "0": {
      "internal_type": "address",
      "value": "0x0000000000000000000000000000000000000000"
    }
  },
  "timestamp": 1753950169,
  "chain": 42220,
  "commit": "9be475b"
}