{
  "transactions": [
    {
      "hash": "0xda061f9feee56afd70862091af51393ed7129c9222a3dec355e7545d67bddcc4",
      "transactionType": "CALL",
      "contractName": null,
      "contractAddress": "0xd47c56513e640e394024facbbe5032cf604bb699",
      "function": "setBadgeMetadata(uint256,string)",
      "arguments": [
        "26",
        "ipfs/QmYmpHyybED4mmgQYohYtUEXe2uDxhaAHKyxodBoUBNc1R/00000000000000000000000000000000000000000000000000000000000000260000000000000000000000000000000000000000000000000000000000000000.json"
      ],
      "transaction": {
        "from": "0x8835669696fb92839ab198cd80ce9f0d35f45ad5",
        "to": "0xd47c56513e640e394024facbbe5032cf604bb699",
        "gas": "0x4119d",
        "value": "0x0",
        "input": "0xce64b45f000000000000000000000000000000000000000000000000000000000000001a000000000000000000000000000000000000000000000000000000000000004000000000000000000000000000000000000000000000000000000000000000b9697066732f516d596d70487979624544346d6d6751596f6859745545586532754478686141484b79786f64426f55424e6331522f30303030303030303030303030303030303030303030303030303030303030303030303030303030303030303030303030303030303030303030303030303236303030303030303030303030303030303030303030303030303030303030303030303030303030303030303030303030303030303030303030303030303030302e6a736f6e00000000000000",
        "nonce": "0x1cec",
        "chainId": "0xa4ec"
      },
      "additionalContracts": [],
      "isFixedGasLimit": false
    },
    {
      "hash": "0x7a05af4bca38816ebe3c559e029daf28d2d59a671ceb1a987bdb5eeaa3da4618",
      "transactionType": "CALL",
      "contractName": null,
      "contractAddress": "0xd47c56513e640e394024facbbe5032cf604bb699",
      "function": "setBadgeTier(uint256,uint256,string,uint256)",
      "arguments": [
        "26",
        "1",
        "ipfs/QmYmpHyybED4mmgQYohYtUEXe2uDxhaAHKyxodBoUBNc1R/00000000000000000000000000000000000000000000000000000000000000260000000000000000000000000000000000000000000000000000000000000001.json",
        "20"
      ],
      "transaction": {
        "from": "0x8835669696fb92839ab198cd80ce9f0d35f45ad5",
        "to": "0xd47c56513e640e394024facbbe5032cf604bb699",
        "gas": "0x5178a",
        "value": "0x0",
        "input": "0xcf132d1c000000000000000000000000000000000000000000000000000000000000001a00000000000000000000000000000000000000000000000000000000000000010000000000000000000000000000000000000000000000000000000000000080000000000000000000000000000000000000000000000000000000000000001400000000000000000000000000000000000000000000000000000000000000b9697066732f516d596d70487979624544346d6d6751596f6859745545586532754478686141484b79786f64426f55424e6331522f30303030303030303030303030303030303030303030303030303030303030303030303030303030303030303030303030303030303030303030303030303236303030303030303030303030303030303030303030303030303030303030303030303030303030303030303030303030303030303030303030303030303030312e6a736f6e00000000000000",
        "nonce": "0x1ced",
        "chainId": "0xa4ec"
      },
      "additionalContracts": [],
      "isFixedGasLimit": false
    },
    {
      "hash": "0xc751aa69c9d10e927d6170320024b40e974e588804bf52c0d0ea90e548c75c09",
      "transactionType": "CALL",
      "contractName": null,
      "contractAddress": "0xd47c56513e640e394024facbbe5032cf604bb699",
      "function": "setBadgeTier(uint256,uint256,string,uint256)",
      "arguments": [
        "26",
        "2",
        "ipfs/QmYmpHyybED4mmgQYohYtUEXe2uDxhaAHKyxodBoUBNc1R/00000000000000000000000000000000000000000000000000000000000000260000000000000000000000000000000000000000000000000000000000000002.json",
        "40"
      ],
      "transaction": {
        "from": "0x8835669696fb92839ab198cd80ce9f0d35f45ad5",
        "to": "0xd47c56513e640e394024facbbe5032cf604bb699",
        "gas": "0x4c8af",
        "value": "0x0",
        "input": "0xcf132d1c000000000000000000000000000000000000000000000000000000000000001a00000000000000000000000000000000000000000000000000000000000000020000000000000000000000000000000000000000000000000000000000000080000000000000000000000000000000000000000000000000000000000000002800000000000000000000000000000000000000000000000000000000000000b9697066732f516d596d70487979624544346d6d6751596f6859745545586532754478686141484b79786f64426f55424e6331522f30303030303030303030303030303030303030303030303030303030303030303030303030303030303030303030303030303030303030303030303030303236303030303030303030303030303030303030303030303030303030303030303030303030303030303030303030303030303030303030303030303030303030322e6a736f6e00000000000000",
        "nonce": "0x1cee",
        "chainId": "0xa4ec"
      },
      "additionalContracts": [],
      "isFixedGasLimit": false
    },
    {
      "hash": "0xcfdcbba3e50407c572c37520d525c7e5a9c51564c4c626972c974f546e651196",
      "transactionType": "CALL",
      "contractName": null,
      "contractAddress": "0xd47c56513e640e394024facbbe5032cf604bb699",
      "function": "setBadgeTier(uint256,uint256,string,uint256)",
      "arguments": [
        "26",
        "3",
        "ipfs/QmYmpHyybED4mmgQYohYtUEXe2uDxhaAHKyxodBoUBNc1R/00000000000000000000000000000000000000000000000000000000000000260000000000000000000000000000000000000000000000000000000000000003.json",
        "60"
      ],
      "transaction": {
        "from": "0x8835669696fb92839ab198cd80ce9f0d35f45ad5",
        "to": "0xd47c56513e640e394024facbbe5032cf604bb699",
        "gas": "0x4c8af",
        "value": "0x0",
        "input": "0xcf132d1c000000000000000000000000000000000000000000000000000000000000001a00000000000000000000000000000000000000000000000000000000000000030000000000000000000000000000000000000000000000000000000000000080000000000000000000000000000000000000000000000000000000000000003c00000000000000000000000000000000000000000000000000000000000000b9697066732f516d596d70487979624544346d6d6751596f6859745545586532754478686141484b79786f64426f55424e6331522f30303030303030303030303030303030303030303030303030303030303030303030303030303030303030303030303030303030303030303030303030303236303030303030303030303030303030303030303030303030303030303030303030303030303030303030303030303030303030303030303030303030303030332e6a736f6e00000000000000",
        "nonce": "0x1cef",
        "chainId": "0xa4ec"
      },
      "additionalContracts": [],
      "isFixedGasLimit": false
    },
    {
      "hash": "0x00eff09a9274912bb54185718975379a4f47d4146815f3b0794955ef7ee38311",
      "transactionType": "CALL",
      "contractName": null,
      "contractAddress": "0xd47c56513e640e394024facbbe5032cf604bb699",
      "function": "setBadgeTier(uint256,uint256,string,uint256)",
      "arguments": [
        "26",
        "4",
        "ipfs/QmYmpHyybED4mmgQYohYtUEXe2uDxhaAHKyxodBoUBNc1R/00000000000000000000000000000000000000000000000000000000000000260000000000000000000000000000000000000000000000000000000000000004.json",
        "80"
      ],
      "transaction": {
        "from": "0x8835669696fb92839ab198cd80ce9f0d35f45ad5",
        "to": "0xd47c56513e640e394024facbbe5032cf604bb699",
        "gas": "0x4c8af",
        "value": "0x0",
        "input": "0xcf132d1c000000000000000000000000000000000000000000000000000000000000001a00000000000000000000000000000000000000000000000000000000000000040000000000000000000000000000000000000000000000000000000000000080000000000000000000000000000000000000000000000000000000000000005000000000000000000000000000000000000000000000000000000000000000b9697066732f516d596d70487979624544346d6d6751596f6859745545586532754478686141484b79786f64426f55424e6331522f30303030303030303030303030303030303030303030303030303030303030303030303030303030303030303030303030303030303030303030303030303236303030303030303030303030303030303030303030303030303030303030303030303030303030303030303030303030303030303030303030303030303030342e6a736f6e00000000000000",
        "nonce": "0x1cf0",
        "chainId": "0xa4ec"
      },
      "additionalContracts": [],
      "isFixedGasLimit": false
    },
    {
      "hash": "0x0f0eb349573d029f09ff36c067a0ae6d0b1d1c41e471b4c6931c7a2b97a34fee",
      "transactionType": "CALL",
      "contractName": null,
      "contractAddress": "0xd47c56513e640e394024facbbe5032cf604bb699",
      "function": "setBadgeTier(uint256,uint256,string,uint256)",
      "arguments": [
        "26",
        "5",
        "ipfs/QmYmpHyybED4mmgQYohYtUEXe2uDxhaAHKyxodBoUBNc1R/00000000000000000000000000000000000000000000000000000000000000260000000000000000000000000000000000000000000000000000000000000005.json",
        "100"
      ],
      "transaction": {
        "from": "0x8835669696fb92839ab198cd80ce9f0d35f45ad5",
        "to": "0xd47c56513e640e394024facbbe5032cf604bb699",
        "gas": "0x4c8af",
        "value": "0x0",
        "input": "0xcf132d1c000000000000000000000000000000000000000000000000000000000000001a00000000000000000000000000000000000000000000000000000000000000050000000000000000000000000000000000000000000000000000000000000080000000000000000000000000000000000000000000000000000000000000006400000000000000000000000000000000000000000000000000000000000000b9697066732f516d596d70487979624544346d6d6751596f6859745545586532754478686141484b79786f64426f55424e6331522f30303030303030303030303030303030303030303030303030303030303030303030303030303030303030303030303030303030303030303030303030303236303030303030303030303030303030303030303030303030303030303030303030303030303030303030303030303030303030303030303030303030303030352e6a736f6e00000000000000",
        "nonce": "0x1cf1",
        "chainId": "0xa4ec"
      },
      "additionalContracts": [],
      "isFixedGasLimit": false
    }
  ],
  "receipts": [
    {
      "status": "0x1",
      "cumulativeGasUsed": "0x11558f",
      "logs": [
        {
          "address": "0xd47c56513e640e394024facbbe5032cf604bb699",
          "topics": [
            "0x2e5977e12fac9a91696e22ba811f2893e11ad62f8aa53e99a628b031d18a379f",
            "0x000000000000000000000000000000000000000000000000000000000000001a"
          ],
          "data": "0x000000000000000000000000000000000000000000000000000000000000002000000000000000000000000000000000000000000000000000000000000000b9697066732f516d596d70487979624544346d6d6751596f6859745545586532754478686141484b79786f64426f55424e6331522f30303030303030303030303030303030303030303030303030303030303030303030303030303030303030303030303030303030303030303030303030303236303030303030303030303030303030303030303030303030303030303030303030303030303030303030303030303030303030303030303030303030303030302e6a736f6e00000000000000",
          "blockHash": "0x818332a4f08c6b7cbefe5d8bfc0088684a1b8f1f92e9eb2d7129ee144d03722b",
          "blockNumber": "0x2d304fc",
          "transactionHash": "0xda061f9feee56afd70862091af51393ed7129c9222a3dec355e7545d67bddcc4",
          "transactionIndex": "0x7",
          "logIndex": "0x1a",
          "removed": false
        }
      ],
      "logsBloom": "0x00000000000000000000000000000000000000000000000000000000000000000000000000000000000000000000000000000000000000000000000000000000000000000000000000000000000000005200000000000000000000001000000000000000000000000000000000000000000000000000000000000000000004000000000000000000000000000000000000000000000000000000000000000000000000000000000000000000000000000000000000000100000000000000000000000000000000000000000000000000000000000000000000000000400000000000000000000000000200000000000000000000000004000000000000000000",
      "type": "0x0",
      "transactionHash": "0xda061f9feee56afd70862091af51393ed7129c9222a3dec355e7545d67bddcc4",
      "transactionIndex": "0x7",
      "blockHash": "0x818332a4f08c6b7cbefe5d8bfc0088684a1b8f1f92e9eb2d7129ee144d03722b",
      "blockNumber": "0x2d304fc",
      "gasUsed": "0x2f21d",
      "effectiveGasPrice": "0x5d22cfc40",
      "from": "0x8835669696fb92839ab198cd80ce9f0d35f45ad5",
      "to": "0xd47c56513e640e394024facbbe5032cf604bb699",
      "contractAddress": null,
      "l1BaseFeeScalar": "0x0",
      "l1BlobBaseFee": "0x1",
      "l1BlobBaseFeeScalar": "0x0",
      "l1Fee": "0x0",
      "l1GasPrice": "0x6f25c49",
      "l1GasUsed": "0x86c"
    },
    {
      "status": "0x1",
      "cumulativeGasUsed": "0x15054d",
      "logs": [
        {
          "address": "0xd47c56513e640e394024facbbe5032cf604bb699",
          "topics": [
            "0x5625f15df4cbadf2e6e3f80e2406aec5d99a432335ef0e9a1fba9e48b0558303",
            "0x000000000000000000000000000000000000000000000000000000000000001a"
          ],
          "data": "0x00000000000000000000000000000000000000000000000000000000000000010000000000000000000000000000000000000000000000000000000000000060000000000000000000000000000000000000000000000000000000000000001400000000000000000000000000000000000000000000000000000000000000b9697066732f516d596d70487979624544346d6d6751596f6859745545586532754478686141484b79786f64426f55424e6331522f30303030303030303030303030303030303030303030303030303030303030303030303030303030303030303030303030303030303030303030303030303236303030303030303030303030303030303030303030303030303030303030303030303030303030303030303030303030303030303030303030303030303030312e6a736f6e00000000000000",
          "blockHash": "0x818332a4f08c6b7cbefe5d8bfc0088684a1b8f1f92e9eb2d7129ee144d03722b",
          "blockNumber": "0x2d304fc",
          "transactionHash": "0x7a05af4bca38816ebe3c559e029daf28d2d59a671ceb1a987bdb5eeaa3da4618",
          "transactionIndex": "0x8",
          "logIndex": "0x1b",
          "removed": false
        }
      ],
      "logsBloom": "0x00000000000000000000000000000000000000000000000000000000000000000000000000000000000000000000000000000000000000000000000000000000000000000000000000000000000000005200000000000000000000001000000000040000000000000000000000000000000000000000000000000000000000000000000000000000000000000000000000000000000000000000000000000000000000000000000000000000000000000000000000000000000000000000000000000000000000000000004000000000000000000000000000000000000000000000000000000000000200000000000000000000010004000000000000000000",
      "type": "0x0",
      "transactionHash": "0x7a05af4bca38816ebe3c559e029daf28d2d59a671ceb1a987bdb5eeaa3da4618",
      "transactionIndex": "0x8",
      "blockHash": "0x818332a4f08c6b7cbefe5d8bfc0088684a1b8f1f92e9eb2d7129ee144d03722b",
      "blockNumber": "0x2d304fc",
      "gasUsed": "0x3afbe",
      "effectiveGasPrice": "0x5d22cfc40",
      "from": "0x8835669696fb92839ab198cd80ce9f0d35f45ad5",
      "to": "0xd47c56513e640e394024facbbe5032cf604bb699",
      "contractAddress": null,
      "l1BaseFeeScalar": "0x0",
      "l1BlobBaseFee": "0x1",
      "l1BlobBaseFeeScalar": "0x0",
      "l1Fee": "0x0",
      "l1GasPrice": "0x6f25c49",
      "l1GasUsed": "0x934"
    },
    {
      "status": "0x1",
      "cumulativeGasUsed": "0x187bf4",
      "logs": [
        {
          "address": "0xd47c56513e640e394024facbbe5032cf604bb699",
          "topics": [
            "0x5625f15df4cbadf2e6e3f80e2406aec5d99a432335ef0e9a1fba9e48b0558303",
            "0x000000000000000000000000000000000000000000000000000000000000001a"
          ],
          "data": "0x00000000000000000000000000000000000000000000000000000000000000020000000000000000000000000000000000000000000000000000000000000060000000000000000000000000000000000000000000000000000000000000002800000000000000000000000000000000000000000000000000000000000000b9697066732f516d596d70487979624544346d6d6751596f6859745545586532754478686141484b79786f64426f55424e6331522f30303030303030303030303030303030303030303030303030303030303030303030303030303030303030303030303030303030303030303030303030303236303030303030303030303030303030303030303030303030303030303030303030303030303030303030303030303030303030303030303030303030303030322e6a736f6e00000000000000",
          "blockHash": "0x818332a4f08c6b7cbefe5d8bfc0088684a1b8f1f92e9eb2d7129ee144d03722b",
          "blockNumber": "0x2d304fc",
          "transactionHash": "0xc751aa69c9d10e927d6170320024b40e974e588804bf52c0d0ea90e548c75c09",
          "transactionIndex": "0x9",
          "logIndex": "0x1c",
          "removed": false
        }
      ],
      "logsBloom": "0x00000000000000000000000000000000000000000000000000000000000000000000000000000000000000000000000000000000000000000000000000000000000000000000000000000000000000005200000000000000000000001000000000040000000000000000000000000000000000000000000000000000000000000000000000000000000000000000000000000000000000000000000000000000000000000000000000000000000000000000000000000000000000000000000000000000000000000000004000000000000000000000000000000000000000000000000000000000000200000000000000000000010004000000000000000000",
      "type": "0x0",
      "transactionHash": "0xc751aa69c9d10e927d6170320024b40e974e588804bf52c0d0ea90e548c75c09",
      "transactionIndex": "0x9",
      "blockHash": "0x818332a4f08c6b7cbefe5d8bfc0088684a1b8f1f92e9eb2d7129ee144d03722b",
      "blockNumber": "0x2d304fc",
      "gasUsed": "0x376a7",
      "effectiveGasPrice": "0x5d22cfc40",
      "from": "0x8835669696fb92839ab198cd80ce9f0d35f45ad5",
      "to": "0xd47c56513e640e394024facbbe5032cf604bb699",
      "contractAddress": null,
      "l1BaseFeeScalar": "0x0",
      "l1BlobBaseFee": "0x1",
      "l1BlobBaseFeeScalar": "0x0",
      "l1Fee": "0x0",
      "l1GasPrice": "0x6f25c49",
      "l1GasUsed": "0x927"
    },
    {
      "status": "0x1",
      "cumulativeGasUsed": "0x1bf29b",
      "logs": [
        {
          "address": "0xd47c56513e640e394024facbbe5032cf604bb699",
          "topics": [
            "0x5625f15df4cbadf2e6e3f80e2406aec5d99a432335ef0e9a1fba9e48b0558303",
            "0x000000000000000000000000000000000000000000000000000000000000001a"
          ],
          "data": "0x00000000000000000000000000000000000000000000000000000000000000030000000000000000000000000000000000000000000000000000000000000060000000000000000000000000000000000000000000000000000000000000003c00000000000000000000000000000000000000000000000000000000000000b9697066732f516d596d70487979624544346d6d6751596f6859745545586532754478686141484b79786f64426f55424e6331522f30303030303030303030303030303030303030303030303030303030303030303030303030303030303030303030303030303030303030303030303030303236303030303030303030303030303030303030303030303030303030303030303030303030303030303030303030303030303030303030303030303030303030332e6a736f6e00000000000000",
          "blockHash": "0x818332a4f08c6b7cbefe5d8bfc0088684a1b8f1f92e9eb2d7129ee144d03722b",
          "blockNumber": "0x2d304fc",
          "transactionHash": "0xcfdcbba3e50407c572c37520d525c7e5a9c51564c4c626972c974f546e651196",
          "transactionIndex": "0xa",
          "logIndex": "0x1d",
          "removed": false
        }
      ],
      "logsBloom": "0x00000000000000000000000000000000000000000000000000000000000000000000000000000000000000000000000000000000000000000000000000000000000000000000000000000000000000005200000000000000000000001000000000040000000000000000000000000000000000000000000000000000000000000000000000000000000000000000000000000000000000000000000000000000000000000000000000000000000000000000000000000000000000000000000000000000000000000000004000000000000000000000000000000000000000000000000000000000000200000000000000000000010004000000000000000000",
      "type": "0x0",
      "transactionHash": "0xcfdcbba3e50407c572c37520d525c7e5a9c51564c4c626972c974f546e651196",
      "transactionIndex": "0xa",
      "blockHash": "0x818332a4f08c6b7cbefe5d8bfc0088684a1b8f1f92e9eb2d7129ee144d03722b",
      "blockNumber": "0x2d304fc",
      "gasUsed": "0x376a7",
      "effectiveGasPrice": "0x5d22cfc40",
      "from": "0x8835669696fb92839ab198cd80ce9f0d35f45ad5",
      "to": "0xd47c56513e640e394024facbbe5032cf604bb699",
      "contractAddress": null,
      "l1BaseFeeScalar": "0x0",
      "l1BlobBaseFee": "0x1",
      "l1BlobBaseFeeScalar": "0x0",
      "l1Fee": "0x0",
      "l1GasPrice": "0x6f25c49",
      "l1GasUsed": "0x934"
    },
    {
      "status": "0x1",
      "cumulativeGasUsed": "0x1f6942",
      "logs": [
        {
          "address": "0xd47c56513e640e394024facbbe5032cf604bb699",
          "topics": [
            "0x5625f15df4cbadf2e6e3f80e2406aec5d99a432335ef0e9a1fba9e48b0558303",
            "0x000000000000000000000000000000000000000000000000000000000000001a"
          ],
          "data": "0x00000000000000000000000000000000000000000000000000000000000000040000000000000000000000000000000000000000000000000000000000000060000000000000000000000000000000000000000000000000000000000000005000000000000000000000000000000000000000000000000000000000000000b9697066732f516d596d70487979624544346d6d6751596f6859745545586532754478686141484b79786f64426f55424e6331522f30303030303030303030303030303030303030303030303030303030303030303030303030303030303030303030303030303030303030303030303030303236303030303030303030303030303030303030303030303030303030303030303030303030303030303030303030303030303030303030303030303030303030342e6a736f6e00000000000000",
          "blockHash": "0x818332a4f08c6b7cbefe5d8bfc0088684a1b8f1f92e9eb2d7129ee144d03722b",
          "blockNumber": "0x2d304fc",
          "transactionHash": "0x00eff09a9274912bb54185718975379a4f47d4146815f3b0794955ef7ee38311",
          "transactionIndex": "0xb",
          "logIndex": "0x1e",
          "removed": false
        }
      ],
      "logsBloom": "0x00000000000000000000000000000000000000000000000000000000000000000000000000000000000000000000000000000000000000000000000000000000000000000000000000000000000000005200000000000000000000001000000000040000000000000000000000000000000000000000000000000000000000000000000000000000000000000000000000000000000000000000000000000000000000000000000000000000000000000000000000000000000000000000000000000000000000000000004000000000000000000000000000000000000000000000000000000000000200000000000000000000010004000000000000000000",
      "type": "0x0",
      "transactionHash": "0x00eff09a9274912bb54185718975379a4f47d4146815f3b0794955ef7ee38311",
      "transactionIndex": "0xb",
      "blockHash": "0x818332a4f08c6b7cbefe5d8bfc0088684a1b8f1f92e9eb2d7129ee144d03722b",
      "blockNumber": "0x2d304fc",
      "gasUsed": "0x376a7",
      "effectiveGasPrice": "0x5d22cfc40",
      "from": "0x8835669696fb92839ab198cd80ce9f0d35f45ad5",
      "to": "0xd47c56513e640e394024facbbe5032cf604bb699",
      "contractAddress": null,
      "l1BaseFeeScalar": "0x0",
      "l1BlobBaseFee": "0x1",
      "l1BlobBaseFeeScalar": "0x0",
      "l1Fee": "0x0",
      "l1GasPrice": "0x6f25c49",
      "l1GasUsed": "0x934"
    },
    {
      "status": "0x1",
      "cumulativeGasUsed": "0x22dfe9",
      "logs": [
        {
          "address": "0xd47c56513e640e394024facbbe5032cf604bb699",
          "topics": [
            "0x5625f15df4cbadf2e6e3f80e2406aec5d99a432335ef0e9a1fba9e48b0558303",
            "0x000000000000000000000000000000000000000000000000000000000000001a"
          ],
          "data": "0x00000000000000000000000000000000000000000000000000000000000000050000000000000000000000000000000000000000000000000000000000000060000000000000000000000000000000000000000000000000000000000000006400000000000000000000000000000000000000000000000000000000000000b9697066732f516d596d70487979624544346d6d6751596f6859745545586532754478686141484b79786f64426f55424e6331522f30303030303030303030303030303030303030303030303030303030303030303030303030303030303030303030303030303030303030303030303030303236303030303030303030303030303030303030303030303030303030303030303030303030303030303030303030303030303030303030303030303030303030352e6a736f6e00000000000000",
          "blockHash": "0x818332a4f08c6b7cbefe5d8bfc0088684a1b8f1f92e9eb2d7129ee144d03722b",
          "blockNumber": "0x2d304fc",
          "transactionHash": "0x0f0eb349573d029f09ff36c067a0ae6d0b1d1c41e471b4c6931c7a2b97a34fee",
          "transactionIndex": "0xc",
          "logIndex": "0x1f",
          "removed": false
        }
      ],
      "logsBloom": "0x00000000000000000000000000000000000000000000000000000000000000000000000000000000000000000000000000000000000000000000000000000000000000000000000000000000000000005200000000000000000000001000000000040000000000000000000000000000000000000000000000000000000000000000000000000000000000000000000000000000000000000000000000000000000000000000000000000000000000000000000000000000000000000000000000000000000000000000004000000000000000000000000000000000000000000000000000000000000200000000000000000000010004000000000000000000",
      "type": "0x0",
      "transactionHash": "0x0f0eb349573d029f09ff36c067a0ae6d0b1d1c41e471b4c6931c7a2b97a34fee",
      "transactionIndex": "0xc",
      "blockHash": "0x818332a4f08c6b7cbefe5d8bfc0088684a1b8f1f92e9eb2d7129ee144d03722b",
      "blockNumber": "0x2d304fc",
      "gasUsed": "0x376a7",
      "effectiveGasPrice": "0x5d22cfc40",
      "from": "0x8835669696fb92839ab198cd80ce9f0d35f45ad5",
      "to": "0xd47c56513e640e394024facbbe5032cf604bb699",
      "contractAddress": null,
      "l1BaseFeeScalar": "0x0",
      "l1BlobBaseFee": "0x1",
      "l1BlobBaseFeeScalar": "0x0",
      "l1Fee": "0x0",
      "l1GasPrice": "0x6f25c49",
      "l1GasUsed": "0x934"
    }
  ],
  "libraries": [],
  "pending": [],
  "returns": {
    "0": {
      "internal_type": "address",
      "value": "0x0000000000000000000000000000000000000000"
    }
  },
  "timestamp": 1759284563,
  "chain": 42220,
  "commit": "ba283e1"
}