{
  "transactions": [
    {
      "hash": "0xd7d736603dbcafd264835b7fe957b828ed933d24af0fcea56ae32fef50a326ee",
      "transactionType": "CALL",
      "contractName": null,
      "contractAddress": "0x03e2c563cf77e3cdc0b7663cee117da14ea60848",
      "function": "setBadgesAndTiers((uint256,string)[],(uint256,uint256,string,uint256)[])",
      "arguments": [
        "[(11, https://ipfs.io/ipfs/Qmbw5BFxPQD3cxSGVKBASrzbgZdtLWoJXaJ54sPeandY3E/00000000000000000000000000000000000000000000000000000000000000110000000000000000000000000000000000000000000000000000000000000000.json)]",
        "[(11, 1, https://ipfs.io/ipfs/Qmbw5BFxPQD3cxSGVKBASrzbgZdtLWoJXaJ54sPeandY3E/00000000000000000000000000000000000000000000000000000000000000110000000000000000000000000000000000000000000000000000000000000001.json, 100)]"
      ],
      "transaction": {
        "from": "0x8835669696fb92839ab198cd80ce9f0d35f45ad5",
        "to": "0x03e2c563cf77e3cdc0b7663cee117da14ea60848",
        "gas": "0x97f78",
        "value": "0x0",
        "input": "0x54618664000000000000000000000000000000000000000000000000000000000000004000000000000000000000000000000000000000000000000000000000000001c000000000000000000000000000000000000000000000000000000000000000010000000000000000000000000000000000000000000000000000000000000020000000000000000000000000000000000000000000000000000000000000000b000000000000000000000000000000000000000000000000000000000000004000000000000000000000000000000000000000000000000000000000000000c968747470733a2f2f697066732e696f2f697066732f516d6277354246785051443363785347564b424153727a62675a64744c576f4a58614a3534735065616e645933452f30303030303030303030303030303030303030303030303030303030303030303030303030303030303030303030303030303030303030303030303030303131303030303030303030303030303030303030303030303030303030303030303030303030303030303030303030303030303030303030303030303030303030302e6a736f6e000000000000000000000000000000000000000000000000000000000000000000000000000000000000000000000000000000000000010000000000000000000000000000000000000000000000000000000000000020000000000000000000000000000000000000000000000000000000000000000b00000000000000000000000000000000000000000000000000000000000000010000000000000000000000000000000000000000000000000000000000000080000000000000000000000000000000000000000000000000000000000000006400000000000000000000000000000000000000000000000000000000000000c968747470733a2f2f697066732e696f2f697066732f516d6277354246785051443363785347564b424153727a62675a64744c576f4a58614a3534735065616e645933452f30303030303030303030303030303030303030303030303030303030303030303030303030303030303030303030303030303030303030303030303030303131303030303030303030303030303030303030303030303030303030303030303030303030303030303030303030303030303030303030303030303030303030312e6a736f6e0000000000000000000000000000000000000000000000",
        "nonce": "0x30c",
        "chainId": "0xa"
      },
      "additionalContracts": [],
      "isFixedGasLimit": false
    }
  ],
  "receipts": [
    {
      "status": "0x1",
      "cumulativeGasUsed": "0x68c846",
      "logs": [
        {
          "address": "0x03e2c563cf77e3cdc0b7663cee117da14ea60848",
          "topics": [
            "0x2e5977e12fac9a91696e22ba811f2893e11ad62f8aa53e99a628b031d18a379f",
            "0x000000000000000000000000000000000000000000000000000000000000000b"
          ],
          "data": "0x000000000000000000000000000000000000000000000000000000000000002000000000000000000000000000000000000000000000000000000000000000c968747470733a2f2f697066732e696f2f697066732f516d6277354246785051443363785347564b424153727a62675a64744c576f4a58614a3534735065616e645933452f30303030303030303030303030303030303030303030303030303030303030303030303030303030303030303030303030303030303030303030303030303131303030303030303030303030303030303030303030303030303030303030303030303030303030303030303030303030303030303030303030303030303030302e6a736f6e0000000000000000000000000000000000000000000000",
          "blockHash": "0x381af967cbfafde542bfe108ec2817904ffa3e7e9a0f870eac191e5419bc72ef",
          "blockNumber": "0x7a9fb53",
          "transactionHash": "0xd7d736603dbcafd264835b7fe957b828ed933d24af0fcea56ae32fef50a326ee",
          "transactionIndex": "0x15",
          "logIndex": "0x6c",
          "removed": false
        },
        {
          "address": "0x03e2c563cf77e3cdc0b7663cee117da14ea60848",
          "topics": [
            "0x5625f15df4cbadf2e6e3f80e2406aec5d99a432335ef0e9a1fba9e48b0558303",
            "0x000000000000000000000000000000000000000000000000000000000000000b"
          ],
          "data": "0x00000000000000000000000000000000000000000000000000000000000000010000000000000000000000000000000000000000000000000000000000000060000000000000000000000000000000000000000000000000000000000000006400000000000000000000000000000000000000000000000000000000000000c968747470733a2f2f697066732e696f2f697066732f516d6277354246785051443363785347564b424153727a62675a64744c576f4a58614a3534735065616e645933452f30303030303030303030303030303030303030303030303030303030303030303030303030303030303030303030303030303030303030303030303030303131303030303030303030303030303030303030303030303030303030303030303030303030303030303030303030303030303030303030303030303030303030312e6a736f6e0000000000000000000000000000000000000000000000",
          "blockHash": "0x381af967cbfafde542bfe108ec2817904ffa3e7e9a0f870eac191e5419bc72ef",
          "blockNumber": "0x7a9fb53",
          "transactionHash": "0xd7d736603dbcafd264835b7fe957b828ed933d24af0fcea56ae32fef50a326ee",
          "transactionIndex": "0x15",
          "logIndex": "0x6d",
          "removed": false
        }
      ],
      "logsBloom": "0x00000000000000000000004000000000000000000000000000000000000000000000000000000000000000000000000000000000000000000000000000008000000000000000000000000000000000000000000000000000000000000000000000040000000000000000000000000000000000000000000000000000000004000000000000000000001000000000000000000000000000000000000000000000000000000000000000000000000000000000000000000100000000000000001000000000000000000000004000000000002000000000000000000000400000000000000000000000000000000000000000000000010000040000000000000000",
      "type": "0x2",
      "transactionHash": "0xd7d736603dbcafd264835b7fe957b828ed933d24af0fcea56ae32fef50a326ee",
      "transactionIndex": "0x15",
      "blockHash": "0x381af967cbfafde542bfe108ec2817904ffa3e7e9a0f870eac191e5419bc72ef",
      "blockNumber": "0x7a9fb53",
      "gasUsed": "0x6e058",
      "effectiveGasPrice": "0x1ae53",
      "from": "0x8835669696fb92839ab198cd80ce9f0d35f45ad5",
      "to": "0x03e2c563cf77e3cdc0b7663cee117da14ea60848",
      "contractAddress": null,
      "l1BaseFeeScalar": "0x146b",
      "l1BlobBaseFee": "0x19272",
      "l1BlobBaseFeeScalar": "0xf79c5",
      "l1Fee": "0x2677c1dad8",
      "l1GasPrice": "0x26e891d05",
      "l1GasUsed": "0xbd1"
    }
  ],
  "libraries": [],
  "pending": [],
  "returns": {
    "0": {
      "internal_type": "address",
      "value": "0x0000000000000000000000000000000000000000"
    }
  },
  "timestamp": 1732759654,
  "chain": 10,
  "commit": "1f6c514"
}