{
  "transactions": [
    {
      "hash": "0x29986892fe3613f5b36c67b06ad517c18ac1064e6a59cf8acc2ea187a801934c",
      "transactionType": "CALL",
      "contractName": null,
      "contractAddress": "0x972be3883862d85d726e01129e99c2a69b6529a6",
      "function": "setBadgeMetadata(uint256,string)",
      "arguments": [
        "7",
        "\"ipfs/QmbUwFGR4BTBh6gZv6Sa8T3ZrjoxZaB4CLsQx71JP9Jj4H/00000000000000000000000000000000000000000000000000000000000000070000000000000000000000000000000000000000000000000000000000000000.json\""
      ],
      "transaction": {
        "from": "0x8835669696fb92839ab198cd80ce9f0d35f45ad5",
        "to": "0x972be3883862d85d726e01129e99c2a69b6529a6",
        "gas": "0x3f0ae",
        "value": "0x0",
        "input": "0xce64b45f0000000000000000000000000000000000000000000000000000000000000007000000000000000000000000000000000000000000000000000000000000004000000000000000000000000000000000000000000000000000000000000000b9697066732f516d625577464752344254426836675a763653613854335a726a6f785a614234434c73517837314a50394a6a34482f30303030303030303030303030303030303030303030303030303030303030303030303030303030303030303030303030303030303030303030303030303037303030303030303030303030303030303030303030303030303030303030303030303030303030303030303030303030303030303030303030303030303030302e6a736f6e00000000000000",
        "nonce": "0x21",
        "chainId": "0xa"
      },
      "additionalContracts": [],
      "isFixedGasLimit": false
    },
    {
      "hash": "0x5e5e85968c451bfa3d74f1e012d7528c14dda4a59638b3e5ef66cc97c62f9c44",
      "transactionType": "CALL",
      "contractName": null,
      "contractAddress": "0x972be3883862d85d726e01129e99c2a69b6529a6",
      "function": "setBadgeMetadata(uint256,string)",
      "arguments": [
        "8",
        "\"ipfs/QmbUwFGR4BTBh6gZv6Sa8T3ZrjoxZaB4CLsQx71JP9Jj4H/00000000000000000000000000000000000000000000000000000000000000080000000000000000000000000000000000000000000000000000000000000000.json\""
      ],
      "transaction": {
        "from": "0x8835669696fb92839ab198cd80ce9f0d35f45ad5",
        "to": "0x972be3883862d85d726e01129e99c2a69b6529a6",
        "gas": "0x3f0ae",
        "value": "0x0",
        "input": "0xce64b45f0000000000000000000000000000000000000000000000000000000000000008000000000000000000000000000000000000000000000000000000000000004000000000000000000000000000000000000000000000000000000000000000b9697066732f516d625577464752344254426836675a763653613854335a726a6f785a614234434c73517837314a50394a6a34482f30303030303030303030303030303030303030303030303030303030303030303030303030303030303030303030303030303030303030303030303030303038303030303030303030303030303030303030303030303030303030303030303030303030303030303030303030303030303030303030303030303030303030302e6a736f6e00000000000000",
        "nonce": "0x22",
        "chainId": "0xa"
      },
      "additionalContracts": [],
      "isFixedGasLimit": false
    },
    {
      "hash": "0x2b3e2fa7d24be3f9be399112e60bd794e76ae4ea3a47f06a53249ae30337b046",
      "transactionType": "CALL",
      "contractName": null,
      "contractAddress": "0x972be3883862d85d726e01129e99c2a69b6529a6",
      "function": "setBadgeTier(uint256,uint256,string,uint256)",
      "arguments": [
        "7",
        "1",
        "\"ipfs/QmbUwFGR4BTBh6gZv6Sa8T3ZrjoxZaB4CLsQx71JP9Jj4H/00000000000000000000000000000000000000000000000000000000000000070000000000000000000000000000000000000000000000000000000000000001.json\"",
        "10"
      ],
      "transaction": {
        "from": "0x8835669696fb92839ab198cd80ce9f0d35f45ad5",
        "to": "0x972be3883862d85d726e01129e99c2a69b6529a6",
        "gas": "0x53d2b",
        "value": "0x0",
        "input": "0xcf132d1c000000000000000000000000000000000000000000000000000000000000000700000000000000000000000000000000000000000000000000000000000000010000000000000000000000000000000000000000000000000000000000000080000000000000000000000000000000000000000000000000000000000000000a00000000000000000000000000000000000000000000000000000000000000b9697066732f516d625577464752344254426836675a763653613854335a726a6f785a614234434c73517837314a50394a6a34482f30303030303030303030303030303030303030303030303030303030303030303030303030303030303030303030303030303030303030303030303030303037303030303030303030303030303030303030303030303030303030303030303030303030303030303030303030303030303030303030303030303030303030312e6a736f6e00000000000000",
        "nonce": "0x23",
        "chainId": "0xa"
      },
      "additionalContracts": [],
      "isFixedGasLimit": false
    },
    {
      "hash": "0xbd84bbf32451f98bbcc6daf03b223ffe46021b1b3204b9f30aea3d7d4e4da6c1",
      "transactionType": "CALL",
      "contractName": null,
      "contractAddress": "0x972be3883862d85d726e01129e99c2a69b6529a6",
      "function": "setBadgeTier(uint256,uint256,string,uint256)",
      "arguments": [
        "7",
        "2",
        "\"ipfs/QmbUwFGR4BTBh6gZv6Sa8T3ZrjoxZaB4CLsQx71JP9Jj4H/00000000000000000000000000000000000000000000000000000000000000070000000000000000000000000000000000000000000000000000000000000002.json\"",
        "20"
      ],
      "transaction": {
        "from": "0x8835669696fb92839ab198cd80ce9f0d35f45ad5",
        "to": "0x972be3883862d85d726e01129e99c2a69b6529a6",
        "gas": "0x4a31f",
        "value": "0x0",
        "input": "0xcf132d1c000000000000000000000000000000000000000000000000000000000000000700000000000000000000000000000000000000000000000000000000000000020000000000000000000000000000000000000000000000000000000000000080000000000000000000000000000000000000000000000000000000000000001400000000000000000000000000000000000000000000000000000000000000b9697066732f516d625577464752344254426836675a763653613854335a726a6f785a614234434c73517837314a50394a6a34482f30303030303030303030303030303030303030303030303030303030303030303030303030303030303030303030303030303030303030303030303030303037303030303030303030303030303030303030303030303030303030303030303030303030303030303030303030303030303030303030303030303030303030322e6a736f6e00000000000000",
        "nonce": "0x24",
        "chainId": "0xa"
      },
      "additionalContracts": [],
      "isFixedGasLimit": false
    },
    {
      "hash": "0xde6d0cff2940e839e58e3bcaea11f31b5edc561d1a491cd84cb8ef543f419b54",
      "transactionType": "CALL",
      "contractName": null,
      "contractAddress": "0x972be3883862d85d726e01129e99c2a69b6529a6",
      "function": "setBadgeTier(uint256,uint256,string,uint256)",
      "arguments": [
        "7",
        "3",
        "\"ipfs/QmbUwFGR4BTBh6gZv6Sa8T3ZrjoxZaB4CLsQx71JP9Jj4H/00000000000000000000000000000000000000000000000000000000000000070000000000000000000000000000000000000000000000000000000000000003.json\"",
        "30"
      ],
      "transaction": {
        "from": "0x8835669696fb92839ab198cd80ce9f0d35f45ad5",
        "to": "0x972be3883862d85d726e01129e99c2a69b6529a6",
        "gas": "0x4a31f",
        "value": "0x0",
        "input": "0xcf132d1c000000000000000000000000000000000000000000000000000000000000000700000000000000000000000000000000000000000000000000000000000000030000000000000000000000000000000000000000000000000000000000000080000000000000000000000000000000000000000000000000000000000000001e00000000000000000000000000000000000000000000000000000000000000b9697066732f516d625577464752344254426836675a763653613854335a726a6f785a614234434c73517837314a50394a6a34482f30303030303030303030303030303030303030303030303030303030303030303030303030303030303030303030303030303030303030303030303030303037303030303030303030303030303030303030303030303030303030303030303030303030303030303030303030303030303030303030303030303030303030332e6a736f6e00000000000000",
        "nonce": "0x25",
        "chainId": "0xa"
      },
      "additionalContracts": [],
      "isFixedGasLimit": false
    },
    {
      "hash": "0x682d147bf8b52cd433369d58e5b9267c9c5ad1b58b85108f0eaa082d2ac324c7",
      "transactionType": "CALL",
      "contractName": null,
      "contractAddress": "0x972be3883862d85d726e01129e99c2a69b6529a6",
      "function": "setBadgeTier(uint256,uint256,string,uint256)",
      "arguments": [
        "7",
        "4",
        "\"ipfs/QmbUwFGR4BTBh6gZv6Sa8T3ZrjoxZaB4CLsQx71JP9Jj4H/00000000000000000000000000000000000000000000000000000000000000070000000000000000000000000000000000000000000000000000000000000004.json\"",
        "40"
      ],
      "transaction": {
        "from": "0x8835669696fb92839ab198cd80ce9f0d35f45ad5",
        "to": "0x972be3883862d85d726e01129e99c2a69b6529a6",
        "gas": "0x4a31f",
        "value": "0x0",
        "input": "0xcf132d1c000000000000000000000000000000000000000000000000000000000000000700000000000000000000000000000000000000000000000000000000000000040000000000000000000000000000000000000000000000000000000000000080000000000000000000000000000000000000000000000000000000000000002800000000000000000000000000000000000000000000000000000000000000b9697066732f516d625577464752344254426836675a763653613854335a726a6f785a614234434c73517837314a50394a6a34482f30303030303030303030303030303030303030303030303030303030303030303030303030303030303030303030303030303030303030303030303030303037303030303030303030303030303030303030303030303030303030303030303030303030303030303030303030303030303030303030303030303030303030342e6a736f6e00000000000000",
        "nonce": "0x26",
        "chainId": "0xa"
      },
      "additionalContracts": [],
      "isFixedGasLimit": false
    },
    {
      "hash": "0xa1c7fdb35b9fc54670589963405658d34de6fdcd0b211f37bfe34169355594a7",
      "transactionType": "CALL",
      "contractName": null,
      "contractAddress": "0x972be3883862d85d726e01129e99c2a69b6529a6",
      "function": "setBadgeTier(uint256,uint256,string,uint256)",
      "arguments": [
        "8",
        "1",
        "\"ipfs/QmbUwFGR4BTBh6gZv6Sa8T3ZrjoxZaB4CLsQx71JP9Jj4H/00000000000000000000000000000000000000000000000000000000000000080000000000000000000000000000000000000000000000000000000000000001.json\"",
        "10"
      ],
      "transaction": {
        "from": "0x8835669696fb92839ab198cd80ce9f0d35f45ad5",
        "to": "0x972be3883862d85d726e01129e99c2a69b6529a6",
        "gas": "0x53d2b",
        "value": "0x0",
        "input": "0xcf132d1c000000000000000000000000000000000000000000000000000000000000000800000000000000000000000000000000000000000000000000000000000000010000000000000000000000000000000000000000000000000000000000000080000000000000000000000000000000000000000000000000000000000000000a00000000000000000000000000000000000000000000000000000000000000b9697066732f516d625577464752344254426836675a763653613854335a726a6f785a614234434c73517837314a50394a6a34482f30303030303030303030303030303030303030303030303030303030303030303030303030303030303030303030303030303030303030303030303030303038303030303030303030303030303030303030303030303030303030303030303030303030303030303030303030303030303030303030303030303030303030312e6a736f6e00000000000000",
        "nonce": "0x27",
        "chainId": "0xa"
      },
      "additionalContracts": [],
      "isFixedGasLimit": false
    },
    {
      "hash": "0x7ff7bde460f10f01404a1a19ea657692fe48361bbf65370a9c11900ea09e81b0",
      "transactionType": "CALL",
      "contractName": null,
      "contractAddress": "0x972be3883862d85d726e01129e99c2a69b6529a6",
      "function": "setBadgeTier(uint256,uint256,string,uint256)",
      "arguments": [
        "8",
        "2",
        "\"ipfs/QmbUwFGR4BTBh6gZv6Sa8T3ZrjoxZaB4CLsQx71JP9Jj4H/00000000000000000000000000000000000000000000000000000000000000080000000000000000000000000000000000000000000000000000000000000002.json\"",
        "20"
      ],
      "transaction": {
        "from": "0x8835669696fb92839ab198cd80ce9f0d35f45ad5",
        "to": "0x972be3883862d85d726e01129e99c2a69b6529a6",
        "gas": "0x4a31f",
        "value": "0x0",
        "input": "0xcf132d1c000000000000000000000000000000000000000000000000000000000000000800000000000000000000000000000000000000000000000000000000000000020000000000000000000000000000000000000000000000000000000000000080000000000000000000000000000000000000000000000000000000000000001400000000000000000000000000000000000000000000000000000000000000b9697066732f516d625577464752344254426836675a763653613854335a726a6f785a614234434c73517837314a50394a6a34482f30303030303030303030303030303030303030303030303030303030303030303030303030303030303030303030303030303030303030303030303030303038303030303030303030303030303030303030303030303030303030303030303030303030303030303030303030303030303030303030303030303030303030322e6a736f6e00000000000000",
        "nonce": "0x28",
        "chainId": "0xa"
      },
      "additionalContracts": [],
      "isFixedGasLimit": false
    },
    {
      "hash": "0xf2ad8f6597303ce6c8d019a38afeb813bdd73acb9fd1dbf2cee1cd0d423e4a3a",
      "transactionType": "CALL",
      "contractName": null,
      "contractAddress": "0x972be3883862d85d726e01129e99c2a69b6529a6",
      "function": "setBadgeTier(uint256,uint256,string,uint256)",
      "arguments": [
        "8",
        "3",
        "\"ipfs/QmbUwFGR4BTBh6gZv6Sa8T3ZrjoxZaB4CLsQx71JP9Jj4H/00000000000000000000000000000000000000000000000000000000000000080000000000000000000000000000000000000000000000000000000000000003.json\"",
        "30"
      ],
      "transaction": {
        "from": "0x8835669696fb92839ab198cd80ce9f0d35f45ad5",
        "to": "0x972be3883862d85d726e01129e99c2a69b6529a6",
        "gas": "0x4a31f",
        "value": "0x0",
        "input": "0xcf132d1c000000000000000000000000000000000000000000000000000000000000000800000000000000000000000000000000000000000000000000000000000000030000000000000000000000000000000000000000000000000000000000000080000000000000000000000000000000000000000000000000000000000000001e00000000000000000000000000000000000000000000000000000000000000b9697066732f516d625577464752344254426836675a763653613854335a726a6f785a614234434c73517837314a50394a6a34482f30303030303030303030303030303030303030303030303030303030303030303030303030303030303030303030303030303030303030303030303030303038303030303030303030303030303030303030303030303030303030303030303030303030303030303030303030303030303030303030303030303030303030332e6a736f6e00000000000000",
        "nonce": "0x29",
        "chainId": "0xa"
      },
      "additionalContracts": [],
      "isFixedGasLimit": false
    },
    {
      "hash": "0x033128c309bdb0fb87c463851863bfd35dbc1f0539e244ae4b8322ee5ce999a3",
      "transactionType": "CALL",
      "contractName": null,
      "contractAddress": "0x972be3883862d85d726e01129e99c2a69b6529a6",
      "function": "setBadgeTier(uint256,uint256,string,uint256)",
      "arguments": [
        "8",
        "4",
        "\"ipfs/QmbUwFGR4BTBh6gZv6Sa8T3ZrjoxZaB4CLsQx71JP9Jj4H/00000000000000000000000000000000000000000000000000000000000000080000000000000000000000000000000000000000000000000000000000000004.json\"",
        "40"
      ],
      "transaction": {
        "from": "0x8835669696fb92839ab198cd80ce9f0d35f45ad5",
        "to": "0x972be3883862d85d726e01129e99c2a69b6529a6",
        "gas": "0x4a31f",
        "value": "0x0",
        "input": "0xcf132d1c000000000000000000000000000000000000000000000000000000000000000800000000000000000000000000000000000000000000000000000000000000040000000000000000000000000000000000000000000000000000000000000080000000000000000000000000000000000000000000000000000000000000002800000000000000000000000000000000000000000000000000000000000000b9697066732f516d625577464752344254426836675a763653613854335a726a6f785a614234434c73517837314a50394a6a34482f30303030303030303030303030303030303030303030303030303030303030303030303030303030303030303030303030303030303030303030303030303038303030303030303030303030303030303030303030303030303030303030303030303030303030303030303030303030303030303030303030303030303030342e6a736f6e00000000000000",
        "nonce": "0x2a",
        "chainId": "0xa"
      },
      "additionalContracts": [],
      "isFixedGasLimit": false
    }
  ],
  "receipts": [
    {
      "status": "0x1",
      "cumulativeGasUsed": "0x28a458",
      "logs": [
        {
          "address": "0x972be3883862d85d726e01129e99c2a69b6529a6",
          "topics": [
            "0x2e5977e12fac9a91696e22ba811f2893e11ad62f8aa53e99a628b031d18a379f",
            "0x0000000000000000000000000000000000000000000000000000000000000007"
          ],
          "data": "0x000000000000000000000000000000000000000000000000000000000000002000000000000000000000000000000000000000000000000000000000000000b9697066732f516d625577464752344254426836675a763653613854335a726a6f785a614234434c73517837314a50394a6a34482f30303030303030303030303030303030303030303030303030303030303030303030303030303030303030303030303030303030303030303030303030303037303030303030303030303030303030303030303030303030303030303030303030303030303030303030303030303030303030303030303030303030303030302e6a736f6e00000000000000",
          "blockHash": "0x28af316df61db6c8d4aff15c9db7cd35f6c80e8a3d28d0542f5e6068cd689aff",
          "blockNumber": "0x76a01d5",
          "transactionHash": "0x29986892fe3613f5b36c67b06ad517c18ac1064e6a59cf8acc2ea187a801934c",
          "transactionIndex": "0xa",
          "logIndex": "0x23",
          "removed": false
        }
      ],
      "logsBloom": "0x00000000000000000000000000000000000000000000000000000000000000000000000000000000000000000000000000001000000000000000000000000000000020000000000000000000000000000000000000000000000000000800000000000000000000000000000000000000000000000000000000000000000084000000000000000000000000000000000000000000000000000000000000000000000000000000000000000000000000000000000000000100000000000000000000000004000000000000000000000000000000000000000000000100400000000000000000000000000000000000000000000000000000000000000000000000",
      "type": "0x2",
      "transactionHash": "0x29986892fe3613f5b36c67b06ad517c18ac1064e6a59cf8acc2ea187a801934c",
      "transactionIndex": "0xa",
      "blockHash": "0x28af316df61db6c8d4aff15c9db7cd35f6c80e8a3d28d0542f5e6068cd689aff",
      "blockNumber": "0x76a01d5",
      "gasUsed": "0x2da45",
      "effectiveGasPrice": "0x544ec",
      "from": "0x8835669696fb92839ab198cd80ce9f0d35f45ad5",
      "to": "0x972be3883862d85d726e01129e99c2a69b6529a6",
      "contractAddress": null,
      "l1BaseFeeScalar": "0x146b",
      "l1BlobBaseFee": "0x1",
      "l1BlobBaseFeeScalar": "0xf79c5",
      "l1Fee": "0x2acf5f7db",
      "l1GasPrice": "0x3d28bada",
      "l1GasUsed": "0x85e"
    },
    {
      "status": "0x1",
      "cumulativeGasUsed": "0x2b7e9d",
      "logs": [
        {
          "address": "0x972be3883862d85d726e01129e99c2a69b6529a6",
          "topics": [
            "0x2e5977e12fac9a91696e22ba811f2893e11ad62f8aa53e99a628b031d18a379f",
            "0x0000000000000000000000000000000000000000000000000000000000000008"
          ],
          "data": "0x000000000000000000000000000000000000000000000000000000000000002000000000000000000000000000000000000000000000000000000000000000b9697066732f516d625577464752344254426836675a763653613854335a726a6f785a614234434c73517837314a50394a6a34482f30303030303030303030303030303030303030303030303030303030303030303030303030303030303030303030303030303030303030303030303030303038303030303030303030303030303030303030303030303030303030303030303030303030303030303030303030303030303030303030303030303030303030302e6a736f6e00000000000000",
          "blockHash": "0x28af316df61db6c8d4aff15c9db7cd35f6c80e8a3d28d0542f5e6068cd689aff",
          "blockNumber": "0x76a01d5",
          "transactionHash": "0x5e5e85968c451bfa3d74f1e012d7528c14dda4a59638b3e5ef66cc97c62f9c44",
          "transactionIndex": "0xb",
          "logIndex": "0x24",
          "removed": false
        }
      ],
      "logsBloom": "0x00000000000000000000000000000000000000000000000000000000000000000000000000000000000000000000000000000000000080000000000000000000000000000000000000000000000000000000000000000000000000000800000000000000000000000000000000000000000000000000000000000000000084000080000000000000000000000000000000000000000000000000000000000000000000000000000000000000000000000000000000000100000000000000000040000004000000000000000000000000000000000000000000000000400000000000000000000000000000000000000000000000000000000000000000000000",
      "type": "0x2",
      "transactionHash": "0x5e5e85968c451bfa3d74f1e012d7528c14dda4a59638b3e5ef66cc97c62f9c44",
      "transactionIndex": "0xb",
      "blockHash": "0x28af316df61db6c8d4aff15c9db7cd35f6c80e8a3d28d0542f5e6068cd689aff",
      "blockNumber": "0x76a01d5",
      "gasUsed": "0x2da45",
      "effectiveGasPrice": "0x544ec",
      "from": "0x8835669696fb92839ab198cd80ce9f0d35f45ad5",
      "to": "0x972be3883862d85d726e01129e99c2a69b6529a6",
      "contractAddress": null,
      "l1BaseFeeScalar": "0x146b",
      "l1BlobBaseFee": "0x1",
      "l1BlobBaseFeeScalar": "0xf79c5",
      "l1Fee": "0x2acf5f7db",
      "l1GasPrice": "0x3d28bada",
      "l1GasUsed": "0x85e"
    },
    {
      "status": "0x1",
      "cumulativeGasUsed": "0x2f13a7",
      "logs": [
        {
          "address": "0x972be3883862d85d726e01129e99c2a69b6529a6",
          "topics": [
            "0x5625f15df4cbadf2e6e3f80e2406aec5d99a432335ef0e9a1fba9e48b0558303",
            "0x0000000000000000000000000000000000000000000000000000000000000007"
          ],
          "data": "0x00000000000000000000000000000000000000000000000000000000000000010000000000000000000000000000000000000000000000000000000000000060000000000000000000000000000000000000000000000000000000000000000a00000000000000000000000000000000000000000000000000000000000000b9697066732f516d625577464752344254426836675a763653613854335a726a6f785a614234434c73517837314a50394a6a34482f30303030303030303030303030303030303030303030303030303030303030303030303030303030303030303030303030303030303030303030303030303037303030303030303030303030303030303030303030303030303030303030303030303030303030303030303030303030303030303030303030303030303030312e6a736f6e00000000000000",
          "blockHash": "0x28af316df61db6c8d4aff15c9db7cd35f6c80e8a3d28d0542f5e6068cd689aff",
          "blockNumber": "0x76a01d5",
          "transactionHash": "0x2b3e2fa7d24be3f9be399112e60bd794e76ae4ea3a47f06a53249ae30337b046",
          "transactionIndex": "0xc",
          "logIndex": "0x25",
          "removed": false
        }
      ],
      "logsBloom": "0x00000000000000000000000000000000000000000000000000000000000000000000000000000000000000000000000000001000000000000000000000000000000020000000000000000000000000000000000000000000000000000800000000040000000000000000000000000000000000000000000000000000000080000000000000000000000000000000000000000000000000000000000000000000000000000000000000000000000000000000000000000000000000000000000000000004000000000000004000000000000000000000000000000100000000000000000000000000000000000000000000000000010000000000000000000000",
      "type": "0x2",
      "transactionHash": "0x2b3e2fa7d24be3f9be399112e60bd794e76ae4ea3a47f06a53249ae30337b046",
      "transactionIndex": "0xc",
      "blockHash": "0x28af316df61db6c8d4aff15c9db7cd35f6c80e8a3d28d0542f5e6068cd689aff",
      "blockNumber": "0x76a01d5",
      "gasUsed": "0x3950a",
      "effectiveGasPrice": "0x544ec",
      "from": "0x8835669696fb92839ab198cd80ce9f0d35f45ad5",
      "to": "0x972be3883862d85d726e01129e99c2a69b6529a6",
      "contractAddress": null,
      "l1BaseFeeScalar": "0x146b",
      "l1BlobBaseFee": "0x1",
      "l1BlobBaseFeeScalar": "0xf79c5",
      "l1Fee": "0x2e8dc64f2",
      "l1GasPrice": "0x3d28bada",
      "l1GasUsed": "0x91a"
    },
    {
      "status": "0x1",
      "cumulativeGasUsed": "0x326f1c",
      "logs": [
        {
          "address": "0x972be3883862d85d726e01129e99c2a69b6529a6",
          "topics": [
            "0x5625f15df4cbadf2e6e3f80e2406aec5d99a432335ef0e9a1fba9e48b0558303",
            "0x0000000000000000000000000000000000000000000000000000000000000007"
          ],
          "data": "0x00000000000000000000000000000000000000000000000000000000000000020000000000000000000000000000000000000000000000000000000000000060000000000000000000000000000000000000000000000000000000000000001400000000000000000000000000000000000000000000000000000000000000b9697066732f516d625577464752344254426836675a763653613854335a726a6f785a614234434c73517837314a50394a6a34482f30303030303030303030303030303030303030303030303030303030303030303030303030303030303030303030303030303030303030303030303030303037303030303030303030303030303030303030303030303030303030303030303030303030303030303030303030303030303030303030303030303030303030322e6a736f6e00000000000000",
          "blockHash": "0x28af316df61db6c8d4aff15c9db7cd35f6c80e8a3d28d0542f5e6068cd689aff",
          "blockNumber": "0x76a01d5",
          "transactionHash": "0xbd84bbf32451f98bbcc6daf03b223ffe46021b1b3204b9f30aea3d7d4e4da6c1",
          "transactionIndex": "0xd",
          "logIndex": "0x26",
          "removed": false
        }
      ],
      "logsBloom": "0x00000000000000000000000000000000000000000000000000000000000000000000000000000000000000000000000000001000000000000000000000000000000020000000000000000000000000000000000000000000000000000800000000040000000000000000000000000000000000000000000000000000000080000000000000000000000000000000000000000000000000000000000000000000000000000000000000000000000000000000000000000000000000000000000000000004000000000000004000000000000000000000000000000100000000000000000000000000000000000000000000000000010000000000000000000000",
      "type": "0x2",
      "transactionHash": "0xbd84bbf32451f98bbcc6daf03b223ffe46021b1b3204b9f30aea3d7d4e4da6c1",
      "transactionIndex": "0xd",
      "blockHash": "0x28af316df61db6c8d4aff15c9db7cd35f6c80e8a3d28d0542f5e6068cd689aff",
      "blockNumber": "0x76a01d5",
      "gasUsed": "0x35b75",
      "effectiveGasPrice": "0x544ec",
      "from": "0x8835669696fb92839ab198cd80ce9f0d35f45ad5",
      "to": "0x972be3883862d85d726e01129e99c2a69b6529a6",
      "contractAddress": null,
      "l1BaseFeeScalar": "0x146b",
      "l1BlobBaseFee": "0x1",
      "l1BlobBaseFeeScalar": "0xf79c5",
      "l1Fee": "0x2e8dc64f2",
      "l1GasPrice": "0x3d28bada",
      "l1GasUsed": "0x91a"
    },
    {
      "status": "0x1",
      "cumulativeGasUsed": "0x35ca91",
      "logs": [
        {
          "address": "0x972be3883862d85d726e01129e99c2a69b6529a6",
          "topics": [
            "0x5625f15df4cbadf2e6e3f80e2406aec5d99a432335ef0e9a1fba9e48b0558303",
            "0x0000000000000000000000000000000000000000000000000000000000000007"
          ],
          "data": "0x00000000000000000000000000000000000000000000000000000000000000030000000000000000000000000000000000000000000000000000000000000060000000000000000000000000000000000000000000000000000000000000001e00000000000000000000000000000000000000000000000000000000000000b9697066732f516d625577464752344254426836675a763653613854335a726a6f785a614234434c73517837314a50394a6a34482f30303030303030303030303030303030303030303030303030303030303030303030303030303030303030303030303030303030303030303030303030303037303030303030303030303030303030303030303030303030303030303030303030303030303030303030303030303030303030303030303030303030303030332e6a736f6e00000000000000",
          "blockHash": "0x28af316df61db6c8d4aff15c9db7cd35f6c80e8a3d28d0542f5e6068cd689aff",
          "blockNumber": "0x76a01d5",
          "transactionHash": "0xde6d0cff2940e839e58e3bcaea11f31b5edc561d1a491cd84cb8ef543f419b54",
          "transactionIndex": "0xe",
          "logIndex": "0x27",
          "removed": false
        }
      ],
      "logsBloom": "0x00000000000000000000000000000000000000000000000000000000000000000000000000000000000000000000000000001000000000000000000000000000000020000000000000000000000000000000000000000000000000000800000000040000000000000000000000000000000000000000000000000000000080000000000000000000000000000000000000000000000000000000000000000000000000000000000000000000000000000000000000000000000000000000000000000004000000000000004000000000000000000000000000000100000000000000000000000000000000000000000000000000010000000000000000000000",
      "type": "0x2",
      "transactionHash": "0xde6d0cff2940e839e58e3bcaea11f31b5edc561d1a491cd84cb8ef543f419b54",
      "transactionIndex": "0xe",
      "blockHash": "0x28af316df61db6c8d4aff15c9db7cd35f6c80e8a3d28d0542f5e6068cd689aff",
      "blockNumber": "0x76a01d5",
      "gasUsed": "0x35b75",
      "effectiveGasPrice": "0x544ec",
      "from": "0x8835669696fb92839ab198cd80ce9f0d35f45ad5",
      "to": "0x972be3883862d85d726e01129e99c2a69b6529a6",
      "contractAddress": null,
      "l1BaseFeeScalar": "0x146b",
      "l1BlobBaseFee": "0x1",
      "l1BlobBaseFeeScalar": "0xf79c5",
      "l1Fee": "0x2e8dc64f2",
      "l1GasPrice": "0x3d28bada",
      "l1GasUsed": "0x91a"
    },
    {
      "status": "0x1",
      "cumulativeGasUsed": "0x392606",
      "logs": [
        {
          "address": "0x972be3883862d85d726e01129e99c2a69b6529a6",
          "topics": [
            "0x5625f15df4cbadf2e6e3f80e2406aec5d99a432335ef0e9a1fba9e48b0558303",
            "0x0000000000000000000000000000000000000000000000000000000000000007"
          ],
          "data": "0x00000000000000000000000000000000000000000000000000000000000000040000000000000000000000000000000000000000000000000000000000000060000000000000000000000000000000000000000000000000000000000000002800000000000000000000000000000000000000000000000000000000000000b9697066732f516d625577464752344254426836675a763653613854335a726a6f785a614234434c73517837314a50394a6a34482f30303030303030303030303030303030303030303030303030303030303030303030303030303030303030303030303030303030303030303030303030303037303030303030303030303030303030303030303030303030303030303030303030303030303030303030303030303030303030303030303030303030303030342e6a736f6e00000000000000",
          "blockHash": "0x28af316df61db6c8d4aff15c9db7cd35f6c80e8a3d28d0542f5e6068cd689aff",
          "blockNumber": "0x76a01d5",
          "transactionHash": "0x682d147bf8b52cd433369d58e5b9267c9c5ad1b58b85108f0eaa082d2ac324c7",
          "transactionIndex": "0xf",
          "logIndex": "0x28",
          "removed": false
        }
      ],
      "logsBloom": "0x00000000000000000000000000000000000000000000000000000000000000000000000000000000000000000000000000001000000000000000000000000000000020000000000000000000000000000000000000000000000000000800000000040000000000000000000000000000000000000000000000000000000080000000000000000000000000000000000000000000000000000000000000000000000000000000000000000000000000000000000000000000000000000000000000000004000000000000004000000000000000000000000000000100000000000000000000000000000000000000000000000000010000000000000000000000",
      "type": "0x2",
      "transactionHash": "0x682d147bf8b52cd433369d58e5b9267c9c5ad1b58b85108f0eaa082d2ac324c7",
      "transactionIndex": "0xf",
      "blockHash": "0x28af316df61db6c8d4aff15c9db7cd35f6c80e8a3d28d0542f5e6068cd689aff",
      "blockNumber": "0x76a01d5",
      "gasUsed": "0x35b75",
      "effectiveGasPrice": "0x544ec",
      "from": "0x8835669696fb92839ab198cd80ce9f0d35f45ad5",
      "to": "0x972be3883862d85d726e01129e99c2a69b6529a6",
      "contractAddress": null,
      "l1BaseFeeScalar": "0x146b",
      "l1BlobBaseFee": "0x1",
      "l1BlobBaseFeeScalar": "0xf79c5",
      "l1Fee": "0x2e8dc64f2",
      "l1GasPrice": "0x3d28bada",
      "l1GasUsed": "0x91a"
    },
    {
      "status": "0x1",
      "cumulativeGasUsed": "0x3cbb10",
      "logs": [
        {
          "address": "0x972be3883862d85d726e01129e99c2a69b6529a6",
          "topics": [
            "0x5625f15df4cbadf2e6e3f80e2406aec5d99a432335ef0e9a1fba9e48b0558303",
            "0x0000000000000000000000000000000000000000000000000000000000000008"
          ],
          "data": "0x00000000000000000000000000000000000000000000000000000000000000010000000000000000000000000000000000000000000000000000000000000060000000000000000000000000000000000000000000000000000000000000000a00000000000000000000000000000000000000000000000000000000000000b9697066732f516d625577464752344254426836675a763653613854335a726a6f785a614234434c73517837314a50394a6a34482f30303030303030303030303030303030303030303030303030303030303030303030303030303030303030303030303030303030303030303030303030303038303030303030303030303030303030303030303030303030303030303030303030303030303030303030303030303030303030303030303030303030303030312e6a736f6e00000000000000",
          "blockHash": "0x28af316df61db6c8d4aff15c9db7cd35f6c80e8a3d28d0542f5e6068cd689aff",
          "blockNumber": "0x76a01d5",
          "transactionHash": "0xa1c7fdb35b9fc54670589963405658d34de6fdcd0b211f37bfe34169355594a7",
          "transactionIndex": "0x10",
          "logIndex": "0x29",
          "removed": false
        }
      ],
      "logsBloom": "0x00000000000000000000000000000000000000000000000000000000000000000000000000000000000000000000000000000000000080000000000000000000000000000000000000000000000000000000000000000000000000000800000000040000000000000000000000000000000000000000000000000000000080000080000000000000000000000000000000000000000000000000000000000000000000000000000000000000000000000000000000000000000000000000000040000004000000000000004000000000000000000000000000000000000000000000000000000000000000000000000000000000010000000000000000000000",
      "type": "0x2",
      "transactionHash": "0xa1c7fdb35b9fc54670589963405658d34de6fdcd0b211f37bfe34169355594a7",
      "transactionIndex": "0x10",
      "blockHash": "0x28af316df61db6c8d4aff15c9db7cd35f6c80e8a3d28d0542f5e6068cd689aff",
      "blockNumber": "0x76a01d5",
      "gasUsed": "0x3950a",
      "effectiveGasPrice": "0x544ec",
      "from": "0x8835669696fb92839ab198cd80ce9f0d35f45ad5",
      "to": "0x972be3883862d85d726e01129e99c2a69b6529a6",
      "contractAddress": null,
      "l1BaseFeeScalar": "0x146b",
      "l1BlobBaseFee": "0x1",
      "l1BlobBaseFeeScalar": "0xf79c5",
      "l1Fee": "0x2e8dc64f2",
      "l1GasPrice": "0x3d28bada",
      "l1GasUsed": "0x91a"
    },
    {
      "status": "0x1",
      "cumulativeGasUsed": "0x401685",
      "logs": [
        {
          "address": "0x972be3883862d85d726e01129e99c2a69b6529a6",
          "topics": [
            "0x5625f15df4cbadf2e6e3f80e2406aec5d99a432335ef0e9a1fba9e48b0558303",
            "0x0000000000000000000000000000000000000000000000000000000000000008"
          ],
          "data": "0x00000000000000000000000000000000000000000000000000000000000000020000000000000000000000000000000000000000000000000000000000000060000000000000000000000000000000000000000000000000000000000000001400000000000000000000000000000000000000000000000000000000000000b9697066732f516d625577464752344254426836675a763653613854335a726a6f785a614234434c73517837314a50394a6a34482f30303030303030303030303030303030303030303030303030303030303030303030303030303030303030303030303030303030303030303030303030303038303030303030303030303030303030303030303030303030303030303030303030303030303030303030303030303030303030303030303030303030303030322e6a736f6e00000000000000",
          "blockHash": "0x28af316df61db6c8d4aff15c9db7cd35f6c80e8a3d28d0542f5e6068cd689aff",
          "blockNumber": "0x76a01d5",
          "transactionHash": "0x7ff7bde460f10f01404a1a19ea657692fe48361bbf65370a9c11900ea09e81b0",
          "transactionIndex": "0x11",
          "logIndex": "0x2a",
          "removed": false
        }
      ],
      "logsBloom": "0x00000000000000000000000000000000000000000000000000000000000000000000000000000000000000000000000000000000000080000000000000000000000000000000000000000000000000000000000000000000000000000800000000040000000000000000000000000000000000000000000000000000000080000080000000000000000000000000000000000000000000000000000000000000000000000000000000000000000000000000000000000000000000000000000040000004000000000000004000000000000000000000000000000000000000000000000000000000000000000000000000000000010000000000000000000000",
      "type": "0x2",
      "transactionHash": "0x7ff7bde460f10f01404a1a19ea657692fe48361bbf65370a9c11900ea09e81b0",
      "transactionIndex": "0x11",
      "blockHash": "0x28af316df61db6c8d4aff15c9db7cd35f6c80e8a3d28d0542f5e6068cd689aff",
      "blockNumber": "0x76a01d5",
      "gasUsed": "0x35b75",
      "effectiveGasPrice": "0x544ec",
      "from": "0x8835669696fb92839ab198cd80ce9f0d35f45ad5",
      "to": "0x972be3883862d85d726e01129e99c2a69b6529a6",
      "contractAddress": null,
      "l1BaseFeeScalar": "0x146b",
      "l1BlobBaseFee": "0x1",
      "l1BlobBaseFeeScalar": "0xf79c5",
      "l1Fee": "0x2e8dc64f2",
      "l1GasPrice": "0x3d28bada",
      "l1GasUsed": "0x91a"
    },
    {
      "status": "0x1",
      "cumulativeGasUsed": "0x4371fa",
      "logs": [
        {
          "address": "0x972be3883862d85d726e01129e99c2a69b6529a6",
          "topics": [
            "0x5625f15df4cbadf2e6e3f80e2406aec5d99a432335ef0e9a1fba9e48b0558303",
            "0x0000000000000000000000000000000000000000000000000000000000000008"
          ],
          "data": "0x00000000000000000000000000000000000000000000000000000000000000030000000000000000000000000000000000000000000000000000000000000060000000000000000000000000000000000000000000000000000000000000001e00000000000000000000000000000000000000000000000000000000000000b9697066732f516d625577464752344254426836675a763653613854335a726a6f785a614234434c73517837314a50394a6a34482f30303030303030303030303030303030303030303030303030303030303030303030303030303030303030303030303030303030303030303030303030303038303030303030303030303030303030303030303030303030303030303030303030303030303030303030303030303030303030303030303030303030303030332e6a736f6e00000000000000",
          "blockHash": "0x28af316df61db6c8d4aff15c9db7cd35f6c80e8a3d28d0542f5e6068cd689aff",
          "blockNumber": "0x76a01d5",
          "transactionHash": "0xf2ad8f6597303ce6c8d019a38afeb813bdd73acb9fd1dbf2cee1cd0d423e4a3a",
          "transactionIndex": "0x12",
          "logIndex": "0x2b",
          "removed": false
        }
      ],
      "logsBloom": "0x00000000000000000000000000000000000000000000000000000000000000000000000000000000000000000000000000000000000080000000000000000000000000000000000000000000000000000000000000000000000000000800000000040000000000000000000000000000000000000000000000000000000080000080000000000000000000000000000000000000000000000000000000000000000000000000000000000000000000000000000000000000000000000000000040000004000000000000004000000000000000000000000000000000000000000000000000000000000000000000000000000000010000000000000000000000",
      "type": "0x2",
      "transactionHash": "0xf2ad8f6597303ce6c8d019a38afeb813bdd73acb9fd1dbf2cee1cd0d423e4a3a",
      "transactionIndex": "0x12",
      "blockHash": "0x28af316df61db6c8d4aff15c9db7cd35f6c80e8a3d28d0542f5e6068cd689aff",
      "blockNumber": "0x76a01d5",
      "gasUsed": "0x35b75",
      "effectiveGasPrice": "0x544ec",
      "from": "0x8835669696fb92839ab198cd80ce9f0d35f45ad5",
      "to": "0x972be3883862d85d726e01129e99c2a69b6529a6",
      "contractAddress": null,
      "l1BaseFeeScalar": "0x146b",
      "l1BlobBaseFee": "0x1",
      "l1BlobBaseFeeScalar": "0xf79c5",
      "l1Fee": "0x2e8dc64f2",
      "l1GasPrice": "0x3d28bada",
      "l1GasUsed": "0x91a"
    },
    {
      "status": "0x1",
      "cumulativeGasUsed": "0x46cd6f",
      "logs": [
        {
          "address": "0x972be3883862d85d726e01129e99c2a69b6529a6",
          "topics": [
            "0x5625f15df4cbadf2e6e3f80e2406aec5d99a432335ef0e9a1fba9e48b0558303",
            "0x0000000000000000000000000000000000000000000000000000000000000008"
          ],
          "data": "0x00000000000000000000000000000000000000000000000000000000000000040000000000000000000000000000000000000000000000000000000000000060000000000000000000000000000000000000000000000000000000000000002800000000000000000000000000000000000000000000000000000000000000b9697066732f516d625577464752344254426836675a763653613854335a726a6f785a614234434c73517837314a50394a6a34482f30303030303030303030303030303030303030303030303030303030303030303030303030303030303030303030303030303030303030303030303030303038303030303030303030303030303030303030303030303030303030303030303030303030303030303030303030303030303030303030303030303030303030342e6a736f6e00000000000000",
          "blockHash": "0x28af316df61db6c8d4aff15c9db7cd35f6c80e8a3d28d0542f5e6068cd689aff",
          "blockNumber": "0x76a01d5",
          "transactionHash": "0x033128c309bdb0fb87c463851863bfd35dbc1f0539e244ae4b8322ee5ce999a3",
          "transactionIndex": "0x13",
          "logIndex": "0x2c",
          "removed": false
        }
      ],
      "logsBloom": "0x00000000000000000000000000000000000000000000000000000000000000000000000000000000000000000000000000000000000080000000000000000000000000000000000000000000000000000000000000000000000000000800000000040000000000000000000000000000000000000000000000000000000080000080000000000000000000000000000000000000000000000000000000000000000000000000000000000000000000000000000000000000000000000000000040000004000000000000004000000000000000000000000000000000000000000000000000000000000000000000000000000000010000000000000000000000",
      "type": "0x2",
      "transactionHash": "0x033128c309bdb0fb87c463851863bfd35dbc1f0539e244ae4b8322ee5ce999a3",
      "transactionIndex": "0x13",
      "blockHash": "0x28af316df61db6c8d4aff15c9db7cd35f6c80e8a3d28d0542f5e6068cd689aff",
      "blockNumber": "0x76a01d5",
      "gasUsed": "0x35b75",
      "effectiveGasPrice": "0x544ec",
      "from": "0x8835669696fb92839ab198cd80ce9f0d35f45ad5",
      "to": "0x972be3883862d85d726e01129e99c2a69b6529a6",
      "contractAddress": null,
      "l1BaseFeeScalar": "0x146b",
      "l1BlobBaseFee": "0x1",
      "l1BlobBaseFeeScalar": "0xf79c5",
      "l1Fee": "0x2e8dc64f2",
      "l1GasPrice": "0x3d28bada",
      "l1GasUsed": "0x91a"
    }
  ],
  "libraries": [],
  "pending": [],
  "returns": {},
  "timestamp": 1724374378,
  "chain": 10,
  "commit": "57e4483"
}